{
	"GymTokenSmartContracts/GymToken.sol": {
		"GymToken": {
			"abi": [
				{
					"inputs": [
						{
							"internalType": "address",
							"name": "manager",
							"type": "address"
						}
					],
					"stateMutability": "nonpayable",
					"type": "constructor"
				},
				{
					"inputs": [],
					"name": "AccessControlBadConfirmation",
					"type": "error"
				},
				{
					"inputs": [
						{
							"internalType": "address",
							"name": "account",
							"type": "address"
						},
						{
							"internalType": "bytes32",
							"name": "neededRole",
							"type": "bytes32"
						}
					],
					"name": "AccessControlUnauthorizedAccount",
					"type": "error"
				},
				{
					"inputs": [
						{
							"internalType": "address",
							"name": "spender",
							"type": "address"
						},
						{
							"internalType": "uint256",
							"name": "allowance",
							"type": "uint256"
						},
						{
							"internalType": "uint256",
							"name": "needed",
							"type": "uint256"
						}
					],
					"name": "ERC20InsufficientAllowance",
					"type": "error"
				},
				{
					"inputs": [
						{
							"internalType": "address",
							"name": "sender",
							"type": "address"
						},
						{
							"internalType": "uint256",
							"name": "balance",
							"type": "uint256"
						},
						{
							"internalType": "uint256",
							"name": "needed",
							"type": "uint256"
						}
					],
					"name": "ERC20InsufficientBalance",
					"type": "error"
				},
				{
					"inputs": [
						{
							"internalType": "address",
							"name": "approver",
							"type": "address"
						}
					],
					"name": "ERC20InvalidApprover",
					"type": "error"
				},
				{
					"inputs": [
						{
							"internalType": "address",
							"name": "receiver",
							"type": "address"
						}
					],
					"name": "ERC20InvalidReceiver",
					"type": "error"
				},
				{
					"inputs": [
						{
							"internalType": "address",
							"name": "sender",
							"type": "address"
						}
					],
					"name": "ERC20InvalidSender",
					"type": "error"
				},
				{
					"inputs": [
						{
							"internalType": "address",
							"name": "spender",
							"type": "address"
						}
					],
					"name": "ERC20InvalidSpender",
					"type": "error"
				},
				{
					"anonymous": false,
					"inputs": [
						{
							"indexed": true,
							"internalType": "address",
							"name": "owner",
							"type": "address"
						},
						{
							"indexed": true,
							"internalType": "address",
							"name": "spender",
							"type": "address"
						},
						{
							"indexed": false,
							"internalType": "uint256",
							"name": "value",
							"type": "uint256"
						}
					],
					"name": "Approval",
					"type": "event"
				},
				{
					"anonymous": false,
					"inputs": [
						{
							"indexed": true,
							"internalType": "address",
							"name": "member",
							"type": "address"
						},
						{
							"indexed": false,
							"internalType": "enum GymToken.MEMBERSHIP_TYPE",
							"name": "membershipType",
							"type": "uint8"
						},
						{
							"indexed": false,
							"internalType": "uint256",
							"name": "duration",
							"type": "uint256"
						}
					],
					"name": "MembershipPurchased",
					"type": "event"
				},
				{
					"anonymous": false,
					"inputs": [
						{
							"indexed": false,
							"internalType": "address",
							"name": "account",
							"type": "address"
						}
					],
					"name": "Paused",
					"type": "event"
				},
				{
					"anonymous": false,
					"inputs": [
						{
							"indexed": true,
							"internalType": "address",
							"name": "referrer",
							"type": "address"
						},
						{
							"indexed": false,
							"internalType": "uint256",
							"name": "amount",
							"type": "uint256"
						}
					],
					"name": "ReferralRewarded",
					"type": "event"
				},
				{
					"anonymous": false,
					"inputs": [
						{
							"indexed": true,
							"internalType": "bytes32",
							"name": "role",
							"type": "bytes32"
						},
						{
							"indexed": true,
							"internalType": "bytes32",
							"name": "previousAdminRole",
							"type": "bytes32"
						},
						{
							"indexed": true,
							"internalType": "bytes32",
							"name": "newAdminRole",
							"type": "bytes32"
						}
					],
					"name": "RoleAdminChanged",
					"type": "event"
				},
				{
					"anonymous": false,
					"inputs": [
						{
							"indexed": true,
							"internalType": "bytes32",
							"name": "role",
							"type": "bytes32"
						},
						{
							"indexed": true,
							"internalType": "address",
							"name": "account",
							"type": "address"
						},
						{
							"indexed": true,
							"internalType": "address",
							"name": "sender",
							"type": "address"
						}
					],
					"name": "RoleGranted",
					"type": "event"
				},
				{
					"anonymous": false,
					"inputs": [
						{
							"indexed": true,
							"internalType": "bytes32",
							"name": "role",
							"type": "bytes32"
						},
						{
							"indexed": true,
							"internalType": "address",
							"name": "account",
							"type": "address"
						},
						{
							"indexed": true,
							"internalType": "address",
							"name": "sender",
							"type": "address"
						}
					],
					"name": "RoleRevoked",
					"type": "event"
				},
				{
					"anonymous": false,
					"inputs": [
						{
							"indexed": true,
							"internalType": "address",
							"name": "staff",
							"type": "address"
						},
						{
							"indexed": false,
							"internalType": "uint256",
							"name": "amount",
							"type": "uint256"
						}
					],
					"name": "StaffPaid",
					"type": "event"
				},
				{
					"anonymous": false,
					"inputs": [
						{
							"indexed": true,
							"internalType": "address",
							"name": "from",
							"type": "address"
						},
						{
							"indexed": true,
							"internalType": "address",
							"name": "to",
							"type": "address"
						},
						{
							"indexed": false,
							"internalType": "uint256",
							"name": "value",
							"type": "uint256"
						}
					],
					"name": "Transfer",
					"type": "event"
				},
				{
					"anonymous": false,
					"inputs": [
						{
							"indexed": false,
							"internalType": "address",
							"name": "account",
							"type": "address"
						}
					],
					"name": "Unpaused",
					"type": "event"
				},
				{
					"inputs": [],
					"name": "DEFAULT_ADMIN_ROLE",
					"outputs": [
						{
							"internalType": "bytes32",
							"name": "",
							"type": "bytes32"
						}
					],
					"stateMutability": "view",
					"type": "function"
				},
				{
					"inputs": [],
					"name": "INITIAL_SUPPLY",
					"outputs": [
						{
							"internalType": "uint256",
							"name": "",
							"type": "uint256"
						}
					],
					"stateMutability": "view",
					"type": "function"
				},
				{
					"inputs": [],
					"name": "MANAGER_ROLE",
					"outputs": [
						{
							"internalType": "bytes32",
							"name": "",
							"type": "bytes32"
						}
					],
					"stateMutability": "view",
					"type": "function"
				},
				{
					"inputs": [],
					"name": "MEMBER_ROLE",
					"outputs": [
						{
							"internalType": "bytes32",
							"name": "",
							"type": "bytes32"
						}
					],
					"stateMutability": "view",
					"type": "function"
				},
				{
					"inputs": [],
					"name": "REFERRAL_REWARD",
					"outputs": [
						{
							"internalType": "uint256",
							"name": "",
							"type": "uint256"
						}
					],
					"stateMutability": "view",
					"type": "function"
				},
				{
					"inputs": [],
					"name": "STAFF_ROLE",
					"outputs": [
						{
							"internalType": "bytes32",
							"name": "",
							"type": "bytes32"
						}
					],
					"stateMutability": "view",
					"type": "function"
				},
				{
					"inputs": [],
					"name": "TRAINER_ROLE",
					"outputs": [
						{
							"internalType": "bytes32",
							"name": "",
							"type": "bytes32"
						}
					],
					"stateMutability": "view",
					"type": "function"
				},
				{
					"inputs": [
						{
							"internalType": "address",
							"name": "owner",
							"type": "address"
						},
						{
							"internalType": "address",
							"name": "spender",
							"type": "address"
						}
					],
					"name": "allowance",
					"outputs": [
						{
							"internalType": "uint256",
							"name": "",
							"type": "uint256"
						}
					],
					"stateMutability": "view",
					"type": "function"
				},
				{
					"inputs": [
						{
							"internalType": "address",
							"name": "spender",
							"type": "address"
						},
						{
							"internalType": "uint256",
							"name": "value",
							"type": "uint256"
						}
					],
					"name": "approve",
					"outputs": [
						{
							"internalType": "bool",
							"name": "",
							"type": "bool"
						}
					],
					"stateMutability": "nonpayable",
					"type": "function"
				},
				{
					"inputs": [
						{
							"internalType": "address",
							"name": "account",
							"type": "address"
						}
					],
					"name": "balanceOf",
					"outputs": [
						{
							"internalType": "uint256",
							"name": "",
							"type": "uint256"
						}
					],
					"stateMutability": "view",
					"type": "function"
				},
				{
					"inputs": [],
					"name": "decimal",
					"outputs": [
						{
							"internalType": "uint8",
							"name": "",
							"type": "uint8"
						}
					],
					"stateMutability": "view",
					"type": "function"
				},
				{
					"inputs": [],
					"name": "decimals",
					"outputs": [
						{
							"internalType": "uint8",
							"name": "",
							"type": "uint8"
						}
					],
					"stateMutability": "view",
					"type": "function"
				},
				{
					"inputs": [
						{
							"internalType": "address",
							"name": "member",
							"type": "address"
						}
					],
					"name": "getRemainingMembershipTime",
					"outputs": [
						{
							"internalType": "uint256",
							"name": "",
							"type": "uint256"
						}
					],
					"stateMutability": "view",
					"type": "function"
				},
				{
					"inputs": [
						{
							"internalType": "bytes32",
							"name": "role",
							"type": "bytes32"
						}
					],
					"name": "getRoleAdmin",
					"outputs": [
						{
							"internalType": "bytes32",
							"name": "",
							"type": "bytes32"
						}
					],
					"stateMutability": "view",
					"type": "function"
				},
				{
					"inputs": [
						{
							"internalType": "bytes32",
							"name": "role",
							"type": "bytes32"
						},
						{
							"internalType": "address",
							"name": "account",
							"type": "address"
						}
					],
					"name": "grantRole",
					"outputs": [],
					"stateMutability": "nonpayable",
					"type": "function"
				},
				{
					"inputs": [
						{
							"internalType": "bytes32",
							"name": "role",
							"type": "bytes32"
						},
						{
							"internalType": "address",
							"name": "account",
							"type": "address"
						}
					],
					"name": "hasRole",
					"outputs": [
						{
							"internalType": "bool",
							"name": "",
							"type": "bool"
						}
					],
					"stateMutability": "view",
					"type": "function"
				},
				{
					"inputs": [
						{
							"internalType": "address",
							"name": "",
							"type": "address"
						}
					],
					"name": "membershipExpiry",
					"outputs": [
						{
							"internalType": "uint256",
							"name": "",
							"type": "uint256"
						}
					],
					"stateMutability": "view",
					"type": "function"
				},
				{
					"inputs": [
						{
							"internalType": "enum GymToken.MEMBERSHIP_TYPE",
							"name": "",
							"type": "uint8"
						}
					],
					"name": "membershipPrices",
					"outputs": [
						{
							"internalType": "uint256",
							"name": "",
							"type": "uint256"
						}
					],
					"stateMutability": "view",
					"type": "function"
				},
				{
					"inputs": [],
					"name": "name",
					"outputs": [
						{
							"internalType": "string",
							"name": "",
							"type": "string"
						}
					],
					"stateMutability": "view",
					"type": "function"
				},
				{
					"inputs": [],
					"name": "pause",
					"outputs": [],
					"stateMutability": "nonpayable",
					"type": "function"
				},
				{
					"inputs": [],
					"name": "paused",
					"outputs": [
						{
							"internalType": "bool",
							"name": "",
							"type": "bool"
						}
					],
					"stateMutability": "view",
					"type": "function"
				},
				{
					"inputs": [
						{
							"internalType": "address",
							"name": "staff",
							"type": "address"
						},
						{
							"internalType": "uint256",
							"name": "amount",
							"type": "uint256"
						}
					],
					"name": "payStaff",
					"outputs": [],
					"stateMutability": "nonpayable",
					"type": "function"
				},
				{
					"inputs": [
						{
							"internalType": "enum GymToken.MEMBERSHIP_TYPE",
							"name": "membershipType",
							"type": "uint8"
						}
					],
					"name": "purchaseMembership",
					"outputs": [],
					"stateMutability": "nonpayable",
					"type": "function"
				},
				{
					"inputs": [
						{
							"internalType": "address",
							"name": "",
							"type": "address"
						}
					],
					"name": "referralBonuses",
					"outputs": [
						{
							"internalType": "uint256",
							"name": "",
							"type": "uint256"
						}
					],
					"stateMutability": "view",
					"type": "function"
				},
				{
					"inputs": [
						{
							"internalType": "bytes32",
							"name": "role",
							"type": "bytes32"
						},
						{
							"internalType": "address",
							"name": "callerConfirmation",
							"type": "address"
						}
					],
					"name": "renounceRole",
					"outputs": [],
					"stateMutability": "nonpayable",
					"type": "function"
				},
				{
					"inputs": [
						{
							"internalType": "bytes32",
							"name": "role",
							"type": "bytes32"
						},
						{
							"internalType": "address",
							"name": "account",
							"type": "address"
						}
					],
					"name": "revokeRole",
					"outputs": [],
					"stateMutability": "nonpayable",
					"type": "function"
				},
				{
					"inputs": [
						{
							"internalType": "address",
							"name": "referrer",
							"type": "address"
						}
					],
					"name": "rewardReferral",
					"outputs": [],
					"stateMutability": "nonpayable",
					"type": "function"
				},
				{
					"inputs": [
						{
							"internalType": "bytes4",
							"name": "interfaceId",
							"type": "bytes4"
						}
					],
					"name": "supportsInterface",
					"outputs": [
						{
							"internalType": "bool",
							"name": "",
							"type": "bool"
						}
					],
					"stateMutability": "view",
					"type": "function"
				},
				{
					"inputs": [],
					"name": "symbol",
					"outputs": [
						{
							"internalType": "string",
							"name": "",
							"type": "string"
						}
					],
					"stateMutability": "view",
					"type": "function"
				},
				{
					"inputs": [],
					"name": "totalSupply",
					"outputs": [
						{
							"internalType": "uint256",
							"name": "",
							"type": "uint256"
						}
					],
					"stateMutability": "view",
					"type": "function"
				},
				{
					"inputs": [
						{
							"internalType": "address",
							"name": "to",
							"type": "address"
						},
						{
							"internalType": "uint256",
							"name": "value",
							"type": "uint256"
						}
					],
					"name": "transfer",
					"outputs": [
						{
							"internalType": "bool",
							"name": "",
							"type": "bool"
						}
					],
					"stateMutability": "nonpayable",
					"type": "function"
				},
				{
					"inputs": [
						{
							"internalType": "address",
							"name": "from",
							"type": "address"
						},
						{
							"internalType": "address",
							"name": "to",
							"type": "address"
						},
						{
							"internalType": "uint256",
							"name": "value",
							"type": "uint256"
						}
					],
					"name": "transferFrom",
					"outputs": [
						{
							"internalType": "bool",
							"name": "",
							"type": "bool"
						}
					],
					"stateMutability": "nonpayable",
					"type": "function"
				},
				{
					"inputs": [],
					"name": "unpause",
					"outputs": [],
					"stateMutability": "nonpayable",
					"type": "function"
				}
			],
			"devdoc": {
				"errors": {
					"AccessControlBadConfirmation()": [
						{
							"details": "The caller of a function is not the expected one. NOTE: Don't confuse with {AccessControlUnauthorizedAccount}."
						}
					],
					"AccessControlUnauthorizedAccount(address,bytes32)": [
						{
							"details": "The `account` is missing a role."
						}
					],
					"ERC20InsufficientAllowance(address,uint256,uint256)": [
						{
							"details": "Indicates a failure with the `spender`’s `allowance`. Used in transfers.",
							"params": {
								"allowance": "Amount of tokens a `spender` is allowed to operate with.",
								"needed": "Minimum amount required to perform a transfer.",
								"spender": "Address that may be allowed to operate on tokens without being their owner."
							}
						}
					],
					"ERC20InsufficientBalance(address,uint256,uint256)": [
						{
							"details": "Indicates an error related to the current `balance` of a `sender`. Used in transfers.",
							"params": {
								"balance": "Current balance for the interacting account.",
								"needed": "Minimum amount required to perform a transfer.",
								"sender": "Address whose tokens are being transferred."
							}
						}
					],
					"ERC20InvalidApprover(address)": [
						{
							"details": "Indicates a failure with the `approver` of a token to be approved. Used in approvals.",
							"params": {
								"approver": "Address initiating an approval operation."
							}
						}
					],
					"ERC20InvalidReceiver(address)": [
						{
							"details": "Indicates a failure with the token `receiver`. Used in transfers.",
							"params": {
								"receiver": "Address to which tokens are being transferred."
							}
						}
					],
					"ERC20InvalidSender(address)": [
						{
							"details": "Indicates a failure with the token `sender`. Used in transfers.",
							"params": {
								"sender": "Address whose tokens are being transferred."
							}
						}
					],
					"ERC20InvalidSpender(address)": [
						{
							"details": "Indicates a failure with the `spender` to be approved. Used in approvals.",
							"params": {
								"spender": "Address that may be allowed to operate on tokens without being their owner."
							}
						}
					]
				},
				"events": {
					"Approval(address,address,uint256)": {
						"details": "Emitted when the allowance of a `spender` for an `owner` is set by a call to {approve}. `value` is the new allowance."
					},
					"Paused(address)": {
						"details": "Emitted when the pause is triggered by `account`."
					},
					"RoleAdminChanged(bytes32,bytes32,bytes32)": {
						"details": "Emitted when `newAdminRole` is set as ``role``'s admin role, replacing `previousAdminRole` `DEFAULT_ADMIN_ROLE` is the starting admin for all roles, despite {RoleAdminChanged} not being emitted signaling this."
					},
					"RoleGranted(bytes32,address,address)": {
						"details": "Emitted when `account` is granted `role`. `sender` is the account that originated the contract call. This account bears the admin role (for the granted role). Expected in cases where the role was granted using the internal {AccessControl-_grantRole}."
					},
					"RoleRevoked(bytes32,address,address)": {
						"details": "Emitted when `account` is revoked `role`. `sender` is the account that originated the contract call:   - if using `revokeRole`, it is the admin role bearer   - if using `renounceRole`, it is the role bearer (i.e. `account`)"
					},
					"Transfer(address,address,uint256)": {
						"details": "Emitted when `value` tokens are moved from one account (`from`) to another (`to`). Note that `value` may be zero."
					},
					"Unpaused(address)": {
						"details": "Emitted when the pause is lifted by `account`."
					}
				},
				"kind": "dev",
				"methods": {
					"allowance(address,address)": {
						"details": "See {IERC20-allowance}."
					},
					"approve(address,uint256)": {
						"details": "See {IERC20-approve}. NOTE: If `value` is the maximum `uint256`, the allowance is not updated on `transferFrom`. This is semantically equivalent to an infinite approval. Requirements: - `spender` cannot be the zero address."
					},
					"balanceOf(address)": {
						"details": "See {IERC20-balanceOf}."
					},
					"decimals()": {
						"details": "Returns the number of decimals used to get its user representation. For example, if `decimals` equals `2`, a balance of `505` tokens should be displayed to a user as `5.05` (`505 / 10 ** 2`). Tokens usually opt for a value of 18, imitating the relationship between Ether and Wei. This is the default value returned by this function, unless it's overridden. NOTE: This information is only used for _display_ purposes: it in no way affects any of the arithmetic of the contract, including {IERC20-balanceOf} and {IERC20-transfer}."
					},
					"getRoleAdmin(bytes32)": {
						"details": "Returns the admin role that controls `role`. See {grantRole} and {revokeRole}. To change a role's admin, use {_setRoleAdmin}."
					},
					"grantRole(bytes32,address)": {
						"details": "Grants `role` to `account`. If `account` had not been already granted `role`, emits a {RoleGranted} event. Requirements: - the caller must have ``role``'s admin role. May emit a {RoleGranted} event."
					},
					"hasRole(bytes32,address)": {
						"details": "Returns `true` if `account` has been granted `role`."
					},
					"name()": {
						"details": "Returns the name of the token."
					},
					"paused()": {
						"details": "Returns true if the contract is paused, and false otherwise."
					},
					"renounceRole(bytes32,address)": {
						"details": "Revokes `role` from the calling account. Roles are often managed via {grantRole} and {revokeRole}: this function's purpose is to provide a mechanism for accounts to lose their privileges if they are compromised (such as when a trusted device is misplaced). If the calling account had been revoked `role`, emits a {RoleRevoked} event. Requirements: - the caller must be `callerConfirmation`. May emit a {RoleRevoked} event."
					},
					"revokeRole(bytes32,address)": {
						"details": "Revokes `role` from `account`. If `account` had been granted `role`, emits a {RoleRevoked} event. Requirements: - the caller must have ``role``'s admin role. May emit a {RoleRevoked} event."
					},
					"supportsInterface(bytes4)": {
						"details": "See {IERC165-supportsInterface}."
					},
					"symbol()": {
						"details": "Returns the symbol of the token, usually a shorter version of the name."
					},
					"totalSupply()": {
						"details": "See {IERC20-totalSupply}."
					},
					"transfer(address,uint256)": {
						"details": "See {IERC20-transfer}. Requirements: - `to` cannot be the zero address. - the caller must have a balance of at least `value`."
					},
					"transferFrom(address,address,uint256)": {
						"details": "See {IERC20-transferFrom}. Skips emitting an {Approval} event indicating an allowance update. This is not required by the ERC. See {xref-ERC20-_approve-address-address-uint256-bool-}[_approve]. NOTE: Does not update the allowance if the current allowance is the maximum `uint256`. Requirements: - `from` and `to` cannot be the zero address. - `from` must have a balance of at least `value`. - the caller must have allowance for ``from``'s tokens of at least `value`."
					}
				},
				"version": 1
			},
			"evm": {
				"assembly": "    /* \"GymTokenSmartContracts/GymToken.sol\":230:4910  contract GymToken is ERC20, Pausable, AccessControl {... */\n  mstore(0x40, 0x80)\n    /* \"GymTokenSmartContracts/GymToken.sol\":1398:2040  constructor(address manager) ERC20(\"GymToken\", \"GYM\") {... */\n  callvalue\n  dup1\n  iszero\n  tag_1\n  jumpi\n  revert(0x00, 0x00)\ntag_1:\n  pop\n  mload(0x40)\n  sub(codesize, bytecodeSize)\n  dup1\n  bytecodeSize\n  dup4\n  codecopy\n  dup2\n  dup2\n  add\n  0x40\n  mstore\n  dup2\n  add\n  swap1\n  tag_2\n  swap2\n  swap1\n  tag_3\n  jump\t// in\ntag_2:\n    /* \"@openzeppelin/contracts/token/ERC20/ERC20.sol\":1601:1714  constructor(string memory name_, string memory symbol_) {... */\n  mload(0x40)\n  dup1\n  0x40\n  add\n  0x40\n  mstore\n  dup1\n  0x08\n  dup2\n  mstore\n  0x20\n  add\n  0x47796d546f6b656e000000000000000000000000000000000000000000000000\n  dup2\n  mstore\n  pop\n  mload(0x40)\n  dup1\n  0x40\n  add\n  0x40\n  mstore\n  dup1\n  0x03\n  dup2\n  mstore\n  0x20\n  add\n  0x47594d0000000000000000000000000000000000000000000000000000000000\n  dup2\n  mstore\n  pop\n    /* \"@openzeppelin/contracts/token/ERC20/ERC20.sol\":1675:1680  name_ */\n  dup2\n    /* \"@openzeppelin/contracts/token/ERC20/ERC20.sol\":1667:1672  _name */\n  0x03\n    /* \"@openzeppelin/contracts/token/ERC20/ERC20.sol\":1667:1680  _name = name_ */\n  swap1\n  dup2\n  tag_8\n  swap2\n  swap1\n  tag_9\n  jump\t// in\ntag_8:\n  pop\n    /* \"@openzeppelin/contracts/token/ERC20/ERC20.sol\":1700:1707  symbol_ */\n  dup1\n    /* \"@openzeppelin/contracts/token/ERC20/ERC20.sol\":1690:1697  _symbol */\n  0x04\n    /* \"@openzeppelin/contracts/token/ERC20/ERC20.sol\":1690:1707  _symbol = symbol_ */\n  swap1\n  dup2\n  tag_10\n  swap2\n  swap1\n  tag_9\n  jump\t// in\ntag_10:\n  pop\n    /* \"@openzeppelin/contracts/token/ERC20/ERC20.sol\":1601:1714  constructor(string memory name_, string memory symbol_) {... */\n  pop\n  pop\n    /* \"@openzeppelin/contracts/security/Pausable.sol\":1006:1011  false */\n  0x00\n    /* \"@openzeppelin/contracts/security/Pausable.sol\":996:1003  _paused */\n  0x05\n  0x00\n    /* \"@openzeppelin/contracts/security/Pausable.sol\":996:1011  _paused = false */\n  0x0100\n  exp\n  dup2\n  sload\n  dup2\n  0xff\n  mul\n  not\n  and\n  swap1\n  dup4\n  iszero\n  iszero\n  mul\n  or\n  swap1\n  sstore\n  pop\n    /* \"GymTokenSmartContracts/GymToken.sol\":1521:1560  _grantRole(DEFAULT_ADMIN_ROLE, manager) */\n  tag_13\n    /* \"@openzeppelin/contracts/access/AccessControl.sol\":2232:2236  0x00 */\n  0x00\n    /* \"GymTokenSmartContracts/GymToken.sol\":1532:1550  DEFAULT_ADMIN_ROLE */\n  0x00\n  shl\n    /* \"GymTokenSmartContracts/GymToken.sol\":1552:1559  manager */\n  dup3\n    /* \"GymTokenSmartContracts/GymToken.sol\":1521:1531  _grantRole */\n  shl(0x20, tag_14)\n    /* \"GymTokenSmartContracts/GymToken.sol\":1521:1560  _grantRole(DEFAULT_ADMIN_ROLE, manager) */\n  0x20\n  shr\n  jump\t// in\ntag_13:\n  pop\n    /* \"GymTokenSmartContracts/GymToken.sol\":1570:1603  _grantRole(MANAGER_ROLE, manager) */\n  tag_15\n    /* \"GymTokenSmartContracts/GymToken.sol\":439:464  keccak256(\"MANAGER_ROLE\") */\n  0x241ecf16d79d0f8dbfb92cbc07fe17840425976cf0667f022fe9877caa831b08\n    /* \"GymTokenSmartContracts/GymToken.sol\":1595:1602  manager */\n  dup3\n    /* \"GymTokenSmartContracts/GymToken.sol\":1570:1580  _grantRole */\n  shl(0x20, tag_14)\n    /* \"GymTokenSmartContracts/GymToken.sol\":1570:1603  _grantRole(MANAGER_ROLE, manager) */\n  0x20\n  shr\n  jump\t// in\ntag_15:\n  pop\n    /* \"GymTokenSmartContracts/GymToken.sol\":320:321  2 */\n  0x02\n    /* \"GymTokenSmartContracts/GymToken.sol\":1712:1714  10 */\n  0x0a\n    /* \"GymTokenSmartContracts/GymToken.sol\":1712:1723  10**decimal */\n  tag_16\n  swap2\n  swap1\n  tag_17\n  jump\t// in\ntag_16:\n    /* \"GymTokenSmartContracts/GymToken.sol\":1706:1708  50 */\n  0x32\n    /* \"GymTokenSmartContracts/GymToken.sol\":1706:1724  50 * (10**decimal) */\n  tag_18\n  swap2\n  swap1\n  tag_19\n  jump\t// in\ntag_18:\n    /* \"GymTokenSmartContracts/GymToken.sol\":1662:1678  membershipPrices */\n  0x07\n    /* \"GymTokenSmartContracts/GymToken.sol\":1662:1703  membershipPrices[MEMBERSHIP_TYPE.Monthly] */\n  0x00\n    /* \"GymTokenSmartContracts/GymToken.sol\":1679:1702  MEMBERSHIP_TYPE.Monthly */\n  0x00\n    /* \"GymTokenSmartContracts/GymToken.sol\":1662:1703  membershipPrices[MEMBERSHIP_TYPE.Monthly] */\n  0x02\n  dup2\n  gt\n  iszero\n  tag_20\n  jumpi\n  tag_21\n  tag_22\n  jump\t// in\ntag_21:\ntag_20:\n  0x02\n  dup2\n  gt\n  iszero\n  tag_23\n  jumpi\n  tag_24\n  tag_22\n  jump\t// in\ntag_24:\ntag_23:\n  dup2\n  mstore\n  0x20\n  add\n  swap1\n  dup2\n  mstore\n  0x20\n  add\n  0x00\n  keccak256\n    /* \"GymTokenSmartContracts/GymToken.sol\":1662:1724  membershipPrices[MEMBERSHIP_TYPE.Monthly] = 50 * (10**decimal) */\n  dup2\n  swap1\n  sstore\n  pop\n    /* \"GymTokenSmartContracts/GymToken.sol\":320:321  2 */\n  0x02\n    /* \"GymTokenSmartContracts/GymToken.sol\":1810:1812  10 */\n  0x0a\n    /* \"GymTokenSmartContracts/GymToken.sol\":1810:1821  10**decimal */\n  tag_25\n  swap2\n  swap1\n  tag_17\n  jump\t// in\ntag_25:\n    /* \"GymTokenSmartContracts/GymToken.sol\":1803:1806  140 */\n  0x8c\n    /* \"GymTokenSmartContracts/GymToken.sol\":1803:1822  140 * (10**decimal) */\n  tag_26\n  swap2\n  swap1\n  tag_19\n  jump\t// in\ntag_26:\n    /* \"GymTokenSmartContracts/GymToken.sol\":1757:1773  membershipPrices */\n  0x07\n    /* \"GymTokenSmartContracts/GymToken.sol\":1757:1800  membershipPrices[MEMBERSHIP_TYPE.Quarterly] */\n  0x00\n    /* \"GymTokenSmartContracts/GymToken.sol\":1774:1799  MEMBERSHIP_TYPE.Quarterly */\n  0x01\n    /* \"GymTokenSmartContracts/GymToken.sol\":1757:1800  membershipPrices[MEMBERSHIP_TYPE.Quarterly] */\n  0x02\n  dup2\n  gt\n  iszero\n  tag_27\n  jumpi\n  tag_28\n  tag_22\n  jump\t// in\ntag_28:\ntag_27:\n  0x02\n  dup2\n  gt\n  iszero\n  tag_29\n  jumpi\n  tag_30\n  tag_22\n  jump\t// in\ntag_30:\ntag_29:\n  dup2\n  mstore\n  0x20\n  add\n  swap1\n  dup2\n  mstore\n  0x20\n  add\n  0x00\n  keccak256\n    /* \"GymTokenSmartContracts/GymToken.sol\":1757:1822  membershipPrices[MEMBERSHIP_TYPE.Quarterly] = 140 * (10**decimal) */\n  dup2\n  swap1\n  sstore\n  pop\n    /* \"GymTokenSmartContracts/GymToken.sol\":320:321  2 */\n  0x02\n    /* \"GymTokenSmartContracts/GymToken.sol\":1903:1905  10 */\n  0x0a\n    /* \"GymTokenSmartContracts/GymToken.sol\":1903:1914  10**decimal */\n  tag_31\n  swap2\n  swap1\n  tag_17\n  jump\t// in\ntag_31:\n    /* \"GymTokenSmartContracts/GymToken.sol\":1896:1899  500 */\n  0x01f4\n    /* \"GymTokenSmartContracts/GymToken.sol\":1896:1915  500 * (10**decimal) */\n  tag_32\n  swap2\n  swap1\n  tag_19\n  jump\t// in\ntag_32:\n    /* \"GymTokenSmartContracts/GymToken.sol\":1853:1869  membershipPrices */\n  0x07\n    /* \"GymTokenSmartContracts/GymToken.sol\":1853:1893  membershipPrices[MEMBERSHIP_TYPE.Annual] */\n  0x00\n    /* \"GymTokenSmartContracts/GymToken.sol\":1870:1892  MEMBERSHIP_TYPE.Annual */\n  0x02\n    /* \"GymTokenSmartContracts/GymToken.sol\":1853:1893  membershipPrices[MEMBERSHIP_TYPE.Annual] */\n  dup1\n  dup2\n  gt\n  iszero\n  tag_33\n  jumpi\n  tag_34\n  tag_22\n  jump\t// in\ntag_34:\ntag_33:\n  0x02\n  dup2\n  gt\n  iszero\n  tag_35\n  jumpi\n  tag_36\n  tag_22\n  jump\t// in\ntag_36:\ntag_35:\n  dup2\n  mstore\n  0x20\n  add\n  swap1\n  dup2\n  mstore\n  0x20\n  add\n  0x00\n  keccak256\n    /* \"GymTokenSmartContracts/GymToken.sol\":1853:1915  membershipPrices[MEMBERSHIP_TYPE.Annual] = 500 * (10**decimal) */\n  dup2\n  swap1\n  sstore\n  pop\n    /* \"GymTokenSmartContracts/GymToken.sol\":2002:2032  _mint(manager, INITIAL_SUPPLY) */\n  tag_37\n    /* \"GymTokenSmartContracts/GymToken.sol\":2008:2015  manager */\n  dup2\n    /* \"GymTokenSmartContracts/GymToken.sol\":320:321  2 */\n  0x02\n    /* \"GymTokenSmartContracts/GymToken.sol\":379:381  10 */\n  0x0a\n    /* \"GymTokenSmartContracts/GymToken.sol\":379:392  10 ** decimal */\n  tag_38\n  swap2\n  swap1\n  tag_17\n  jump\t// in\ntag_38:\n    /* \"GymTokenSmartContracts/GymToken.sol\":368:375  1000000 */\n  0x0f4240\n    /* \"GymTokenSmartContracts/GymToken.sol\":368:393  1000000 * (10 ** decimal) */\n  tag_39\n  swap2\n  swap1\n  tag_19\n  jump\t// in\ntag_39:\n    /* \"GymTokenSmartContracts/GymToken.sol\":2002:2007  _mint */\n  shl(0x20, tag_40)\n    /* \"GymTokenSmartContracts/GymToken.sol\":2002:2032  _mint(manager, INITIAL_SUPPLY) */\n  0x20\n  shr\n  jump\t// in\ntag_37:\n    /* \"GymTokenSmartContracts/GymToken.sol\":1398:2040  constructor(address manager) ERC20(\"GymToken\", \"GYM\") {... */\n  pop\n    /* \"GymTokenSmartContracts/GymToken.sol\":230:4910  contract GymToken is ERC20, Pausable, AccessControl {... */\n  jump(tag_41)\n    /* \"@openzeppelin/contracts/access/AccessControl.sol\":6179:6495  function _grantRole(bytes32 role, address account) internal virtual returns (bool) {... */\ntag_14:\n    /* \"@openzeppelin/contracts/access/AccessControl.sol\":6256:6260  bool */\n  0x00\n    /* \"@openzeppelin/contracts/access/AccessControl.sol\":6277:6299  hasRole(role, account) */\n  tag_43\n    /* \"@openzeppelin/contracts/access/AccessControl.sol\":6285:6289  role */\n  dup4\n    /* \"@openzeppelin/contracts/access/AccessControl.sol\":6291:6298  account */\n  dup4\n    /* \"@openzeppelin/contracts/access/AccessControl.sol\":6277:6284  hasRole */\n  shl(0x20, tag_44)\n    /* \"@openzeppelin/contracts/access/AccessControl.sol\":6277:6299  hasRole(role, account) */\n  0x20\n  shr\n  jump\t// in\ntag_43:\n    /* \"@openzeppelin/contracts/access/AccessControl.sol\":6272:6489  if (!hasRole(role, account)) {... */\n  tag_45\n  jumpi\n    /* \"@openzeppelin/contracts/access/AccessControl.sol\":6347:6351  true */\n  0x01\n    /* \"@openzeppelin/contracts/access/AccessControl.sol\":6315:6321  _roles */\n  0x06\n    /* \"@openzeppelin/contracts/access/AccessControl.sol\":6315:6327  _roles[role] */\n  0x00\n    /* \"@openzeppelin/contracts/access/AccessControl.sol\":6322:6326  role */\n  dup6\n    /* \"@openzeppelin/contracts/access/AccessControl.sol\":6315:6327  _roles[role] */\n  dup2\n  mstore\n  0x20\n  add\n  swap1\n  dup2\n  mstore\n  0x20\n  add\n  0x00\n  keccak256\n    /* \"@openzeppelin/contracts/access/AccessControl.sol\":6315:6335  _roles[role].hasRole */\n  0x00\n  add\n    /* \"@openzeppelin/contracts/access/AccessControl.sol\":6315:6344  _roles[role].hasRole[account] */\n  0x00\n    /* \"@openzeppelin/contracts/access/AccessControl.sol\":6336:6343  account */\n  dup5\n    /* \"@openzeppelin/contracts/access/AccessControl.sol\":6315:6344  _roles[role].hasRole[account] */\n  0xffffffffffffffffffffffffffffffffffffffff\n  and\n  0xffffffffffffffffffffffffffffffffffffffff\n  and\n  dup2\n  mstore\n  0x20\n  add\n  swap1\n  dup2\n  mstore\n  0x20\n  add\n  0x00\n  keccak256\n  0x00\n    /* \"@openzeppelin/contracts/access/AccessControl.sol\":6315:6351  _roles[role].hasRole[account] = true */\n  0x0100\n  exp\n  dup2\n  sload\n  dup2\n  0xff\n  mul\n  not\n  and\n  swap1\n  dup4\n  iszero\n  iszero\n  mul\n  or\n  swap1\n  sstore\n  pop\n    /* \"@openzeppelin/contracts/access/AccessControl.sol\":6397:6409  _msgSender() */\n  tag_46\n    /* \"@openzeppelin/contracts/access/AccessControl.sol\":6397:6407  _msgSender */\n  shl(0x20, tag_47)\n    /* \"@openzeppelin/contracts/access/AccessControl.sol\":6397:6409  _msgSender() */\n  0x20\n  shr\n  jump\t// in\ntag_46:\n    /* \"@openzeppelin/contracts/access/AccessControl.sol\":6370:6410  RoleGranted(role, account, _msgSender()) */\n  0xffffffffffffffffffffffffffffffffffffffff\n  and\n    /* \"@openzeppelin/contracts/access/AccessControl.sol\":6388:6395  account */\n  dup3\n    /* \"@openzeppelin/contracts/access/AccessControl.sol\":6370:6410  RoleGranted(role, account, _msgSender()) */\n  0xffffffffffffffffffffffffffffffffffffffff\n  and\n    /* \"@openzeppelin/contracts/access/AccessControl.sol\":6382:6386  role */\n  dup5\n    /* \"@openzeppelin/contracts/access/AccessControl.sol\":6370:6410  RoleGranted(role, account, _msgSender()) */\n  0x2f8788117e7eff1d82e926ec794901d17c78024a50270940304540a733656f0d\n  mload(0x40)\n  mload(0x40)\n  dup1\n  swap2\n  sub\n  swap1\n  log4\n    /* \"@openzeppelin/contracts/access/AccessControl.sol\":6431:6435  true */\n  0x01\n    /* \"@openzeppelin/contracts/access/AccessControl.sol\":6424:6435  return true */\n  swap1\n  pop\n  jump(tag_42)\n    /* \"@openzeppelin/contracts/access/AccessControl.sol\":6272:6489  if (!hasRole(role, account)) {... */\ntag_45:\n    /* \"@openzeppelin/contracts/access/AccessControl.sol\":6473:6478  false */\n  0x00\n    /* \"@openzeppelin/contracts/access/AccessControl.sol\":6466:6478  return false */\n  swap1\n  pop\n    /* \"@openzeppelin/contracts/access/AccessControl.sol\":6179:6495  function _grantRole(bytes32 role, address account) internal virtual returns (bool) {... */\ntag_42:\n  swap3\n  swap2\n  pop\n  pop\n  jump\t// out\n    /* \"@openzeppelin/contracts/token/ERC20/ERC20.sol\":7458:7666  function _mint(address account, uint256 value) internal {... */\ntag_40:\n    /* \"@openzeppelin/contracts/token/ERC20/ERC20.sol\":7547:7548  0 */\n  0x00\n    /* \"@openzeppelin/contracts/token/ERC20/ERC20.sol\":7528:7549  account == address(0) */\n  0xffffffffffffffffffffffffffffffffffffffff\n  and\n    /* \"@openzeppelin/contracts/token/ERC20/ERC20.sol\":7528:7535  account */\n  dup3\n    /* \"@openzeppelin/contracts/token/ERC20/ERC20.sol\":7528:7549  account == address(0) */\n  0xffffffffffffffffffffffffffffffffffffffff\n  and\n  sub\n    /* \"@openzeppelin/contracts/token/ERC20/ERC20.sol\":7524:7615  if (account == address(0)) {... */\n  tag_50\n  jumpi\n    /* \"@openzeppelin/contracts/token/ERC20/ERC20.sol\":7601:7602  0 */\n  0x00\n    /* \"@openzeppelin/contracts/token/ERC20/ERC20.sol\":7572:7604  ERC20InvalidReceiver(address(0)) */\n  mload(0x40)\n  0xec442f0500000000000000000000000000000000000000000000000000000000\n  dup2\n  mstore\n  0x04\n  add\n  tag_51\n  swap2\n  swap1\n  tag_52\n  jump\t// in\ntag_51:\n  mload(0x40)\n  dup1\n  swap2\n  sub\n  swap1\n  revert\n    /* \"@openzeppelin/contracts/token/ERC20/ERC20.sol\":7524:7615  if (account == address(0)) {... */\ntag_50:\n    /* \"@openzeppelin/contracts/token/ERC20/ERC20.sol\":7624:7659  _update(address(0), account, value) */\n  tag_53\n    /* \"@openzeppelin/contracts/token/ERC20/ERC20.sol\":7640:7641  0 */\n  0x00\n    /* \"@openzeppelin/contracts/token/ERC20/ERC20.sol\":7644:7651  account */\n  dup4\n    /* \"@openzeppelin/contracts/token/ERC20/ERC20.sol\":7653:7658  value */\n  dup4\n    /* \"@openzeppelin/contracts/token/ERC20/ERC20.sol\":7624:7631  _update */\n  shl(0x20, tag_54)\n    /* \"@openzeppelin/contracts/token/ERC20/ERC20.sol\":7624:7659  _update(address(0), account, value) */\n  0x20\n  shr\n  jump\t// in\ntag_53:\n    /* \"@openzeppelin/contracts/token/ERC20/ERC20.sol\":7458:7666  function _mint(address account, uint256 value) internal {... */\n  pop\n  pop\n  jump\t// out\n    /* \"@openzeppelin/contracts/access/AccessControl.sol\":2854:2990  function hasRole(bytes32 role, address account) public view virtual returns (bool) {... */\ntag_44:\n    /* \"@openzeppelin/contracts/access/AccessControl.sol\":2931:2935  bool */\n  0x00\n    /* \"@openzeppelin/contracts/access/AccessControl.sol\":2954:2960  _roles */\n  0x06\n    /* \"@openzeppelin/contracts/access/AccessControl.sol\":2954:2966  _roles[role] */\n  0x00\n    /* \"@openzeppelin/contracts/access/AccessControl.sol\":2961:2965  role */\n  dup5\n    /* \"@openzeppelin/contracts/access/AccessControl.sol\":2954:2966  _roles[role] */\n  dup2\n  mstore\n  0x20\n  add\n  swap1\n  dup2\n  mstore\n  0x20\n  add\n  0x00\n  keccak256\n    /* \"@openzeppelin/contracts/access/AccessControl.sol\":2954:2974  _roles[role].hasRole */\n  0x00\n  add\n    /* \"@openzeppelin/contracts/access/AccessControl.sol\":2954:2983  _roles[role].hasRole[account] */\n  0x00\n    /* \"@openzeppelin/contracts/access/AccessControl.sol\":2975:2982  account */\n  dup4\n    /* \"@openzeppelin/contracts/access/AccessControl.sol\":2954:2983  _roles[role].hasRole[account] */\n  0xffffffffffffffffffffffffffffffffffffffff\n  and\n  0xffffffffffffffffffffffffffffffffffffffff\n  and\n  dup2\n  mstore\n  0x20\n  add\n  swap1\n  dup2\n  mstore\n  0x20\n  add\n  0x00\n  keccak256\n  0x00\n  swap1\n  sload\n  swap1\n  0x0100\n  exp\n  swap1\n  div\n  0xff\n  and\n    /* \"@openzeppelin/contracts/access/AccessControl.sol\":2947:2983  return _roles[role].hasRole[account] */\n  swap1\n  pop\n    /* \"@openzeppelin/contracts/access/AccessControl.sol\":2854:2990  function hasRole(bytes32 role, address account) public view virtual returns (bool) {... */\n  swap3\n  swap2\n  pop\n  pop\n  jump\t// out\n    /* \"@openzeppelin/contracts/utils/Context.sol\":656:752  function _msgSender() internal view virtual returns (address) {... */\ntag_47:\n    /* \"@openzeppelin/contracts/utils/Context.sol\":709:716  address */\n  0x00\n    /* \"@openzeppelin/contracts/utils/Context.sol\":735:745  msg.sender */\n  caller\n    /* \"@openzeppelin/contracts/utils/Context.sol\":728:745  return msg.sender */\n  swap1\n  pop\n    /* \"@openzeppelin/contracts/utils/Context.sol\":656:752  function _msgSender() internal view virtual returns (address) {... */\n  swap1\n  jump\t// out\n    /* \"@openzeppelin/contracts/token/ERC20/ERC20.sol\":6008:7115  function _update(address from, address to, uint256 value) internal virtual {... */\ntag_54:\n    /* \"@openzeppelin/contracts/token/ERC20/ERC20.sol\":6113:6114  0 */\n  0x00\n    /* \"@openzeppelin/contracts/token/ERC20/ERC20.sol\":6097:6115  from == address(0) */\n  0xffffffffffffffffffffffffffffffffffffffff\n  and\n    /* \"@openzeppelin/contracts/token/ERC20/ERC20.sol\":6097:6101  from */\n  dup4\n    /* \"@openzeppelin/contracts/token/ERC20/ERC20.sol\":6097:6115  from == address(0) */\n  0xffffffffffffffffffffffffffffffffffffffff\n  and\n  sub\n    /* \"@openzeppelin/contracts/token/ERC20/ERC20.sol\":6093:6633  if (from == address(0)) {... */\n  tag_58\n  jumpi\n    /* \"@openzeppelin/contracts/token/ERC20/ERC20.sol\":6249:6254  value */\n  dup1\n    /* \"@openzeppelin/contracts/token/ERC20/ERC20.sol\":6233:6245  _totalSupply */\n  0x02\n  0x00\n    /* \"@openzeppelin/contracts/token/ERC20/ERC20.sol\":6233:6254  _totalSupply += value */\n  dup3\n  dup3\n  sload\n  tag_59\n  swap2\n  swap1\n  tag_60\n  jump\t// in\ntag_59:\n  swap3\n  pop\n  pop\n  dup2\n  swap1\n  sstore\n  pop\n    /* \"@openzeppelin/contracts/token/ERC20/ERC20.sol\":6093:6633  if (from == address(0)) {... */\n  jump(tag_61)\ntag_58:\n    /* \"@openzeppelin/contracts/token/ERC20/ERC20.sol\":6285:6304  uint256 fromBalance */\n  0x00\n    /* \"@openzeppelin/contracts/token/ERC20/ERC20.sol\":6307:6316  _balances */\n  0x00\n    /* \"@openzeppelin/contracts/token/ERC20/ERC20.sol\":6307:6322  _balances[from] */\n  0x00\n    /* \"@openzeppelin/contracts/token/ERC20/ERC20.sol\":6317:6321  from */\n  dup6\n    /* \"@openzeppelin/contracts/token/ERC20/ERC20.sol\":6307:6322  _balances[from] */\n  0xffffffffffffffffffffffffffffffffffffffff\n  and\n  0xffffffffffffffffffffffffffffffffffffffff\n  and\n  dup2\n  mstore\n  0x20\n  add\n  swap1\n  dup2\n  mstore\n  0x20\n  add\n  0x00\n  keccak256\n  sload\n    /* \"@openzeppelin/contracts/token/ERC20/ERC20.sol\":6285:6322  uint256 fromBalance = _balances[from] */\n  swap1\n  pop\n    /* \"@openzeppelin/contracts/token/ERC20/ERC20.sol\":6354:6359  value */\n  dup2\n    /* \"@openzeppelin/contracts/token/ERC20/ERC20.sol\":6340:6351  fromBalance */\n  dup2\n    /* \"@openzeppelin/contracts/token/ERC20/ERC20.sol\":6340:6359  fromBalance < value */\n  lt\n    /* \"@openzeppelin/contracts/token/ERC20/ERC20.sol\":6336:6451  if (fromBalance < value) {... */\n  iszero\n  tag_62\n  jumpi\n    /* \"@openzeppelin/contracts/token/ERC20/ERC20.sol\":6411:6415  from */\n  dup4\n    /* \"@openzeppelin/contracts/token/ERC20/ERC20.sol\":6417:6428  fromBalance */\n  dup2\n    /* \"@openzeppelin/contracts/token/ERC20/ERC20.sol\":6430:6435  value */\n  dup4\n    /* \"@openzeppelin/contracts/token/ERC20/ERC20.sol\":6386:6436  ERC20InsufficientBalance(from, fromBalance, value) */\n  mload(0x40)\n  0xe450d38c00000000000000000000000000000000000000000000000000000000\n  dup2\n  mstore\n  0x04\n  add\n  tag_63\n  swap4\n  swap3\n  swap2\n  swap1\n  tag_64\n  jump\t// in\ntag_63:\n  mload(0x40)\n  dup1\n  swap2\n  sub\n  swap1\n  revert\n    /* \"@openzeppelin/contracts/token/ERC20/ERC20.sol\":6336:6451  if (fromBalance < value) {... */\ntag_62:\n    /* \"@openzeppelin/contracts/token/ERC20/ERC20.sol\":6603:6608  value */\n  dup2\n    /* \"@openzeppelin/contracts/token/ERC20/ERC20.sol\":6589:6600  fromBalance */\n  dup2\n    /* \"@openzeppelin/contracts/token/ERC20/ERC20.sol\":6589:6608  fromBalance - value */\n  sub\n    /* \"@openzeppelin/contracts/token/ERC20/ERC20.sol\":6571:6580  _balances */\n  0x00\n    /* \"@openzeppelin/contracts/token/ERC20/ERC20.sol\":6571:6586  _balances[from] */\n  0x00\n    /* \"@openzeppelin/contracts/token/ERC20/ERC20.sol\":6581:6585  from */\n  dup7\n    /* \"@openzeppelin/contracts/token/ERC20/ERC20.sol\":6571:6586  _balances[from] */\n  0xffffffffffffffffffffffffffffffffffffffff\n  and\n  0xffffffffffffffffffffffffffffffffffffffff\n  and\n  dup2\n  mstore\n  0x20\n  add\n  swap1\n  dup2\n  mstore\n  0x20\n  add\n  0x00\n  keccak256\n    /* \"@openzeppelin/contracts/token/ERC20/ERC20.sol\":6571:6608  _balances[from] = fromBalance - value */\n  dup2\n  swap1\n  sstore\n  pop\n    /* \"@openzeppelin/contracts/token/ERC20/ERC20.sol\":6271:6633  {... */\n  pop\n    /* \"@openzeppelin/contracts/token/ERC20/ERC20.sol\":6093:6633  if (from == address(0)) {... */\ntag_61:\n    /* \"@openzeppelin/contracts/token/ERC20/ERC20.sol\":6661:6662  0 */\n  0x00\n    /* \"@openzeppelin/contracts/token/ERC20/ERC20.sol\":6647:6663  to == address(0) */\n  0xffffffffffffffffffffffffffffffffffffffff\n  and\n    /* \"@openzeppelin/contracts/token/ERC20/ERC20.sol\":6647:6649  to */\n  dup3\n    /* \"@openzeppelin/contracts/token/ERC20/ERC20.sol\":6647:6663  to == address(0) */\n  0xffffffffffffffffffffffffffffffffffffffff\n  and\n  sub\n    /* \"@openzeppelin/contracts/token/ERC20/ERC20.sol\":6643:7068  if (to == address(0)) {... */\n  tag_65\n  jumpi\n    /* \"@openzeppelin/contracts/token/ERC20/ERC20.sol\":6826:6831  value */\n  dup1\n    /* \"@openzeppelin/contracts/token/ERC20/ERC20.sol\":6810:6822  _totalSupply */\n  0x02\n  0x00\n    /* \"@openzeppelin/contracts/token/ERC20/ERC20.sol\":6810:6831  _totalSupply -= value */\n  dup3\n  dup3\n  sload\n  sub\n  swap3\n  pop\n  pop\n  dup2\n  swap1\n  sstore\n  pop\n    /* \"@openzeppelin/contracts/token/ERC20/ERC20.sol\":6643:7068  if (to == address(0)) {... */\n  jump(tag_66)\ntag_65:\n    /* \"@openzeppelin/contracts/token/ERC20/ERC20.sol\":7038:7043  value */\n  dup1\n    /* \"@openzeppelin/contracts/token/ERC20/ERC20.sol\":7021:7030  _balances */\n  0x00\n    /* \"@openzeppelin/contracts/token/ERC20/ERC20.sol\":7021:7034  _balances[to] */\n  0x00\n    /* \"@openzeppelin/contracts/token/ERC20/ERC20.sol\":7031:7033  to */\n  dup5\n    /* \"@openzeppelin/contracts/token/ERC20/ERC20.sol\":7021:7034  _balances[to] */\n  0xffffffffffffffffffffffffffffffffffffffff\n  and\n  0xffffffffffffffffffffffffffffffffffffffff\n  and\n  dup2\n  mstore\n  0x20\n  add\n  swap1\n  dup2\n  mstore\n  0x20\n  add\n  0x00\n  keccak256\n  0x00\n    /* \"@openzeppelin/contracts/token/ERC20/ERC20.sol\":7021:7043  _balances[to] += value */\n  dup3\n  dup3\n  sload\n  add\n  swap3\n  pop\n  pop\n  dup2\n  swap1\n  sstore\n  pop\n    /* \"@openzeppelin/contracts/token/ERC20/ERC20.sol\":6643:7068  if (to == address(0)) {... */\ntag_66:\n    /* \"@openzeppelin/contracts/token/ERC20/ERC20.sol\":7098:7100  to */\n  dup2\n    /* \"@openzeppelin/contracts/token/ERC20/ERC20.sol\":7083:7108  Transfer(from, to, value) */\n  0xffffffffffffffffffffffffffffffffffffffff\n  and\n    /* \"@openzeppelin/contracts/token/ERC20/ERC20.sol\":7092:7096  from */\n  dup4\n    /* \"@openzeppelin/contracts/token/ERC20/ERC20.sol\":7083:7108  Transfer(from, to, value) */\n  0xffffffffffffffffffffffffffffffffffffffff\n  and\n  0xddf252ad1be2c89b69c2b068fc378daa952ba7f163c4a11628f55a4df523b3ef\n    /* \"@openzeppelin/contracts/token/ERC20/ERC20.sol\":7102:7107  value */\n  dup4\n    /* \"@openzeppelin/contracts/token/ERC20/ERC20.sol\":7083:7108  Transfer(from, to, value) */\n  mload(0x40)\n  tag_67\n  swap2\n  swap1\n  tag_68\n  jump\t// in\ntag_67:\n  mload(0x40)\n  dup1\n  swap2\n  sub\n  swap1\n  log3\n    /* \"@openzeppelin/contracts/token/ERC20/ERC20.sol\":6008:7115  function _update(address from, address to, uint256 value) internal virtual {... */\n  pop\n  pop\n  pop\n  jump\t// out\n    /* \"#utility.yul\":88:205   */\ntag_70:\n    /* \"#utility.yul\":197:198   */\n  0x00\n    /* \"#utility.yul\":194:195   */\n  0x00\n    /* \"#utility.yul\":187:199   */\n  revert\n    /* \"#utility.yul\":334:460   */\ntag_72:\n    /* \"#utility.yul\":371:378   */\n  0x00\n    /* \"#utility.yul\":411:453   */\n  0xffffffffffffffffffffffffffffffffffffffff\n    /* \"#utility.yul\":404:409   */\n  dup3\n    /* \"#utility.yul\":400:454   */\n  and\n    /* \"#utility.yul\":389:454   */\n  swap1\n  pop\n    /* \"#utility.yul\":334:460   */\n  swap2\n  swap1\n  pop\n  jump\t// out\n    /* \"#utility.yul\":466:562   */\ntag_73:\n    /* \"#utility.yul\":503:510   */\n  0x00\n    /* \"#utility.yul\":532:556   */\n  tag_109\n    /* \"#utility.yul\":550:555   */\n  dup3\n    /* \"#utility.yul\":532:556   */\n  tag_72\n  jump\t// in\ntag_109:\n    /* \"#utility.yul\":521:556   */\n  swap1\n  pop\n    /* \"#utility.yul\":466:562   */\n  swap2\n  swap1\n  pop\n  jump\t// out\n    /* \"#utility.yul\":568:690   */\ntag_74:\n    /* \"#utility.yul\":641:665   */\n  tag_111\n    /* \"#utility.yul\":659:664   */\n  dup2\n    /* \"#utility.yul\":641:665   */\n  tag_73\n  jump\t// in\ntag_111:\n    /* \"#utility.yul\":634:639   */\n  dup2\n    /* \"#utility.yul\":631:666   */\n  eq\n    /* \"#utility.yul\":621:684   */\n  tag_112\n  jumpi\n    /* \"#utility.yul\":680:681   */\n  0x00\n    /* \"#utility.yul\":677:678   */\n  0x00\n    /* \"#utility.yul\":670:682   */\n  revert\n    /* \"#utility.yul\":621:684   */\ntag_112:\n    /* \"#utility.yul\":568:690   */\n  pop\n  jump\t// out\n    /* \"#utility.yul\":696:839   */\ntag_75:\n    /* \"#utility.yul\":753:758   */\n  0x00\n    /* \"#utility.yul\":784:790   */\n  dup2\n    /* \"#utility.yul\":778:791   */\n  mload\n    /* \"#utility.yul\":769:791   */\n  swap1\n  pop\n    /* \"#utility.yul\":800:833   */\n  tag_114\n    /* \"#utility.yul\":827:832   */\n  dup2\n    /* \"#utility.yul\":800:833   */\n  tag_74\n  jump\t// in\ntag_114:\n    /* \"#utility.yul\":696:839   */\n  swap3\n  swap2\n  pop\n  pop\n  jump\t// out\n    /* \"#utility.yul\":845:1196   */\ntag_3:\n    /* \"#utility.yul\":915:921   */\n  0x00\n    /* \"#utility.yul\":964:966   */\n  0x20\n    /* \"#utility.yul\":952:961   */\n  dup3\n    /* \"#utility.yul\":943:950   */\n  dup5\n    /* \"#utility.yul\":939:962   */\n  sub\n    /* \"#utility.yul\":935:967   */\n  slt\n    /* \"#utility.yul\":932:1051   */\n  iszero\n  tag_116\n  jumpi\n    /* \"#utility.yul\":970:1049   */\n  tag_117\n  tag_70\n  jump\t// in\ntag_117:\n    /* \"#utility.yul\":932:1051   */\ntag_116:\n    /* \"#utility.yul\":1090:1091   */\n  0x00\n    /* \"#utility.yul\":1115:1179   */\n  tag_118\n    /* \"#utility.yul\":1171:1178   */\n  dup5\n    /* \"#utility.yul\":1162:1168   */\n  dup3\n    /* \"#utility.yul\":1151:1160   */\n  dup6\n    /* \"#utility.yul\":1147:1169   */\n  add\n    /* \"#utility.yul\":1115:1179   */\n  tag_75\n  jump\t// in\ntag_118:\n    /* \"#utility.yul\":1105:1179   */\n  swap2\n  pop\n    /* \"#utility.yul\":1061:1189   */\n  pop\n    /* \"#utility.yul\":845:1196   */\n  swap3\n  swap2\n  pop\n  pop\n  jump\t// out\n    /* \"#utility.yul\":1202:1301   */\ntag_76:\n    /* \"#utility.yul\":1254:1260   */\n  0x00\n    /* \"#utility.yul\":1288:1293   */\n  dup2\n    /* \"#utility.yul\":1282:1294   */\n  mload\n    /* \"#utility.yul\":1272:1294   */\n  swap1\n  pop\n    /* \"#utility.yul\":1202:1301   */\n  swap2\n  swap1\n  pop\n  jump\t// out\n    /* \"#utility.yul\":1307:1487   */\ntag_77:\n    /* \"#utility.yul\":1355:1432   */\n  0x4e487b7100000000000000000000000000000000000000000000000000000000\n    /* \"#utility.yul\":1352:1353   */\n  0x00\n    /* \"#utility.yul\":1345:1433   */\n  mstore\n    /* \"#utility.yul\":1452:1456   */\n  0x41\n    /* \"#utility.yul\":1449:1450   */\n  0x04\n    /* \"#utility.yul\":1442:1457   */\n  mstore\n    /* \"#utility.yul\":1476:1480   */\n  0x24\n    /* \"#utility.yul\":1473:1474   */\n  0x00\n    /* \"#utility.yul\":1466:1481   */\n  revert\n    /* \"#utility.yul\":1493:1673   */\ntag_78:\n    /* \"#utility.yul\":1541:1618   */\n  0x4e487b7100000000000000000000000000000000000000000000000000000000\n    /* \"#utility.yul\":1538:1539   */\n  0x00\n    /* \"#utility.yul\":1531:1619   */\n  mstore\n    /* \"#utility.yul\":1638:1642   */\n  0x22\n    /* \"#utility.yul\":1635:1636   */\n  0x04\n    /* \"#utility.yul\":1628:1643   */\n  mstore\n    /* \"#utility.yul\":1662:1666   */\n  0x24\n    /* \"#utility.yul\":1659:1660   */\n  0x00\n    /* \"#utility.yul\":1652:1667   */\n  revert\n    /* \"#utility.yul\":1679:1999   */\ntag_79:\n    /* \"#utility.yul\":1723:1729   */\n  0x00\n    /* \"#utility.yul\":1760:1761   */\n  0x02\n    /* \"#utility.yul\":1754:1758   */\n  dup3\n    /* \"#utility.yul\":1750:1762   */\n  div\n    /* \"#utility.yul\":1740:1762   */\n  swap1\n  pop\n    /* \"#utility.yul\":1807:1808   */\n  0x01\n    /* \"#utility.yul\":1801:1805   */\n  dup3\n    /* \"#utility.yul\":1797:1809   */\n  and\n    /* \"#utility.yul\":1828:1846   */\n  dup1\n    /* \"#utility.yul\":1818:1899   */\n  tag_123\n  jumpi\n    /* \"#utility.yul\":1884:1888   */\n  0x7f\n    /* \"#utility.yul\":1876:1882   */\n  dup3\n    /* \"#utility.yul\":1872:1889   */\n  and\n    /* \"#utility.yul\":1862:1889   */\n  swap2\n  pop\n    /* \"#utility.yul\":1818:1899   */\ntag_123:\n    /* \"#utility.yul\":1946:1948   */\n  0x20\n    /* \"#utility.yul\":1938:1944   */\n  dup3\n    /* \"#utility.yul\":1935:1949   */\n  lt\n    /* \"#utility.yul\":1915:1933   */\n  dup2\n    /* \"#utility.yul\":1912:1950   */\n  sub\n    /* \"#utility.yul\":1909:1993   */\n  tag_124\n  jumpi\n    /* \"#utility.yul\":1965:1983   */\n  tag_125\n  tag_78\n  jump\t// in\ntag_125:\n    /* \"#utility.yul\":1909:1993   */\ntag_124:\n    /* \"#utility.yul\":1730:1999   */\n  pop\n    /* \"#utility.yul\":1679:1999   */\n  swap2\n  swap1\n  pop\n  jump\t// out\n    /* \"#utility.yul\":2005:2146   */\ntag_80:\n    /* \"#utility.yul\":2054:2058   */\n  0x00\n    /* \"#utility.yul\":2077:2080   */\n  dup2\n    /* \"#utility.yul\":2069:2080   */\n  swap1\n  pop\n    /* \"#utility.yul\":2100:2103   */\n  dup2\n    /* \"#utility.yul\":2097:2098   */\n  0x00\n    /* \"#utility.yul\":2090:2104   */\n  mstore\n    /* \"#utility.yul\":2134:2138   */\n  0x20\n    /* \"#utility.yul\":2131:2132   */\n  0x00\n    /* \"#utility.yul\":2121:2139   */\n  keccak256\n    /* \"#utility.yul\":2113:2139   */\n  swap1\n  pop\n    /* \"#utility.yul\":2005:2146   */\n  swap2\n  swap1\n  pop\n  jump\t// out\n    /* \"#utility.yul\":2152:2245   */\ntag_81:\n    /* \"#utility.yul\":2189:2195   */\n  0x00\n    /* \"#utility.yul\":2236:2238   */\n  0x20\n    /* \"#utility.yul\":2231:2233   */\n  0x1f\n    /* \"#utility.yul\":2224:2229   */\n  dup4\n    /* \"#utility.yul\":2220:2234   */\n  add\n    /* \"#utility.yul\":2216:2239   */\n  div\n    /* \"#utility.yul\":2206:2239   */\n  swap1\n  pop\n    /* \"#utility.yul\":2152:2245   */\n  swap2\n  swap1\n  pop\n  jump\t// out\n    /* \"#utility.yul\":2251:2358   */\ntag_82:\n    /* \"#utility.yul\":2295:2303   */\n  0x00\n    /* \"#utility.yul\":2345:2350   */\n  dup3\n    /* \"#utility.yul\":2339:2343   */\n  dup3\n    /* \"#utility.yul\":2335:2351   */\n  shl\n    /* \"#utility.yul\":2314:2351   */\n  swap1\n  pop\n    /* \"#utility.yul\":2251:2358   */\n  swap3\n  swap2\n  pop\n  pop\n  jump\t// out\n    /* \"#utility.yul\":2364:2757   */\ntag_83:\n    /* \"#utility.yul\":2433:2439   */\n  0x00\n    /* \"#utility.yul\":2483:2484   */\n  0x08\n    /* \"#utility.yul\":2471:2481   */\n  dup4\n    /* \"#utility.yul\":2467:2485   */\n  mul\n    /* \"#utility.yul\":2506:2603   */\n  tag_130\n    /* \"#utility.yul\":2536:2602   */\n  0xffffffffffffffffffffffffffffffffffffffffffffffffffffffffffffffff\n    /* \"#utility.yul\":2525:2534   */\n  dup3\n    /* \"#utility.yul\":2506:2603   */\n  tag_82\n  jump\t// in\ntag_130:\n    /* \"#utility.yul\":2624:2663   */\n  tag_131\n    /* \"#utility.yul\":2654:2662   */\n  dup7\n    /* \"#utility.yul\":2643:2652   */\n  dup4\n    /* \"#utility.yul\":2624:2663   */\n  tag_82\n  jump\t// in\ntag_131:\n    /* \"#utility.yul\":2612:2663   */\n  swap6\n  pop\n    /* \"#utility.yul\":2696:2700   */\n  dup1\n    /* \"#utility.yul\":2692:2701   */\n  not\n    /* \"#utility.yul\":2685:2690   */\n  dup5\n    /* \"#utility.yul\":2681:2702   */\n  and\n    /* \"#utility.yul\":2672:2702   */\n  swap4\n  pop\n    /* \"#utility.yul\":2745:2749   */\n  dup1\n    /* \"#utility.yul\":2735:2743   */\n  dup7\n    /* \"#utility.yul\":2731:2750   */\n  and\n    /* \"#utility.yul\":2724:2729   */\n  dup5\n    /* \"#utility.yul\":2721:2751   */\n  or\n    /* \"#utility.yul\":2711:2751   */\n  swap3\n  pop\n    /* \"#utility.yul\":2440:2757   */\n  pop\n  pop\n    /* \"#utility.yul\":2364:2757   */\n  swap4\n  swap3\n  pop\n  pop\n  pop\n  jump\t// out\n    /* \"#utility.yul\":2763:2840   */\ntag_84:\n    /* \"#utility.yul\":2800:2807   */\n  0x00\n    /* \"#utility.yul\":2829:2834   */\n  dup2\n    /* \"#utility.yul\":2818:2834   */\n  swap1\n  pop\n    /* \"#utility.yul\":2763:2840   */\n  swap2\n  swap1\n  pop\n  jump\t// out\n    /* \"#utility.yul\":2846:2906   */\ntag_85:\n    /* \"#utility.yul\":2874:2877   */\n  0x00\n    /* \"#utility.yul\":2895:2900   */\n  dup2\n    /* \"#utility.yul\":2888:2900   */\n  swap1\n  pop\n    /* \"#utility.yul\":2846:2906   */\n  swap2\n  swap1\n  pop\n  jump\t// out\n    /* \"#utility.yul\":2912:3054   */\ntag_86:\n    /* \"#utility.yul\":2962:2971   */\n  0x00\n    /* \"#utility.yul\":2995:3048   */\n  tag_135\n    /* \"#utility.yul\":3013:3047   */\n  tag_136\n    /* \"#utility.yul\":3022:3046   */\n  tag_137\n    /* \"#utility.yul\":3040:3045   */\n  dup5\n    /* \"#utility.yul\":3022:3046   */\n  tag_84\n  jump\t// in\ntag_137:\n    /* \"#utility.yul\":3013:3047   */\n  tag_85\n  jump\t// in\ntag_136:\n    /* \"#utility.yul\":2995:3048   */\n  tag_84\n  jump\t// in\ntag_135:\n    /* \"#utility.yul\":2982:3048   */\n  swap1\n  pop\n    /* \"#utility.yul\":2912:3054   */\n  swap2\n  swap1\n  pop\n  jump\t// out\n    /* \"#utility.yul\":3060:3135   */\ntag_87:\n    /* \"#utility.yul\":3103:3106   */\n  0x00\n    /* \"#utility.yul\":3124:3129   */\n  dup2\n    /* \"#utility.yul\":3117:3129   */\n  swap1\n  pop\n    /* \"#utility.yul\":3060:3135   */\n  swap2\n  swap1\n  pop\n  jump\t// out\n    /* \"#utility.yul\":3141:3410   */\ntag_88:\n    /* \"#utility.yul\":3251:3290   */\n  tag_140\n    /* \"#utility.yul\":3282:3289   */\n  dup4\n    /* \"#utility.yul\":3251:3290   */\n  tag_86\n  jump\t// in\ntag_140:\n    /* \"#utility.yul\":3312:3403   */\n  tag_141\n    /* \"#utility.yul\":3361:3402   */\n  tag_142\n    /* \"#utility.yul\":3385:3401   */\n  dup3\n    /* \"#utility.yul\":3361:3402   */\n  tag_87\n  jump\t// in\ntag_142:\n    /* \"#utility.yul\":3353:3359   */\n  dup5\n    /* \"#utility.yul\":3346:3350   */\n  dup5\n    /* \"#utility.yul\":3340:3351   */\n  sload\n    /* \"#utility.yul\":3312:3403   */\n  tag_83\n  jump\t// in\ntag_141:\n    /* \"#utility.yul\":3306:3310   */\n  dup3\n    /* \"#utility.yul\":3299:3404   */\n  sstore\n    /* \"#utility.yul\":3217:3410   */\n  pop\n    /* \"#utility.yul\":3141:3410   */\n  pop\n  pop\n  pop\n  jump\t// out\n    /* \"#utility.yul\":3416:3489   */\ntag_89:\n    /* \"#utility.yul\":3461:3464   */\n  0x00\n    /* \"#utility.yul\":3482:3483   */\n  0x00\n    /* \"#utility.yul\":3475:3483   */\n  swap1\n  pop\n    /* \"#utility.yul\":3416:3489   */\n  swap1\n  jump\t// out\n    /* \"#utility.yul\":3495:3684   */\ntag_90:\n    /* \"#utility.yul\":3572:3604   */\n  tag_145\n  tag_89\n  jump\t// in\ntag_145:\n    /* \"#utility.yul\":3613:3678   */\n  tag_146\n    /* \"#utility.yul\":3671:3677   */\n  dup2\n    /* \"#utility.yul\":3663:3669   */\n  dup5\n    /* \"#utility.yul\":3657:3661   */\n  dup5\n    /* \"#utility.yul\":3613:3678   */\n  tag_88\n  jump\t// in\ntag_146:\n    /* \"#utility.yul\":3548:3684   */\n  pop\n    /* \"#utility.yul\":3495:3684   */\n  pop\n  pop\n  jump\t// out\n    /* \"#utility.yul\":3690:3876   */\ntag_91:\n    /* \"#utility.yul\":3750:3870   */\ntag_148:\n    /* \"#utility.yul\":3767:3770   */\n  dup2\n    /* \"#utility.yul\":3760:3765   */\n  dup2\n    /* \"#utility.yul\":3757:3771   */\n  lt\n    /* \"#utility.yul\":3750:3870   */\n  iszero\n  tag_150\n  jumpi\n    /* \"#utility.yul\":3821:3860   */\n  tag_151\n    /* \"#utility.yul\":3858:3859   */\n  0x00\n    /* \"#utility.yul\":3851:3856   */\n  dup3\n    /* \"#utility.yul\":3821:3860   */\n  tag_90\n  jump\t// in\ntag_151:\n    /* \"#utility.yul\":3794:3795   */\n  0x01\n    /* \"#utility.yul\":3787:3792   */\n  dup2\n    /* \"#utility.yul\":3783:3796   */\n  add\n    /* \"#utility.yul\":3774:3796   */\n  swap1\n  pop\n    /* \"#utility.yul\":3750:3870   */\n  jump(tag_148)\ntag_150:\n    /* \"#utility.yul\":3690:3876   */\n  pop\n  pop\n  jump\t// out\n    /* \"#utility.yul\":3882:4425   */\ntag_92:\n    /* \"#utility.yul\":3983:3985   */\n  0x1f\n    /* \"#utility.yul\":3978:3981   */\n  dup3\n    /* \"#utility.yul\":3975:3986   */\n  gt\n    /* \"#utility.yul\":3972:4418   */\n  iszero\n  tag_153\n  jumpi\n    /* \"#utility.yul\":4017:4055   */\n  tag_154\n    /* \"#utility.yul\":4049:4054   */\n  dup2\n    /* \"#utility.yul\":4017:4055   */\n  tag_80\n  jump\t// in\ntag_154:\n    /* \"#utility.yul\":4101:4130   */\n  tag_155\n    /* \"#utility.yul\":4119:4129   */\n  dup5\n    /* \"#utility.yul\":4101:4130   */\n  tag_81\n  jump\t// in\ntag_155:\n    /* \"#utility.yul\":4091:4099   */\n  dup2\n    /* \"#utility.yul\":4087:4131   */\n  add\n    /* \"#utility.yul\":4284:4286   */\n  0x20\n    /* \"#utility.yul\":4272:4282   */\n  dup6\n    /* \"#utility.yul\":4269:4287   */\n  lt\n    /* \"#utility.yul\":4266:4315   */\n  iszero\n  tag_156\n  jumpi\n    /* \"#utility.yul\":4305:4313   */\n  dup2\n    /* \"#utility.yul\":4290:4313   */\n  swap1\n  pop\n    /* \"#utility.yul\":4266:4315   */\ntag_156:\n    /* \"#utility.yul\":4328:4408   */\n  tag_157\n    /* \"#utility.yul\":4384:4406   */\n  tag_158\n    /* \"#utility.yul\":4402:4405   */\n  dup6\n    /* \"#utility.yul\":4384:4406   */\n  tag_81\n  jump\t// in\ntag_158:\n    /* \"#utility.yul\":4374:4382   */\n  dup4\n    /* \"#utility.yul\":4370:4407   */\n  add\n    /* \"#utility.yul\":4357:4368   */\n  dup3\n    /* \"#utility.yul\":4328:4408   */\n  tag_91\n  jump\t// in\ntag_157:\n    /* \"#utility.yul\":3987:4418   */\n  pop\n  pop\n    /* \"#utility.yul\":3972:4418   */\ntag_153:\n    /* \"#utility.yul\":3882:4425   */\n  pop\n  pop\n  pop\n  jump\t// out\n    /* \"#utility.yul\":4431:4548   */\ntag_93:\n    /* \"#utility.yul\":4485:4493   */\n  0x00\n    /* \"#utility.yul\":4535:4540   */\n  dup3\n    /* \"#utility.yul\":4529:4533   */\n  dup3\n    /* \"#utility.yul\":4525:4541   */\n  shr\n    /* \"#utility.yul\":4504:4541   */\n  swap1\n  pop\n    /* \"#utility.yul\":4431:4548   */\n  swap3\n  swap2\n  pop\n  pop\n  jump\t// out\n    /* \"#utility.yul\":4554:4723   */\ntag_94:\n    /* \"#utility.yul\":4598:4604   */\n  0x00\n    /* \"#utility.yul\":4631:4682   */\n  tag_161\n    /* \"#utility.yul\":4679:4680   */\n  0x00\n    /* \"#utility.yul\":4675:4681   */\n  not\n    /* \"#utility.yul\":4667:4672   */\n  dup5\n    /* \"#utility.yul\":4664:4665   */\n  0x08\n    /* \"#utility.yul\":4660:4673   */\n  mul\n    /* \"#utility.yul\":4631:4682   */\n  tag_93\n  jump\t// in\ntag_161:\n    /* \"#utility.yul\":4627:4683   */\n  not\n    /* \"#utility.yul\":4712:4716   */\n  dup1\n    /* \"#utility.yul\":4706:4710   */\n  dup4\n    /* \"#utility.yul\":4702:4717   */\n  and\n    /* \"#utility.yul\":4692:4717   */\n  swap2\n  pop\n    /* \"#utility.yul\":4605:4723   */\n  pop\n    /* \"#utility.yul\":4554:4723   */\n  swap3\n  swap2\n  pop\n  pop\n  jump\t// out\n    /* \"#utility.yul\":4728:5023   */\ntag_95:\n    /* \"#utility.yul\":4804:4808   */\n  0x00\n    /* \"#utility.yul\":4950:4979   */\n  tag_163\n    /* \"#utility.yul\":4975:4978   */\n  dup4\n    /* \"#utility.yul\":4969:4973   */\n  dup4\n    /* \"#utility.yul\":4950:4979   */\n  tag_94\n  jump\t// in\ntag_163:\n    /* \"#utility.yul\":4942:4979   */\n  swap2\n  pop\n    /* \"#utility.yul\":5012:5015   */\n  dup3\n    /* \"#utility.yul\":5009:5010   */\n  0x02\n    /* \"#utility.yul\":5005:5016   */\n  mul\n    /* \"#utility.yul\":4999:5003   */\n  dup3\n    /* \"#utility.yul\":4996:5017   */\n  or\n    /* \"#utility.yul\":4988:5017   */\n  swap1\n  pop\n    /* \"#utility.yul\":4728:5023   */\n  swap3\n  swap2\n  pop\n  pop\n  jump\t// out\n    /* \"#utility.yul\":5028:6423   */\ntag_9:\n    /* \"#utility.yul\":5145:5182   */\n  tag_165\n    /* \"#utility.yul\":5178:5181   */\n  dup3\n    /* \"#utility.yul\":5145:5182   */\n  tag_76\n  jump\t// in\ntag_165:\n    /* \"#utility.yul\":5247:5265   */\n  0xffffffffffffffff\n    /* \"#utility.yul\":5239:5245   */\n  dup2\n    /* \"#utility.yul\":5236:5266   */\n  gt\n    /* \"#utility.yul\":5233:5289   */\n  iszero\n  tag_166\n  jumpi\n    /* \"#utility.yul\":5269:5287   */\n  tag_167\n  tag_77\n  jump\t// in\ntag_167:\n    /* \"#utility.yul\":5233:5289   */\ntag_166:\n    /* \"#utility.yul\":5313:5351   */\n  tag_168\n    /* \"#utility.yul\":5345:5349   */\n  dup3\n    /* \"#utility.yul\":5339:5350   */\n  sload\n    /* \"#utility.yul\":5313:5351   */\n  tag_79\n  jump\t// in\ntag_168:\n    /* \"#utility.yul\":5398:5465   */\n  tag_169\n    /* \"#utility.yul\":5458:5464   */\n  dup3\n    /* \"#utility.yul\":5450:5456   */\n  dup3\n    /* \"#utility.yul\":5444:5448   */\n  dup6\n    /* \"#utility.yul\":5398:5465   */\n  tag_92\n  jump\t// in\ntag_169:\n    /* \"#utility.yul\":5492:5493   */\n  0x00\n    /* \"#utility.yul\":5516:5520   */\n  0x20\n    /* \"#utility.yul\":5503:5520   */\n  swap1\n  pop\n    /* \"#utility.yul\":5548:5550   */\n  0x1f\n    /* \"#utility.yul\":5540:5546   */\n  dup4\n    /* \"#utility.yul\":5537:5551   */\n  gt\n    /* \"#utility.yul\":5565:5566   */\n  0x01\n    /* \"#utility.yul\":5560:6178   */\n  dup2\n  eq\n  tag_171\n  jumpi\n    /* \"#utility.yul\":6222:6223   */\n  0x00\n    /* \"#utility.yul\":6239:6245   */\n  dup5\n    /* \"#utility.yul\":6236:6313   */\n  iszero\n  tag_172\n  jumpi\n    /* \"#utility.yul\":6288:6297   */\n  dup3\n    /* \"#utility.yul\":6283:6286   */\n  dup8\n    /* \"#utility.yul\":6279:6298   */\n  add\n    /* \"#utility.yul\":6273:6299   */\n  mload\n    /* \"#utility.yul\":6264:6299   */\n  swap1\n  pop\n    /* \"#utility.yul\":6236:6313   */\ntag_172:\n    /* \"#utility.yul\":6339:6406   */\n  tag_173\n    /* \"#utility.yul\":6399:6405   */\n  dup6\n    /* \"#utility.yul\":6392:6397   */\n  dup3\n    /* \"#utility.yul\":6339:6406   */\n  tag_95\n  jump\t// in\ntag_173:\n    /* \"#utility.yul\":6333:6337   */\n  dup7\n    /* \"#utility.yul\":6326:6407   */\n  sstore\n    /* \"#utility.yul\":6195:6417   */\n  pop\n    /* \"#utility.yul\":5530:6417   */\n  jump(tag_170)\n    /* \"#utility.yul\":5560:6178   */\ntag_171:\n    /* \"#utility.yul\":5612:5616   */\n  0x1f\n    /* \"#utility.yul\":5608:5617   */\n  not\n    /* \"#utility.yul\":5600:5606   */\n  dup5\n    /* \"#utility.yul\":5596:5618   */\n  and\n    /* \"#utility.yul\":5646:5683   */\n  tag_174\n    /* \"#utility.yul\":5678:5682   */\n  dup7\n    /* \"#utility.yul\":5646:5683   */\n  tag_80\n  jump\t// in\ntag_174:\n    /* \"#utility.yul\":5705:5706   */\n  0x00\n    /* \"#utility.yul\":5719:5927   */\ntag_175:\n    /* \"#utility.yul\":5733:5740   */\n  dup3\n    /* \"#utility.yul\":5730:5731   */\n  dup2\n    /* \"#utility.yul\":5727:5741   */\n  lt\n    /* \"#utility.yul\":5719:5927   */\n  iszero\n  tag_177\n  jumpi\n    /* \"#utility.yul\":5812:5821   */\n  dup5\n    /* \"#utility.yul\":5807:5810   */\n  dup10\n    /* \"#utility.yul\":5803:5822   */\n  add\n    /* \"#utility.yul\":5797:5823   */\n  mload\n    /* \"#utility.yul\":5789:5795   */\n  dup3\n    /* \"#utility.yul\":5782:5824   */\n  sstore\n    /* \"#utility.yul\":5863:5864   */\n  0x01\n    /* \"#utility.yul\":5855:5861   */\n  dup3\n    /* \"#utility.yul\":5851:5865   */\n  add\n    /* \"#utility.yul\":5841:5865   */\n  swap2\n  pop\n    /* \"#utility.yul\":5910:5912   */\n  0x20\n    /* \"#utility.yul\":5899:5908   */\n  dup6\n    /* \"#utility.yul\":5895:5913   */\n  add\n    /* \"#utility.yul\":5882:5913   */\n  swap5\n  pop\n    /* \"#utility.yul\":5756:5760   */\n  0x20\n    /* \"#utility.yul\":5753:5754   */\n  dup2\n    /* \"#utility.yul\":5749:5761   */\n  add\n    /* \"#utility.yul\":5744:5761   */\n  swap1\n  pop\n    /* \"#utility.yul\":5719:5927   */\n  jump(tag_175)\ntag_177:\n    /* \"#utility.yul\":5955:5961   */\n  dup7\n    /* \"#utility.yul\":5946:5953   */\n  dup4\n    /* \"#utility.yul\":5943:5962   */\n  lt\n    /* \"#utility.yul\":5940:6119   */\n  iszero\n  tag_178\n  jumpi\n    /* \"#utility.yul\":6013:6022   */\n  dup5\n    /* \"#utility.yul\":6008:6011   */\n  dup10\n    /* \"#utility.yul\":6004:6023   */\n  add\n    /* \"#utility.yul\":5998:6024   */\n  mload\n    /* \"#utility.yul\":6056:6104   */\n  tag_179\n    /* \"#utility.yul\":6098:6102   */\n  0x1f\n    /* \"#utility.yul\":6090:6096   */\n  dup10\n    /* \"#utility.yul\":6086:6103   */\n  and\n    /* \"#utility.yul\":6075:6084   */\n  dup3\n    /* \"#utility.yul\":6056:6104   */\n  tag_94\n  jump\t// in\ntag_179:\n    /* \"#utility.yul\":6048:6054   */\n  dup4\n    /* \"#utility.yul\":6041:6105   */\n  sstore\n    /* \"#utility.yul\":5963:6119   */\n  pop\n    /* \"#utility.yul\":5940:6119   */\ntag_178:\n    /* \"#utility.yul\":6165:6166   */\n  0x01\n    /* \"#utility.yul\":6161:6162   */\n  0x02\n    /* \"#utility.yul\":6153:6159   */\n  dup9\n    /* \"#utility.yul\":6149:6163   */\n  mul\n    /* \"#utility.yul\":6145:6167   */\n  add\n    /* \"#utility.yul\":6139:6143   */\n  dup9\n    /* \"#utility.yul\":6132:6168   */\n  sstore\n    /* \"#utility.yul\":5567:6178   */\n  pop\n  pop\n  pop\n    /* \"#utility.yul\":5530:6417   */\ntag_170:\n  pop\n    /* \"#utility.yul\":5120:6423   */\n  pop\n  pop\n  pop\n    /* \"#utility.yul\":5028:6423   */\n  pop\n  pop\n  jump\t// out\n    /* \"#utility.yul\":6429:6609   */\ntag_96:\n    /* \"#utility.yul\":6477:6554   */\n  0x4e487b7100000000000000000000000000000000000000000000000000000000\n    /* \"#utility.yul\":6474:6475   */\n  0x00\n    /* \"#utility.yul\":6467:6555   */\n  mstore\n    /* \"#utility.yul\":6574:6578   */\n  0x11\n    /* \"#utility.yul\":6571:6572   */\n  0x04\n    /* \"#utility.yul\":6564:6579   */\n  mstore\n    /* \"#utility.yul\":6598:6602   */\n  0x24\n    /* \"#utility.yul\":6595:6596   */\n  0x00\n    /* \"#utility.yul\":6588:6603   */\n  revert\n    /* \"#utility.yul\":6615:6717   */\ntag_97:\n    /* \"#utility.yul\":6657:6665   */\n  0x00\n    /* \"#utility.yul\":6704:6709   */\n  dup2\n    /* \"#utility.yul\":6701:6702   */\n  0x01\n    /* \"#utility.yul\":6697:6710   */\n  shr\n    /* \"#utility.yul\":6676:6710   */\n  swap1\n  pop\n    /* \"#utility.yul\":6615:6717   */\n  swap2\n  swap1\n  pop\n  jump\t// out\n    /* \"#utility.yul\":6723:7571   */\ntag_98:\n    /* \"#utility.yul\":6784:6789   */\n  0x00\n    /* \"#utility.yul\":6791:6795   */\n  0x00\n    /* \"#utility.yul\":6815:6821   */\n  dup3\n    /* \"#utility.yul\":6806:6821   */\n  swap2\n  pop\n    /* \"#utility.yul\":6839:6844   */\n  dup4\n    /* \"#utility.yul\":6830:6844   */\n  swap1\n  pop\n    /* \"#utility.yul\":6853:7565   */\ntag_183:\n    /* \"#utility.yul\":6874:6875   */\n  0x01\n    /* \"#utility.yul\":6864:6872   */\n  dup6\n    /* \"#utility.yul\":6861:6876   */\n  gt\n    /* \"#utility.yul\":6853:7565   */\n  iszero\n  tag_185\n  jumpi\n    /* \"#utility.yul\":6969:6973   */\n  dup1\n    /* \"#utility.yul\":6964:6967   */\n  dup7\n    /* \"#utility.yul\":6960:6974   */\n  div\n    /* \"#utility.yul\":6954:6958   */\n  dup2\n    /* \"#utility.yul\":6951:6975   */\n  gt\n    /* \"#utility.yul\":6948:6998   */\n  iszero\n  tag_186\n  jumpi\n    /* \"#utility.yul\":6978:6996   */\n  tag_187\n  tag_96\n  jump\t// in\ntag_187:\n    /* \"#utility.yul\":6948:6998   */\ntag_186:\n    /* \"#utility.yul\":7028:7029   */\n  0x01\n    /* \"#utility.yul\":7018:7026   */\n  dup6\n    /* \"#utility.yul\":7014:7030   */\n  and\n    /* \"#utility.yul\":7011:7462   */\n  iszero\n  tag_188\n  jumpi\n    /* \"#utility.yul\":7443:7447   */\n  dup1\n    /* \"#utility.yul\":7436:7441   */\n  dup3\n    /* \"#utility.yul\":7432:7448   */\n  mul\n    /* \"#utility.yul\":7423:7448   */\n  swap2\n  pop\n    /* \"#utility.yul\":7011:7462   */\ntag_188:\n    /* \"#utility.yul\":7493:7497   */\n  dup1\n    /* \"#utility.yul\":7487:7491   */\n  dup2\n    /* \"#utility.yul\":7483:7498   */\n  mul\n    /* \"#utility.yul\":7475:7498   */\n  swap1\n  pop\n    /* \"#utility.yul\":7523:7555   */\n  tag_189\n    /* \"#utility.yul\":7546:7554   */\n  dup6\n    /* \"#utility.yul\":7523:7555   */\n  tag_97\n  jump\t// in\ntag_189:\n    /* \"#utility.yul\":7511:7555   */\n  swap5\n  pop\n    /* \"#utility.yul\":6853:7565   */\n  jump(tag_183)\ntag_185:\n    /* \"#utility.yul\":6723:7571   */\n  swap5\n  pop\n  swap5\n  swap3\n  pop\n  pop\n  pop\n  jump\t// out\n    /* \"#utility.yul\":7577:8650   */\ntag_99:\n    /* \"#utility.yul\":7631:7636   */\n  0x00\n    /* \"#utility.yul\":7822:7830   */\n  dup3\n    /* \"#utility.yul\":7812:7852   */\n  tag_191\n  jumpi\n    /* \"#utility.yul\":7843:7844   */\n  0x01\n    /* \"#utility.yul\":7834:7844   */\n  swap1\n  pop\n    /* \"#utility.yul\":7845:7850   */\n  jump(tag_190)\n    /* \"#utility.yul\":7812:7852   */\ntag_191:\n    /* \"#utility.yul\":7871:7875   */\n  dup2\n    /* \"#utility.yul\":7861:7897   */\n  tag_192\n  jumpi\n    /* \"#utility.yul\":7888:7889   */\n  0x00\n    /* \"#utility.yul\":7879:7889   */\n  swap1\n  pop\n    /* \"#utility.yul\":7890:7895   */\n  jump(tag_190)\n    /* \"#utility.yul\":7861:7897   */\ntag_192:\n    /* \"#utility.yul\":7957:7961   */\n  dup2\n    /* \"#utility.yul\":8005:8006   */\n  0x01\n    /* \"#utility.yul\":8000:8027   */\n  dup2\n  eq\n  tag_194\n  jumpi\n    /* \"#utility.yul\":8041:8042   */\n  0x02\n    /* \"#utility.yul\":8036:8227   */\n  dup2\n  eq\n  tag_195\n  jumpi\n    /* \"#utility.yul\":7950:8227   */\n  jump(tag_193)\n    /* \"#utility.yul\":8000:8027   */\ntag_194:\n    /* \"#utility.yul\":8018:8019   */\n  0x01\n    /* \"#utility.yul\":8009:8019   */\n  swap2\n  pop\n    /* \"#utility.yul\":8020:8025   */\n  pop\n  jump(tag_190)\n    /* \"#utility.yul\":8036:8227   */\ntag_195:\n    /* \"#utility.yul\":8081:8084   */\n  0xff\n    /* \"#utility.yul\":8071:8079   */\n  dup5\n    /* \"#utility.yul\":8068:8085   */\n  gt\n    /* \"#utility.yul\":8065:8108   */\n  iszero\n  tag_196\n  jumpi\n    /* \"#utility.yul\":8088:8106   */\n  tag_197\n  tag_96\n  jump\t// in\ntag_197:\n    /* \"#utility.yul\":8065:8108   */\ntag_196:\n    /* \"#utility.yul\":8137:8145   */\n  dup4\n    /* \"#utility.yul\":8134:8135   */\n  0x02\n    /* \"#utility.yul\":8130:8146   */\n  exp\n    /* \"#utility.yul\":8121:8146   */\n  swap2\n  pop\n    /* \"#utility.yul\":8172:8175   */\n  dup5\n    /* \"#utility.yul\":8165:8170   */\n  dup3\n    /* \"#utility.yul\":8162:8176   */\n  gt\n    /* \"#utility.yul\":8159:8199   */\n  iszero\n  tag_198\n  jumpi\n    /* \"#utility.yul\":8179:8197   */\n  tag_199\n  tag_96\n  jump\t// in\ntag_199:\n    /* \"#utility.yul\":8159:8199   */\ntag_198:\n    /* \"#utility.yul\":8212:8217   */\n  pop\n  jump(tag_190)\n    /* \"#utility.yul\":7950:8227   */\ntag_193:\n  pop\n    /* \"#utility.yul\":8336:8338   */\n  0x20\n    /* \"#utility.yul\":8326:8334   */\n  dup4\n    /* \"#utility.yul\":8323:8339   */\n  lt\n    /* \"#utility.yul\":8317:8320   */\n  0x0133\n    /* \"#utility.yul\":8311:8315   */\n  dup4\n    /* \"#utility.yul\":8308:8321   */\n  lt\n    /* \"#utility.yul\":8304:8340   */\n  and\n    /* \"#utility.yul\":8286:8288   */\n  0x4e\n    /* \"#utility.yul\":8276:8284   */\n  dup5\n    /* \"#utility.yul\":8273:8289   */\n  lt\n    /* \"#utility.yul\":8268:8270   */\n  0x0b\n    /* \"#utility.yul\":8262:8266   */\n  dup5\n    /* \"#utility.yul\":8259:8271   */\n  lt\n    /* \"#utility.yul\":8255:8290   */\n  and\n    /* \"#utility.yul\":8239:8350   */\n  or\n    /* \"#utility.yul\":8236:8482   */\n  iszero\n  tag_200\n  jumpi\n    /* \"#utility.yul\":8392:8400   */\n  dup3\n    /* \"#utility.yul\":8386:8390   */\n  dup3\n    /* \"#utility.yul\":8382:8401   */\n  exp\n    /* \"#utility.yul\":8373:8401   */\n  swap1\n  pop\n    /* \"#utility.yul\":8427:8430   */\n  dup4\n    /* \"#utility.yul\":8420:8425   */\n  dup2\n    /* \"#utility.yul\":8417:8431   */\n  gt\n    /* \"#utility.yul\":8414:8454   */\n  iszero\n  tag_201\n  jumpi\n    /* \"#utility.yul\":8434:8452   */\n  tag_202\n  tag_96\n  jump\t// in\ntag_202:\n    /* \"#utility.yul\":8414:8454   */\ntag_201:\n    /* \"#utility.yul\":8467:8472   */\n  jump(tag_190)\n    /* \"#utility.yul\":8236:8482   */\ntag_200:\n    /* \"#utility.yul\":8507:8549   */\n  tag_203\n    /* \"#utility.yul\":8545:8548   */\n  dup5\n    /* \"#utility.yul\":8535:8543   */\n  dup5\n    /* \"#utility.yul\":8529:8533   */\n  dup5\n    /* \"#utility.yul\":8526:8527   */\n  0x01\n    /* \"#utility.yul\":8507:8549   */\n  tag_98\n  jump\t// in\ntag_203:\n    /* \"#utility.yul\":8492:8549   */\n  swap3\n  pop\n  swap1\n  pop\n    /* \"#utility.yul\":8581:8585   */\n  dup2\n    /* \"#utility.yul\":8576:8579   */\n  dup5\n    /* \"#utility.yul\":8572:8586   */\n  div\n    /* \"#utility.yul\":8565:8570   */\n  dup2\n    /* \"#utility.yul\":8562:8587   */\n  gt\n    /* \"#utility.yul\":8559:8610   */\n  iszero\n  tag_204\n  jumpi\n    /* \"#utility.yul\":8590:8608   */\n  tag_205\n  tag_96\n  jump\t// in\ntag_205:\n    /* \"#utility.yul\":8559:8610   */\ntag_204:\n    /* \"#utility.yul\":8639:8643   */\n  dup2\n    /* \"#utility.yul\":8632:8637   */\n  dup2\n    /* \"#utility.yul\":8628:8644   */\n  mul\n    /* \"#utility.yul\":8619:8644   */\n  swap1\n  pop\n    /* \"#utility.yul\":7577:8650   */\ntag_190:\n  swap4\n  swap3\n  pop\n  pop\n  pop\n  jump\t// out\n    /* \"#utility.yul\":8656:8742   */\ntag_100:\n    /* \"#utility.yul\":8691:8698   */\n  0x00\n    /* \"#utility.yul\":8731:8735   */\n  0xff\n    /* \"#utility.yul\":8724:8729   */\n  dup3\n    /* \"#utility.yul\":8720:8736   */\n  and\n    /* \"#utility.yul\":8709:8736   */\n  swap1\n  pop\n    /* \"#utility.yul\":8656:8742   */\n  swap2\n  swap1\n  pop\n  jump\t// out\n    /* \"#utility.yul\":8748:9029   */\ntag_17:\n    /* \"#utility.yul\":8806:8811   */\n  0x00\n    /* \"#utility.yul\":8830:8853   */\n  tag_208\n    /* \"#utility.yul\":8848:8852   */\n  dup3\n    /* \"#utility.yul\":8830:8853   */\n  tag_84\n  jump\t// in\ntag_208:\n    /* \"#utility.yul\":8822:8853   */\n  swap2\n  pop\n    /* \"#utility.yul\":8874:8899   */\n  tag_209\n    /* \"#utility.yul\":8890:8898   */\n  dup4\n    /* \"#utility.yul\":8874:8899   */\n  tag_100\n  jump\t// in\ntag_209:\n    /* \"#utility.yul\":8862:8899   */\n  swap3\n  pop\n    /* \"#utility.yul\":8918:9022   */\n  tag_210\n    /* \"#utility.yul\":8955:9021   */\n  0xffffffffffffffffffffffffffffffffffffffffffffffffffffffffffffffff\n    /* \"#utility.yul\":8945:8953   */\n  dup5\n    /* \"#utility.yul\":8939:8943   */\n  dup5\n    /* \"#utility.yul\":8918:9022   */\n  tag_99\n  jump\t// in\ntag_210:\n    /* \"#utility.yul\":8909:9022   */\n  swap1\n  pop\n    /* \"#utility.yul\":8748:9029   */\n  swap3\n  swap2\n  pop\n  pop\n  jump\t// out\n    /* \"#utility.yul\":9035:9445   */\ntag_19:\n    /* \"#utility.yul\":9075:9082   */\n  0x00\n    /* \"#utility.yul\":9098:9118   */\n  tag_212\n    /* \"#utility.yul\":9116:9117   */\n  dup3\n    /* \"#utility.yul\":9098:9118   */\n  tag_84\n  jump\t// in\ntag_212:\n    /* \"#utility.yul\":9093:9118   */\n  swap2\n  pop\n    /* \"#utility.yul\":9132:9152   */\n  tag_213\n    /* \"#utility.yul\":9150:9151   */\n  dup4\n    /* \"#utility.yul\":9132:9152   */\n  tag_84\n  jump\t// in\ntag_213:\n    /* \"#utility.yul\":9127:9152   */\n  swap3\n  pop\n    /* \"#utility.yul\":9187:9188   */\n  dup3\n    /* \"#utility.yul\":9184:9185   */\n  dup3\n    /* \"#utility.yul\":9180:9189   */\n  mul\n    /* \"#utility.yul\":9209:9239   */\n  tag_214\n    /* \"#utility.yul\":9227:9238   */\n  dup2\n    /* \"#utility.yul\":9209:9239   */\n  tag_84\n  jump\t// in\ntag_214:\n    /* \"#utility.yul\":9198:9239   */\n  swap2\n  pop\n    /* \"#utility.yul\":9388:9389   */\n  dup3\n    /* \"#utility.yul\":9379:9386   */\n  dup3\n    /* \"#utility.yul\":9375:9390   */\n  div\n    /* \"#utility.yul\":9372:9373   */\n  dup5\n    /* \"#utility.yul\":9369:9391   */\n  eq\n    /* \"#utility.yul\":9349:9350   */\n  dup4\n    /* \"#utility.yul\":9342:9351   */\n  iszero\n    /* \"#utility.yul\":9322:9405   */\n  or\n    /* \"#utility.yul\":9299:9438   */\n  tag_215\n  jumpi\n    /* \"#utility.yul\":9418:9436   */\n  tag_216\n  tag_96\n  jump\t// in\ntag_216:\n    /* \"#utility.yul\":9299:9438   */\ntag_215:\n    /* \"#utility.yul\":9083:9445   */\n  pop\n    /* \"#utility.yul\":9035:9445   */\n  swap3\n  swap2\n  pop\n  pop\n  jump\t// out\n    /* \"#utility.yul\":9451:9631   */\ntag_22:\n    /* \"#utility.yul\":9499:9576   */\n  0x4e487b7100000000000000000000000000000000000000000000000000000000\n    /* \"#utility.yul\":9496:9497   */\n  0x00\n    /* \"#utility.yul\":9489:9577   */\n  mstore\n    /* \"#utility.yul\":9596:9600   */\n  0x21\n    /* \"#utility.yul\":9593:9594   */\n  0x04\n    /* \"#utility.yul\":9586:9601   */\n  mstore\n    /* \"#utility.yul\":9620:9624   */\n  0x24\n    /* \"#utility.yul\":9617:9618   */\n  0x00\n    /* \"#utility.yul\":9610:9625   */\n  revert\n    /* \"#utility.yul\":9637:9755   */\ntag_101:\n    /* \"#utility.yul\":9724:9748   */\n  tag_219\n    /* \"#utility.yul\":9742:9747   */\n  dup2\n    /* \"#utility.yul\":9724:9748   */\n  tag_73\n  jump\t// in\ntag_219:\n    /* \"#utility.yul\":9719:9722   */\n  dup3\n    /* \"#utility.yul\":9712:9749   */\n  mstore\n    /* \"#utility.yul\":9637:9755   */\n  pop\n  pop\n  jump\t// out\n    /* \"#utility.yul\":9761:9983   */\ntag_52:\n    /* \"#utility.yul\":9854:9858   */\n  0x00\n    /* \"#utility.yul\":9892:9894   */\n  0x20\n    /* \"#utility.yul\":9881:9890   */\n  dup3\n    /* \"#utility.yul\":9877:9895   */\n  add\n    /* \"#utility.yul\":9869:9895   */\n  swap1\n  pop\n    /* \"#utility.yul\":9905:9976   */\n  tag_221\n    /* \"#utility.yul\":9973:9974   */\n  0x00\n    /* \"#utility.yul\":9962:9971   */\n  dup4\n    /* \"#utility.yul\":9958:9975   */\n  add\n    /* \"#utility.yul\":9949:9955   */\n  dup5\n    /* \"#utility.yul\":9905:9976   */\n  tag_101\n  jump\t// in\ntag_221:\n    /* \"#utility.yul\":9761:9983   */\n  swap3\n  swap2\n  pop\n  pop\n  jump\t// out\n    /* \"#utility.yul\":9989:10180   */\ntag_60:\n    /* \"#utility.yul\":10029:10032   */\n  0x00\n    /* \"#utility.yul\":10048:10068   */\n  tag_223\n    /* \"#utility.yul\":10066:10067   */\n  dup3\n    /* \"#utility.yul\":10048:10068   */\n  tag_84\n  jump\t// in\ntag_223:\n    /* \"#utility.yul\":10043:10068   */\n  swap2\n  pop\n    /* \"#utility.yul\":10082:10102   */\n  tag_224\n    /* \"#utility.yul\":10100:10101   */\n  dup4\n    /* \"#utility.yul\":10082:10102   */\n  tag_84\n  jump\t// in\ntag_224:\n    /* \"#utility.yul\":10077:10102   */\n  swap3\n  pop\n    /* \"#utility.yul\":10125:10126   */\n  dup3\n    /* \"#utility.yul\":10122:10123   */\n  dup3\n    /* \"#utility.yul\":10118:10127   */\n  add\n    /* \"#utility.yul\":10111:10127   */\n  swap1\n  pop\n    /* \"#utility.yul\":10146:10149   */\n  dup1\n    /* \"#utility.yul\":10143:10144   */\n  dup3\n    /* \"#utility.yul\":10140:10150   */\n  gt\n    /* \"#utility.yul\":10137:10173   */\n  iszero\n  tag_225\n  jumpi\n    /* \"#utility.yul\":10153:10171   */\n  tag_226\n  tag_96\n  jump\t// in\ntag_226:\n    /* \"#utility.yul\":10137:10173   */\ntag_225:\n    /* \"#utility.yul\":9989:10180   */\n  swap3\n  swap2\n  pop\n  pop\n  jump\t// out\n    /* \"#utility.yul\":10186:10304   */\ntag_102:\n    /* \"#utility.yul\":10273:10297   */\n  tag_228\n    /* \"#utility.yul\":10291:10296   */\n  dup2\n    /* \"#utility.yul\":10273:10297   */\n  tag_84\n  jump\t// in\ntag_228:\n    /* \"#utility.yul\":10268:10271   */\n  dup3\n    /* \"#utility.yul\":10261:10298   */\n  mstore\n    /* \"#utility.yul\":10186:10304   */\n  pop\n  pop\n  jump\t// out\n    /* \"#utility.yul\":10310:10752   */\ntag_64:\n    /* \"#utility.yul\":10459:10463   */\n  0x00\n    /* \"#utility.yul\":10497:10499   */\n  0x60\n    /* \"#utility.yul\":10486:10495   */\n  dup3\n    /* \"#utility.yul\":10482:10500   */\n  add\n    /* \"#utility.yul\":10474:10500   */\n  swap1\n  pop\n    /* \"#utility.yul\":10510:10581   */\n  tag_230\n    /* \"#utility.yul\":10578:10579   */\n  0x00\n    /* \"#utility.yul\":10567:10576   */\n  dup4\n    /* \"#utility.yul\":10563:10580   */\n  add\n    /* \"#utility.yul\":10554:10560   */\n  dup7\n    /* \"#utility.yul\":10510:10581   */\n  tag_101\n  jump\t// in\ntag_230:\n    /* \"#utility.yul\":10591:10663   */\n  tag_231\n    /* \"#utility.yul\":10659:10661   */\n  0x20\n    /* \"#utility.yul\":10648:10657   */\n  dup4\n    /* \"#utility.yul\":10644:10662   */\n  add\n    /* \"#utility.yul\":10635:10641   */\n  dup6\n    /* \"#utility.yul\":10591:10663   */\n  tag_102\n  jump\t// in\ntag_231:\n    /* \"#utility.yul\":10673:10745   */\n  tag_232\n    /* \"#utility.yul\":10741:10743   */\n  0x40\n    /* \"#utility.yul\":10730:10739   */\n  dup4\n    /* \"#utility.yul\":10726:10744   */\n  add\n    /* \"#utility.yul\":10717:10723   */\n  dup5\n    /* \"#utility.yul\":10673:10745   */\n  tag_102\n  jump\t// in\ntag_232:\n    /* \"#utility.yul\":10310:10752   */\n  swap5\n  swap4\n  pop\n  pop\n  pop\n  pop\n  jump\t// out\n    /* \"#utility.yul\":10758:10980   */\ntag_68:\n    /* \"#utility.yul\":10851:10855   */\n  0x00\n    /* \"#utility.yul\":10889:10891   */\n  0x20\n    /* \"#utility.yul\":10878:10887   */\n  dup3\n    /* \"#utility.yul\":10874:10892   */\n  add\n    /* \"#utility.yul\":10866:10892   */\n  swap1\n  pop\n    /* \"#utility.yul\":10902:10973   */\n  tag_234\n    /* \"#utility.yul\":10970:10971   */\n  0x00\n    /* \"#utility.yul\":10959:10968   */\n  dup4\n    /* \"#utility.yul\":10955:10972   */\n  add\n    /* \"#utility.yul\":10946:10952   */\n  dup5\n    /* \"#utility.yul\":10902:10973   */\n  tag_102\n  jump\t// in\ntag_234:\n    /* \"#utility.yul\":10758:10980   */\n  swap3\n  swap2\n  pop\n  pop\n  jump\t// out\n    /* \"GymTokenSmartContracts/GymToken.sol\":230:4910  contract GymToken is ERC20, Pausable, AccessControl {... */\ntag_41:\n  dataSize(sub_0)\n  dup1\n  dataOffset(sub_0)\n  0x00\n  codecopy\n  0x00\n  return\nstop\n\nsub_0: assembly {\n        /* \"GymTokenSmartContracts/GymToken.sol\":230:4910  contract GymToken is ERC20, Pausable, AccessControl {... */\n      mstore(0x40, 0x80)\n      callvalue\n      dup1\n      iszero\n      tag_1\n      jumpi\n      revert(0x00, 0x00)\n    tag_1:\n      pop\n      jumpi(tag_2, lt(calldatasize, 0x04))\n      shr(0xe0, calldataload(0x00))\n      dup1\n      0x76809ce3\n      gt\n      tag_36\n      jumpi\n      dup1\n      0xa217fddf\n      gt\n      tag_37\n      jumpi\n      dup1\n      0xb4694876\n      gt\n      tag_38\n      jumpi\n      dup1\n      0xb4694876\n      eq\n      tag_31\n      jumpi\n      dup1\n      0xd547741f\n      eq\n      tag_32\n      jumpi\n      dup1\n      0xdd62ed3e\n      eq\n      tag_33\n      jumpi\n      dup1\n      0xea4bbaf4\n      eq\n      tag_34\n      jumpi\n      dup1\n      0xec87621c\n      eq\n      tag_35\n      jumpi\n      jump(tag_2)\n    tag_38:\n      dup1\n      0xa217fddf\n      eq\n      tag_27\n      jumpi\n      dup1\n      0xa61b93cc\n      eq\n      tag_28\n      jumpi\n      dup1\n      0xa683dfab\n      eq\n      tag_29\n      jumpi\n      dup1\n      0xa9059cbb\n      eq\n      tag_30\n      jumpi\n      jump(tag_2)\n    tag_37:\n      dup1\n      0x8621026a\n      gt\n      tag_39\n      jumpi\n      dup1\n      0x8621026a\n      eq\n      tag_23\n      jumpi\n      dup1\n      0x91d14854\n      eq\n      tag_24\n      jumpi\n      dup1\n      0x95d89b41\n      eq\n      tag_25\n      jumpi\n      dup1\n      0xa10f469e\n      eq\n      tag_26\n      jumpi\n      jump(tag_2)\n    tag_39:\n      dup1\n      0x76809ce3\n      eq\n      tag_19\n      jumpi\n      dup1\n      0x8456cb59\n      eq\n      tag_20\n      jumpi\n      dup1\n      0x84a3a0f3\n      eq\n      tag_21\n      jumpi\n      dup1\n      0x85290fa1\n      eq\n      tag_22\n      jumpi\n      jump(tag_2)\n    tag_36:\n      dup1\n      0x2f2ff15d\n      gt\n      tag_40\n      jumpi\n      dup1\n      0x3f4ba83a\n      gt\n      tag_41\n      jumpi\n      dup1\n      0x3f4ba83a\n      eq\n      tag_15\n      jumpi\n      dup1\n      0x4b6e2331\n      eq\n      tag_16\n      jumpi\n      dup1\n      0x5c975abb\n      eq\n      tag_17\n      jumpi\n      dup1\n      0x70a08231\n      eq\n      tag_18\n      jumpi\n      jump(tag_2)\n    tag_41:\n      dup1\n      0x2f2ff15d\n      eq\n      tag_11\n      jumpi\n      dup1\n      0x2ff2e9dc\n      eq\n      tag_12\n      jumpi\n      dup1\n      0x313ce567\n      eq\n      tag_13\n      jumpi\n      dup1\n      0x36568abe\n      eq\n      tag_14\n      jumpi\n      jump(tag_2)\n    tag_40:\n      dup1\n      0x18160ddd\n      gt\n      tag_42\n      jumpi\n      dup1\n      0x18160ddd\n      eq\n      tag_7\n      jumpi\n      dup1\n      0x23b872dd\n      eq\n      tag_8\n      jumpi\n      dup1\n      0x248a9ca3\n      eq\n      tag_9\n      jumpi\n      dup1\n      0x265a5eea\n      eq\n      tag_10\n      jumpi\n      jump(tag_2)\n    tag_42:\n      dup1\n      0x01ffc9a7\n      eq\n      tag_3\n      jumpi\n      dup1\n      0x06fdde03\n      eq\n      tag_4\n      jumpi\n      dup1\n      0x095ea7b3\n      eq\n      tag_5\n      jumpi\n      dup1\n      0x0ca2a400\n      eq\n      tag_6\n      jumpi\n    tag_2:\n      revert(0x00, 0x00)\n        /* \"@openzeppelin/contracts/access/AccessControl.sol\":2565:2767  function supportsInterface(bytes4 interfaceId) public view virtual override returns (bool) {... */\n    tag_3:\n      tag_43\n      0x04\n      dup1\n      calldatasize\n      sub\n      dup2\n      add\n      swap1\n      tag_44\n      swap2\n      swap1\n      tag_45\n      jump\t// in\n    tag_44:\n      tag_46\n      jump\t// in\n    tag_43:\n      mload(0x40)\n      tag_47\n      swap2\n      swap1\n      tag_48\n      jump\t// in\n    tag_47:\n      mload(0x40)\n      dup1\n      swap2\n      sub\n      swap1\n      return\n        /* \"@openzeppelin/contracts/token/ERC20/ERC20.sol\":1779:1868  function name() public view virtual returns (string memory) {... */\n    tag_4:\n      tag_49\n      tag_50\n      jump\t// in\n    tag_49:\n      mload(0x40)\n      tag_51\n      swap2\n      swap1\n      tag_52\n      jump\t// in\n    tag_51:\n      mload(0x40)\n      dup1\n      swap2\n      sub\n      swap1\n      return\n        /* \"@openzeppelin/contracts/token/ERC20/ERC20.sol\":3998:4184  function approve(address spender, uint256 value) public virtual returns (bool) {... */\n    tag_5:\n      tag_53\n      0x04\n      dup1\n      calldatasize\n      sub\n      dup2\n      add\n      swap1\n      tag_54\n      swap2\n      swap1\n      tag_55\n      jump\t// in\n    tag_54:\n      tag_56\n      jump\t// in\n    tag_53:\n      mload(0x40)\n      tag_57\n      swap2\n      swap1\n      tag_48\n      jump\t// in\n    tag_57:\n      mload(0x40)\n      dup1\n      swap2\n      sub\n      swap1\n      return\n        /* \"GymTokenSmartContracts/GymToken.sol\":2720:2940  function payStaff(address staff, uint256 amount) public whenNotPaused onlyRole(MANAGER_ROLE) {... */\n    tag_6:\n      tag_58\n      0x04\n      dup1\n      calldatasize\n      sub\n      dup2\n      add\n      swap1\n      tag_59\n      swap2\n      swap1\n      tag_55\n      jump\t// in\n    tag_59:\n      tag_60\n      jump\t// in\n    tag_58:\n      stop\n        /* \"@openzeppelin/contracts/token/ERC20/ERC20.sol\":2849:2946  function totalSupply() public view virtual returns (uint256) {... */\n    tag_7:\n      tag_61\n      tag_62\n      jump\t// in\n    tag_61:\n      mload(0x40)\n      tag_63\n      swap2\n      swap1\n      tag_64\n      jump\t// in\n    tag_63:\n      mload(0x40)\n      dup1\n      swap2\n      sub\n      swap1\n      return\n        /* \"@openzeppelin/contracts/token/ERC20/ERC20.sol\":4776:5020  function transferFrom(address from, address to, uint256 value) public virtual returns (bool) {... */\n    tag_8:\n      tag_65\n      0x04\n      dup1\n      calldatasize\n      sub\n      dup2\n      add\n      swap1\n      tag_66\n      swap2\n      swap1\n      tag_67\n      jump\t// in\n    tag_66:\n      tag_68\n      jump\t// in\n    tag_65:\n      mload(0x40)\n      tag_69\n      swap2\n      swap1\n      tag_48\n      jump\t// in\n    tag_69:\n      mload(0x40)\n      dup1\n      swap2\n      sub\n      swap1\n      return\n        /* \"@openzeppelin/contracts/access/AccessControl.sol\":3810:3930  function getRoleAdmin(bytes32 role) public view virtual returns (bytes32) {... */\n    tag_9:\n      tag_70\n      0x04\n      dup1\n      calldatasize\n      sub\n      dup2\n      add\n      swap1\n      tag_71\n      swap2\n      swap1\n      tag_72\n      jump\t// in\n    tag_71:\n      tag_73\n      jump\t// in\n    tag_70:\n      mload(0x40)\n      tag_74\n      swap2\n      swap1\n      tag_75\n      jump\t// in\n    tag_74:\n      mload(0x40)\n      dup1\n      swap2\n      sub\n      swap1\n      return\n        /* \"GymTokenSmartContracts/GymToken.sol\":3510:4602  function purchaseMembership(MEMBERSHIP_TYPE membershipType) public whenNotPaused onlyMember {... */\n    tag_10:\n      tag_76\n      0x04\n      dup1\n      calldatasize\n      sub\n      dup2\n      add\n      swap1\n      tag_77\n      swap2\n      swap1\n      tag_78\n      jump\t// in\n    tag_77:\n      tag_79\n      jump\t// in\n    tag_76:\n      stop\n        /* \"@openzeppelin/contracts/access/AccessControl.sol\":4226:4362  function grantRole(bytes32 role, address account) public virtual onlyRole(getRoleAdmin(role)) {... */\n    tag_11:\n      tag_80\n      0x04\n      dup1\n      calldatasize\n      sub\n      dup2\n      add\n      swap1\n      tag_81\n      swap2\n      swap1\n      tag_82\n      jump\t// in\n    tag_81:\n      tag_83\n      jump\t// in\n    tag_80:\n      stop\n        /* \"GymTokenSmartContracts/GymToken.sol\":327:393  uint256 public constant INITIAL_SUPPLY = 1000000 * (10 ** decimal) */\n    tag_12:\n      tag_84\n      tag_85\n      jump\t// in\n    tag_84:\n      mload(0x40)\n      tag_86\n      swap2\n      swap1\n      tag_64\n      jump\t// in\n    tag_86:\n      mload(0x40)\n      dup1\n      swap2\n      sub\n      swap1\n      return\n        /* \"@openzeppelin/contracts/token/ERC20/ERC20.sol\":2707:2789  function decimals() public view virtual returns (uint8) {... */\n    tag_13:\n      tag_87\n      tag_88\n      jump\t// in\n    tag_87:\n      mload(0x40)\n      tag_89\n      swap2\n      swap1\n      tag_90\n      jump\t// in\n    tag_89:\n      mload(0x40)\n      dup1\n      swap2\n      sub\n      swap1\n      return\n        /* \"@openzeppelin/contracts/access/AccessControl.sol\":5328:5573  function renounceRole(bytes32 role, address callerConfirmation) public virtual {... */\n    tag_14:\n      tag_91\n      0x04\n      dup1\n      calldatasize\n      sub\n      dup2\n      add\n      swap1\n      tag_92\n      swap2\n      swap1\n      tag_82\n      jump\t// in\n    tag_92:\n      tag_93\n      jump\t// in\n    tag_91:\n      stop\n        /* \"GymTokenSmartContracts/GymToken.sol\":2588:2664  function unpause() public onlyRole(MANAGER_ROLE) {... */\n    tag_15:\n      tag_94\n      tag_95\n      jump\t// in\n    tag_94:\n      stop\n        /* \"GymTokenSmartContracts/GymToken.sol\":908:967  mapping(MEMBERSHIP_TYPE => uint256) public membershipPrices */\n    tag_16:\n      tag_96\n      0x04\n      dup1\n      calldatasize\n      sub\n      dup2\n      add\n      swap1\n      tag_97\n      swap2\n      swap1\n      tag_78\n      jump\t// in\n    tag_97:\n      tag_98\n      jump\t// in\n    tag_96:\n      mload(0x40)\n      tag_99\n      swap2\n      swap1\n      tag_64\n      jump\t// in\n    tag_99:\n      mload(0x40)\n      dup1\n      swap2\n      sub\n      swap1\n      return\n        /* \"@openzeppelin/contracts/security/Pausable.sol\":1615:1699  function paused() public view virtual returns (bool) {... */\n    tag_17:\n      tag_100\n      tag_101\n      jump\t// in\n    tag_100:\n      mload(0x40)\n      tag_102\n      swap2\n      swap1\n      tag_48\n      jump\t// in\n    tag_102:\n      mload(0x40)\n      dup1\n      swap2\n      sub\n      swap1\n      return\n        /* \"@openzeppelin/contracts/token/ERC20/ERC20.sol\":3004:3120  function balanceOf(address account) public view virtual returns (uint256) {... */\n    tag_18:\n      tag_103\n      0x04\n      dup1\n      calldatasize\n      sub\n      dup2\n      add\n      swap1\n      tag_104\n      swap2\n      swap1\n      tag_105\n      jump\t// in\n    tag_104:\n      tag_106\n      jump\t// in\n    tag_103:\n      mload(0x40)\n      tag_107\n      swap2\n      swap1\n      tag_64\n      jump\t// in\n    tag_107:\n      mload(0x40)\n      dup1\n      swap2\n      sub\n      swap1\n      return\n        /* \"GymTokenSmartContracts/GymToken.sol\":288:321  uint8 public constant decimal = 2 */\n    tag_19:\n      tag_108\n      tag_109\n      jump\t// in\n    tag_108:\n      mload(0x40)\n      tag_110\n      swap2\n      swap1\n      tag_90\n      jump\t// in\n    tag_110:\n      mload(0x40)\n      dup1\n      swap2\n      sub\n      swap1\n      return\n        /* \"GymTokenSmartContracts/GymToken.sol\":2459:2531  function pause() public onlyRole(MANAGER_ROLE) {... */\n    tag_20:\n      tag_111\n      tag_112\n      jump\t// in\n    tag_111:\n      stop\n        /* \"GymTokenSmartContracts/GymToken.sol\":756:816  uint256 public constant REFERRAL_REWARD = 10 * (10**decimal) */\n    tag_21:\n      tag_113\n      tag_114\n      jump\t// in\n    tag_113:\n      mload(0x40)\n      tag_115\n      swap2\n      swap1\n      tag_64\n      jump\t// in\n    tag_115:\n      mload(0x40)\n      dup1\n      swap2\n      sub\n      swap1\n      return\n        /* \"GymTokenSmartContracts/GymToken.sol\":470:530  bytes32 public constant STAFF_ROLE = keccak256(\"STAFF_ROLE\") */\n    tag_22:\n      tag_116\n      tag_117\n      jump\t// in\n    tag_116:\n      mload(0x40)\n      tag_118\n      swap2\n      swap1\n      tag_75\n      jump\t// in\n    tag_118:\n      mload(0x40)\n      dup1\n      swap2\n      sub\n      swap1\n      return\n        /* \"GymTokenSmartContracts/GymToken.sol\":4648:4908  function getRemainingMembershipTime(address member) public view returns (uint256) {... */\n    tag_23:\n      tag_119\n      0x04\n      dup1\n      calldatasize\n      sub\n      dup2\n      add\n      swap1\n      tag_120\n      swap2\n      swap1\n      tag_105\n      jump\t// in\n    tag_120:\n      tag_121\n      jump\t// in\n    tag_119:\n      mload(0x40)\n      tag_122\n      swap2\n      swap1\n      tag_64\n      jump\t// in\n    tag_122:\n      mload(0x40)\n      dup1\n      swap2\n      sub\n      swap1\n      return\n        /* \"@openzeppelin/contracts/access/AccessControl.sol\":2854:2990  function hasRole(bytes32 role, address account) public view virtual returns (bool) {... */\n    tag_24:\n      tag_123\n      0x04\n      dup1\n      calldatasize\n      sub\n      dup2\n      add\n      swap1\n      tag_124\n      swap2\n      swap1\n      tag_82\n      jump\t// in\n    tag_124:\n      tag_125\n      jump\t// in\n    tag_123:\n      mload(0x40)\n      tag_126\n      swap2\n      swap1\n      tag_48\n      jump\t// in\n    tag_126:\n      mload(0x40)\n      dup1\n      swap2\n      sub\n      swap1\n      return\n        /* \"@openzeppelin/contracts/token/ERC20/ERC20.sol\":1981:2074  function symbol() public view virtual returns (string memory) {... */\n    tag_25:\n      tag_127\n      tag_128\n      jump\t// in\n    tag_127:\n      mload(0x40)\n      tag_129\n      swap2\n      swap1\n      tag_52\n      jump\t// in\n    tag_129:\n      mload(0x40)\n      dup1\n      swap2\n      sub\n      swap1\n      return\n        /* \"GymTokenSmartContracts/GymToken.sol\":536:598  bytes32 public constant MEMBER_ROLE = keccak256(\"MEMBER_ROLE\") */\n    tag_26:\n      tag_130\n      tag_131\n      jump\t// in\n    tag_130:\n      mload(0x40)\n      tag_132\n      swap2\n      swap1\n      tag_75\n      jump\t// in\n    tag_132:\n      mload(0x40)\n      dup1\n      swap2\n      sub\n      swap1\n      return\n        /* \"@openzeppelin/contracts/access/AccessControl.sol\":2187:2236  bytes32 public constant DEFAULT_ADMIN_ROLE = 0x00 */\n    tag_27:\n      tag_133\n      tag_134\n      jump\t// in\n    tag_133:\n      mload(0x40)\n      tag_135\n      swap2\n      swap1\n      tag_75\n      jump\t// in\n    tag_135:\n      mload(0x40)\n      dup1\n      swap2\n      sub\n      swap1\n      return\n        /* \"GymTokenSmartContracts/GymToken.sol\":604:668  bytes32 public constant TRAINER_ROLE = keccak256(\"TRAINER_ROLE\") */\n    tag_28:\n      tag_136\n      tag_137\n      jump\t// in\n    tag_136:\n      mload(0x40)\n      tag_138\n      swap2\n      swap1\n      tag_75\n      jump\t// in\n    tag_138:\n      mload(0x40)\n      dup1\n      swap2\n      sub\n      swap1\n      return\n        /* \"GymTokenSmartContracts/GymToken.sol\":2985:3446  function rewardReferral(address referrer) public whenNotPaused onlyRole(MANAGER_ROLE) {... */\n    tag_29:\n      tag_139\n      0x04\n      dup1\n      calldatasize\n      sub\n      dup2\n      add\n      swap1\n      tag_140\n      swap2\n      swap1\n      tag_105\n      jump\t// in\n    tag_140:\n      tag_141\n      jump\t// in\n    tag_139:\n      stop\n        /* \"@openzeppelin/contracts/token/ERC20/ERC20.sol\":3315:3493  function transfer(address to, uint256 value) public virtual returns (bool) {... */\n    tag_30:\n      tag_142\n      0x04\n      dup1\n      calldatasize\n      sub\n      dup2\n      add\n      swap1\n      tag_143\n      swap2\n      swap1\n      tag_55\n      jump\t// in\n    tag_143:\n      tag_144\n      jump\t// in\n    tag_142:\n      mload(0x40)\n      tag_145\n      swap2\n      swap1\n      tag_48\n      jump\t// in\n    tag_145:\n      mload(0x40)\n      dup1\n      swap2\n      sub\n      swap1\n      return\n        /* \"GymTokenSmartContracts/GymToken.sol\":1105:1155  mapping(address => uint256) public referralBonuses */\n    tag_31:\n      tag_146\n      0x04\n      dup1\n      calldatasize\n      sub\n      dup2\n      add\n      swap1\n      tag_147\n      swap2\n      swap1\n      tag_105\n      jump\t// in\n    tag_147:\n      tag_148\n      jump\t// in\n    tag_146:\n      mload(0x40)\n      tag_149\n      swap2\n      swap1\n      tag_64\n      jump\t// in\n    tag_149:\n      mload(0x40)\n      dup1\n      swap2\n      sub\n      swap1\n      return\n        /* \"@openzeppelin/contracts/access/AccessControl.sol\":4642:4780  function revokeRole(bytes32 role, address account) public virtual onlyRole(getRoleAdmin(role)) {... */\n    tag_32:\n      tag_150\n      0x04\n      dup1\n      calldatasize\n      sub\n      dup2\n      add\n      swap1\n      tag_151\n      swap2\n      swap1\n      tag_82\n      jump\t// in\n    tag_151:\n      tag_152\n      jump\t// in\n    tag_150:\n      stop\n        /* \"@openzeppelin/contracts/token/ERC20/ERC20.sol\":3551:3691  function allowance(address owner, address spender) public view virtual returns (uint256) {... */\n    tag_33:\n      tag_153\n      0x04\n      dup1\n      calldatasize\n      sub\n      dup2\n      add\n      swap1\n      tag_154\n      swap2\n      swap1\n      tag_155\n      jump\t// in\n    tag_154:\n      tag_156\n      jump\t// in\n    tag_153:\n      mload(0x40)\n      tag_157\n      swap2\n      swap1\n      tag_64\n      jump\t// in\n    tag_157:\n      mload(0x40)\n      dup1\n      swap2\n      sub\n      swap1\n      return\n        /* \"GymTokenSmartContracts/GymToken.sol\":1002:1053  mapping(address => uint256) public membershipExpiry */\n    tag_34:\n      tag_158\n      0x04\n      dup1\n      calldatasize\n      sub\n      dup2\n      add\n      swap1\n      tag_159\n      swap2\n      swap1\n      tag_105\n      jump\t// in\n    tag_159:\n      tag_160\n      jump\t// in\n    tag_158:\n      mload(0x40)\n      tag_161\n      swap2\n      swap1\n      tag_64\n      jump\t// in\n    tag_161:\n      mload(0x40)\n      dup1\n      swap2\n      sub\n      swap1\n      return\n        /* \"GymTokenSmartContracts/GymToken.sol\":400:464  bytes32 public constant MANAGER_ROLE = keccak256(\"MANAGER_ROLE\") */\n    tag_35:\n      tag_162\n      tag_163\n      jump\t// in\n    tag_162:\n      mload(0x40)\n      tag_164\n      swap2\n      swap1\n      tag_75\n      jump\t// in\n    tag_164:\n      mload(0x40)\n      dup1\n      swap2\n      sub\n      swap1\n      return\n        /* \"@openzeppelin/contracts/access/AccessControl.sol\":2565:2767  function supportsInterface(bytes4 interfaceId) public view virtual override returns (bool) {... */\n    tag_46:\n        /* \"@openzeppelin/contracts/access/AccessControl.sol\":2650:2654  bool */\n      0x00\n        /* \"@openzeppelin/contracts/access/AccessControl.sol\":2688:2720  type(IAccessControl).interfaceId */\n      0x7965db0b00000000000000000000000000000000000000000000000000000000\n        /* \"@openzeppelin/contracts/access/AccessControl.sol\":2673:2720  interfaceId == type(IAccessControl).interfaceId */\n      not(0xffffffffffffffffffffffffffffffffffffffffffffffffffffffff)\n      and\n        /* \"@openzeppelin/contracts/access/AccessControl.sol\":2673:2684  interfaceId */\n      dup3\n        /* \"@openzeppelin/contracts/access/AccessControl.sol\":2673:2720  interfaceId == type(IAccessControl).interfaceId */\n      not(0xffffffffffffffffffffffffffffffffffffffffffffffffffffffff)\n      and\n      eq\n        /* \"@openzeppelin/contracts/access/AccessControl.sol\":2673:2760  interfaceId == type(IAccessControl).interfaceId || super.supportsInterface(interfaceId) */\n      dup1\n      tag_166\n      jumpi\n      pop\n        /* \"@openzeppelin/contracts/access/AccessControl.sol\":2724:2760  super.supportsInterface(interfaceId) */\n      tag_167\n        /* \"@openzeppelin/contracts/access/AccessControl.sol\":2748:2759  interfaceId */\n      dup3\n        /* \"@openzeppelin/contracts/access/AccessControl.sol\":2724:2747  super.supportsInterface */\n      tag_168\n        /* \"@openzeppelin/contracts/access/AccessControl.sol\":2724:2760  super.supportsInterface(interfaceId) */\n      jump\t// in\n    tag_167:\n        /* \"@openzeppelin/contracts/access/AccessControl.sol\":2673:2760  interfaceId == type(IAccessControl).interfaceId || super.supportsInterface(interfaceId) */\n    tag_166:\n        /* \"@openzeppelin/contracts/access/AccessControl.sol\":2666:2760  return interfaceId == type(IAccessControl).interfaceId || super.supportsInterface(interfaceId) */\n      swap1\n      pop\n        /* \"@openzeppelin/contracts/access/AccessControl.sol\":2565:2767  function supportsInterface(bytes4 interfaceId) public view virtual override returns (bool) {... */\n      swap2\n      swap1\n      pop\n      jump\t// out\n        /* \"@openzeppelin/contracts/token/ERC20/ERC20.sol\":1779:1868  function name() public view virtual returns (string memory) {... */\n    tag_50:\n        /* \"@openzeppelin/contracts/token/ERC20/ERC20.sol\":1824:1837  string memory */\n      0x60\n        /* \"@openzeppelin/contracts/token/ERC20/ERC20.sol\":1856:1861  _name */\n      0x03\n        /* \"@openzeppelin/contracts/token/ERC20/ERC20.sol\":1849:1861  return _name */\n      dup1\n      sload\n      tag_170\n      swap1\n      tag_171\n      jump\t// in\n    tag_170:\n      dup1\n      0x1f\n      add\n      0x20\n      dup1\n      swap2\n      div\n      mul\n      0x20\n      add\n      mload(0x40)\n      swap1\n      dup2\n      add\n      0x40\n      mstore\n      dup1\n      swap3\n      swap2\n      swap1\n      dup2\n      dup2\n      mstore\n      0x20\n      add\n      dup3\n      dup1\n      sload\n      tag_172\n      swap1\n      tag_171\n      jump\t// in\n    tag_172:\n      dup1\n      iszero\n      tag_173\n      jumpi\n      dup1\n      0x1f\n      lt\n      tag_174\n      jumpi\n      0x0100\n      dup1\n      dup4\n      sload\n      div\n      mul\n      dup4\n      mstore\n      swap2\n      0x20\n      add\n      swap2\n      jump(tag_173)\n    tag_174:\n      dup3\n      add\n      swap2\n      swap1\n      0x00\n      mstore\n      keccak256(0x00, 0x20)\n      swap1\n    tag_175:\n      dup2\n      sload\n      dup2\n      mstore\n      swap1\n      0x01\n      add\n      swap1\n      0x20\n      add\n      dup1\n      dup4\n      gt\n      tag_175\n      jumpi\n      dup3\n      swap1\n      sub\n      0x1f\n      and\n      dup3\n      add\n      swap2\n    tag_173:\n      pop\n      pop\n      pop\n      pop\n      pop\n      swap1\n      pop\n        /* \"@openzeppelin/contracts/token/ERC20/ERC20.sol\":1779:1868  function name() public view virtual returns (string memory) {... */\n      swap1\n      jump\t// out\n        /* \"@openzeppelin/contracts/token/ERC20/ERC20.sol\":3998:4184  function approve(address spender, uint256 value) public virtual returns (bool) {... */\n    tag_56:\n        /* \"@openzeppelin/contracts/token/ERC20/ERC20.sol\":4071:4075  bool */\n      0x00\n        /* \"@openzeppelin/contracts/token/ERC20/ERC20.sol\":4087:4100  address owner */\n      0x00\n        /* \"@openzeppelin/contracts/token/ERC20/ERC20.sol\":4103:4115  _msgSender() */\n      tag_177\n        /* \"@openzeppelin/contracts/token/ERC20/ERC20.sol\":4103:4113  _msgSender */\n      tag_178\n        /* \"@openzeppelin/contracts/token/ERC20/ERC20.sol\":4103:4115  _msgSender() */\n      jump\t// in\n    tag_177:\n        /* \"@openzeppelin/contracts/token/ERC20/ERC20.sol\":4087:4115  address owner = _msgSender() */\n      swap1\n      pop\n        /* \"@openzeppelin/contracts/token/ERC20/ERC20.sol\":4125:4156  _approve(owner, spender, value) */\n      tag_179\n        /* \"@openzeppelin/contracts/token/ERC20/ERC20.sol\":4134:4139  owner */\n      dup2\n        /* \"@openzeppelin/contracts/token/ERC20/ERC20.sol\":4141:4148  spender */\n      dup6\n        /* \"@openzeppelin/contracts/token/ERC20/ERC20.sol\":4150:4155  value */\n      dup6\n        /* \"@openzeppelin/contracts/token/ERC20/ERC20.sol\":4125:4133  _approve */\n      tag_180\n        /* \"@openzeppelin/contracts/token/ERC20/ERC20.sol\":4125:4156  _approve(owner, spender, value) */\n      jump\t// in\n    tag_179:\n        /* \"@openzeppelin/contracts/token/ERC20/ERC20.sol\":4173:4177  true */\n      0x01\n        /* \"@openzeppelin/contracts/token/ERC20/ERC20.sol\":4166:4177  return true */\n      swap2\n      pop\n      pop\n        /* \"@openzeppelin/contracts/token/ERC20/ERC20.sol\":3998:4184  function approve(address spender, uint256 value) public virtual returns (bool) {... */\n      swap3\n      swap2\n      pop\n      pop\n      jump\t// out\n        /* \"GymTokenSmartContracts/GymToken.sol\":2720:2940  function payStaff(address staff, uint256 amount) public whenNotPaused onlyRole(MANAGER_ROLE) {... */\n    tag_60:\n        /* \"@openzeppelin/contracts/security/Pausable.sol\":1239:1258  _requireNotPaused() */\n      tag_182\n        /* \"@openzeppelin/contracts/security/Pausable.sol\":1239:1256  _requireNotPaused */\n      tag_183\n        /* \"@openzeppelin/contracts/security/Pausable.sol\":1239:1258  _requireNotPaused() */\n      jump\t// in\n    tag_182:\n        /* \"GymTokenSmartContracts/GymToken.sol\":439:464  keccak256(\"MANAGER_ROLE\") */\n      0x241ecf16d79d0f8dbfb92cbc07fe17840425976cf0667f022fe9877caa831b08\n        /* \"@openzeppelin/contracts/access/AccessControl.sol\":2464:2480  _checkRole(role) */\n      tag_185\n        /* \"@openzeppelin/contracts/access/AccessControl.sol\":2475:2479  role */\n      dup2\n        /* \"@openzeppelin/contracts/access/AccessControl.sol\":2464:2474  _checkRole */\n      tag_186\n        /* \"@openzeppelin/contracts/access/AccessControl.sol\":2464:2480  _checkRole(role) */\n      jump\t// in\n    tag_185:\n        /* \"GymTokenSmartContracts/GymToken.sol\":2856:2862  amount */\n      dup2\n        /* \"GymTokenSmartContracts/GymToken.sol\":2831:2852  balanceOf(msg.sender) */\n      tag_188\n        /* \"GymTokenSmartContracts/GymToken.sol\":2841:2851  msg.sender */\n      caller\n        /* \"GymTokenSmartContracts/GymToken.sol\":2831:2840  balanceOf */\n      tag_106\n        /* \"GymTokenSmartContracts/GymToken.sol\":2831:2852  balanceOf(msg.sender) */\n      jump\t// in\n    tag_188:\n        /* \"GymTokenSmartContracts/GymToken.sol\":2831:2862  balanceOf(msg.sender) >= amount */\n      lt\n      iszero\n        /* \"GymTokenSmartContracts/GymToken.sol\":2823:2887  require(balanceOf(msg.sender) >= amount, \"Insufficient balance\") */\n      tag_189\n      jumpi\n      mload(0x40)\n      0x08c379a000000000000000000000000000000000000000000000000000000000\n      dup2\n      mstore\n      0x04\n      add\n      tag_190\n      swap1\n      tag_191\n      jump\t// in\n    tag_190:\n      mload(0x40)\n      dup1\n      swap2\n      sub\n      swap1\n      revert\n    tag_189:\n        /* \"GymTokenSmartContracts/GymToken.sol\":2897:2933  _transfer(msg.sender, staff, amount) */\n      tag_192\n        /* \"GymTokenSmartContracts/GymToken.sol\":2907:2917  msg.sender */\n      caller\n        /* \"GymTokenSmartContracts/GymToken.sol\":2919:2924  staff */\n      dup5\n        /* \"GymTokenSmartContracts/GymToken.sol\":2926:2932  amount */\n      dup5\n        /* \"GymTokenSmartContracts/GymToken.sol\":2897:2906  _transfer */\n      tag_193\n        /* \"GymTokenSmartContracts/GymToken.sol\":2897:2933  _transfer(msg.sender, staff, amount) */\n      jump\t// in\n    tag_192:\n        /* \"@openzeppelin/contracts/security/Pausable.sol\":1268:1269  _ */\n      pop\n        /* \"GymTokenSmartContracts/GymToken.sol\":2720:2940  function payStaff(address staff, uint256 amount) public whenNotPaused onlyRole(MANAGER_ROLE) {... */\n      pop\n      pop\n      jump\t// out\n        /* \"@openzeppelin/contracts/token/ERC20/ERC20.sol\":2849:2946  function totalSupply() public view virtual returns (uint256) {... */\n    tag_62:\n        /* \"@openzeppelin/contracts/token/ERC20/ERC20.sol\":2901:2908  uint256 */\n      0x00\n        /* \"@openzeppelin/contracts/token/ERC20/ERC20.sol\":2927:2939  _totalSupply */\n      sload(0x02)\n        /* \"@openzeppelin/contracts/token/ERC20/ERC20.sol\":2920:2939  return _totalSupply */\n      swap1\n      pop\n        /* \"@openzeppelin/contracts/token/ERC20/ERC20.sol\":2849:2946  function totalSupply() public view virtual returns (uint256) {... */\n      swap1\n      jump\t// out\n        /* \"@openzeppelin/contracts/token/ERC20/ERC20.sol\":4776:5020  function transferFrom(address from, address to, uint256 value) public virtual returns (bool) {... */\n    tag_68:\n        /* \"@openzeppelin/contracts/token/ERC20/ERC20.sol\":4863:4867  bool */\n      0x00\n        /* \"@openzeppelin/contracts/token/ERC20/ERC20.sol\":4879:4894  address spender */\n      0x00\n        /* \"@openzeppelin/contracts/token/ERC20/ERC20.sol\":4897:4909  _msgSender() */\n      tag_196\n        /* \"@openzeppelin/contracts/token/ERC20/ERC20.sol\":4897:4907  _msgSender */\n      tag_178\n        /* \"@openzeppelin/contracts/token/ERC20/ERC20.sol\":4897:4909  _msgSender() */\n      jump\t// in\n    tag_196:\n        /* \"@openzeppelin/contracts/token/ERC20/ERC20.sol\":4879:4909  address spender = _msgSender() */\n      swap1\n      pop\n        /* \"@openzeppelin/contracts/token/ERC20/ERC20.sol\":4919:4956  _spendAllowance(from, spender, value) */\n      tag_197\n        /* \"@openzeppelin/contracts/token/ERC20/ERC20.sol\":4935:4939  from */\n      dup6\n        /* \"@openzeppelin/contracts/token/ERC20/ERC20.sol\":4941:4948  spender */\n      dup3\n        /* \"@openzeppelin/contracts/token/ERC20/ERC20.sol\":4950:4955  value */\n      dup6\n        /* \"@openzeppelin/contracts/token/ERC20/ERC20.sol\":4919:4934  _spendAllowance */\n      tag_198\n        /* \"@openzeppelin/contracts/token/ERC20/ERC20.sol\":4919:4956  _spendAllowance(from, spender, value) */\n      jump\t// in\n    tag_197:\n        /* \"@openzeppelin/contracts/token/ERC20/ERC20.sol\":4966:4992  _transfer(from, to, value) */\n      tag_199\n        /* \"@openzeppelin/contracts/token/ERC20/ERC20.sol\":4976:4980  from */\n      dup6\n        /* \"@openzeppelin/contracts/token/ERC20/ERC20.sol\":4982:4984  to */\n      dup6\n        /* \"@openzeppelin/contracts/token/ERC20/ERC20.sol\":4986:4991  value */\n      dup6\n        /* \"@openzeppelin/contracts/token/ERC20/ERC20.sol\":4966:4975  _transfer */\n      tag_193\n        /* \"@openzeppelin/contracts/token/ERC20/ERC20.sol\":4966:4992  _transfer(from, to, value) */\n      jump\t// in\n    tag_199:\n        /* \"@openzeppelin/contracts/token/ERC20/ERC20.sol\":5009:5013  true */\n      0x01\n        /* \"@openzeppelin/contracts/token/ERC20/ERC20.sol\":5002:5013  return true */\n      swap2\n      pop\n      pop\n        /* \"@openzeppelin/contracts/token/ERC20/ERC20.sol\":4776:5020  function transferFrom(address from, address to, uint256 value) public virtual returns (bool) {... */\n      swap4\n      swap3\n      pop\n      pop\n      pop\n      jump\t// out\n        /* \"@openzeppelin/contracts/access/AccessControl.sol\":3810:3930  function getRoleAdmin(bytes32 role) public view virtual returns (bytes32) {... */\n    tag_73:\n        /* \"@openzeppelin/contracts/access/AccessControl.sol\":3875:3882  bytes32 */\n      0x00\n        /* \"@openzeppelin/contracts/access/AccessControl.sol\":3901:3907  _roles */\n      0x06\n        /* \"@openzeppelin/contracts/access/AccessControl.sol\":3901:3913  _roles[role] */\n      0x00\n        /* \"@openzeppelin/contracts/access/AccessControl.sol\":3908:3912  role */\n      dup4\n        /* \"@openzeppelin/contracts/access/AccessControl.sol\":3901:3913  _roles[role] */\n      dup2\n      mstore\n      0x20\n      add\n      swap1\n      dup2\n      mstore\n      0x20\n      add\n      0x00\n      keccak256\n        /* \"@openzeppelin/contracts/access/AccessControl.sol\":3901:3923  _roles[role].adminRole */\n      0x01\n      add\n      sload\n        /* \"@openzeppelin/contracts/access/AccessControl.sol\":3894:3923  return _roles[role].adminRole */\n      swap1\n      pop\n        /* \"@openzeppelin/contracts/access/AccessControl.sol\":3810:3930  function getRoleAdmin(bytes32 role) public view virtual returns (bytes32) {... */\n      swap2\n      swap1\n      pop\n      jump\t// out\n        /* \"GymTokenSmartContracts/GymToken.sol\":3510:4602  function purchaseMembership(MEMBERSHIP_TYPE membershipType) public whenNotPaused onlyMember {... */\n    tag_79:\n        /* \"@openzeppelin/contracts/security/Pausable.sol\":1239:1258  _requireNotPaused() */\n      tag_202\n        /* \"@openzeppelin/contracts/security/Pausable.sol\":1239:1256  _requireNotPaused */\n      tag_183\n        /* \"@openzeppelin/contracts/security/Pausable.sol\":1239:1258  _requireNotPaused() */\n      jump\t// in\n    tag_202:\n        /* \"GymTokenSmartContracts/GymToken.sol\":2315:2347  hasRole(MEMBER_ROLE, msg.sender) */\n      tag_204\n        /* \"GymTokenSmartContracts/GymToken.sol\":574:598  keccak256(\"MEMBER_ROLE\") */\n      0x829b824e2329e205435d941c9f13baf578548505283d29261236d8e6596d4636\n        /* \"GymTokenSmartContracts/GymToken.sol\":2336:2346  msg.sender */\n      caller\n        /* \"GymTokenSmartContracts/GymToken.sol\":2315:2322  hasRole */\n      tag_125\n        /* \"GymTokenSmartContracts/GymToken.sol\":2315:2347  hasRole(MEMBER_ROLE, msg.sender) */\n      jump\t// in\n    tag_204:\n        /* \"GymTokenSmartContracts/GymToken.sol\":2307:2374  require(hasRole(MEMBER_ROLE, msg.sender), \"Caller is not a member\") */\n      tag_205\n      jumpi\n      mload(0x40)\n      0x08c379a000000000000000000000000000000000000000000000000000000000\n      dup2\n      mstore\n      0x04\n      add\n      tag_206\n      swap1\n      tag_207\n      jump\t// in\n    tag_206:\n      mload(0x40)\n      dup1\n      swap2\n      sub\n      swap1\n      revert\n    tag_205:\n        /* \"GymTokenSmartContracts/GymToken.sol\":3612:3625  uint256 price */\n      0x00\n        /* \"GymTokenSmartContracts/GymToken.sol\":3628:3644  membershipPrices */\n      0x07\n        /* \"GymTokenSmartContracts/GymToken.sol\":3628:3660  membershipPrices[membershipType] */\n      0x00\n        /* \"GymTokenSmartContracts/GymToken.sol\":3645:3659  membershipType */\n      dup4\n        /* \"GymTokenSmartContracts/GymToken.sol\":3628:3660  membershipPrices[membershipType] */\n      0x02\n      dup2\n      gt\n      iszero\n      tag_209\n      jumpi\n      tag_210\n      tag_211\n      jump\t// in\n    tag_210:\n    tag_209:\n      0x02\n      dup2\n      gt\n      iszero\n      tag_212\n      jumpi\n      tag_213\n      tag_211\n      jump\t// in\n    tag_213:\n    tag_212:\n      dup2\n      mstore\n      0x20\n      add\n      swap1\n      dup2\n      mstore\n      0x20\n      add\n      0x00\n      keccak256\n      sload\n        /* \"GymTokenSmartContracts/GymToken.sol\":3612:3660  uint256 price = membershipPrices[membershipType] */\n      swap1\n      pop\n        /* \"GymTokenSmartContracts/GymToken.sol\":3703:3708  price */\n      dup1\n        /* \"GymTokenSmartContracts/GymToken.sol\":3678:3699  balanceOf(msg.sender) */\n      tag_214\n        /* \"GymTokenSmartContracts/GymToken.sol\":3688:3698  msg.sender */\n      caller\n        /* \"GymTokenSmartContracts/GymToken.sol\":3678:3687  balanceOf */\n      tag_106\n        /* \"GymTokenSmartContracts/GymToken.sol\":3678:3699  balanceOf(msg.sender) */\n      jump\t// in\n    tag_214:\n        /* \"GymTokenSmartContracts/GymToken.sol\":3678:3708  balanceOf(msg.sender) >= price */\n      lt\n      iszero\n        /* \"GymTokenSmartContracts/GymToken.sol\":3670:3733  require(balanceOf(msg.sender) >= price, \"Insufficient balance\") */\n      tag_215\n      jumpi\n      mload(0x40)\n      0x08c379a000000000000000000000000000000000000000000000000000000000\n      dup2\n      mstore\n      0x04\n      add\n      tag_216\n      swap1\n      tag_191\n      jump\t// in\n    tag_216:\n      mload(0x40)\n      dup1\n      swap2\n      sub\n      swap1\n      revert\n    tag_215:\n        /* \"GymTokenSmartContracts/GymToken.sol\":3744:3768  _burn(msg.sender, price) */\n      tag_217\n        /* \"GymTokenSmartContracts/GymToken.sol\":3750:3760  msg.sender */\n      caller\n        /* \"GymTokenSmartContracts/GymToken.sol\":3762:3767  price */\n      dup3\n        /* \"GymTokenSmartContracts/GymToken.sol\":3744:3749  _burn */\n      tag_218\n        /* \"GymTokenSmartContracts/GymToken.sol\":3744:3768  _burn(msg.sender, price) */\n      jump\t// in\n    tag_217:\n        /* \"GymTokenSmartContracts/GymToken.sol\":3779:3795  uint256 duration */\n      0x00\n        /* \"GymTokenSmartContracts/GymToken.sol\":3881:3904  MEMBERSHIP_TYPE.Monthly */\n      0x00\n        /* \"GymTokenSmartContracts/GymToken.sol\":3863:3904  membershipType == MEMBERSHIP_TYPE.Monthly */\n      0x02\n      dup2\n      gt\n      iszero\n      tag_219\n      jumpi\n      tag_220\n      tag_211\n      jump\t// in\n    tag_220:\n    tag_219:\n        /* \"GymTokenSmartContracts/GymToken.sol\":3863:3877  membershipType */\n      dup4\n        /* \"GymTokenSmartContracts/GymToken.sol\":3863:3904  membershipType == MEMBERSHIP_TYPE.Monthly */\n      0x02\n      dup2\n      gt\n      iszero\n      tag_221\n      jumpi\n      tag_222\n      tag_211\n      jump\t// in\n    tag_222:\n    tag_221:\n      sub\n        /* \"GymTokenSmartContracts/GymToken.sol\":3859:4207  if (membershipType == MEMBERSHIP_TYPE.Monthly) {... */\n      tag_223\n      jumpi\n        /* \"GymTokenSmartContracts/GymToken.sol\":3931:3938  30 days */\n      0x278d00\n        /* \"GymTokenSmartContracts/GymToken.sol\":3920:3938  duration = 30 days */\n      swap1\n      pop\n        /* \"GymTokenSmartContracts/GymToken.sol\":3859:4207  if (membershipType == MEMBERSHIP_TYPE.Monthly) {... */\n      jump(tag_224)\n    tag_223:\n        /* \"GymTokenSmartContracts/GymToken.sol\":3977:4002  MEMBERSHIP_TYPE.Quarterly */\n      0x01\n        /* \"GymTokenSmartContracts/GymToken.sol\":3959:4002  membershipType == MEMBERSHIP_TYPE.Quarterly */\n      0x02\n      dup2\n      gt\n      iszero\n      tag_225\n      jumpi\n      tag_226\n      tag_211\n      jump\t// in\n    tag_226:\n    tag_225:\n        /* \"GymTokenSmartContracts/GymToken.sol\":3959:3973  membershipType */\n      dup4\n        /* \"GymTokenSmartContracts/GymToken.sol\":3959:4002  membershipType == MEMBERSHIP_TYPE.Quarterly */\n      0x02\n      dup2\n      gt\n      iszero\n      tag_227\n      jumpi\n      tag_228\n      tag_211\n      jump\t// in\n    tag_228:\n    tag_227:\n      sub\n        /* \"GymTokenSmartContracts/GymToken.sol\":3955:4207  if (membershipType == MEMBERSHIP_TYPE.Quarterly) {... */\n      tag_229\n      jumpi\n        /* \"GymTokenSmartContracts/GymToken.sol\":4029:4036  90 days */\n      0x76a700\n        /* \"GymTokenSmartContracts/GymToken.sol\":4018:4036  duration = 90 days */\n      swap1\n      pop\n        /* \"GymTokenSmartContracts/GymToken.sol\":3955:4207  if (membershipType == MEMBERSHIP_TYPE.Quarterly) {... */\n      jump(tag_230)\n    tag_229:\n        /* \"GymTokenSmartContracts/GymToken.sol\":4075:4097  MEMBERSHIP_TYPE.Annual */\n      0x02\n        /* \"GymTokenSmartContracts/GymToken.sol\":4057:4097  membershipType == MEMBERSHIP_TYPE.Annual */\n      dup1\n      dup2\n      gt\n      iszero\n      tag_231\n      jumpi\n      tag_232\n      tag_211\n      jump\t// in\n    tag_232:\n    tag_231:\n        /* \"GymTokenSmartContracts/GymToken.sol\":4057:4071  membershipType */\n      dup4\n        /* \"GymTokenSmartContracts/GymToken.sol\":4057:4097  membershipType == MEMBERSHIP_TYPE.Annual */\n      0x02\n      dup2\n      gt\n      iszero\n      tag_233\n      jumpi\n      tag_234\n      tag_211\n      jump\t// in\n    tag_234:\n    tag_233:\n      sub\n        /* \"GymTokenSmartContracts/GymToken.sol\":4053:4207  if (membershipType == MEMBERSHIP_TYPE.Annual) {... */\n      tag_235\n      jumpi\n        /* \"GymTokenSmartContracts/GymToken.sol\":4124:4132  365 days */\n      0x01e13380\n        /* \"GymTokenSmartContracts/GymToken.sol\":4113:4132  duration = 365 days */\n      swap1\n      pop\n        /* \"GymTokenSmartContracts/GymToken.sol\":4053:4207  if (membershipType == MEMBERSHIP_TYPE.Annual) {... */\n      jump(tag_236)\n    tag_235:\n        /* \"GymTokenSmartContracts/GymToken.sol\":4163:4196  revert(\"Invalid membership type\") */\n      mload(0x40)\n      0x08c379a000000000000000000000000000000000000000000000000000000000\n      dup2\n      mstore\n      0x04\n      add\n      tag_237\n      swap1\n      tag_238\n      jump\t// in\n    tag_237:\n      mload(0x40)\n      dup1\n      swap2\n      sub\n      swap1\n      revert\n        /* \"GymTokenSmartContracts/GymToken.sol\":4053:4207  if (membershipType == MEMBERSHIP_TYPE.Annual) {... */\n    tag_236:\n        /* \"GymTokenSmartContracts/GymToken.sol\":3955:4207  if (membershipType == MEMBERSHIP_TYPE.Quarterly) {... */\n    tag_230:\n        /* \"GymTokenSmartContracts/GymToken.sol\":3859:4207  if (membershipType == MEMBERSHIP_TYPE.Monthly) {... */\n    tag_224:\n        /* \"GymTokenSmartContracts/GymToken.sol\":4340:4356  membershipExpiry */\n      0x08\n        /* \"GymTokenSmartContracts/GymToken.sol\":4340:4368  membershipExpiry[msg.sender] */\n      0x00\n        /* \"GymTokenSmartContracts/GymToken.sol\":4357:4367  msg.sender */\n      caller\n        /* \"GymTokenSmartContracts/GymToken.sol\":4340:4368  membershipExpiry[msg.sender] */\n      0xffffffffffffffffffffffffffffffffffffffff\n      and\n      0xffffffffffffffffffffffffffffffffffffffff\n      and\n      dup2\n      mstore\n      0x20\n      add\n      swap1\n      dup2\n      mstore\n      0x20\n      add\n      0x00\n      keccak256\n      sload\n        /* \"GymTokenSmartContracts/GymToken.sol\":4322:4337  block.timestamp */\n      timestamp\n        /* \"GymTokenSmartContracts/GymToken.sol\":4322:4368  block.timestamp < membershipExpiry[msg.sender] */\n      lt\n        /* \"GymTokenSmartContracts/GymToken.sol\":4318:4523  if (block.timestamp < membershipExpiry[msg.sender]) {... */\n      iszero\n      tag_239\n      jumpi\n        /* \"GymTokenSmartContracts/GymToken.sol\":4416:4424  duration */\n      dup1\n        /* \"GymTokenSmartContracts/GymToken.sol\":4384:4400  membershipExpiry */\n      0x08\n        /* \"GymTokenSmartContracts/GymToken.sol\":4384:4412  membershipExpiry[msg.sender] */\n      0x00\n        /* \"GymTokenSmartContracts/GymToken.sol\":4401:4411  msg.sender */\n      caller\n        /* \"GymTokenSmartContracts/GymToken.sol\":4384:4412  membershipExpiry[msg.sender] */\n      0xffffffffffffffffffffffffffffffffffffffff\n      and\n      0xffffffffffffffffffffffffffffffffffffffff\n      and\n      dup2\n      mstore\n      0x20\n      add\n      swap1\n      dup2\n      mstore\n      0x20\n      add\n      0x00\n      keccak256\n      0x00\n        /* \"GymTokenSmartContracts/GymToken.sol\":4384:4424  membershipExpiry[msg.sender] += duration */\n      dup3\n      dup3\n      sload\n      tag_240\n      swap2\n      swap1\n      tag_241\n      jump\t// in\n    tag_240:\n      swap3\n      pop\n      pop\n      dup2\n      swap1\n      sstore\n      pop\n        /* \"GymTokenSmartContracts/GymToken.sol\":4318:4523  if (block.timestamp < membershipExpiry[msg.sender]) {... */\n      jump(tag_242)\n    tag_239:\n        /* \"GymTokenSmartContracts/GymToken.sol\":4504:4512  duration */\n      dup1\n        /* \"GymTokenSmartContracts/GymToken.sol\":4486:4501  block.timestamp */\n      timestamp\n        /* \"GymTokenSmartContracts/GymToken.sol\":4486:4512  block.timestamp + duration */\n      tag_243\n      swap2\n      swap1\n      tag_241\n      jump\t// in\n    tag_243:\n        /* \"GymTokenSmartContracts/GymToken.sol\":4455:4471  membershipExpiry */\n      0x08\n        /* \"GymTokenSmartContracts/GymToken.sol\":4455:4483  membershipExpiry[msg.sender] */\n      0x00\n        /* \"GymTokenSmartContracts/GymToken.sol\":4472:4482  msg.sender */\n      caller\n        /* \"GymTokenSmartContracts/GymToken.sol\":4455:4483  membershipExpiry[msg.sender] */\n      0xffffffffffffffffffffffffffffffffffffffff\n      and\n      0xffffffffffffffffffffffffffffffffffffffff\n      and\n      dup2\n      mstore\n      0x20\n      add\n      swap1\n      dup2\n      mstore\n      0x20\n      add\n      0x00\n      keccak256\n        /* \"GymTokenSmartContracts/GymToken.sol\":4455:4512  membershipExpiry[msg.sender] = block.timestamp + duration */\n      dup2\n      swap1\n      sstore\n      pop\n        /* \"GymTokenSmartContracts/GymToken.sol\":4318:4523  if (block.timestamp < membershipExpiry[msg.sender]) {... */\n    tag_242:\n        /* \"GymTokenSmartContracts/GymToken.sol\":4558:4568  msg.sender */\n      caller\n        /* \"GymTokenSmartContracts/GymToken.sol\":4538:4595  MembershipPurchased(msg.sender, membershipType, duration) */\n      0xffffffffffffffffffffffffffffffffffffffff\n      and\n      0xe2c5b6420b508a46b55a5cb55c7340a67492866d4f51461ee443958079fe8357\n        /* \"GymTokenSmartContracts/GymToken.sol\":4570:4584  membershipType */\n      dup5\n        /* \"GymTokenSmartContracts/GymToken.sol\":4586:4594  duration */\n      dup4\n        /* \"GymTokenSmartContracts/GymToken.sol\":4538:4595  MembershipPurchased(msg.sender, membershipType, duration) */\n      mload(0x40)\n      tag_244\n      swap3\n      swap2\n      swap1\n      tag_245\n      jump\t// in\n    tag_244:\n      mload(0x40)\n      dup1\n      swap2\n      sub\n      swap1\n      log2\n        /* \"GymTokenSmartContracts/GymToken.sol\":3602:4602  {... */\n      pop\n      pop\n        /* \"GymTokenSmartContracts/GymToken.sol\":3510:4602  function purchaseMembership(MEMBERSHIP_TYPE membershipType) public whenNotPaused onlyMember {... */\n      pop\n      jump\t// out\n        /* \"@openzeppelin/contracts/access/AccessControl.sol\":4226:4362  function grantRole(bytes32 role, address account) public virtual onlyRole(getRoleAdmin(role)) {... */\n    tag_83:\n        /* \"@openzeppelin/contracts/access/AccessControl.sol\":4300:4318  getRoleAdmin(role) */\n      tag_246\n        /* \"@openzeppelin/contracts/access/AccessControl.sol\":4313:4317  role */\n      dup3\n        /* \"@openzeppelin/contracts/access/AccessControl.sol\":4300:4312  getRoleAdmin */\n      tag_73\n        /* \"@openzeppelin/contracts/access/AccessControl.sol\":4300:4318  getRoleAdmin(role) */\n      jump\t// in\n    tag_246:\n        /* \"@openzeppelin/contracts/access/AccessControl.sol\":2464:2480  _checkRole(role) */\n      tag_248\n        /* \"@openzeppelin/contracts/access/AccessControl.sol\":2475:2479  role */\n      dup2\n        /* \"@openzeppelin/contracts/access/AccessControl.sol\":2464:2474  _checkRole */\n      tag_186\n        /* \"@openzeppelin/contracts/access/AccessControl.sol\":2464:2480  _checkRole(role) */\n      jump\t// in\n    tag_248:\n        /* \"@openzeppelin/contracts/access/AccessControl.sol\":4330:4355  _grantRole(role, account) */\n      tag_250\n        /* \"@openzeppelin/contracts/access/AccessControl.sol\":4341:4345  role */\n      dup4\n        /* \"@openzeppelin/contracts/access/AccessControl.sol\":4347:4354  account */\n      dup4\n        /* \"@openzeppelin/contracts/access/AccessControl.sol\":4330:4340  _grantRole */\n      tag_251\n        /* \"@openzeppelin/contracts/access/AccessControl.sol\":4330:4355  _grantRole(role, account) */\n      jump\t// in\n    tag_250:\n      pop\n        /* \"@openzeppelin/contracts/access/AccessControl.sol\":4226:4362  function grantRole(bytes32 role, address account) public virtual onlyRole(getRoleAdmin(role)) {... */\n      pop\n      pop\n      pop\n      jump\t// out\n        /* \"GymTokenSmartContracts/GymToken.sol\":327:393  uint256 public constant INITIAL_SUPPLY = 1000000 * (10 ** decimal) */\n    tag_85:\n        /* \"GymTokenSmartContracts/GymToken.sol\":320:321  2 */\n      0x02\n        /* \"GymTokenSmartContracts/GymToken.sol\":379:381  10 */\n      0x0a\n        /* \"GymTokenSmartContracts/GymToken.sol\":379:392  10 ** decimal */\n      tag_252\n      swap2\n      swap1\n      tag_253\n      jump\t// in\n    tag_252:\n        /* \"GymTokenSmartContracts/GymToken.sol\":368:375  1000000 */\n      0x0f4240\n        /* \"GymTokenSmartContracts/GymToken.sol\":368:393  1000000 * (10 ** decimal) */\n      tag_254\n      swap2\n      swap1\n      tag_255\n      jump\t// in\n    tag_254:\n        /* \"GymTokenSmartContracts/GymToken.sol\":327:393  uint256 public constant INITIAL_SUPPLY = 1000000 * (10 ** decimal) */\n      dup2\n      jump\t// out\n        /* \"@openzeppelin/contracts/token/ERC20/ERC20.sol\":2707:2789  function decimals() public view virtual returns (uint8) {... */\n    tag_88:\n        /* \"@openzeppelin/contracts/token/ERC20/ERC20.sol\":2756:2761  uint8 */\n      0x00\n        /* \"@openzeppelin/contracts/token/ERC20/ERC20.sol\":2780:2782  18 */\n      0x12\n        /* \"@openzeppelin/contracts/token/ERC20/ERC20.sol\":2773:2782  return 18 */\n      swap1\n      pop\n        /* \"@openzeppelin/contracts/token/ERC20/ERC20.sol\":2707:2789  function decimals() public view virtual returns (uint8) {... */\n      swap1\n      jump\t// out\n        /* \"@openzeppelin/contracts/access/AccessControl.sol\":5328:5573  function renounceRole(bytes32 role, address callerConfirmation) public virtual {... */\n    tag_93:\n        /* \"@openzeppelin/contracts/access/AccessControl.sol\":5443:5455  _msgSender() */\n      tag_258\n        /* \"@openzeppelin/contracts/access/AccessControl.sol\":5443:5453  _msgSender */\n      tag_178\n        /* \"@openzeppelin/contracts/access/AccessControl.sol\":5443:5455  _msgSender() */\n      jump\t// in\n    tag_258:\n        /* \"@openzeppelin/contracts/access/AccessControl.sol\":5421:5455  callerConfirmation != _msgSender() */\n      0xffffffffffffffffffffffffffffffffffffffff\n      and\n        /* \"@openzeppelin/contracts/access/AccessControl.sol\":5421:5439  callerConfirmation */\n      dup2\n        /* \"@openzeppelin/contracts/access/AccessControl.sol\":5421:5455  callerConfirmation != _msgSender() */\n      0xffffffffffffffffffffffffffffffffffffffff\n      and\n      eq\n        /* \"@openzeppelin/contracts/access/AccessControl.sol\":5417:5519  if (callerConfirmation != _msgSender()) {... */\n      tag_259\n      jumpi\n        /* \"@openzeppelin/contracts/access/AccessControl.sol\":5478:5508  AccessControlBadConfirmation() */\n      mload(0x40)\n      0x6697b23200000000000000000000000000000000000000000000000000000000\n      dup2\n      mstore\n      0x04\n      add\n      mload(0x40)\n      dup1\n      swap2\n      sub\n      swap1\n      revert\n        /* \"@openzeppelin/contracts/access/AccessControl.sol\":5417:5519  if (callerConfirmation != _msgSender()) {... */\n    tag_259:\n        /* \"@openzeppelin/contracts/access/AccessControl.sol\":5529:5566  _revokeRole(role, callerConfirmation) */\n      tag_260\n        /* \"@openzeppelin/contracts/access/AccessControl.sol\":5541:5545  role */\n      dup3\n        /* \"@openzeppelin/contracts/access/AccessControl.sol\":5547:5565  callerConfirmation */\n      dup3\n        /* \"@openzeppelin/contracts/access/AccessControl.sol\":5529:5540  _revokeRole */\n      tag_261\n        /* \"@openzeppelin/contracts/access/AccessControl.sol\":5529:5566  _revokeRole(role, callerConfirmation) */\n      jump\t// in\n    tag_260:\n      pop\n        /* \"@openzeppelin/contracts/access/AccessControl.sol\":5328:5573  function renounceRole(bytes32 role, address callerConfirmation) public virtual {... */\n      pop\n      pop\n      jump\t// out\n        /* \"GymTokenSmartContracts/GymToken.sol\":2588:2664  function unpause() public onlyRole(MANAGER_ROLE) {... */\n    tag_95:\n        /* \"GymTokenSmartContracts/GymToken.sol\":439:464  keccak256(\"MANAGER_ROLE\") */\n      0x241ecf16d79d0f8dbfb92cbc07fe17840425976cf0667f022fe9877caa831b08\n        /* \"@openzeppelin/contracts/access/AccessControl.sol\":2464:2480  _checkRole(role) */\n      tag_263\n        /* \"@openzeppelin/contracts/access/AccessControl.sol\":2475:2479  role */\n      dup2\n        /* \"@openzeppelin/contracts/access/AccessControl.sol\":2464:2474  _checkRole */\n      tag_186\n        /* \"@openzeppelin/contracts/access/AccessControl.sol\":2464:2480  _checkRole(role) */\n      jump\t// in\n    tag_263:\n        /* \"GymTokenSmartContracts/GymToken.sol\":2647:2657  _unpause() */\n      tag_265\n        /* \"GymTokenSmartContracts/GymToken.sol\":2647:2655  _unpause */\n      tag_266\n        /* \"GymTokenSmartContracts/GymToken.sol\":2647:2657  _unpause() */\n      jump\t// in\n    tag_265:\n        /* \"GymTokenSmartContracts/GymToken.sol\":2588:2664  function unpause() public onlyRole(MANAGER_ROLE) {... */\n      pop\n      jump\t// out\n        /* \"GymTokenSmartContracts/GymToken.sol\":908:967  mapping(MEMBERSHIP_TYPE => uint256) public membershipPrices */\n    tag_98:\n      mstore(0x20, 0x07)\n      dup1\n      0x00\n      mstore\n      keccak256(0x00, 0x40)\n      0x00\n      swap2\n      pop\n      swap1\n      pop\n      sload\n      dup2\n      jump\t// out\n        /* \"@openzeppelin/contracts/security/Pausable.sol\":1615:1699  function paused() public view virtual returns (bool) {... */\n    tag_101:\n        /* \"@openzeppelin/contracts/security/Pausable.sol\":1662:1666  bool */\n      0x00\n        /* \"@openzeppelin/contracts/security/Pausable.sol\":1685:1692  _paused */\n      0x05\n      0x00\n      swap1\n      sload\n      swap1\n      0x0100\n      exp\n      swap1\n      div\n      0xff\n      and\n        /* \"@openzeppelin/contracts/security/Pausable.sol\":1678:1692  return _paused */\n      swap1\n      pop\n        /* \"@openzeppelin/contracts/security/Pausable.sol\":1615:1699  function paused() public view virtual returns (bool) {... */\n      swap1\n      jump\t// out\n        /* \"@openzeppelin/contracts/token/ERC20/ERC20.sol\":3004:3120  function balanceOf(address account) public view virtual returns (uint256) {... */\n    tag_106:\n        /* \"@openzeppelin/contracts/token/ERC20/ERC20.sol\":3069:3076  uint256 */\n      0x00\n        /* \"@openzeppelin/contracts/token/ERC20/ERC20.sol\":3095:3104  _balances */\n      0x00\n        /* \"@openzeppelin/contracts/token/ERC20/ERC20.sol\":3095:3113  _balances[account] */\n      0x00\n        /* \"@openzeppelin/contracts/token/ERC20/ERC20.sol\":3105:3112  account */\n      dup4\n        /* \"@openzeppelin/contracts/token/ERC20/ERC20.sol\":3095:3113  _balances[account] */\n      0xffffffffffffffffffffffffffffffffffffffff\n      and\n      0xffffffffffffffffffffffffffffffffffffffff\n      and\n      dup2\n      mstore\n      0x20\n      add\n      swap1\n      dup2\n      mstore\n      0x20\n      add\n      0x00\n      keccak256\n      sload\n        /* \"@openzeppelin/contracts/token/ERC20/ERC20.sol\":3088:3113  return _balances[account] */\n      swap1\n      pop\n        /* \"@openzeppelin/contracts/token/ERC20/ERC20.sol\":3004:3120  function balanceOf(address account) public view virtual returns (uint256) {... */\n      swap2\n      swap1\n      pop\n      jump\t// out\n        /* \"GymTokenSmartContracts/GymToken.sol\":288:321  uint8 public constant decimal = 2 */\n    tag_109:\n        /* \"GymTokenSmartContracts/GymToken.sol\":320:321  2 */\n      0x02\n        /* \"GymTokenSmartContracts/GymToken.sol\":288:321  uint8 public constant decimal = 2 */\n      dup2\n      jump\t// out\n        /* \"GymTokenSmartContracts/GymToken.sol\":2459:2531  function pause() public onlyRole(MANAGER_ROLE) {... */\n    tag_112:\n        /* \"GymTokenSmartContracts/GymToken.sol\":439:464  keccak256(\"MANAGER_ROLE\") */\n      0x241ecf16d79d0f8dbfb92cbc07fe17840425976cf0667f022fe9877caa831b08\n        /* \"@openzeppelin/contracts/access/AccessControl.sol\":2464:2480  _checkRole(role) */\n      tag_270\n        /* \"@openzeppelin/contracts/access/AccessControl.sol\":2475:2479  role */\n      dup2\n        /* \"@openzeppelin/contracts/access/AccessControl.sol\":2464:2474  _checkRole */\n      tag_186\n        /* \"@openzeppelin/contracts/access/AccessControl.sol\":2464:2480  _checkRole(role) */\n      jump\t// in\n    tag_270:\n        /* \"GymTokenSmartContracts/GymToken.sol\":2516:2524  _pause() */\n      tag_272\n        /* \"GymTokenSmartContracts/GymToken.sol\":2516:2522  _pause */\n      tag_273\n        /* \"GymTokenSmartContracts/GymToken.sol\":2516:2524  _pause() */\n      jump\t// in\n    tag_272:\n        /* \"GymTokenSmartContracts/GymToken.sol\":2459:2531  function pause() public onlyRole(MANAGER_ROLE) {... */\n      pop\n      jump\t// out\n        /* \"GymTokenSmartContracts/GymToken.sol\":756:816  uint256 public constant REFERRAL_REWARD = 10 * (10**decimal) */\n    tag_114:\n        /* \"GymTokenSmartContracts/GymToken.sol\":320:321  2 */\n      0x02\n        /* \"GymTokenSmartContracts/GymToken.sol\":804:806  10 */\n      0x0a\n        /* \"GymTokenSmartContracts/GymToken.sol\":804:815  10**decimal */\n      tag_274\n      swap2\n      swap1\n      tag_253\n      jump\t// in\n    tag_274:\n        /* \"GymTokenSmartContracts/GymToken.sol\":798:800  10 */\n      0x0a\n        /* \"GymTokenSmartContracts/GymToken.sol\":798:816  10 * (10**decimal) */\n      tag_275\n      swap2\n      swap1\n      tag_255\n      jump\t// in\n    tag_275:\n        /* \"GymTokenSmartContracts/GymToken.sol\":756:816  uint256 public constant REFERRAL_REWARD = 10 * (10**decimal) */\n      dup2\n      jump\t// out\n        /* \"GymTokenSmartContracts/GymToken.sol\":470:530  bytes32 public constant STAFF_ROLE = keccak256(\"STAFF_ROLE\") */\n    tag_117:\n        /* \"GymTokenSmartContracts/GymToken.sol\":507:530  keccak256(\"STAFF_ROLE\") */\n      0x5620a1113a72b02a617976b3f6b15600dd7a8b3a916a9ca01e23119d989a0543\n        /* \"GymTokenSmartContracts/GymToken.sol\":470:530  bytes32 public constant STAFF_ROLE = keccak256(\"STAFF_ROLE\") */\n      dup2\n      jump\t// out\n        /* \"GymTokenSmartContracts/GymToken.sol\":4648:4908  function getRemainingMembershipTime(address member) public view returns (uint256) {... */\n    tag_121:\n        /* \"GymTokenSmartContracts/GymToken.sol\":4721:4728  uint256 */\n      0x00\n        /* \"GymTokenSmartContracts/GymToken.sol\":4763:4779  membershipExpiry */\n      0x08\n        /* \"GymTokenSmartContracts/GymToken.sol\":4763:4787  membershipExpiry[member] */\n      0x00\n        /* \"GymTokenSmartContracts/GymToken.sol\":4780:4786  member */\n      dup4\n        /* \"GymTokenSmartContracts/GymToken.sol\":4763:4787  membershipExpiry[member] */\n      0xffffffffffffffffffffffffffffffffffffffff\n      and\n      0xffffffffffffffffffffffffffffffffffffffff\n      and\n      dup2\n      mstore\n      0x20\n      add\n      swap1\n      dup2\n      mstore\n      0x20\n      add\n      0x00\n      keccak256\n      sload\n        /* \"GymTokenSmartContracts/GymToken.sol\":4744:4759  block.timestamp */\n      timestamp\n        /* \"GymTokenSmartContracts/GymToken.sol\":4744:4787  block.timestamp >= membershipExpiry[member] */\n      lt\n        /* \"GymTokenSmartContracts/GymToken.sol\":4740:4902  if (block.timestamp >= membershipExpiry[member]) {... */\n      tag_277\n      jumpi\n        /* \"GymTokenSmartContracts/GymToken.sol\":4810:4811  0 */\n      0x00\n        /* \"GymTokenSmartContracts/GymToken.sol\":4803:4811  return 0 */\n      swap1\n      pop\n      jump(tag_276)\n        /* \"GymTokenSmartContracts/GymToken.sol\":4740:4902  if (block.timestamp >= membershipExpiry[member]) {... */\n    tag_277:\n        /* \"GymTokenSmartContracts/GymToken.sol\":4876:4891  block.timestamp */\n      timestamp\n        /* \"GymTokenSmartContracts/GymToken.sol\":4849:4865  membershipExpiry */\n      0x08\n        /* \"GymTokenSmartContracts/GymToken.sol\":4849:4873  membershipExpiry[member] */\n      0x00\n        /* \"GymTokenSmartContracts/GymToken.sol\":4866:4872  member */\n      dup5\n        /* \"GymTokenSmartContracts/GymToken.sol\":4849:4873  membershipExpiry[member] */\n      0xffffffffffffffffffffffffffffffffffffffff\n      and\n      0xffffffffffffffffffffffffffffffffffffffff\n      and\n      dup2\n      mstore\n      0x20\n      add\n      swap1\n      dup2\n      mstore\n      0x20\n      add\n      0x00\n      keccak256\n      sload\n        /* \"GymTokenSmartContracts/GymToken.sol\":4849:4891  membershipExpiry[member] - block.timestamp */\n      tag_279\n      swap2\n      swap1\n      tag_280\n      jump\t// in\n    tag_279:\n        /* \"GymTokenSmartContracts/GymToken.sol\":4842:4891  return membershipExpiry[member] - block.timestamp */\n      swap1\n      pop\n        /* \"GymTokenSmartContracts/GymToken.sol\":4648:4908  function getRemainingMembershipTime(address member) public view returns (uint256) {... */\n    tag_276:\n      swap2\n      swap1\n      pop\n      jump\t// out\n        /* \"@openzeppelin/contracts/access/AccessControl.sol\":2854:2990  function hasRole(bytes32 role, address account) public view virtual returns (bool) {... */\n    tag_125:\n        /* \"@openzeppelin/contracts/access/AccessControl.sol\":2931:2935  bool */\n      0x00\n        /* \"@openzeppelin/contracts/access/AccessControl.sol\":2954:2960  _roles */\n      0x06\n        /* \"@openzeppelin/contracts/access/AccessControl.sol\":2954:2966  _roles[role] */\n      0x00\n        /* \"@openzeppelin/contracts/access/AccessControl.sol\":2961:2965  role */\n      dup5\n        /* \"@openzeppelin/contracts/access/AccessControl.sol\":2954:2966  _roles[role] */\n      dup2\n      mstore\n      0x20\n      add\n      swap1\n      dup2\n      mstore\n      0x20\n      add\n      0x00\n      keccak256\n        /* \"@openzeppelin/contracts/access/AccessControl.sol\":2954:2974  _roles[role].hasRole */\n      0x00\n      add\n        /* \"@openzeppelin/contracts/access/AccessControl.sol\":2954:2983  _roles[role].hasRole[account] */\n      0x00\n        /* \"@openzeppelin/contracts/access/AccessControl.sol\":2975:2982  account */\n      dup4\n        /* \"@openzeppelin/contracts/access/AccessControl.sol\":2954:2983  _roles[role].hasRole[account] */\n      0xffffffffffffffffffffffffffffffffffffffff\n      and\n      0xffffffffffffffffffffffffffffffffffffffff\n      and\n      dup2\n      mstore\n      0x20\n      add\n      swap1\n      dup2\n      mstore\n      0x20\n      add\n      0x00\n      keccak256\n      0x00\n      swap1\n      sload\n      swap1\n      0x0100\n      exp\n      swap1\n      div\n      0xff\n      and\n        /* \"@openzeppelin/contracts/access/AccessControl.sol\":2947:2983  return _roles[role].hasRole[account] */\n      swap1\n      pop\n        /* \"@openzeppelin/contracts/access/AccessControl.sol\":2854:2990  function hasRole(bytes32 role, address account) public view virtual returns (bool) {... */\n      swap3\n      swap2\n      pop\n      pop\n      jump\t// out\n        /* \"@openzeppelin/contracts/token/ERC20/ERC20.sol\":1981:2074  function symbol() public view virtual returns (string memory) {... */\n    tag_128:\n        /* \"@openzeppelin/contracts/token/ERC20/ERC20.sol\":2028:2041  string memory */\n      0x60\n        /* \"@openzeppelin/contracts/token/ERC20/ERC20.sol\":2060:2067  _symbol */\n      0x04\n        /* \"@openzeppelin/contracts/token/ERC20/ERC20.sol\":2053:2067  return _symbol */\n      dup1\n      sload\n      tag_283\n      swap1\n      tag_171\n      jump\t// in\n    tag_283:\n      dup1\n      0x1f\n      add\n      0x20\n      dup1\n      swap2\n      div\n      mul\n      0x20\n      add\n      mload(0x40)\n      swap1\n      dup2\n      add\n      0x40\n      mstore\n      dup1\n      swap3\n      swap2\n      swap1\n      dup2\n      dup2\n      mstore\n      0x20\n      add\n      dup3\n      dup1\n      sload\n      tag_284\n      swap1\n      tag_171\n      jump\t// in\n    tag_284:\n      dup1\n      iszero\n      tag_285\n      jumpi\n      dup1\n      0x1f\n      lt\n      tag_286\n      jumpi\n      0x0100\n      dup1\n      dup4\n      sload\n      div\n      mul\n      dup4\n      mstore\n      swap2\n      0x20\n      add\n      swap2\n      jump(tag_285)\n    tag_286:\n      dup3\n      add\n      swap2\n      swap1\n      0x00\n      mstore\n      keccak256(0x00, 0x20)\n      swap1\n    tag_287:\n      dup2\n      sload\n      dup2\n      mstore\n      swap1\n      0x01\n      add\n      swap1\n      0x20\n      add\n      dup1\n      dup4\n      gt\n      tag_287\n      jumpi\n      dup3\n      swap1\n      sub\n      0x1f\n      and\n      dup3\n      add\n      swap2\n    tag_285:\n      pop\n      pop\n      pop\n      pop\n      pop\n      swap1\n      pop\n        /* \"@openzeppelin/contracts/token/ERC20/ERC20.sol\":1981:2074  function symbol() public view virtual returns (string memory) {... */\n      swap1\n      jump\t// out\n        /* \"GymTokenSmartContracts/GymToken.sol\":536:598  bytes32 public constant MEMBER_ROLE = keccak256(\"MEMBER_ROLE\") */\n    tag_131:\n        /* \"GymTokenSmartContracts/GymToken.sol\":574:598  keccak256(\"MEMBER_ROLE\") */\n      0x829b824e2329e205435d941c9f13baf578548505283d29261236d8e6596d4636\n        /* \"GymTokenSmartContracts/GymToken.sol\":536:598  bytes32 public constant MEMBER_ROLE = keccak256(\"MEMBER_ROLE\") */\n      dup2\n      jump\t// out\n        /* \"@openzeppelin/contracts/access/AccessControl.sol\":2187:2236  bytes32 public constant DEFAULT_ADMIN_ROLE = 0x00 */\n    tag_134:\n        /* \"@openzeppelin/contracts/access/AccessControl.sol\":2232:2236  0x00 */\n      0x00\n        /* \"@openzeppelin/contracts/access/AccessControl.sol\":2187:2236  bytes32 public constant DEFAULT_ADMIN_ROLE = 0x00 */\n      0x00\n      shl\n      dup2\n      jump\t// out\n        /* \"GymTokenSmartContracts/GymToken.sol\":604:668  bytes32 public constant TRAINER_ROLE = keccak256(\"TRAINER_ROLE\") */\n    tag_137:\n        /* \"GymTokenSmartContracts/GymToken.sol\":643:668  keccak256(\"TRAINER_ROLE\") */\n      0x123c69cc12368838cca6d46b7505bec842d9e85a26aff07e23aa57ad59dac6ba\n        /* \"GymTokenSmartContracts/GymToken.sol\":604:668  bytes32 public constant TRAINER_ROLE = keccak256(\"TRAINER_ROLE\") */\n      dup2\n      jump\t// out\n        /* \"GymTokenSmartContracts/GymToken.sol\":2985:3446  function rewardReferral(address referrer) public whenNotPaused onlyRole(MANAGER_ROLE) {... */\n    tag_141:\n        /* \"@openzeppelin/contracts/security/Pausable.sol\":1239:1258  _requireNotPaused() */\n      tag_289\n        /* \"@openzeppelin/contracts/security/Pausable.sol\":1239:1256  _requireNotPaused */\n      tag_183\n        /* \"@openzeppelin/contracts/security/Pausable.sol\":1239:1258  _requireNotPaused() */\n      jump\t// in\n    tag_289:\n        /* \"GymTokenSmartContracts/GymToken.sol\":439:464  keccak256(\"MANAGER_ROLE\") */\n      0x241ecf16d79d0f8dbfb92cbc07fe17840425976cf0667f022fe9877caa831b08\n        /* \"@openzeppelin/contracts/access/AccessControl.sol\":2464:2480  _checkRole(role) */\n      tag_291\n        /* \"@openzeppelin/contracts/access/AccessControl.sol\":2475:2479  role */\n      dup2\n        /* \"@openzeppelin/contracts/access/AccessControl.sol\":2464:2474  _checkRole */\n      tag_186\n        /* \"@openzeppelin/contracts/access/AccessControl.sol\":2464:2480  _checkRole(role) */\n      jump\t// in\n    tag_291:\n        /* \"GymTokenSmartContracts/GymToken.sol\":3168:3184  membershipExpiry */\n      0x08\n        /* \"GymTokenSmartContracts/GymToken.sol\":3168:3194  membershipExpiry[referrer] */\n      0x00\n        /* \"GymTokenSmartContracts/GymToken.sol\":3185:3193  referrer */\n      dup4\n        /* \"GymTokenSmartContracts/GymToken.sol\":3168:3194  membershipExpiry[referrer] */\n      0xffffffffffffffffffffffffffffffffffffffff\n      and\n      0xffffffffffffffffffffffffffffffffffffffff\n      and\n      dup2\n      mstore\n      0x20\n      add\n      swap1\n      dup2\n      mstore\n      0x20\n      add\n      0x00\n      keccak256\n      sload\n        /* \"GymTokenSmartContracts/GymToken.sol\":3150:3165  block.timestamp */\n      timestamp\n        /* \"GymTokenSmartContracts/GymToken.sol\":3150:3194  block.timestamp < membershipExpiry[referrer] */\n      lt\n        /* \"GymTokenSmartContracts/GymToken.sol\":3142:3226  require(block.timestamp < membershipExpiry[referrer], \"Referrer membership expired\") */\n      tag_293\n      jumpi\n      mload(0x40)\n      0x08c379a000000000000000000000000000000000000000000000000000000000\n      dup2\n      mstore\n      0x04\n      add\n      tag_294\n      swap1\n      tag_295\n      jump\t// in\n    tag_294:\n      mload(0x40)\n      dup1\n      swap2\n      sub\n      swap1\n      revert\n    tag_293:\n        /* \"GymTokenSmartContracts/GymToken.sol\":320:321  2 */\n      0x02\n        /* \"GymTokenSmartContracts/GymToken.sol\":804:806  10 */\n      0x0a\n        /* \"GymTokenSmartContracts/GymToken.sol\":804:815  10**decimal */\n      tag_296\n      swap2\n      swap1\n      tag_253\n      jump\t// in\n    tag_296:\n        /* \"GymTokenSmartContracts/GymToken.sol\":798:800  10 */\n      0x0a\n        /* \"GymTokenSmartContracts/GymToken.sol\":798:816  10 * (10**decimal) */\n      tag_297\n      swap2\n      swap1\n      tag_255\n      jump\t// in\n    tag_297:\n        /* \"GymTokenSmartContracts/GymToken.sol\":3294:3309  referralBonuses */\n      0x09\n        /* \"GymTokenSmartContracts/GymToken.sol\":3294:3319  referralBonuses[referrer] */\n      0x00\n        /* \"GymTokenSmartContracts/GymToken.sol\":3310:3318  referrer */\n      dup5\n        /* \"GymTokenSmartContracts/GymToken.sol\":3294:3319  referralBonuses[referrer] */\n      0xffffffffffffffffffffffffffffffffffffffff\n      and\n      0xffffffffffffffffffffffffffffffffffffffff\n      and\n      dup2\n      mstore\n      0x20\n      add\n      swap1\n      dup2\n      mstore\n      0x20\n      add\n      0x00\n      keccak256\n      0x00\n        /* \"GymTokenSmartContracts/GymToken.sol\":3294:3338  referralBonuses[referrer] += REFERRAL_REWARD */\n      dup3\n      dup3\n      sload\n      tag_298\n      swap2\n      swap1\n      tag_241\n      jump\t// in\n    tag_298:\n      swap3\n      pop\n      pop\n      dup2\n      swap1\n      sstore\n      pop\n        /* \"GymTokenSmartContracts/GymToken.sol\":3348:3380  _mint(referrer, REFERRAL_REWARD) */\n      tag_299\n        /* \"GymTokenSmartContracts/GymToken.sol\":3354:3362  referrer */\n      dup3\n        /* \"GymTokenSmartContracts/GymToken.sol\":320:321  2 */\n      0x02\n        /* \"GymTokenSmartContracts/GymToken.sol\":804:806  10 */\n      0x0a\n        /* \"GymTokenSmartContracts/GymToken.sol\":804:815  10**decimal */\n      tag_300\n      swap2\n      swap1\n      tag_253\n      jump\t// in\n    tag_300:\n        /* \"GymTokenSmartContracts/GymToken.sol\":798:800  10 */\n      0x0a\n        /* \"GymTokenSmartContracts/GymToken.sol\":798:816  10 * (10**decimal) */\n      tag_301\n      swap2\n      swap1\n      tag_255\n      jump\t// in\n    tag_301:\n        /* \"GymTokenSmartContracts/GymToken.sol\":3348:3353  _mint */\n      tag_302\n        /* \"GymTokenSmartContracts/GymToken.sol\":3348:3380  _mint(referrer, REFERRAL_REWARD) */\n      jump\t// in\n    tag_299:\n        /* \"GymTokenSmartContracts/GymToken.sol\":3413:3421  referrer */\n      dup2\n        /* \"GymTokenSmartContracts/GymToken.sol\":3396:3439  ReferralRewarded(referrer, REFERRAL_REWARD) */\n      0xffffffffffffffffffffffffffffffffffffffff\n      and\n      0xe02a129f98418d04669038a9874f706689ba7726c0c0e82c67319ec8ca9001ea\n        /* \"GymTokenSmartContracts/GymToken.sol\":320:321  2 */\n      0x02\n        /* \"GymTokenSmartContracts/GymToken.sol\":804:806  10 */\n      0x0a\n        /* \"GymTokenSmartContracts/GymToken.sol\":804:815  10**decimal */\n      tag_303\n      swap2\n      swap1\n      tag_253\n      jump\t// in\n    tag_303:\n        /* \"GymTokenSmartContracts/GymToken.sol\":798:800  10 */\n      0x0a\n        /* \"GymTokenSmartContracts/GymToken.sol\":798:816  10 * (10**decimal) */\n      tag_304\n      swap2\n      swap1\n      tag_255\n      jump\t// in\n    tag_304:\n        /* \"GymTokenSmartContracts/GymToken.sol\":3396:3439  ReferralRewarded(referrer, REFERRAL_REWARD) */\n      mload(0x40)\n      tag_305\n      swap2\n      swap1\n      tag_64\n      jump\t// in\n    tag_305:\n      mload(0x40)\n      dup1\n      swap2\n      sub\n      swap1\n      log2\n        /* \"@openzeppelin/contracts/security/Pausable.sol\":1268:1269  _ */\n      pop\n        /* \"GymTokenSmartContracts/GymToken.sol\":2985:3446  function rewardReferral(address referrer) public whenNotPaused onlyRole(MANAGER_ROLE) {... */\n      pop\n      jump\t// out\n        /* \"@openzeppelin/contracts/token/ERC20/ERC20.sol\":3315:3493  function transfer(address to, uint256 value) public virtual returns (bool) {... */\n    tag_144:\n        /* \"@openzeppelin/contracts/token/ERC20/ERC20.sol\":3384:3388  bool */\n      0x00\n        /* \"@openzeppelin/contracts/token/ERC20/ERC20.sol\":3400:3413  address owner */\n      0x00\n        /* \"@openzeppelin/contracts/token/ERC20/ERC20.sol\":3416:3428  _msgSender() */\n      tag_307\n        /* \"@openzeppelin/contracts/token/ERC20/ERC20.sol\":3416:3426  _msgSender */\n      tag_178\n        /* \"@openzeppelin/contracts/token/ERC20/ERC20.sol\":3416:3428  _msgSender() */\n      jump\t// in\n    tag_307:\n        /* \"@openzeppelin/contracts/token/ERC20/ERC20.sol\":3400:3428  address owner = _msgSender() */\n      swap1\n      pop\n        /* \"@openzeppelin/contracts/token/ERC20/ERC20.sol\":3438:3465  _transfer(owner, to, value) */\n      tag_308\n        /* \"@openzeppelin/contracts/token/ERC20/ERC20.sol\":3448:3453  owner */\n      dup2\n        /* \"@openzeppelin/contracts/token/ERC20/ERC20.sol\":3455:3457  to */\n      dup6\n        /* \"@openzeppelin/contracts/token/ERC20/ERC20.sol\":3459:3464  value */\n      dup6\n        /* \"@openzeppelin/contracts/token/ERC20/ERC20.sol\":3438:3447  _transfer */\n      tag_193\n        /* \"@openzeppelin/contracts/token/ERC20/ERC20.sol\":3438:3465  _transfer(owner, to, value) */\n      jump\t// in\n    tag_308:\n        /* \"@openzeppelin/contracts/token/ERC20/ERC20.sol\":3482:3486  true */\n      0x01\n        /* \"@openzeppelin/contracts/token/ERC20/ERC20.sol\":3475:3486  return true */\n      swap2\n      pop\n      pop\n        /* \"@openzeppelin/contracts/token/ERC20/ERC20.sol\":3315:3493  function transfer(address to, uint256 value) public virtual returns (bool) {... */\n      swap3\n      swap2\n      pop\n      pop\n      jump\t// out\n        /* \"GymTokenSmartContracts/GymToken.sol\":1105:1155  mapping(address => uint256) public referralBonuses */\n    tag_148:\n      mstore(0x20, 0x09)\n      dup1\n      0x00\n      mstore\n      keccak256(0x00, 0x40)\n      0x00\n      swap2\n      pop\n      swap1\n      pop\n      sload\n      dup2\n      jump\t// out\n        /* \"@openzeppelin/contracts/access/AccessControl.sol\":4642:4780  function revokeRole(bytes32 role, address account) public virtual onlyRole(getRoleAdmin(role)) {... */\n    tag_152:\n        /* \"@openzeppelin/contracts/access/AccessControl.sol\":4717:4735  getRoleAdmin(role) */\n      tag_309\n        /* \"@openzeppelin/contracts/access/AccessControl.sol\":4730:4734  role */\n      dup3\n        /* \"@openzeppelin/contracts/access/AccessControl.sol\":4717:4729  getRoleAdmin */\n      tag_73\n        /* \"@openzeppelin/contracts/access/AccessControl.sol\":4717:4735  getRoleAdmin(role) */\n      jump\t// in\n    tag_309:\n        /* \"@openzeppelin/contracts/access/AccessControl.sol\":2464:2480  _checkRole(role) */\n      tag_311\n        /* \"@openzeppelin/contracts/access/AccessControl.sol\":2475:2479  role */\n      dup2\n        /* \"@openzeppelin/contracts/access/AccessControl.sol\":2464:2474  _checkRole */\n      tag_186\n        /* \"@openzeppelin/contracts/access/AccessControl.sol\":2464:2480  _checkRole(role) */\n      jump\t// in\n    tag_311:\n        /* \"@openzeppelin/contracts/access/AccessControl.sol\":4747:4773  _revokeRole(role, account) */\n      tag_313\n        /* \"@openzeppelin/contracts/access/AccessControl.sol\":4759:4763  role */\n      dup4\n        /* \"@openzeppelin/contracts/access/AccessControl.sol\":4765:4772  account */\n      dup4\n        /* \"@openzeppelin/contracts/access/AccessControl.sol\":4747:4758  _revokeRole */\n      tag_261\n        /* \"@openzeppelin/contracts/access/AccessControl.sol\":4747:4773  _revokeRole(role, account) */\n      jump\t// in\n    tag_313:\n      pop\n        /* \"@openzeppelin/contracts/access/AccessControl.sol\":4642:4780  function revokeRole(bytes32 role, address account) public virtual onlyRole(getRoleAdmin(role)) {... */\n      pop\n      pop\n      pop\n      jump\t// out\n        /* \"@openzeppelin/contracts/token/ERC20/ERC20.sol\":3551:3691  function allowance(address owner, address spender) public view virtual returns (uint256) {... */\n    tag_156:\n        /* \"@openzeppelin/contracts/token/ERC20/ERC20.sol\":3631:3638  uint256 */\n      0x00\n        /* \"@openzeppelin/contracts/token/ERC20/ERC20.sol\":3657:3668  _allowances */\n      0x01\n        /* \"@openzeppelin/contracts/token/ERC20/ERC20.sol\":3657:3675  _allowances[owner] */\n      0x00\n        /* \"@openzeppelin/contracts/token/ERC20/ERC20.sol\":3669:3674  owner */\n      dup5\n        /* \"@openzeppelin/contracts/token/ERC20/ERC20.sol\":3657:3675  _allowances[owner] */\n      0xffffffffffffffffffffffffffffffffffffffff\n      and\n      0xffffffffffffffffffffffffffffffffffffffff\n      and\n      dup2\n      mstore\n      0x20\n      add\n      swap1\n      dup2\n      mstore\n      0x20\n      add\n      0x00\n      keccak256\n        /* \"@openzeppelin/contracts/token/ERC20/ERC20.sol\":3657:3684  _allowances[owner][spender] */\n      0x00\n        /* \"@openzeppelin/contracts/token/ERC20/ERC20.sol\":3676:3683  spender */\n      dup4\n        /* \"@openzeppelin/contracts/token/ERC20/ERC20.sol\":3657:3684  _allowances[owner][spender] */\n      0xffffffffffffffffffffffffffffffffffffffff\n      and\n      0xffffffffffffffffffffffffffffffffffffffff\n      and\n      dup2\n      mstore\n      0x20\n      add\n      swap1\n      dup2\n      mstore\n      0x20\n      add\n      0x00\n      keccak256\n      sload\n        /* \"@openzeppelin/contracts/token/ERC20/ERC20.sol\":3650:3684  return _allowances[owner][spender] */\n      swap1\n      pop\n        /* \"@openzeppelin/contracts/token/ERC20/ERC20.sol\":3551:3691  function allowance(address owner, address spender) public view virtual returns (uint256) {... */\n      swap3\n      swap2\n      pop\n      pop\n      jump\t// out\n        /* \"GymTokenSmartContracts/GymToken.sol\":1002:1053  mapping(address => uint256) public membershipExpiry */\n    tag_160:\n      mstore(0x20, 0x08)\n      dup1\n      0x00\n      mstore\n      keccak256(0x00, 0x40)\n      0x00\n      swap2\n      pop\n      swap1\n      pop\n      sload\n      dup2\n      jump\t// out\n        /* \"GymTokenSmartContracts/GymToken.sol\":400:464  bytes32 public constant MANAGER_ROLE = keccak256(\"MANAGER_ROLE\") */\n    tag_163:\n        /* \"GymTokenSmartContracts/GymToken.sol\":439:464  keccak256(\"MANAGER_ROLE\") */\n      0x241ecf16d79d0f8dbfb92cbc07fe17840425976cf0667f022fe9877caa831b08\n        /* \"GymTokenSmartContracts/GymToken.sol\":400:464  bytes32 public constant MANAGER_ROLE = keccak256(\"MANAGER_ROLE\") */\n      dup2\n      jump\t// out\n        /* \"@openzeppelin/contracts/utils/introspection/ERC165.sol\":763:909  function supportsInterface(bytes4 interfaceId) public view virtual returns (bool) {... */\n    tag_168:\n        /* \"@openzeppelin/contracts/utils/introspection/ERC165.sol\":839:843  bool */\n      0x00\n        /* \"@openzeppelin/contracts/utils/introspection/ERC165.sol\":877:902  type(IERC165).interfaceId */\n      0x01ffc9a700000000000000000000000000000000000000000000000000000000\n        /* \"@openzeppelin/contracts/utils/introspection/ERC165.sol\":862:902  interfaceId == type(IERC165).interfaceId */\n      not(0xffffffffffffffffffffffffffffffffffffffffffffffffffffffff)\n      and\n        /* \"@openzeppelin/contracts/utils/introspection/ERC165.sol\":862:873  interfaceId */\n      dup3\n        /* \"@openzeppelin/contracts/utils/introspection/ERC165.sol\":862:902  interfaceId == type(IERC165).interfaceId */\n      not(0xffffffffffffffffffffffffffffffffffffffffffffffffffffffff)\n      and\n      eq\n        /* \"@openzeppelin/contracts/utils/introspection/ERC165.sol\":855:902  return interfaceId == type(IERC165).interfaceId */\n      swap1\n      pop\n        /* \"@openzeppelin/contracts/utils/introspection/ERC165.sol\":763:909  function supportsInterface(bytes4 interfaceId) public view virtual returns (bool) {... */\n      swap2\n      swap1\n      pop\n      jump\t// out\n        /* \"@openzeppelin/contracts/utils/Context.sol\":656:752  function _msgSender() internal view virtual returns (address) {... */\n    tag_178:\n        /* \"@openzeppelin/contracts/utils/Context.sol\":709:716  address */\n      0x00\n        /* \"@openzeppelin/contracts/utils/Context.sol\":735:745  msg.sender */\n      caller\n        /* \"@openzeppelin/contracts/utils/Context.sol\":728:745  return msg.sender */\n      swap1\n      pop\n        /* \"@openzeppelin/contracts/utils/Context.sol\":656:752  function _msgSender() internal view virtual returns (address) {... */\n      swap1\n      jump\t// out\n        /* \"@openzeppelin/contracts/token/ERC20/ERC20.sol\":8726:8854  function _approve(address owner, address spender, uint256 value) internal {... */\n    tag_180:\n        /* \"@openzeppelin/contracts/token/ERC20/ERC20.sol\":8810:8847  _approve(owner, spender, value, true) */\n      tag_318\n        /* \"@openzeppelin/contracts/token/ERC20/ERC20.sol\":8819:8824  owner */\n      dup4\n        /* \"@openzeppelin/contracts/token/ERC20/ERC20.sol\":8826:8833  spender */\n      dup4\n        /* \"@openzeppelin/contracts/token/ERC20/ERC20.sol\":8835:8840  value */\n      dup4\n        /* \"@openzeppelin/contracts/token/ERC20/ERC20.sol\":8842:8846  true */\n      0x01\n        /* \"@openzeppelin/contracts/token/ERC20/ERC20.sol\":8810:8818  _approve */\n      tag_319\n        /* \"@openzeppelin/contracts/token/ERC20/ERC20.sol\":8810:8847  _approve(owner, spender, value, true) */\n      jump\t// in\n    tag_318:\n        /* \"@openzeppelin/contracts/token/ERC20/ERC20.sol\":8726:8854  function _approve(address owner, address spender, uint256 value) internal {... */\n      pop\n      pop\n      pop\n      jump\t// out\n        /* \"@openzeppelin/contracts/security/Pausable.sol\":1767:1873  function _requireNotPaused() internal view virtual {... */\n    tag_183:\n        /* \"@openzeppelin/contracts/security/Pausable.sol\":1837:1845  paused() */\n      tag_321\n        /* \"@openzeppelin/contracts/security/Pausable.sol\":1837:1843  paused */\n      tag_101\n        /* \"@openzeppelin/contracts/security/Pausable.sol\":1837:1845  paused() */\n      jump\t// in\n    tag_321:\n        /* \"@openzeppelin/contracts/security/Pausable.sol\":1836:1845  !paused() */\n      iszero\n        /* \"@openzeppelin/contracts/security/Pausable.sol\":1828:1866  require(!paused(), \"Pausable: paused\") */\n      tag_322\n      jumpi\n      mload(0x40)\n      0x08c379a000000000000000000000000000000000000000000000000000000000\n      dup2\n      mstore\n      0x04\n      add\n      tag_323\n      swap1\n      tag_324\n      jump\t// in\n    tag_323:\n      mload(0x40)\n      dup1\n      swap2\n      sub\n      swap1\n      revert\n    tag_322:\n        /* \"@openzeppelin/contracts/security/Pausable.sol\":1767:1873  function _requireNotPaused() internal view virtual {... */\n      jump\t// out\n        /* \"@openzeppelin/contracts/access/AccessControl.sol\":3199:3302  function _checkRole(bytes32 role) internal view virtual {... */\n    tag_186:\n        /* \"@openzeppelin/contracts/access/AccessControl.sol\":3265:3295  _checkRole(role, _msgSender()) */\n      tag_326\n        /* \"@openzeppelin/contracts/access/AccessControl.sol\":3276:3280  role */\n      dup2\n        /* \"@openzeppelin/contracts/access/AccessControl.sol\":3282:3294  _msgSender() */\n      tag_327\n        /* \"@openzeppelin/contracts/access/AccessControl.sol\":3282:3292  _msgSender */\n      tag_178\n        /* \"@openzeppelin/contracts/access/AccessControl.sol\":3282:3294  _msgSender() */\n      jump\t// in\n    tag_327:\n        /* \"@openzeppelin/contracts/access/AccessControl.sol\":3265:3275  _checkRole */\n      tag_328\n        /* \"@openzeppelin/contracts/access/AccessControl.sol\":3265:3295  _checkRole(role, _msgSender()) */\n      jump\t// in\n    tag_326:\n        /* \"@openzeppelin/contracts/access/AccessControl.sol\":3199:3302  function _checkRole(bytes32 role) internal view virtual {... */\n      pop\n      jump\t// out\n        /* \"@openzeppelin/contracts/token/ERC20/ERC20.sol\":5393:5693  function _transfer(address from, address to, uint256 value) internal {... */\n    tag_193:\n        /* \"@openzeppelin/contracts/token/ERC20/ERC20.sol\":5492:5493  0 */\n      0x00\n        /* \"@openzeppelin/contracts/token/ERC20/ERC20.sol\":5476:5494  from == address(0) */\n      0xffffffffffffffffffffffffffffffffffffffff\n      and\n        /* \"@openzeppelin/contracts/token/ERC20/ERC20.sol\":5476:5480  from */\n      dup4\n        /* \"@openzeppelin/contracts/token/ERC20/ERC20.sol\":5476:5494  from == address(0) */\n      0xffffffffffffffffffffffffffffffffffffffff\n      and\n      sub\n        /* \"@openzeppelin/contracts/token/ERC20/ERC20.sol\":5472:5558  if (from == address(0)) {... */\n      tag_330\n      jumpi\n        /* \"@openzeppelin/contracts/token/ERC20/ERC20.sol\":5544:5545  0 */\n      0x00\n        /* \"@openzeppelin/contracts/token/ERC20/ERC20.sol\":5517:5547  ERC20InvalidSender(address(0)) */\n      mload(0x40)\n      0x96c6fd1e00000000000000000000000000000000000000000000000000000000\n      dup2\n      mstore\n      0x04\n      add\n      tag_331\n      swap2\n      swap1\n      tag_332\n      jump\t// in\n    tag_331:\n      mload(0x40)\n      dup1\n      swap2\n      sub\n      swap1\n      revert\n        /* \"@openzeppelin/contracts/token/ERC20/ERC20.sol\":5472:5558  if (from == address(0)) {... */\n    tag_330:\n        /* \"@openzeppelin/contracts/token/ERC20/ERC20.sol\":5585:5586  0 */\n      0x00\n        /* \"@openzeppelin/contracts/token/ERC20/ERC20.sol\":5571:5587  to == address(0) */\n      0xffffffffffffffffffffffffffffffffffffffff\n      and\n        /* \"@openzeppelin/contracts/token/ERC20/ERC20.sol\":5571:5573  to */\n      dup3\n        /* \"@openzeppelin/contracts/token/ERC20/ERC20.sol\":5571:5587  to == address(0) */\n      0xffffffffffffffffffffffffffffffffffffffff\n      and\n      sub\n        /* \"@openzeppelin/contracts/token/ERC20/ERC20.sol\":5567:5653  if (to == address(0)) {... */\n      tag_333\n      jumpi\n        /* \"@openzeppelin/contracts/token/ERC20/ERC20.sol\":5639:5640  0 */\n      0x00\n        /* \"@openzeppelin/contracts/token/ERC20/ERC20.sol\":5610:5642  ERC20InvalidReceiver(address(0)) */\n      mload(0x40)\n      0xec442f0500000000000000000000000000000000000000000000000000000000\n      dup2\n      mstore\n      0x04\n      add\n      tag_334\n      swap2\n      swap1\n      tag_332\n      jump\t// in\n    tag_334:\n      mload(0x40)\n      dup1\n      swap2\n      sub\n      swap1\n      revert\n        /* \"@openzeppelin/contracts/token/ERC20/ERC20.sol\":5567:5653  if (to == address(0)) {... */\n    tag_333:\n        /* \"@openzeppelin/contracts/token/ERC20/ERC20.sol\":5662:5686  _update(from, to, value) */\n      tag_335\n        /* \"@openzeppelin/contracts/token/ERC20/ERC20.sol\":5670:5674  from */\n      dup4\n        /* \"@openzeppelin/contracts/token/ERC20/ERC20.sol\":5676:5678  to */\n      dup4\n        /* \"@openzeppelin/contracts/token/ERC20/ERC20.sol\":5680:5685  value */\n      dup4\n        /* \"@openzeppelin/contracts/token/ERC20/ERC20.sol\":5662:5669  _update */\n      tag_336\n        /* \"@openzeppelin/contracts/token/ERC20/ERC20.sol\":5662:5686  _update(from, to, value) */\n      jump\t// in\n    tag_335:\n        /* \"@openzeppelin/contracts/token/ERC20/ERC20.sol\":5393:5693  function _transfer(address from, address to, uint256 value) internal {... */\n      pop\n      pop\n      pop\n      jump\t// out\n        /* \"@openzeppelin/contracts/token/ERC20/ERC20.sol\":10415:10892  function _spendAllowance(address owner, address spender, uint256 value) internal virtual {... */\n    tag_198:\n        /* \"@openzeppelin/contracts/token/ERC20/ERC20.sol\":10514:10538  uint256 currentAllowance */\n      0x00\n        /* \"@openzeppelin/contracts/token/ERC20/ERC20.sol\":10541:10566  allowance(owner, spender) */\n      tag_338\n        /* \"@openzeppelin/contracts/token/ERC20/ERC20.sol\":10551:10556  owner */\n      dup5\n        /* \"@openzeppelin/contracts/token/ERC20/ERC20.sol\":10558:10565  spender */\n      dup5\n        /* \"@openzeppelin/contracts/token/ERC20/ERC20.sol\":10541:10550  allowance */\n      tag_156\n        /* \"@openzeppelin/contracts/token/ERC20/ERC20.sol\":10541:10566  allowance(owner, spender) */\n      jump\t// in\n    tag_338:\n        /* \"@openzeppelin/contracts/token/ERC20/ERC20.sol\":10514:10566  uint256 currentAllowance = allowance(owner, spender) */\n      swap1\n      pop\n        /* \"@openzeppelin/contracts/token/ERC20/ERC20.sol\":10600:10617  type(uint256).max */\n      0xffffffffffffffffffffffffffffffffffffffffffffffffffffffffffffffff\n        /* \"@openzeppelin/contracts/token/ERC20/ERC20.sol\":10580:10596  currentAllowance */\n      dup2\n        /* \"@openzeppelin/contracts/token/ERC20/ERC20.sol\":10580:10617  currentAllowance != type(uint256).max */\n      eq\n        /* \"@openzeppelin/contracts/token/ERC20/ERC20.sol\":10576:10886  if (currentAllowance != type(uint256).max) {... */\n      tag_339\n      jumpi\n        /* \"@openzeppelin/contracts/token/ERC20/ERC20.sol\":10656:10661  value */\n      dup2\n        /* \"@openzeppelin/contracts/token/ERC20/ERC20.sol\":10637:10653  currentAllowance */\n      dup2\n        /* \"@openzeppelin/contracts/token/ERC20/ERC20.sol\":10637:10661  currentAllowance < value */\n      lt\n        /* \"@openzeppelin/contracts/token/ERC20/ERC20.sol\":10633:10763  if (currentAllowance < value) {... */\n      iszero\n      tag_340\n      jumpi\n        /* \"@openzeppelin/contracts/token/ERC20/ERC20.sol\":10715:10722  spender */\n      dup3\n        /* \"@openzeppelin/contracts/token/ERC20/ERC20.sol\":10724:10740  currentAllowance */\n      dup2\n        /* \"@openzeppelin/contracts/token/ERC20/ERC20.sol\":10742:10747  value */\n      dup4\n        /* \"@openzeppelin/contracts/token/ERC20/ERC20.sol\":10688:10748  ERC20InsufficientAllowance(spender, currentAllowance, value) */\n      mload(0x40)\n      0xfb8f41b200000000000000000000000000000000000000000000000000000000\n      dup2\n      mstore\n      0x04\n      add\n      tag_341\n      swap4\n      swap3\n      swap2\n      swap1\n      tag_342\n      jump\t// in\n    tag_341:\n      mload(0x40)\n      dup1\n      swap2\n      sub\n      swap1\n      revert\n        /* \"@openzeppelin/contracts/token/ERC20/ERC20.sol\":10633:10763  if (currentAllowance < value) {... */\n    tag_340:\n        /* \"@openzeppelin/contracts/token/ERC20/ERC20.sol\":10804:10861  _approve(owner, spender, currentAllowance - value, false) */\n      tag_343\n        /* \"@openzeppelin/contracts/token/ERC20/ERC20.sol\":10813:10818  owner */\n      dup5\n        /* \"@openzeppelin/contracts/token/ERC20/ERC20.sol\":10820:10827  spender */\n      dup5\n        /* \"@openzeppelin/contracts/token/ERC20/ERC20.sol\":10848:10853  value */\n      dup5\n        /* \"@openzeppelin/contracts/token/ERC20/ERC20.sol\":10829:10845  currentAllowance */\n      dup5\n        /* \"@openzeppelin/contracts/token/ERC20/ERC20.sol\":10829:10853  currentAllowance - value */\n      sub\n        /* \"@openzeppelin/contracts/token/ERC20/ERC20.sol\":10855:10860  false */\n      0x00\n        /* \"@openzeppelin/contracts/token/ERC20/ERC20.sol\":10804:10812  _approve */\n      tag_319\n        /* \"@openzeppelin/contracts/token/ERC20/ERC20.sol\":10804:10861  _approve(owner, spender, currentAllowance - value, false) */\n      jump\t// in\n    tag_343:\n        /* \"@openzeppelin/contracts/token/ERC20/ERC20.sol\":10576:10886  if (currentAllowance != type(uint256).max) {... */\n    tag_339:\n        /* \"@openzeppelin/contracts/token/ERC20/ERC20.sol\":10504:10892  {... */\n      pop\n        /* \"@openzeppelin/contracts/token/ERC20/ERC20.sol\":10415:10892  function _spendAllowance(address owner, address spender, uint256 value) internal virtual {... */\n      pop\n      pop\n      pop\n      jump\t// out\n        /* \"@openzeppelin/contracts/token/ERC20/ERC20.sol\":7984:8190  function _burn(address account, uint256 value) internal {... */\n    tag_218:\n        /* \"@openzeppelin/contracts/token/ERC20/ERC20.sol\":8073:8074  0 */\n      0x00\n        /* \"@openzeppelin/contracts/token/ERC20/ERC20.sol\":8054:8075  account == address(0) */\n      0xffffffffffffffffffffffffffffffffffffffff\n      and\n        /* \"@openzeppelin/contracts/token/ERC20/ERC20.sol\":8054:8061  account */\n      dup3\n        /* \"@openzeppelin/contracts/token/ERC20/ERC20.sol\":8054:8075  account == address(0) */\n      0xffffffffffffffffffffffffffffffffffffffff\n      and\n      sub\n        /* \"@openzeppelin/contracts/token/ERC20/ERC20.sol\":8050:8139  if (account == address(0)) {... */\n      tag_345\n      jumpi\n        /* \"@openzeppelin/contracts/token/ERC20/ERC20.sol\":8125:8126  0 */\n      0x00\n        /* \"@openzeppelin/contracts/token/ERC20/ERC20.sol\":8098:8128  ERC20InvalidSender(address(0)) */\n      mload(0x40)\n      0x96c6fd1e00000000000000000000000000000000000000000000000000000000\n      dup2\n      mstore\n      0x04\n      add\n      tag_346\n      swap2\n      swap1\n      tag_332\n      jump\t// in\n    tag_346:\n      mload(0x40)\n      dup1\n      swap2\n      sub\n      swap1\n      revert\n        /* \"@openzeppelin/contracts/token/ERC20/ERC20.sol\":8050:8139  if (account == address(0)) {... */\n    tag_345:\n        /* \"@openzeppelin/contracts/token/ERC20/ERC20.sol\":8148:8183  _update(account, address(0), value) */\n      tag_347\n        /* \"@openzeppelin/contracts/token/ERC20/ERC20.sol\":8156:8163  account */\n      dup3\n        /* \"@openzeppelin/contracts/token/ERC20/ERC20.sol\":8173:8174  0 */\n      0x00\n        /* \"@openzeppelin/contracts/token/ERC20/ERC20.sol\":8177:8182  value */\n      dup4\n        /* \"@openzeppelin/contracts/token/ERC20/ERC20.sol\":8148:8155  _update */\n      tag_336\n        /* \"@openzeppelin/contracts/token/ERC20/ERC20.sol\":8148:8183  _update(account, address(0), value) */\n      jump\t// in\n    tag_347:\n        /* \"@openzeppelin/contracts/token/ERC20/ERC20.sol\":7984:8190  function _burn(address account, uint256 value) internal {... */\n      pop\n      pop\n      jump\t// out\n        /* \"@openzeppelin/contracts/access/AccessControl.sol\":6179:6495  function _grantRole(bytes32 role, address account) internal virtual returns (bool) {... */\n    tag_251:\n        /* \"@openzeppelin/contracts/access/AccessControl.sol\":6256:6260  bool */\n      0x00\n        /* \"@openzeppelin/contracts/access/AccessControl.sol\":6277:6299  hasRole(role, account) */\n      tag_349\n        /* \"@openzeppelin/contracts/access/AccessControl.sol\":6285:6289  role */\n      dup4\n        /* \"@openzeppelin/contracts/access/AccessControl.sol\":6291:6298  account */\n      dup4\n        /* \"@openzeppelin/contracts/access/AccessControl.sol\":6277:6284  hasRole */\n      tag_125\n        /* \"@openzeppelin/contracts/access/AccessControl.sol\":6277:6299  hasRole(role, account) */\n      jump\t// in\n    tag_349:\n        /* \"@openzeppelin/contracts/access/AccessControl.sol\":6272:6489  if (!hasRole(role, account)) {... */\n      tag_350\n      jumpi\n        /* \"@openzeppelin/contracts/access/AccessControl.sol\":6347:6351  true */\n      0x01\n        /* \"@openzeppelin/contracts/access/AccessControl.sol\":6315:6321  _roles */\n      0x06\n        /* \"@openzeppelin/contracts/access/AccessControl.sol\":6315:6327  _roles[role] */\n      0x00\n        /* \"@openzeppelin/contracts/access/AccessControl.sol\":6322:6326  role */\n      dup6\n        /* \"@openzeppelin/contracts/access/AccessControl.sol\":6315:6327  _roles[role] */\n      dup2\n      mstore\n      0x20\n      add\n      swap1\n      dup2\n      mstore\n      0x20\n      add\n      0x00\n      keccak256\n        /* \"@openzeppelin/contracts/access/AccessControl.sol\":6315:6335  _roles[role].hasRole */\n      0x00\n      add\n        /* \"@openzeppelin/contracts/access/AccessControl.sol\":6315:6344  _roles[role].hasRole[account] */\n      0x00\n        /* \"@openzeppelin/contracts/access/AccessControl.sol\":6336:6343  account */\n      dup5\n        /* \"@openzeppelin/contracts/access/AccessControl.sol\":6315:6344  _roles[role].hasRole[account] */\n      0xffffffffffffffffffffffffffffffffffffffff\n      and\n      0xffffffffffffffffffffffffffffffffffffffff\n      and\n      dup2\n      mstore\n      0x20\n      add\n      swap1\n      dup2\n      mstore\n      0x20\n      add\n      0x00\n      keccak256\n      0x00\n        /* \"@openzeppelin/contracts/access/AccessControl.sol\":6315:6351  _roles[role].hasRole[account] = true */\n      0x0100\n      exp\n      dup2\n      sload\n      dup2\n      0xff\n      mul\n      not\n      and\n      swap1\n      dup4\n      iszero\n      iszero\n      mul\n      or\n      swap1\n      sstore\n      pop\n        /* \"@openzeppelin/contracts/access/AccessControl.sol\":6397:6409  _msgSender() */\n      tag_351\n        /* \"@openzeppelin/contracts/access/AccessControl.sol\":6397:6407  _msgSender */\n      tag_178\n        /* \"@openzeppelin/contracts/access/AccessControl.sol\":6397:6409  _msgSender() */\n      jump\t// in\n    tag_351:\n        /* \"@openzeppelin/contracts/access/AccessControl.sol\":6370:6410  RoleGranted(role, account, _msgSender()) */\n      0xffffffffffffffffffffffffffffffffffffffff\n      and\n        /* \"@openzeppelin/contracts/access/AccessControl.sol\":6388:6395  account */\n      dup3\n        /* \"@openzeppelin/contracts/access/AccessControl.sol\":6370:6410  RoleGranted(role, account, _msgSender()) */\n      0xffffffffffffffffffffffffffffffffffffffff\n      and\n        /* \"@openzeppelin/contracts/access/AccessControl.sol\":6382:6386  role */\n      dup5\n        /* \"@openzeppelin/contracts/access/AccessControl.sol\":6370:6410  RoleGranted(role, account, _msgSender()) */\n      0x2f8788117e7eff1d82e926ec794901d17c78024a50270940304540a733656f0d\n      mload(0x40)\n      mload(0x40)\n      dup1\n      swap2\n      sub\n      swap1\n      log4\n        /* \"@openzeppelin/contracts/access/AccessControl.sol\":6431:6435  true */\n      0x01\n        /* \"@openzeppelin/contracts/access/AccessControl.sol\":6424:6435  return true */\n      swap1\n      pop\n      jump(tag_348)\n        /* \"@openzeppelin/contracts/access/AccessControl.sol\":6272:6489  if (!hasRole(role, account)) {... */\n    tag_350:\n        /* \"@openzeppelin/contracts/access/AccessControl.sol\":6473:6478  false */\n      0x00\n        /* \"@openzeppelin/contracts/access/AccessControl.sol\":6466:6478  return false */\n      swap1\n      pop\n        /* \"@openzeppelin/contracts/access/AccessControl.sol\":6179:6495  function _grantRole(bytes32 role, address account) internal virtual returns (bool) {... */\n    tag_348:\n      swap3\n      swap2\n      pop\n      pop\n      jump\t// out\n        /* \"@openzeppelin/contracts/access/AccessControl.sol\":6730:7047  function _revokeRole(bytes32 role, address account) internal virtual returns (bool) {... */\n    tag_261:\n        /* \"@openzeppelin/contracts/access/AccessControl.sol\":6808:6812  bool */\n      0x00\n        /* \"@openzeppelin/contracts/access/AccessControl.sol\":6828:6850  hasRole(role, account) */\n      tag_354\n        /* \"@openzeppelin/contracts/access/AccessControl.sol\":6836:6840  role */\n      dup4\n        /* \"@openzeppelin/contracts/access/AccessControl.sol\":6842:6849  account */\n      dup4\n        /* \"@openzeppelin/contracts/access/AccessControl.sol\":6828:6835  hasRole */\n      tag_125\n        /* \"@openzeppelin/contracts/access/AccessControl.sol\":6828:6850  hasRole(role, account) */\n      jump\t// in\n    tag_354:\n        /* \"@openzeppelin/contracts/access/AccessControl.sol\":6824:7041  if (hasRole(role, account)) {... */\n      iszero\n      tag_355\n      jumpi\n        /* \"@openzeppelin/contracts/access/AccessControl.sol\":6898:6903  false */\n      0x00\n        /* \"@openzeppelin/contracts/access/AccessControl.sol\":6866:6872  _roles */\n      0x06\n        /* \"@openzeppelin/contracts/access/AccessControl.sol\":6866:6878  _roles[role] */\n      0x00\n        /* \"@openzeppelin/contracts/access/AccessControl.sol\":6873:6877  role */\n      dup6\n        /* \"@openzeppelin/contracts/access/AccessControl.sol\":6866:6878  _roles[role] */\n      dup2\n      mstore\n      0x20\n      add\n      swap1\n      dup2\n      mstore\n      0x20\n      add\n      0x00\n      keccak256\n        /* \"@openzeppelin/contracts/access/AccessControl.sol\":6866:6886  _roles[role].hasRole */\n      0x00\n      add\n        /* \"@openzeppelin/contracts/access/AccessControl.sol\":6866:6895  _roles[role].hasRole[account] */\n      0x00\n        /* \"@openzeppelin/contracts/access/AccessControl.sol\":6887:6894  account */\n      dup5\n        /* \"@openzeppelin/contracts/access/AccessControl.sol\":6866:6895  _roles[role].hasRole[account] */\n      0xffffffffffffffffffffffffffffffffffffffff\n      and\n      0xffffffffffffffffffffffffffffffffffffffff\n      and\n      dup2\n      mstore\n      0x20\n      add\n      swap1\n      dup2\n      mstore\n      0x20\n      add\n      0x00\n      keccak256\n      0x00\n        /* \"@openzeppelin/contracts/access/AccessControl.sol\":6866:6903  _roles[role].hasRole[account] = false */\n      0x0100\n      exp\n      dup2\n      sload\n      dup2\n      0xff\n      mul\n      not\n      and\n      swap1\n      dup4\n      iszero\n      iszero\n      mul\n      or\n      swap1\n      sstore\n      pop\n        /* \"@openzeppelin/contracts/access/AccessControl.sol\":6949:6961  _msgSender() */\n      tag_356\n        /* \"@openzeppelin/contracts/access/AccessControl.sol\":6949:6959  _msgSender */\n      tag_178\n        /* \"@openzeppelin/contracts/access/AccessControl.sol\":6949:6961  _msgSender() */\n      jump\t// in\n    tag_356:\n        /* \"@openzeppelin/contracts/access/AccessControl.sol\":6922:6962  RoleRevoked(role, account, _msgSender()) */\n      0xffffffffffffffffffffffffffffffffffffffff\n      and\n        /* \"@openzeppelin/contracts/access/AccessControl.sol\":6940:6947  account */\n      dup3\n        /* \"@openzeppelin/contracts/access/AccessControl.sol\":6922:6962  RoleRevoked(role, account, _msgSender()) */\n      0xffffffffffffffffffffffffffffffffffffffff\n      and\n        /* \"@openzeppelin/contracts/access/AccessControl.sol\":6934:6938  role */\n      dup5\n        /* \"@openzeppelin/contracts/access/AccessControl.sol\":6922:6962  RoleRevoked(role, account, _msgSender()) */\n      0xf6391f5c32d9c69d2a47ea670b442974b53935d1edc7fd64eb21e047a839171b\n      mload(0x40)\n      mload(0x40)\n      dup1\n      swap2\n      sub\n      swap1\n      log4\n        /* \"@openzeppelin/contracts/access/AccessControl.sol\":6983:6987  true */\n      0x01\n        /* \"@openzeppelin/contracts/access/AccessControl.sol\":6976:6987  return true */\n      swap1\n      pop\n      jump(tag_353)\n        /* \"@openzeppelin/contracts/access/AccessControl.sol\":6824:7041  if (hasRole(role, account)) {... */\n    tag_355:\n        /* \"@openzeppelin/contracts/access/AccessControl.sol\":7025:7030  false */\n      0x00\n        /* \"@openzeppelin/contracts/access/AccessControl.sol\":7018:7030  return false */\n      swap1\n      pop\n        /* \"@openzeppelin/contracts/access/AccessControl.sol\":6730:7047  function _revokeRole(bytes32 role, address account) internal virtual returns (bool) {... */\n    tag_353:\n      swap3\n      swap2\n      pop\n      pop\n      jump\t// out\n        /* \"@openzeppelin/contracts/security/Pausable.sol\":2433:2550  function _unpause() internal virtual whenPaused {... */\n    tag_266:\n        /* \"@openzeppelin/contracts/security/Pausable.sol\":1486:1502  _requirePaused() */\n      tag_359\n        /* \"@openzeppelin/contracts/security/Pausable.sol\":1486:1500  _requirePaused */\n      tag_360\n        /* \"@openzeppelin/contracts/security/Pausable.sol\":1486:1502  _requirePaused() */\n      jump\t// in\n    tag_359:\n        /* \"@openzeppelin/contracts/security/Pausable.sol\":2501:2506  false */\n      0x00\n        /* \"@openzeppelin/contracts/security/Pausable.sol\":2491:2498  _paused */\n      0x05\n      0x00\n        /* \"@openzeppelin/contracts/security/Pausable.sol\":2491:2506  _paused = false */\n      0x0100\n      exp\n      dup2\n      sload\n      dup2\n      0xff\n      mul\n      not\n      and\n      swap1\n      dup4\n      iszero\n      iszero\n      mul\n      or\n      swap1\n      sstore\n      pop\n        /* \"@openzeppelin/contracts/security/Pausable.sol\":2521:2543  Unpaused(_msgSender()) */\n      0x5db9ee0a495bf2e6ff9c91a7834c1ba4fdd244a5e8aa4e537bd38aeae4b073aa\n        /* \"@openzeppelin/contracts/security/Pausable.sol\":2530:2542  _msgSender() */\n      tag_362\n        /* \"@openzeppelin/contracts/security/Pausable.sol\":2530:2540  _msgSender */\n      tag_178\n        /* \"@openzeppelin/contracts/security/Pausable.sol\":2530:2542  _msgSender() */\n      jump\t// in\n    tag_362:\n        /* \"@openzeppelin/contracts/security/Pausable.sol\":2521:2543  Unpaused(_msgSender()) */\n      mload(0x40)\n      tag_363\n      swap2\n      swap1\n      tag_332\n      jump\t// in\n    tag_363:\n      mload(0x40)\n      dup1\n      swap2\n      sub\n      swap1\n      log1\n        /* \"@openzeppelin/contracts/security/Pausable.sol\":2433:2550  function _unpause() internal virtual whenPaused {... */\n      jump\t// out\n        /* \"@openzeppelin/contracts/security/Pausable.sol\":2186:2301  function _pause() internal virtual whenNotPaused {... */\n    tag_273:\n        /* \"@openzeppelin/contracts/security/Pausable.sol\":1239:1258  _requireNotPaused() */\n      tag_365\n        /* \"@openzeppelin/contracts/security/Pausable.sol\":1239:1256  _requireNotPaused */\n      tag_183\n        /* \"@openzeppelin/contracts/security/Pausable.sol\":1239:1258  _requireNotPaused() */\n      jump\t// in\n    tag_365:\n        /* \"@openzeppelin/contracts/security/Pausable.sol\":2255:2259  true */\n      0x01\n        /* \"@openzeppelin/contracts/security/Pausable.sol\":2245:2252  _paused */\n      0x05\n      0x00\n        /* \"@openzeppelin/contracts/security/Pausable.sol\":2245:2259  _paused = true */\n      0x0100\n      exp\n      dup2\n      sload\n      dup2\n      0xff\n      mul\n      not\n      and\n      swap1\n      dup4\n      iszero\n      iszero\n      mul\n      or\n      swap1\n      sstore\n      pop\n        /* \"@openzeppelin/contracts/security/Pausable.sol\":2274:2294  Paused(_msgSender()) */\n      0x62e78cea01bee320cd4e420270b5ea74000d11b0c9f74754ebdbfc544b05a258\n        /* \"@openzeppelin/contracts/security/Pausable.sol\":2281:2293  _msgSender() */\n      tag_367\n        /* \"@openzeppelin/contracts/security/Pausable.sol\":2281:2291  _msgSender */\n      tag_178\n        /* \"@openzeppelin/contracts/security/Pausable.sol\":2281:2293  _msgSender() */\n      jump\t// in\n    tag_367:\n        /* \"@openzeppelin/contracts/security/Pausable.sol\":2274:2294  Paused(_msgSender()) */\n      mload(0x40)\n      tag_368\n      swap2\n      swap1\n      tag_332\n      jump\t// in\n    tag_368:\n      mload(0x40)\n      dup1\n      swap2\n      sub\n      swap1\n      log1\n        /* \"@openzeppelin/contracts/security/Pausable.sol\":2186:2301  function _pause() internal virtual whenNotPaused {... */\n      jump\t// out\n        /* \"@openzeppelin/contracts/token/ERC20/ERC20.sol\":7458:7666  function _mint(address account, uint256 value) internal {... */\n    tag_302:\n        /* \"@openzeppelin/contracts/token/ERC20/ERC20.sol\":7547:7548  0 */\n      0x00\n        /* \"@openzeppelin/contracts/token/ERC20/ERC20.sol\":7528:7549  account == address(0) */\n      0xffffffffffffffffffffffffffffffffffffffff\n      and\n        /* \"@openzeppelin/contracts/token/ERC20/ERC20.sol\":7528:7535  account */\n      dup3\n        /* \"@openzeppelin/contracts/token/ERC20/ERC20.sol\":7528:7549  account == address(0) */\n      0xffffffffffffffffffffffffffffffffffffffff\n      and\n      sub\n        /* \"@openzeppelin/contracts/token/ERC20/ERC20.sol\":7524:7615  if (account == address(0)) {... */\n      tag_370\n      jumpi\n        /* \"@openzeppelin/contracts/token/ERC20/ERC20.sol\":7601:7602  0 */\n      0x00\n        /* \"@openzeppelin/contracts/token/ERC20/ERC20.sol\":7572:7604  ERC20InvalidReceiver(address(0)) */\n      mload(0x40)\n      0xec442f0500000000000000000000000000000000000000000000000000000000\n      dup2\n      mstore\n      0x04\n      add\n      tag_371\n      swap2\n      swap1\n      tag_332\n      jump\t// in\n    tag_371:\n      mload(0x40)\n      dup1\n      swap2\n      sub\n      swap1\n      revert\n        /* \"@openzeppelin/contracts/token/ERC20/ERC20.sol\":7524:7615  if (account == address(0)) {... */\n    tag_370:\n        /* \"@openzeppelin/contracts/token/ERC20/ERC20.sol\":7624:7659  _update(address(0), account, value) */\n      tag_372\n        /* \"@openzeppelin/contracts/token/ERC20/ERC20.sol\":7640:7641  0 */\n      0x00\n        /* \"@openzeppelin/contracts/token/ERC20/ERC20.sol\":7644:7651  account */\n      dup4\n        /* \"@openzeppelin/contracts/token/ERC20/ERC20.sol\":7653:7658  value */\n      dup4\n        /* \"@openzeppelin/contracts/token/ERC20/ERC20.sol\":7624:7631  _update */\n      tag_336\n        /* \"@openzeppelin/contracts/token/ERC20/ERC20.sol\":7624:7659  _update(address(0), account, value) */\n      jump\t// in\n    tag_372:\n        /* \"@openzeppelin/contracts/token/ERC20/ERC20.sol\":7458:7666  function _mint(address account, uint256 value) internal {... */\n      pop\n      pop\n      jump\t// out\n        /* \"@openzeppelin/contracts/token/ERC20/ERC20.sol\":9701:10133  function _approve(address owner, address spender, uint256 value, bool emitEvent) internal virtual {... */\n    tag_319:\n        /* \"@openzeppelin/contracts/token/ERC20/ERC20.sol\":9830:9831  0 */\n      0x00\n        /* \"@openzeppelin/contracts/token/ERC20/ERC20.sol\":9813:9832  owner == address(0) */\n      0xffffffffffffffffffffffffffffffffffffffff\n      and\n        /* \"@openzeppelin/contracts/token/ERC20/ERC20.sol\":9813:9818  owner */\n      dup5\n        /* \"@openzeppelin/contracts/token/ERC20/ERC20.sol\":9813:9832  owner == address(0) */\n      0xffffffffffffffffffffffffffffffffffffffff\n      and\n      sub\n        /* \"@openzeppelin/contracts/token/ERC20/ERC20.sol\":9809:9898  if (owner == address(0)) {... */\n      tag_374\n      jumpi\n        /* \"@openzeppelin/contracts/token/ERC20/ERC20.sol\":9884:9885  0 */\n      0x00\n        /* \"@openzeppelin/contracts/token/ERC20/ERC20.sol\":9855:9887  ERC20InvalidApprover(address(0)) */\n      mload(0x40)\n      0xe602df0500000000000000000000000000000000000000000000000000000000\n      dup2\n      mstore\n      0x04\n      add\n      tag_375\n      swap2\n      swap1\n      tag_332\n      jump\t// in\n    tag_375:\n      mload(0x40)\n      dup1\n      swap2\n      sub\n      swap1\n      revert\n        /* \"@openzeppelin/contracts/token/ERC20/ERC20.sol\":9809:9898  if (owner == address(0)) {... */\n    tag_374:\n        /* \"@openzeppelin/contracts/token/ERC20/ERC20.sol\":9930:9931  0 */\n      0x00\n        /* \"@openzeppelin/contracts/token/ERC20/ERC20.sol\":9911:9932  spender == address(0) */\n      0xffffffffffffffffffffffffffffffffffffffff\n      and\n        /* \"@openzeppelin/contracts/token/ERC20/ERC20.sol\":9911:9918  spender */\n      dup4\n        /* \"@openzeppelin/contracts/token/ERC20/ERC20.sol\":9911:9932  spender == address(0) */\n      0xffffffffffffffffffffffffffffffffffffffff\n      and\n      sub\n        /* \"@openzeppelin/contracts/token/ERC20/ERC20.sol\":9907:9997  if (spender == address(0)) {... */\n      tag_376\n      jumpi\n        /* \"@openzeppelin/contracts/token/ERC20/ERC20.sol\":9983:9984  0 */\n      0x00\n        /* \"@openzeppelin/contracts/token/ERC20/ERC20.sol\":9955:9986  ERC20InvalidSpender(address(0)) */\n      mload(0x40)\n      0x94280d6200000000000000000000000000000000000000000000000000000000\n      dup2\n      mstore\n      0x04\n      add\n      tag_377\n      swap2\n      swap1\n      tag_332\n      jump\t// in\n    tag_377:\n      mload(0x40)\n      dup1\n      swap2\n      sub\n      swap1\n      revert\n        /* \"@openzeppelin/contracts/token/ERC20/ERC20.sol\":9907:9997  if (spender == address(0)) {... */\n    tag_376:\n        /* \"@openzeppelin/contracts/token/ERC20/ERC20.sol\":10036:10041  value */\n      dup2\n        /* \"@openzeppelin/contracts/token/ERC20/ERC20.sol\":10006:10017  _allowances */\n      0x01\n        /* \"@openzeppelin/contracts/token/ERC20/ERC20.sol\":10006:10024  _allowances[owner] */\n      0x00\n        /* \"@openzeppelin/contracts/token/ERC20/ERC20.sol\":10018:10023  owner */\n      dup7\n        /* \"@openzeppelin/contracts/token/ERC20/ERC20.sol\":10006:10024  _allowances[owner] */\n      0xffffffffffffffffffffffffffffffffffffffff\n      and\n      0xffffffffffffffffffffffffffffffffffffffff\n      and\n      dup2\n      mstore\n      0x20\n      add\n      swap1\n      dup2\n      mstore\n      0x20\n      add\n      0x00\n      keccak256\n        /* \"@openzeppelin/contracts/token/ERC20/ERC20.sol\":10006:10033  _allowances[owner][spender] */\n      0x00\n        /* \"@openzeppelin/contracts/token/ERC20/ERC20.sol\":10025:10032  spender */\n      dup6\n        /* \"@openzeppelin/contracts/token/ERC20/ERC20.sol\":10006:10033  _allowances[owner][spender] */\n      0xffffffffffffffffffffffffffffffffffffffff\n      and\n      0xffffffffffffffffffffffffffffffffffffffff\n      and\n      dup2\n      mstore\n      0x20\n      add\n      swap1\n      dup2\n      mstore\n      0x20\n      add\n      0x00\n      keccak256\n        /* \"@openzeppelin/contracts/token/ERC20/ERC20.sol\":10006:10041  _allowances[owner][spender] = value */\n      dup2\n      swap1\n      sstore\n      pop\n        /* \"@openzeppelin/contracts/token/ERC20/ERC20.sol\":10055:10064  emitEvent */\n      dup1\n        /* \"@openzeppelin/contracts/token/ERC20/ERC20.sol\":10051:10127  if (emitEvent) {... */\n      iszero\n      tag_378\n      jumpi\n        /* \"@openzeppelin/contracts/token/ERC20/ERC20.sol\":10101:10108  spender */\n      dup3\n        /* \"@openzeppelin/contracts/token/ERC20/ERC20.sol\":10085:10116  Approval(owner, spender, value) */\n      0xffffffffffffffffffffffffffffffffffffffff\n      and\n        /* \"@openzeppelin/contracts/token/ERC20/ERC20.sol\":10094:10099  owner */\n      dup5\n        /* \"@openzeppelin/contracts/token/ERC20/ERC20.sol\":10085:10116  Approval(owner, spender, value) */\n      0xffffffffffffffffffffffffffffffffffffffff\n      and\n      0x8c5be1e5ebec7d5bd14f71427d1e84f3dd0314c0f7b2291e5b200ac8c7c3b925\n        /* \"@openzeppelin/contracts/token/ERC20/ERC20.sol\":10110:10115  value */\n      dup5\n        /* \"@openzeppelin/contracts/token/ERC20/ERC20.sol\":10085:10116  Approval(owner, spender, value) */\n      mload(0x40)\n      tag_379\n      swap2\n      swap1\n      tag_64\n      jump\t// in\n    tag_379:\n      mload(0x40)\n      dup1\n      swap2\n      sub\n      swap1\n      log3\n        /* \"@openzeppelin/contracts/token/ERC20/ERC20.sol\":10051:10127  if (emitEvent) {... */\n    tag_378:\n        /* \"@openzeppelin/contracts/token/ERC20/ERC20.sol\":9701:10133  function _approve(address owner, address spender, uint256 value, bool emitEvent) internal virtual {... */\n      pop\n      pop\n      pop\n      pop\n      jump\t// out\n        /* \"@openzeppelin/contracts/access/AccessControl.sol\":3432:3629  function _checkRole(bytes32 role, address account) internal view virtual {... */\n    tag_328:\n        /* \"@openzeppelin/contracts/access/AccessControl.sol\":3520:3542  hasRole(role, account) */\n      tag_381\n        /* \"@openzeppelin/contracts/access/AccessControl.sol\":3528:3532  role */\n      dup3\n        /* \"@openzeppelin/contracts/access/AccessControl.sol\":3534:3541  account */\n      dup3\n        /* \"@openzeppelin/contracts/access/AccessControl.sol\":3520:3527  hasRole */\n      tag_125\n        /* \"@openzeppelin/contracts/access/AccessControl.sol\":3520:3542  hasRole(role, account) */\n      jump\t// in\n    tag_381:\n        /* \"@openzeppelin/contracts/access/AccessControl.sol\":3515:3623  if (!hasRole(role, account)) {... */\n      tag_382\n      jumpi\n        /* \"@openzeppelin/contracts/access/AccessControl.sol\":3598:3605  account */\n      dup1\n        /* \"@openzeppelin/contracts/access/AccessControl.sol\":3607:3611  role */\n      dup3\n        /* \"@openzeppelin/contracts/access/AccessControl.sol\":3565:3612  AccessControlUnauthorizedAccount(account, role) */\n      mload(0x40)\n      0xe2517d3f00000000000000000000000000000000000000000000000000000000\n      dup2\n      mstore\n      0x04\n      add\n      tag_383\n      swap3\n      swap2\n      swap1\n      tag_384\n      jump\t// in\n    tag_383:\n      mload(0x40)\n      dup1\n      swap2\n      sub\n      swap1\n      revert\n        /* \"@openzeppelin/contracts/access/AccessControl.sol\":3515:3623  if (!hasRole(role, account)) {... */\n    tag_382:\n        /* \"@openzeppelin/contracts/access/AccessControl.sol\":3432:3629  function _checkRole(bytes32 role, address account) internal view virtual {... */\n      pop\n      pop\n      jump\t// out\n        /* \"@openzeppelin/contracts/token/ERC20/ERC20.sol\":6008:7115  function _update(address from, address to, uint256 value) internal virtual {... */\n    tag_336:\n        /* \"@openzeppelin/contracts/token/ERC20/ERC20.sol\":6113:6114  0 */\n      0x00\n        /* \"@openzeppelin/contracts/token/ERC20/ERC20.sol\":6097:6115  from == address(0) */\n      0xffffffffffffffffffffffffffffffffffffffff\n      and\n        /* \"@openzeppelin/contracts/token/ERC20/ERC20.sol\":6097:6101  from */\n      dup4\n        /* \"@openzeppelin/contracts/token/ERC20/ERC20.sol\":6097:6115  from == address(0) */\n      0xffffffffffffffffffffffffffffffffffffffff\n      and\n      sub\n        /* \"@openzeppelin/contracts/token/ERC20/ERC20.sol\":6093:6633  if (from == address(0)) {... */\n      tag_386\n      jumpi\n        /* \"@openzeppelin/contracts/token/ERC20/ERC20.sol\":6249:6254  value */\n      dup1\n        /* \"@openzeppelin/contracts/token/ERC20/ERC20.sol\":6233:6245  _totalSupply */\n      0x02\n      0x00\n        /* \"@openzeppelin/contracts/token/ERC20/ERC20.sol\":6233:6254  _totalSupply += value */\n      dup3\n      dup3\n      sload\n      tag_387\n      swap2\n      swap1\n      tag_241\n      jump\t// in\n    tag_387:\n      swap3\n      pop\n      pop\n      dup2\n      swap1\n      sstore\n      pop\n        /* \"@openzeppelin/contracts/token/ERC20/ERC20.sol\":6093:6633  if (from == address(0)) {... */\n      jump(tag_388)\n    tag_386:\n        /* \"@openzeppelin/contracts/token/ERC20/ERC20.sol\":6285:6304  uint256 fromBalance */\n      0x00\n        /* \"@openzeppelin/contracts/token/ERC20/ERC20.sol\":6307:6316  _balances */\n      0x00\n        /* \"@openzeppelin/contracts/token/ERC20/ERC20.sol\":6307:6322  _balances[from] */\n      0x00\n        /* \"@openzeppelin/contracts/token/ERC20/ERC20.sol\":6317:6321  from */\n      dup6\n        /* \"@openzeppelin/contracts/token/ERC20/ERC20.sol\":6307:6322  _balances[from] */\n      0xffffffffffffffffffffffffffffffffffffffff\n      and\n      0xffffffffffffffffffffffffffffffffffffffff\n      and\n      dup2\n      mstore\n      0x20\n      add\n      swap1\n      dup2\n      mstore\n      0x20\n      add\n      0x00\n      keccak256\n      sload\n        /* \"@openzeppelin/contracts/token/ERC20/ERC20.sol\":6285:6322  uint256 fromBalance = _balances[from] */\n      swap1\n      pop\n        /* \"@openzeppelin/contracts/token/ERC20/ERC20.sol\":6354:6359  value */\n      dup2\n        /* \"@openzeppelin/contracts/token/ERC20/ERC20.sol\":6340:6351  fromBalance */\n      dup2\n        /* \"@openzeppelin/contracts/token/ERC20/ERC20.sol\":6340:6359  fromBalance < value */\n      lt\n        /* \"@openzeppelin/contracts/token/ERC20/ERC20.sol\":6336:6451  if (fromBalance < value) {... */\n      iszero\n      tag_389\n      jumpi\n        /* \"@openzeppelin/contracts/token/ERC20/ERC20.sol\":6411:6415  from */\n      dup4\n        /* \"@openzeppelin/contracts/token/ERC20/ERC20.sol\":6417:6428  fromBalance */\n      dup2\n        /* \"@openzeppelin/contracts/token/ERC20/ERC20.sol\":6430:6435  value */\n      dup4\n        /* \"@openzeppelin/contracts/token/ERC20/ERC20.sol\":6386:6436  ERC20InsufficientBalance(from, fromBalance, value) */\n      mload(0x40)\n      0xe450d38c00000000000000000000000000000000000000000000000000000000\n      dup2\n      mstore\n      0x04\n      add\n      tag_390\n      swap4\n      swap3\n      swap2\n      swap1\n      tag_342\n      jump\t// in\n    tag_390:\n      mload(0x40)\n      dup1\n      swap2\n      sub\n      swap1\n      revert\n        /* \"@openzeppelin/contracts/token/ERC20/ERC20.sol\":6336:6451  if (fromBalance < value) {... */\n    tag_389:\n        /* \"@openzeppelin/contracts/token/ERC20/ERC20.sol\":6603:6608  value */\n      dup2\n        /* \"@openzeppelin/contracts/token/ERC20/ERC20.sol\":6589:6600  fromBalance */\n      dup2\n        /* \"@openzeppelin/contracts/token/ERC20/ERC20.sol\":6589:6608  fromBalance - value */\n      sub\n        /* \"@openzeppelin/contracts/token/ERC20/ERC20.sol\":6571:6580  _balances */\n      0x00\n        /* \"@openzeppelin/contracts/token/ERC20/ERC20.sol\":6571:6586  _balances[from] */\n      0x00\n        /* \"@openzeppelin/contracts/token/ERC20/ERC20.sol\":6581:6585  from */\n      dup7\n        /* \"@openzeppelin/contracts/token/ERC20/ERC20.sol\":6571:6586  _balances[from] */\n      0xffffffffffffffffffffffffffffffffffffffff\n      and\n      0xffffffffffffffffffffffffffffffffffffffff\n      and\n      dup2\n      mstore\n      0x20\n      add\n      swap1\n      dup2\n      mstore\n      0x20\n      add\n      0x00\n      keccak256\n        /* \"@openzeppelin/contracts/token/ERC20/ERC20.sol\":6571:6608  _balances[from] = fromBalance - value */\n      dup2\n      swap1\n      sstore\n      pop\n        /* \"@openzeppelin/contracts/token/ERC20/ERC20.sol\":6271:6633  {... */\n      pop\n        /* \"@openzeppelin/contracts/token/ERC20/ERC20.sol\":6093:6633  if (from == address(0)) {... */\n    tag_388:\n        /* \"@openzeppelin/contracts/token/ERC20/ERC20.sol\":6661:6662  0 */\n      0x00\n        /* \"@openzeppelin/contracts/token/ERC20/ERC20.sol\":6647:6663  to == address(0) */\n      0xffffffffffffffffffffffffffffffffffffffff\n      and\n        /* \"@openzeppelin/contracts/token/ERC20/ERC20.sol\":6647:6649  to */\n      dup3\n        /* \"@openzeppelin/contracts/token/ERC20/ERC20.sol\":6647:6663  to == address(0) */\n      0xffffffffffffffffffffffffffffffffffffffff\n      and\n      sub\n        /* \"@openzeppelin/contracts/token/ERC20/ERC20.sol\":6643:7068  if (to == address(0)) {... */\n      tag_391\n      jumpi\n        /* \"@openzeppelin/contracts/token/ERC20/ERC20.sol\":6826:6831  value */\n      dup1\n        /* \"@openzeppelin/contracts/token/ERC20/ERC20.sol\":6810:6822  _totalSupply */\n      0x02\n      0x00\n        /* \"@openzeppelin/contracts/token/ERC20/ERC20.sol\":6810:6831  _totalSupply -= value */\n      dup3\n      dup3\n      sload\n      sub\n      swap3\n      pop\n      pop\n      dup2\n      swap1\n      sstore\n      pop\n        /* \"@openzeppelin/contracts/token/ERC20/ERC20.sol\":6643:7068  if (to == address(0)) {... */\n      jump(tag_392)\n    tag_391:\n        /* \"@openzeppelin/contracts/token/ERC20/ERC20.sol\":7038:7043  value */\n      dup1\n        /* \"@openzeppelin/contracts/token/ERC20/ERC20.sol\":7021:7030  _balances */\n      0x00\n        /* \"@openzeppelin/contracts/token/ERC20/ERC20.sol\":7021:7034  _balances[to] */\n      0x00\n        /* \"@openzeppelin/contracts/token/ERC20/ERC20.sol\":7031:7033  to */\n      dup5\n        /* \"@openzeppelin/contracts/token/ERC20/ERC20.sol\":7021:7034  _balances[to] */\n      0xffffffffffffffffffffffffffffffffffffffff\n      and\n      0xffffffffffffffffffffffffffffffffffffffff\n      and\n      dup2\n      mstore\n      0x20\n      add\n      swap1\n      dup2\n      mstore\n      0x20\n      add\n      0x00\n      keccak256\n      0x00\n        /* \"@openzeppelin/contracts/token/ERC20/ERC20.sol\":7021:7043  _balances[to] += value */\n      dup3\n      dup3\n      sload\n      add\n      swap3\n      pop\n      pop\n      dup2\n      swap1\n      sstore\n      pop\n        /* \"@openzeppelin/contracts/token/ERC20/ERC20.sol\":6643:7068  if (to == address(0)) {... */\n    tag_392:\n        /* \"@openzeppelin/contracts/token/ERC20/ERC20.sol\":7098:7100  to */\n      dup2\n        /* \"@openzeppelin/contracts/token/ERC20/ERC20.sol\":7083:7108  Transfer(from, to, value) */\n      0xffffffffffffffffffffffffffffffffffffffff\n      and\n        /* \"@openzeppelin/contracts/token/ERC20/ERC20.sol\":7092:7096  from */\n      dup4\n        /* \"@openzeppelin/contracts/token/ERC20/ERC20.sol\":7083:7108  Transfer(from, to, value) */\n      0xffffffffffffffffffffffffffffffffffffffff\n      and\n      0xddf252ad1be2c89b69c2b068fc378daa952ba7f163c4a11628f55a4df523b3ef\n        /* \"@openzeppelin/contracts/token/ERC20/ERC20.sol\":7102:7107  value */\n      dup4\n        /* \"@openzeppelin/contracts/token/ERC20/ERC20.sol\":7083:7108  Transfer(from, to, value) */\n      mload(0x40)\n      tag_393\n      swap2\n      swap1\n      tag_64\n      jump\t// in\n    tag_393:\n      mload(0x40)\n      dup1\n      swap2\n      sub\n      swap1\n      log3\n        /* \"@openzeppelin/contracts/token/ERC20/ERC20.sol\":6008:7115  function _update(address from, address to, uint256 value) internal virtual {... */\n      pop\n      pop\n      pop\n      jump\t// out\n        /* \"@openzeppelin/contracts/security/Pausable.sol\":1945:2051  function _requirePaused() internal view virtual {... */\n    tag_360:\n        /* \"@openzeppelin/contracts/security/Pausable.sol\":2011:2019  paused() */\n      tag_395\n        /* \"@openzeppelin/contracts/security/Pausable.sol\":2011:2017  paused */\n      tag_101\n        /* \"@openzeppelin/contracts/security/Pausable.sol\":2011:2019  paused() */\n      jump\t// in\n    tag_395:\n        /* \"@openzeppelin/contracts/security/Pausable.sol\":2003:2044  require(paused(), \"Pausable: not paused\") */\n      tag_396\n      jumpi\n      mload(0x40)\n      0x08c379a000000000000000000000000000000000000000000000000000000000\n      dup2\n      mstore\n      0x04\n      add\n      tag_397\n      swap1\n      tag_398\n      jump\t// in\n    tag_397:\n      mload(0x40)\n      dup1\n      swap2\n      sub\n      swap1\n      revert\n    tag_396:\n        /* \"@openzeppelin/contracts/security/Pausable.sol\":1945:2051  function _requirePaused() internal view virtual {... */\n      jump\t// out\n        /* \"#utility.yul\":88:205   */\n    tag_400:\n        /* \"#utility.yul\":197:198   */\n      0x00\n        /* \"#utility.yul\":194:195   */\n      0x00\n        /* \"#utility.yul\":187:199   */\n      revert\n        /* \"#utility.yul\":334:483   */\n    tag_402:\n        /* \"#utility.yul\":370:377   */\n      0x00\n        /* \"#utility.yul\":410:476   */\n      0xffffffff00000000000000000000000000000000000000000000000000000000\n        /* \"#utility.yul\":403:408   */\n      dup3\n        /* \"#utility.yul\":399:477   */\n      and\n        /* \"#utility.yul\":388:477   */\n      swap1\n      pop\n        /* \"#utility.yul\":334:483   */\n      swap2\n      swap1\n      pop\n      jump\t// out\n        /* \"#utility.yul\":489:609   */\n    tag_403:\n        /* \"#utility.yul\":561:584   */\n      tag_456\n        /* \"#utility.yul\":578:583   */\n      dup2\n        /* \"#utility.yul\":561:584   */\n      tag_402\n      jump\t// in\n    tag_456:\n        /* \"#utility.yul\":554:559   */\n      dup2\n        /* \"#utility.yul\":551:585   */\n      eq\n        /* \"#utility.yul\":541:603   */\n      tag_457\n      jumpi\n        /* \"#utility.yul\":599:600   */\n      0x00\n        /* \"#utility.yul\":596:597   */\n      0x00\n        /* \"#utility.yul\":589:601   */\n      revert\n        /* \"#utility.yul\":541:603   */\n    tag_457:\n        /* \"#utility.yul\":489:609   */\n      pop\n      jump\t// out\n        /* \"#utility.yul\":615:752   */\n    tag_404:\n        /* \"#utility.yul\":660:665   */\n      0x00\n        /* \"#utility.yul\":698:704   */\n      dup2\n        /* \"#utility.yul\":685:705   */\n      calldataload\n        /* \"#utility.yul\":676:705   */\n      swap1\n      pop\n        /* \"#utility.yul\":714:746   */\n      tag_459\n        /* \"#utility.yul\":740:745   */\n      dup2\n        /* \"#utility.yul\":714:746   */\n      tag_403\n      jump\t// in\n    tag_459:\n        /* \"#utility.yul\":615:752   */\n      swap3\n      swap2\n      pop\n      pop\n      jump\t// out\n        /* \"#utility.yul\":758:1085   */\n    tag_45:\n        /* \"#utility.yul\":816:822   */\n      0x00\n        /* \"#utility.yul\":865:867   */\n      0x20\n        /* \"#utility.yul\":853:862   */\n      dup3\n        /* \"#utility.yul\":844:851   */\n      dup5\n        /* \"#utility.yul\":840:863   */\n      sub\n        /* \"#utility.yul\":836:868   */\n      slt\n        /* \"#utility.yul\":833:952   */\n      iszero\n      tag_461\n      jumpi\n        /* \"#utility.yul\":871:950   */\n      tag_462\n      tag_400\n      jump\t// in\n    tag_462:\n        /* \"#utility.yul\":833:952   */\n    tag_461:\n        /* \"#utility.yul\":991:992   */\n      0x00\n        /* \"#utility.yul\":1016:1068   */\n      tag_463\n        /* \"#utility.yul\":1060:1067   */\n      dup5\n        /* \"#utility.yul\":1051:1057   */\n      dup3\n        /* \"#utility.yul\":1040:1049   */\n      dup6\n        /* \"#utility.yul\":1036:1058   */\n      add\n        /* \"#utility.yul\":1016:1068   */\n      tag_404\n      jump\t// in\n    tag_463:\n        /* \"#utility.yul\":1006:1068   */\n      swap2\n      pop\n        /* \"#utility.yul\":962:1078   */\n      pop\n        /* \"#utility.yul\":758:1085   */\n      swap3\n      swap2\n      pop\n      pop\n      jump\t// out\n        /* \"#utility.yul\":1091:1181   */\n    tag_405:\n        /* \"#utility.yul\":1125:1132   */\n      0x00\n        /* \"#utility.yul\":1168:1173   */\n      dup2\n        /* \"#utility.yul\":1161:1174   */\n      iszero\n        /* \"#utility.yul\":1154:1175   */\n      iszero\n        /* \"#utility.yul\":1143:1175   */\n      swap1\n      pop\n        /* \"#utility.yul\":1091:1181   */\n      swap2\n      swap1\n      pop\n      jump\t// out\n        /* \"#utility.yul\":1187:1296   */\n    tag_406:\n        /* \"#utility.yul\":1268:1289   */\n      tag_466\n        /* \"#utility.yul\":1283:1288   */\n      dup2\n        /* \"#utility.yul\":1268:1289   */\n      tag_405\n      jump\t// in\n    tag_466:\n        /* \"#utility.yul\":1263:1266   */\n      dup3\n        /* \"#utility.yul\":1256:1290   */\n      mstore\n        /* \"#utility.yul\":1187:1296   */\n      pop\n      pop\n      jump\t// out\n        /* \"#utility.yul\":1302:1512   */\n    tag_48:\n        /* \"#utility.yul\":1389:1393   */\n      0x00\n        /* \"#utility.yul\":1427:1429   */\n      0x20\n        /* \"#utility.yul\":1416:1425   */\n      dup3\n        /* \"#utility.yul\":1412:1430   */\n      add\n        /* \"#utility.yul\":1404:1430   */\n      swap1\n      pop\n        /* \"#utility.yul\":1440:1505   */\n      tag_468\n        /* \"#utility.yul\":1502:1503   */\n      0x00\n        /* \"#utility.yul\":1491:1500   */\n      dup4\n        /* \"#utility.yul\":1487:1504   */\n      add\n        /* \"#utility.yul\":1478:1484   */\n      dup5\n        /* \"#utility.yul\":1440:1505   */\n      tag_406\n      jump\t// in\n    tag_468:\n        /* \"#utility.yul\":1302:1512   */\n      swap3\n      swap2\n      pop\n      pop\n      jump\t// out\n        /* \"#utility.yul\":1518:1617   */\n    tag_407:\n        /* \"#utility.yul\":1570:1576   */\n      0x00\n        /* \"#utility.yul\":1604:1609   */\n      dup2\n        /* \"#utility.yul\":1598:1610   */\n      mload\n        /* \"#utility.yul\":1588:1610   */\n      swap1\n      pop\n        /* \"#utility.yul\":1518:1617   */\n      swap2\n      swap1\n      pop\n      jump\t// out\n        /* \"#utility.yul\":1623:1792   */\n    tag_408:\n        /* \"#utility.yul\":1707:1718   */\n      0x00\n        /* \"#utility.yul\":1741:1747   */\n      dup3\n        /* \"#utility.yul\":1736:1739   */\n      dup3\n        /* \"#utility.yul\":1729:1748   */\n      mstore\n        /* \"#utility.yul\":1781:1785   */\n      0x20\n        /* \"#utility.yul\":1776:1779   */\n      dup3\n        /* \"#utility.yul\":1772:1786   */\n      add\n        /* \"#utility.yul\":1757:1786   */\n      swap1\n      pop\n        /* \"#utility.yul\":1623:1792   */\n      swap3\n      swap2\n      pop\n      pop\n      jump\t// out\n        /* \"#utility.yul\":1798:1937   */\n    tag_409:\n        /* \"#utility.yul\":1887:1893   */\n      dup3\n        /* \"#utility.yul\":1882:1885   */\n      dup2\n        /* \"#utility.yul\":1877:1880   */\n      dup4\n        /* \"#utility.yul\":1871:1894   */\n      mcopy\n        /* \"#utility.yul\":1928:1929   */\n      0x00\n        /* \"#utility.yul\":1919:1925   */\n      dup4\n        /* \"#utility.yul\":1914:1917   */\n      dup4\n        /* \"#utility.yul\":1910:1926   */\n      add\n        /* \"#utility.yul\":1903:1930   */\n      mstore\n        /* \"#utility.yul\":1798:1937   */\n      pop\n      pop\n      pop\n      jump\t// out\n        /* \"#utility.yul\":1943:2045   */\n    tag_410:\n        /* \"#utility.yul\":1984:1990   */\n      0x00\n        /* \"#utility.yul\":2035:2037   */\n      0x1f\n        /* \"#utility.yul\":2031:2038   */\n      not\n        /* \"#utility.yul\":2026:2028   */\n      0x1f\n        /* \"#utility.yul\":2019:2024   */\n      dup4\n        /* \"#utility.yul\":2015:2029   */\n      add\n        /* \"#utility.yul\":2011:2039   */\n      and\n        /* \"#utility.yul\":2001:2039   */\n      swap1\n      pop\n        /* \"#utility.yul\":1943:2045   */\n      swap2\n      swap1\n      pop\n      jump\t// out\n        /* \"#utility.yul\":2051:2428   */\n    tag_411:\n        /* \"#utility.yul\":2139:2142   */\n      0x00\n        /* \"#utility.yul\":2167:2206   */\n      tag_474\n        /* \"#utility.yul\":2200:2205   */\n      dup3\n        /* \"#utility.yul\":2167:2206   */\n      tag_407\n      jump\t// in\n    tag_474:\n        /* \"#utility.yul\":2222:2293   */\n      tag_475\n        /* \"#utility.yul\":2286:2292   */\n      dup2\n        /* \"#utility.yul\":2281:2284   */\n      dup6\n        /* \"#utility.yul\":2222:2293   */\n      tag_408\n      jump\t// in\n    tag_475:\n        /* \"#utility.yul\":2215:2293   */\n      swap4\n      pop\n        /* \"#utility.yul\":2302:2367   */\n      tag_476\n        /* \"#utility.yul\":2360:2366   */\n      dup2\n        /* \"#utility.yul\":2355:2358   */\n      dup6\n        /* \"#utility.yul\":2348:2352   */\n      0x20\n        /* \"#utility.yul\":2341:2346   */\n      dup7\n        /* \"#utility.yul\":2337:2353   */\n      add\n        /* \"#utility.yul\":2302:2367   */\n      tag_409\n      jump\t// in\n    tag_476:\n        /* \"#utility.yul\":2392:2421   */\n      tag_477\n        /* \"#utility.yul\":2414:2420   */\n      dup2\n        /* \"#utility.yul\":2392:2421   */\n      tag_410\n      jump\t// in\n    tag_477:\n        /* \"#utility.yul\":2387:2390   */\n      dup5\n        /* \"#utility.yul\":2383:2422   */\n      add\n        /* \"#utility.yul\":2376:2422   */\n      swap2\n      pop\n        /* \"#utility.yul\":2143:2428   */\n      pop\n        /* \"#utility.yul\":2051:2428   */\n      swap3\n      swap2\n      pop\n      pop\n      jump\t// out\n        /* \"#utility.yul\":2434:2747   */\n    tag_52:\n        /* \"#utility.yul\":2547:2551   */\n      0x00\n        /* \"#utility.yul\":2585:2587   */\n      0x20\n        /* \"#utility.yul\":2574:2583   */\n      dup3\n        /* \"#utility.yul\":2570:2588   */\n      add\n        /* \"#utility.yul\":2562:2588   */\n      swap1\n      pop\n        /* \"#utility.yul\":2634:2643   */\n      dup2\n        /* \"#utility.yul\":2628:2632   */\n      dup2\n        /* \"#utility.yul\":2624:2644   */\n      sub\n        /* \"#utility.yul\":2620:2621   */\n      0x00\n        /* \"#utility.yul\":2609:2618   */\n      dup4\n        /* \"#utility.yul\":2605:2622   */\n      add\n        /* \"#utility.yul\":2598:2645   */\n      mstore\n        /* \"#utility.yul\":2662:2740   */\n      tag_479\n        /* \"#utility.yul\":2735:2739   */\n      dup2\n        /* \"#utility.yul\":2726:2732   */\n      dup5\n        /* \"#utility.yul\":2662:2740   */\n      tag_411\n      jump\t// in\n    tag_479:\n        /* \"#utility.yul\":2654:2740   */\n      swap1\n      pop\n        /* \"#utility.yul\":2434:2747   */\n      swap3\n      swap2\n      pop\n      pop\n      jump\t// out\n        /* \"#utility.yul\":2753:2879   */\n    tag_412:\n        /* \"#utility.yul\":2790:2797   */\n      0x00\n        /* \"#utility.yul\":2830:2872   */\n      0xffffffffffffffffffffffffffffffffffffffff\n        /* \"#utility.yul\":2823:2828   */\n      dup3\n        /* \"#utility.yul\":2819:2873   */\n      and\n        /* \"#utility.yul\":2808:2873   */\n      swap1\n      pop\n        /* \"#utility.yul\":2753:2879   */\n      swap2\n      swap1\n      pop\n      jump\t// out\n        /* \"#utility.yul\":2885:2981   */\n    tag_413:\n        /* \"#utility.yul\":2922:2929   */\n      0x00\n        /* \"#utility.yul\":2951:2975   */\n      tag_482\n        /* \"#utility.yul\":2969:2974   */\n      dup3\n        /* \"#utility.yul\":2951:2975   */\n      tag_412\n      jump\t// in\n    tag_482:\n        /* \"#utility.yul\":2940:2975   */\n      swap1\n      pop\n        /* \"#utility.yul\":2885:2981   */\n      swap2\n      swap1\n      pop\n      jump\t// out\n        /* \"#utility.yul\":2987:3109   */\n    tag_414:\n        /* \"#utility.yul\":3060:3084   */\n      tag_484\n        /* \"#utility.yul\":3078:3083   */\n      dup2\n        /* \"#utility.yul\":3060:3084   */\n      tag_413\n      jump\t// in\n    tag_484:\n        /* \"#utility.yul\":3053:3058   */\n      dup2\n        /* \"#utility.yul\":3050:3085   */\n      eq\n        /* \"#utility.yul\":3040:3103   */\n      tag_485\n      jumpi\n        /* \"#utility.yul\":3099:3100   */\n      0x00\n        /* \"#utility.yul\":3096:3097   */\n      0x00\n        /* \"#utility.yul\":3089:3101   */\n      revert\n        /* \"#utility.yul\":3040:3103   */\n    tag_485:\n        /* \"#utility.yul\":2987:3109   */\n      pop\n      jump\t// out\n        /* \"#utility.yul\":3115:3254   */\n    tag_415:\n        /* \"#utility.yul\":3161:3166   */\n      0x00\n        /* \"#utility.yul\":3199:3205   */\n      dup2\n        /* \"#utility.yul\":3186:3206   */\n      calldataload\n        /* \"#utility.yul\":3177:3206   */\n      swap1\n      pop\n        /* \"#utility.yul\":3215:3248   */\n      tag_487\n        /* \"#utility.yul\":3242:3247   */\n      dup2\n        /* \"#utility.yul\":3215:3248   */\n      tag_414\n      jump\t// in\n    tag_487:\n        /* \"#utility.yul\":3115:3254   */\n      swap3\n      swap2\n      pop\n      pop\n      jump\t// out\n        /* \"#utility.yul\":3260:3337   */\n    tag_416:\n        /* \"#utility.yul\":3297:3304   */\n      0x00\n        /* \"#utility.yul\":3326:3331   */\n      dup2\n        /* \"#utility.yul\":3315:3331   */\n      swap1\n      pop\n        /* \"#utility.yul\":3260:3337   */\n      swap2\n      swap1\n      pop\n      jump\t// out\n        /* \"#utility.yul\":3343:3465   */\n    tag_417:\n        /* \"#utility.yul\":3416:3440   */\n      tag_490\n        /* \"#utility.yul\":3434:3439   */\n      dup2\n        /* \"#utility.yul\":3416:3440   */\n      tag_416\n      jump\t// in\n    tag_490:\n        /* \"#utility.yul\":3409:3414   */\n      dup2\n        /* \"#utility.yul\":3406:3441   */\n      eq\n        /* \"#utility.yul\":3396:3459   */\n      tag_491\n      jumpi\n        /* \"#utility.yul\":3455:3456   */\n      0x00\n        /* \"#utility.yul\":3452:3453   */\n      0x00\n        /* \"#utility.yul\":3445:3457   */\n      revert\n        /* \"#utility.yul\":3396:3459   */\n    tag_491:\n        /* \"#utility.yul\":3343:3465   */\n      pop\n      jump\t// out\n        /* \"#utility.yul\":3471:3610   */\n    tag_418:\n        /* \"#utility.yul\":3517:3522   */\n      0x00\n        /* \"#utility.yul\":3555:3561   */\n      dup2\n        /* \"#utility.yul\":3542:3562   */\n      calldataload\n        /* \"#utility.yul\":3533:3562   */\n      swap1\n      pop\n        /* \"#utility.yul\":3571:3604   */\n      tag_493\n        /* \"#utility.yul\":3598:3603   */\n      dup2\n        /* \"#utility.yul\":3571:3604   */\n      tag_417\n      jump\t// in\n    tag_493:\n        /* \"#utility.yul\":3471:3610   */\n      swap3\n      swap2\n      pop\n      pop\n      jump\t// out\n        /* \"#utility.yul\":3616:4090   */\n    tag_55:\n        /* \"#utility.yul\":3684:3690   */\n      0x00\n        /* \"#utility.yul\":3692:3698   */\n      0x00\n        /* \"#utility.yul\":3741:3743   */\n      0x40\n        /* \"#utility.yul\":3729:3738   */\n      dup4\n        /* \"#utility.yul\":3720:3727   */\n      dup6\n        /* \"#utility.yul\":3716:3739   */\n      sub\n        /* \"#utility.yul\":3712:3744   */\n      slt\n        /* \"#utility.yul\":3709:3828   */\n      iszero\n      tag_495\n      jumpi\n        /* \"#utility.yul\":3747:3826   */\n      tag_496\n      tag_400\n      jump\t// in\n    tag_496:\n        /* \"#utility.yul\":3709:3828   */\n    tag_495:\n        /* \"#utility.yul\":3867:3868   */\n      0x00\n        /* \"#utility.yul\":3892:3945   */\n      tag_497\n        /* \"#utility.yul\":3937:3944   */\n      dup6\n        /* \"#utility.yul\":3928:3934   */\n      dup3\n        /* \"#utility.yul\":3917:3926   */\n      dup7\n        /* \"#utility.yul\":3913:3935   */\n      add\n        /* \"#utility.yul\":3892:3945   */\n      tag_415\n      jump\t// in\n    tag_497:\n        /* \"#utility.yul\":3882:3945   */\n      swap3\n      pop\n        /* \"#utility.yul\":3838:3955   */\n      pop\n        /* \"#utility.yul\":3994:3996   */\n      0x20\n        /* \"#utility.yul\":4020:4073   */\n      tag_498\n        /* \"#utility.yul\":4065:4072   */\n      dup6\n        /* \"#utility.yul\":4056:4062   */\n      dup3\n        /* \"#utility.yul\":4045:4054   */\n      dup7\n        /* \"#utility.yul\":4041:4063   */\n      add\n        /* \"#utility.yul\":4020:4073   */\n      tag_418\n      jump\t// in\n    tag_498:\n        /* \"#utility.yul\":4010:4073   */\n      swap2\n      pop\n        /* \"#utility.yul\":3965:4083   */\n      pop\n        /* \"#utility.yul\":3616:4090   */\n      swap3\n      pop\n      swap3\n      swap1\n      pop\n      jump\t// out\n        /* \"#utility.yul\":4096:4214   */\n    tag_419:\n        /* \"#utility.yul\":4183:4207   */\n      tag_500\n        /* \"#utility.yul\":4201:4206   */\n      dup2\n        /* \"#utility.yul\":4183:4207   */\n      tag_416\n      jump\t// in\n    tag_500:\n        /* \"#utility.yul\":4178:4181   */\n      dup3\n        /* \"#utility.yul\":4171:4208   */\n      mstore\n        /* \"#utility.yul\":4096:4214   */\n      pop\n      pop\n      jump\t// out\n        /* \"#utility.yul\":4220:4442   */\n    tag_64:\n        /* \"#utility.yul\":4313:4317   */\n      0x00\n        /* \"#utility.yul\":4351:4353   */\n      0x20\n        /* \"#utility.yul\":4340:4349   */\n      dup3\n        /* \"#utility.yul\":4336:4354   */\n      add\n        /* \"#utility.yul\":4328:4354   */\n      swap1\n      pop\n        /* \"#utility.yul\":4364:4435   */\n      tag_502\n        /* \"#utility.yul\":4432:4433   */\n      0x00\n        /* \"#utility.yul\":4421:4430   */\n      dup4\n        /* \"#utility.yul\":4417:4434   */\n      add\n        /* \"#utility.yul\":4408:4414   */\n      dup5\n        /* \"#utility.yul\":4364:4435   */\n      tag_419\n      jump\t// in\n    tag_502:\n        /* \"#utility.yul\":4220:4442   */\n      swap3\n      swap2\n      pop\n      pop\n      jump\t// out\n        /* \"#utility.yul\":4448:5067   */\n    tag_67:\n        /* \"#utility.yul\":4525:4531   */\n      0x00\n        /* \"#utility.yul\":4533:4539   */\n      0x00\n        /* \"#utility.yul\":4541:4547   */\n      0x00\n        /* \"#utility.yul\":4590:4592   */\n      0x60\n        /* \"#utility.yul\":4578:4587   */\n      dup5\n        /* \"#utility.yul\":4569:4576   */\n      dup7\n        /* \"#utility.yul\":4565:4588   */\n      sub\n        /* \"#utility.yul\":4561:4593   */\n      slt\n        /* \"#utility.yul\":4558:4677   */\n      iszero\n      tag_504\n      jumpi\n        /* \"#utility.yul\":4596:4675   */\n      tag_505\n      tag_400\n      jump\t// in\n    tag_505:\n        /* \"#utility.yul\":4558:4677   */\n    tag_504:\n        /* \"#utility.yul\":4716:4717   */\n      0x00\n        /* \"#utility.yul\":4741:4794   */\n      tag_506\n        /* \"#utility.yul\":4786:4793   */\n      dup7\n        /* \"#utility.yul\":4777:4783   */\n      dup3\n        /* \"#utility.yul\":4766:4775   */\n      dup8\n        /* \"#utility.yul\":4762:4784   */\n      add\n        /* \"#utility.yul\":4741:4794   */\n      tag_415\n      jump\t// in\n    tag_506:\n        /* \"#utility.yul\":4731:4794   */\n      swap4\n      pop\n        /* \"#utility.yul\":4687:4804   */\n      pop\n        /* \"#utility.yul\":4843:4845   */\n      0x20\n        /* \"#utility.yul\":4869:4922   */\n      tag_507\n        /* \"#utility.yul\":4914:4921   */\n      dup7\n        /* \"#utility.yul\":4905:4911   */\n      dup3\n        /* \"#utility.yul\":4894:4903   */\n      dup8\n        /* \"#utility.yul\":4890:4912   */\n      add\n        /* \"#utility.yul\":4869:4922   */\n      tag_415\n      jump\t// in\n    tag_507:\n        /* \"#utility.yul\":4859:4922   */\n      swap3\n      pop\n        /* \"#utility.yul\":4814:4932   */\n      pop\n        /* \"#utility.yul\":4971:4973   */\n      0x40\n        /* \"#utility.yul\":4997:5050   */\n      tag_508\n        /* \"#utility.yul\":5042:5049   */\n      dup7\n        /* \"#utility.yul\":5033:5039   */\n      dup3\n        /* \"#utility.yul\":5022:5031   */\n      dup8\n        /* \"#utility.yul\":5018:5040   */\n      add\n        /* \"#utility.yul\":4997:5050   */\n      tag_418\n      jump\t// in\n    tag_508:\n        /* \"#utility.yul\":4987:5050   */\n      swap2\n      pop\n        /* \"#utility.yul\":4942:5060   */\n      pop\n        /* \"#utility.yul\":4448:5067   */\n      swap3\n      pop\n      swap3\n      pop\n      swap3\n      jump\t// out\n        /* \"#utility.yul\":5073:5150   */\n    tag_420:\n        /* \"#utility.yul\":5110:5117   */\n      0x00\n        /* \"#utility.yul\":5139:5144   */\n      dup2\n        /* \"#utility.yul\":5128:5144   */\n      swap1\n      pop\n        /* \"#utility.yul\":5073:5150   */\n      swap2\n      swap1\n      pop\n      jump\t// out\n        /* \"#utility.yul\":5156:5278   */\n    tag_421:\n        /* \"#utility.yul\":5229:5253   */\n      tag_511\n        /* \"#utility.yul\":5247:5252   */\n      dup2\n        /* \"#utility.yul\":5229:5253   */\n      tag_420\n      jump\t// in\n    tag_511:\n        /* \"#utility.yul\":5222:5227   */\n      dup2\n        /* \"#utility.yul\":5219:5254   */\n      eq\n        /* \"#utility.yul\":5209:5272   */\n      tag_512\n      jumpi\n        /* \"#utility.yul\":5268:5269   */\n      0x00\n        /* \"#utility.yul\":5265:5266   */\n      0x00\n        /* \"#utility.yul\":5258:5270   */\n      revert\n        /* \"#utility.yul\":5209:5272   */\n    tag_512:\n        /* \"#utility.yul\":5156:5278   */\n      pop\n      jump\t// out\n        /* \"#utility.yul\":5284:5423   */\n    tag_422:\n        /* \"#utility.yul\":5330:5335   */\n      0x00\n        /* \"#utility.yul\":5368:5374   */\n      dup2\n        /* \"#utility.yul\":5355:5375   */\n      calldataload\n        /* \"#utility.yul\":5346:5375   */\n      swap1\n      pop\n        /* \"#utility.yul\":5384:5417   */\n      tag_514\n        /* \"#utility.yul\":5411:5416   */\n      dup2\n        /* \"#utility.yul\":5384:5417   */\n      tag_421\n      jump\t// in\n    tag_514:\n        /* \"#utility.yul\":5284:5423   */\n      swap3\n      swap2\n      pop\n      pop\n      jump\t// out\n        /* \"#utility.yul\":5429:5758   */\n    tag_72:\n        /* \"#utility.yul\":5488:5494   */\n      0x00\n        /* \"#utility.yul\":5537:5539   */\n      0x20\n        /* \"#utility.yul\":5525:5534   */\n      dup3\n        /* \"#utility.yul\":5516:5523   */\n      dup5\n        /* \"#utility.yul\":5512:5535   */\n      sub\n        /* \"#utility.yul\":5508:5540   */\n      slt\n        /* \"#utility.yul\":5505:5624   */\n      iszero\n      tag_516\n      jumpi\n        /* \"#utility.yul\":5543:5622   */\n      tag_517\n      tag_400\n      jump\t// in\n    tag_517:\n        /* \"#utility.yul\":5505:5624   */\n    tag_516:\n        /* \"#utility.yul\":5663:5664   */\n      0x00\n        /* \"#utility.yul\":5688:5741   */\n      tag_518\n        /* \"#utility.yul\":5733:5740   */\n      dup5\n        /* \"#utility.yul\":5724:5730   */\n      dup3\n        /* \"#utility.yul\":5713:5722   */\n      dup6\n        /* \"#utility.yul\":5709:5731   */\n      add\n        /* \"#utility.yul\":5688:5741   */\n      tag_422\n      jump\t// in\n    tag_518:\n        /* \"#utility.yul\":5678:5741   */\n      swap2\n      pop\n        /* \"#utility.yul\":5634:5751   */\n      pop\n        /* \"#utility.yul\":5429:5758   */\n      swap3\n      swap2\n      pop\n      pop\n      jump\t// out\n        /* \"#utility.yul\":5764:5882   */\n    tag_423:\n        /* \"#utility.yul\":5851:5875   */\n      tag_520\n        /* \"#utility.yul\":5869:5874   */\n      dup2\n        /* \"#utility.yul\":5851:5875   */\n      tag_420\n      jump\t// in\n    tag_520:\n        /* \"#utility.yul\":5846:5849   */\n      dup3\n        /* \"#utility.yul\":5839:5876   */\n      mstore\n        /* \"#utility.yul\":5764:5882   */\n      pop\n      pop\n      jump\t// out\n        /* \"#utility.yul\":5888:6110   */\n    tag_75:\n        /* \"#utility.yul\":5981:5985   */\n      0x00\n        /* \"#utility.yul\":6019:6021   */\n      0x20\n        /* \"#utility.yul\":6008:6017   */\n      dup3\n        /* \"#utility.yul\":6004:6022   */\n      add\n        /* \"#utility.yul\":5996:6022   */\n      swap1\n      pop\n        /* \"#utility.yul\":6032:6103   */\n      tag_522\n        /* \"#utility.yul\":6100:6101   */\n      0x00\n        /* \"#utility.yul\":6089:6098   */\n      dup4\n        /* \"#utility.yul\":6085:6102   */\n      add\n        /* \"#utility.yul\":6076:6082   */\n      dup5\n        /* \"#utility.yul\":6032:6103   */\n      tag_423\n      jump\t// in\n    tag_522:\n        /* \"#utility.yul\":5888:6110   */\n      swap3\n      swap2\n      pop\n      pop\n      jump\t// out\n        /* \"#utility.yul\":6116:6235   */\n    tag_424:\n        /* \"#utility.yul\":6209:6210   */\n      0x03\n        /* \"#utility.yul\":6202:6207   */\n      dup2\n        /* \"#utility.yul\":6199:6211   */\n      lt\n        /* \"#utility.yul\":6189:6229   */\n      tag_524\n      jumpi\n        /* \"#utility.yul\":6225:6226   */\n      0x00\n        /* \"#utility.yul\":6222:6223   */\n      0x00\n        /* \"#utility.yul\":6215:6227   */\n      revert\n        /* \"#utility.yul\":6189:6229   */\n    tag_524:\n        /* \"#utility.yul\":6116:6235   */\n      pop\n      jump\t// out\n        /* \"#utility.yul\":6241:6420   */\n    tag_425:\n        /* \"#utility.yul\":6307:6312   */\n      0x00\n        /* \"#utility.yul\":6345:6351   */\n      dup2\n        /* \"#utility.yul\":6332:6352   */\n      calldataload\n        /* \"#utility.yul\":6323:6352   */\n      swap1\n      pop\n        /* \"#utility.yul\":6361:6414   */\n      tag_526\n        /* \"#utility.yul\":6408:6413   */\n      dup2\n        /* \"#utility.yul\":6361:6414   */\n      tag_424\n      jump\t// in\n    tag_526:\n        /* \"#utility.yul\":6241:6420   */\n      swap3\n      swap2\n      pop\n      pop\n      jump\t// out\n        /* \"#utility.yul\":6426:6795   */\n    tag_78:\n        /* \"#utility.yul\":6505:6511   */\n      0x00\n        /* \"#utility.yul\":6554:6556   */\n      0x20\n        /* \"#utility.yul\":6542:6551   */\n      dup3\n        /* \"#utility.yul\":6533:6540   */\n      dup5\n        /* \"#utility.yul\":6529:6552   */\n      sub\n        /* \"#utility.yul\":6525:6557   */\n      slt\n        /* \"#utility.yul\":6522:6641   */\n      iszero\n      tag_528\n      jumpi\n        /* \"#utility.yul\":6560:6639   */\n      tag_529\n      tag_400\n      jump\t// in\n    tag_529:\n        /* \"#utility.yul\":6522:6641   */\n    tag_528:\n        /* \"#utility.yul\":6680:6681   */\n      0x00\n        /* \"#utility.yul\":6705:6778   */\n      tag_530\n        /* \"#utility.yul\":6770:6777   */\n      dup5\n        /* \"#utility.yul\":6761:6767   */\n      dup3\n        /* \"#utility.yul\":6750:6759   */\n      dup6\n        /* \"#utility.yul\":6746:6768   */\n      add\n        /* \"#utility.yul\":6705:6778   */\n      tag_425\n      jump\t// in\n    tag_530:\n        /* \"#utility.yul\":6695:6778   */\n      swap2\n      pop\n        /* \"#utility.yul\":6651:6788   */\n      pop\n        /* \"#utility.yul\":6426:6795   */\n      swap3\n      swap2\n      pop\n      pop\n      jump\t// out\n        /* \"#utility.yul\":6801:7275   */\n    tag_82:\n        /* \"#utility.yul\":6869:6875   */\n      0x00\n        /* \"#utility.yul\":6877:6883   */\n      0x00\n        /* \"#utility.yul\":6926:6928   */\n      0x40\n        /* \"#utility.yul\":6914:6923   */\n      dup4\n        /* \"#utility.yul\":6905:6912   */\n      dup6\n        /* \"#utility.yul\":6901:6924   */\n      sub\n        /* \"#utility.yul\":6897:6929   */\n      slt\n        /* \"#utility.yul\":6894:7013   */\n      iszero\n      tag_532\n      jumpi\n        /* \"#utility.yul\":6932:7011   */\n      tag_533\n      tag_400\n      jump\t// in\n    tag_533:\n        /* \"#utility.yul\":6894:7013   */\n    tag_532:\n        /* \"#utility.yul\":7052:7053   */\n      0x00\n        /* \"#utility.yul\":7077:7130   */\n      tag_534\n        /* \"#utility.yul\":7122:7129   */\n      dup6\n        /* \"#utility.yul\":7113:7119   */\n      dup3\n        /* \"#utility.yul\":7102:7111   */\n      dup7\n        /* \"#utility.yul\":7098:7120   */\n      add\n        /* \"#utility.yul\":7077:7130   */\n      tag_422\n      jump\t// in\n    tag_534:\n        /* \"#utility.yul\":7067:7130   */\n      swap3\n      pop\n        /* \"#utility.yul\":7023:7140   */\n      pop\n        /* \"#utility.yul\":7179:7181   */\n      0x20\n        /* \"#utility.yul\":7205:7258   */\n      tag_535\n        /* \"#utility.yul\":7250:7257   */\n      dup6\n        /* \"#utility.yul\":7241:7247   */\n      dup3\n        /* \"#utility.yul\":7230:7239   */\n      dup7\n        /* \"#utility.yul\":7226:7248   */\n      add\n        /* \"#utility.yul\":7205:7258   */\n      tag_415\n      jump\t// in\n    tag_535:\n        /* \"#utility.yul\":7195:7258   */\n      swap2\n      pop\n        /* \"#utility.yul\":7150:7268   */\n      pop\n        /* \"#utility.yul\":6801:7275   */\n      swap3\n      pop\n      swap3\n      swap1\n      pop\n      jump\t// out\n        /* \"#utility.yul\":7281:7367   */\n    tag_426:\n        /* \"#utility.yul\":7316:7323   */\n      0x00\n        /* \"#utility.yul\":7356:7360   */\n      0xff\n        /* \"#utility.yul\":7349:7354   */\n      dup3\n        /* \"#utility.yul\":7345:7361   */\n      and\n        /* \"#utility.yul\":7334:7361   */\n      swap1\n      pop\n        /* \"#utility.yul\":7281:7367   */\n      swap2\n      swap1\n      pop\n      jump\t// out\n        /* \"#utility.yul\":7373:7485   */\n    tag_427:\n        /* \"#utility.yul\":7456:7478   */\n      tag_538\n        /* \"#utility.yul\":7472:7477   */\n      dup2\n        /* \"#utility.yul\":7456:7478   */\n      tag_426\n      jump\t// in\n    tag_538:\n        /* \"#utility.yul\":7451:7454   */\n      dup3\n        /* \"#utility.yul\":7444:7479   */\n      mstore\n        /* \"#utility.yul\":7373:7485   */\n      pop\n      pop\n      jump\t// out\n        /* \"#utility.yul\":7491:7705   */\n    tag_90:\n        /* \"#utility.yul\":7580:7584   */\n      0x00\n        /* \"#utility.yul\":7618:7620   */\n      0x20\n        /* \"#utility.yul\":7607:7616   */\n      dup3\n        /* \"#utility.yul\":7603:7621   */\n      add\n        /* \"#utility.yul\":7595:7621   */\n      swap1\n      pop\n        /* \"#utility.yul\":7631:7698   */\n      tag_540\n        /* \"#utility.yul\":7695:7696   */\n      0x00\n        /* \"#utility.yul\":7684:7693   */\n      dup4\n        /* \"#utility.yul\":7680:7697   */\n      add\n        /* \"#utility.yul\":7671:7677   */\n      dup5\n        /* \"#utility.yul\":7631:7698   */\n      tag_427\n      jump\t// in\n    tag_540:\n        /* \"#utility.yul\":7491:7705   */\n      swap3\n      swap2\n      pop\n      pop\n      jump\t// out\n        /* \"#utility.yul\":7711:8040   */\n    tag_105:\n        /* \"#utility.yul\":7770:7776   */\n      0x00\n        /* \"#utility.yul\":7819:7821   */\n      0x20\n        /* \"#utility.yul\":7807:7816   */\n      dup3\n        /* \"#utility.yul\":7798:7805   */\n      dup5\n        /* \"#utility.yul\":7794:7817   */\n      sub\n        /* \"#utility.yul\":7790:7822   */\n      slt\n        /* \"#utility.yul\":7787:7906   */\n      iszero\n      tag_542\n      jumpi\n        /* \"#utility.yul\":7825:7904   */\n      tag_543\n      tag_400\n      jump\t// in\n    tag_543:\n        /* \"#utility.yul\":7787:7906   */\n    tag_542:\n        /* \"#utility.yul\":7945:7946   */\n      0x00\n        /* \"#utility.yul\":7970:8023   */\n      tag_544\n        /* \"#utility.yul\":8015:8022   */\n      dup5\n        /* \"#utility.yul\":8006:8012   */\n      dup3\n        /* \"#utility.yul\":7995:8004   */\n      dup6\n        /* \"#utility.yul\":7991:8013   */\n      add\n        /* \"#utility.yul\":7970:8023   */\n      tag_415\n      jump\t// in\n    tag_544:\n        /* \"#utility.yul\":7960:8023   */\n      swap2\n      pop\n        /* \"#utility.yul\":7916:8033   */\n      pop\n        /* \"#utility.yul\":7711:8040   */\n      swap3\n      swap2\n      pop\n      pop\n      jump\t// out\n        /* \"#utility.yul\":8046:8520   */\n    tag_155:\n        /* \"#utility.yul\":8114:8120   */\n      0x00\n        /* \"#utility.yul\":8122:8128   */\n      0x00\n        /* \"#utility.yul\":8171:8173   */\n      0x40\n        /* \"#utility.yul\":8159:8168   */\n      dup4\n        /* \"#utility.yul\":8150:8157   */\n      dup6\n        /* \"#utility.yul\":8146:8169   */\n      sub\n        /* \"#utility.yul\":8142:8174   */\n      slt\n        /* \"#utility.yul\":8139:8258   */\n      iszero\n      tag_546\n      jumpi\n        /* \"#utility.yul\":8177:8256   */\n      tag_547\n      tag_400\n      jump\t// in\n    tag_547:\n        /* \"#utility.yul\":8139:8258   */\n    tag_546:\n        /* \"#utility.yul\":8297:8298   */\n      0x00\n        /* \"#utility.yul\":8322:8375   */\n      tag_548\n        /* \"#utility.yul\":8367:8374   */\n      dup6\n        /* \"#utility.yul\":8358:8364   */\n      dup3\n        /* \"#utility.yul\":8347:8356   */\n      dup7\n        /* \"#utility.yul\":8343:8365   */\n      add\n        /* \"#utility.yul\":8322:8375   */\n      tag_415\n      jump\t// in\n    tag_548:\n        /* \"#utility.yul\":8312:8375   */\n      swap3\n      pop\n        /* \"#utility.yul\":8268:8385   */\n      pop\n        /* \"#utility.yul\":8424:8426   */\n      0x20\n        /* \"#utility.yul\":8450:8503   */\n      tag_549\n        /* \"#utility.yul\":8495:8502   */\n      dup6\n        /* \"#utility.yul\":8486:8492   */\n      dup3\n        /* \"#utility.yul\":8475:8484   */\n      dup7\n        /* \"#utility.yul\":8471:8493   */\n      add\n        /* \"#utility.yul\":8450:8503   */\n      tag_415\n      jump\t// in\n    tag_549:\n        /* \"#utility.yul\":8440:8503   */\n      swap2\n      pop\n        /* \"#utility.yul\":8395:8513   */\n      pop\n        /* \"#utility.yul\":8046:8520   */\n      swap3\n      pop\n      swap3\n      swap1\n      pop\n      jump\t// out\n        /* \"#utility.yul\":8526:8706   */\n    tag_428:\n        /* \"#utility.yul\":8574:8651   */\n      0x4e487b7100000000000000000000000000000000000000000000000000000000\n        /* \"#utility.yul\":8571:8572   */\n      0x00\n        /* \"#utility.yul\":8564:8652   */\n      mstore\n        /* \"#utility.yul\":8671:8675   */\n      0x22\n        /* \"#utility.yul\":8668:8669   */\n      0x04\n        /* \"#utility.yul\":8661:8676   */\n      mstore\n        /* \"#utility.yul\":8695:8699   */\n      0x24\n        /* \"#utility.yul\":8692:8693   */\n      0x00\n        /* \"#utility.yul\":8685:8700   */\n      revert\n        /* \"#utility.yul\":8712:9032   */\n    tag_171:\n        /* \"#utility.yul\":8756:8762   */\n      0x00\n        /* \"#utility.yul\":8793:8794   */\n      0x02\n        /* \"#utility.yul\":8787:8791   */\n      dup3\n        /* \"#utility.yul\":8783:8795   */\n      div\n        /* \"#utility.yul\":8773:8795   */\n      swap1\n      pop\n        /* \"#utility.yul\":8840:8841   */\n      0x01\n        /* \"#utility.yul\":8834:8838   */\n      dup3\n        /* \"#utility.yul\":8830:8842   */\n      and\n        /* \"#utility.yul\":8861:8879   */\n      dup1\n        /* \"#utility.yul\":8851:8932   */\n      tag_552\n      jumpi\n        /* \"#utility.yul\":8917:8921   */\n      0x7f\n        /* \"#utility.yul\":8909:8915   */\n      dup3\n        /* \"#utility.yul\":8905:8922   */\n      and\n        /* \"#utility.yul\":8895:8922   */\n      swap2\n      pop\n        /* \"#utility.yul\":8851:8932   */\n    tag_552:\n        /* \"#utility.yul\":8979:8981   */\n      0x20\n        /* \"#utility.yul\":8971:8977   */\n      dup3\n        /* \"#utility.yul\":8968:8982   */\n      lt\n        /* \"#utility.yul\":8948:8966   */\n      dup2\n        /* \"#utility.yul\":8945:8983   */\n      sub\n        /* \"#utility.yul\":8942:9026   */\n      tag_553\n      jumpi\n        /* \"#utility.yul\":8998:9016   */\n      tag_554\n      tag_428\n      jump\t// in\n    tag_554:\n        /* \"#utility.yul\":8942:9026   */\n    tag_553:\n        /* \"#utility.yul\":8763:9032   */\n      pop\n        /* \"#utility.yul\":8712:9032   */\n      swap2\n      swap1\n      pop\n      jump\t// out\n        /* \"#utility.yul\":9038:9208   */\n    tag_429:\n        /* \"#utility.yul\":9178:9200   */\n      0x496e73756666696369656e742062616c616e6365000000000000000000000000\n        /* \"#utility.yul\":9174:9175   */\n      0x00\n        /* \"#utility.yul\":9166:9172   */\n      dup3\n        /* \"#utility.yul\":9162:9176   */\n      add\n        /* \"#utility.yul\":9155:9201   */\n      mstore\n        /* \"#utility.yul\":9038:9208   */\n      pop\n      jump\t// out\n        /* \"#utility.yul\":9214:9580   */\n    tag_430:\n        /* \"#utility.yul\":9356:9359   */\n      0x00\n        /* \"#utility.yul\":9377:9444   */\n      tag_557\n        /* \"#utility.yul\":9441:9443   */\n      0x14\n        /* \"#utility.yul\":9436:9439   */\n      dup4\n        /* \"#utility.yul\":9377:9444   */\n      tag_408\n      jump\t// in\n    tag_557:\n        /* \"#utility.yul\":9370:9444   */\n      swap2\n      pop\n        /* \"#utility.yul\":9453:9546   */\n      tag_558\n        /* \"#utility.yul\":9542:9545   */\n      dup3\n        /* \"#utility.yul\":9453:9546   */\n      tag_429\n      jump\t// in\n    tag_558:\n        /* \"#utility.yul\":9571:9573   */\n      0x20\n        /* \"#utility.yul\":9566:9569   */\n      dup3\n        /* \"#utility.yul\":9562:9574   */\n      add\n        /* \"#utility.yul\":9555:9574   */\n      swap1\n      pop\n        /* \"#utility.yul\":9214:9580   */\n      swap2\n      swap1\n      pop\n      jump\t// out\n        /* \"#utility.yul\":9586:10005   */\n    tag_191:\n        /* \"#utility.yul\":9752:9756   */\n      0x00\n        /* \"#utility.yul\":9790:9792   */\n      0x20\n        /* \"#utility.yul\":9779:9788   */\n      dup3\n        /* \"#utility.yul\":9775:9793   */\n      add\n        /* \"#utility.yul\":9767:9793   */\n      swap1\n      pop\n        /* \"#utility.yul\":9839:9848   */\n      dup2\n        /* \"#utility.yul\":9833:9837   */\n      dup2\n        /* \"#utility.yul\":9829:9849   */\n      sub\n        /* \"#utility.yul\":9825:9826   */\n      0x00\n        /* \"#utility.yul\":9814:9823   */\n      dup4\n        /* \"#utility.yul\":9810:9827   */\n      add\n        /* \"#utility.yul\":9803:9850   */\n      mstore\n        /* \"#utility.yul\":9867:9998   */\n      tag_560\n        /* \"#utility.yul\":9993:9997   */\n      dup2\n        /* \"#utility.yul\":9867:9998   */\n      tag_430\n      jump\t// in\n    tag_560:\n        /* \"#utility.yul\":9859:9998   */\n      swap1\n      pop\n        /* \"#utility.yul\":9586:10005   */\n      swap2\n      swap1\n      pop\n      jump\t// out\n        /* \"#utility.yul\":10011:10183   */\n    tag_431:\n        /* \"#utility.yul\":10151:10175   */\n      0x43616c6c6572206973206e6f742061206d656d62657200000000000000000000\n        /* \"#utility.yul\":10147:10148   */\n      0x00\n        /* \"#utility.yul\":10139:10145   */\n      dup3\n        /* \"#utility.yul\":10135:10149   */\n      add\n        /* \"#utility.yul\":10128:10176   */\n      mstore\n        /* \"#utility.yul\":10011:10183   */\n      pop\n      jump\t// out\n        /* \"#utility.yul\":10189:10555   */\n    tag_432:\n        /* \"#utility.yul\":10331:10334   */\n      0x00\n        /* \"#utility.yul\":10352:10419   */\n      tag_563\n        /* \"#utility.yul\":10416:10418   */\n      0x16\n        /* \"#utility.yul\":10411:10414   */\n      dup4\n        /* \"#utility.yul\":10352:10419   */\n      tag_408\n      jump\t// in\n    tag_563:\n        /* \"#utility.yul\":10345:10419   */\n      swap2\n      pop\n        /* \"#utility.yul\":10428:10521   */\n      tag_564\n        /* \"#utility.yul\":10517:10520   */\n      dup3\n        /* \"#utility.yul\":10428:10521   */\n      tag_431\n      jump\t// in\n    tag_564:\n        /* \"#utility.yul\":10546:10548   */\n      0x20\n        /* \"#utility.yul\":10541:10544   */\n      dup3\n        /* \"#utility.yul\":10537:10549   */\n      add\n        /* \"#utility.yul\":10530:10549   */\n      swap1\n      pop\n        /* \"#utility.yul\":10189:10555   */\n      swap2\n      swap1\n      pop\n      jump\t// out\n        /* \"#utility.yul\":10561:10980   */\n    tag_207:\n        /* \"#utility.yul\":10727:10731   */\n      0x00\n        /* \"#utility.yul\":10765:10767   */\n      0x20\n        /* \"#utility.yul\":10754:10763   */\n      dup3\n        /* \"#utility.yul\":10750:10768   */\n      add\n        /* \"#utility.yul\":10742:10768   */\n      swap1\n      pop\n        /* \"#utility.yul\":10814:10823   */\n      dup2\n        /* \"#utility.yul\":10808:10812   */\n      dup2\n        /* \"#utility.yul\":10804:10824   */\n      sub\n        /* \"#utility.yul\":10800:10801   */\n      0x00\n        /* \"#utility.yul\":10789:10798   */\n      dup4\n        /* \"#utility.yul\":10785:10802   */\n      add\n        /* \"#utility.yul\":10778:10825   */\n      mstore\n        /* \"#utility.yul\":10842:10973   */\n      tag_566\n        /* \"#utility.yul\":10968:10972   */\n      dup2\n        /* \"#utility.yul\":10842:10973   */\n      tag_432\n      jump\t// in\n    tag_566:\n        /* \"#utility.yul\":10834:10973   */\n      swap1\n      pop\n        /* \"#utility.yul\":10561:10980   */\n      swap2\n      swap1\n      pop\n      jump\t// out\n        /* \"#utility.yul\":10986:11166   */\n    tag_211:\n        /* \"#utility.yul\":11034:11111   */\n      0x4e487b7100000000000000000000000000000000000000000000000000000000\n        /* \"#utility.yul\":11031:11032   */\n      0x00\n        /* \"#utility.yul\":11024:11112   */\n      mstore\n        /* \"#utility.yul\":11131:11135   */\n      0x21\n        /* \"#utility.yul\":11128:11129   */\n      0x04\n        /* \"#utility.yul\":11121:11136   */\n      mstore\n        /* \"#utility.yul\":11155:11159   */\n      0x24\n        /* \"#utility.yul\":11152:11153   */\n      0x00\n        /* \"#utility.yul\":11145:11160   */\n      revert\n        /* \"#utility.yul\":11172:11345   */\n    tag_433:\n        /* \"#utility.yul\":11312:11337   */\n      0x496e76616c6964206d656d626572736869702074797065000000000000000000\n        /* \"#utility.yul\":11308:11309   */\n      0x00\n        /* \"#utility.yul\":11300:11306   */\n      dup3\n        /* \"#utility.yul\":11296:11310   */\n      add\n        /* \"#utility.yul\":11289:11338   */\n      mstore\n        /* \"#utility.yul\":11172:11345   */\n      pop\n      jump\t// out\n        /* \"#utility.yul\":11351:11717   */\n    tag_434:\n        /* \"#utility.yul\":11493:11496   */\n      0x00\n        /* \"#utility.yul\":11514:11581   */\n      tag_570\n        /* \"#utility.yul\":11578:11580   */\n      0x17\n        /* \"#utility.yul\":11573:11576   */\n      dup4\n        /* \"#utility.yul\":11514:11581   */\n      tag_408\n      jump\t// in\n    tag_570:\n        /* \"#utility.yul\":11507:11581   */\n      swap2\n      pop\n        /* \"#utility.yul\":11590:11683   */\n      tag_571\n        /* \"#utility.yul\":11679:11682   */\n      dup3\n        /* \"#utility.yul\":11590:11683   */\n      tag_433\n      jump\t// in\n    tag_571:\n        /* \"#utility.yul\":11708:11710   */\n      0x20\n        /* \"#utility.yul\":11703:11706   */\n      dup3\n        /* \"#utility.yul\":11699:11711   */\n      add\n        /* \"#utility.yul\":11692:11711   */\n      swap1\n      pop\n        /* \"#utility.yul\":11351:11717   */\n      swap2\n      swap1\n      pop\n      jump\t// out\n        /* \"#utility.yul\":11723:12142   */\n    tag_238:\n        /* \"#utility.yul\":11889:11893   */\n      0x00\n        /* \"#utility.yul\":11927:11929   */\n      0x20\n        /* \"#utility.yul\":11916:11925   */\n      dup3\n        /* \"#utility.yul\":11912:11930   */\n      add\n        /* \"#utility.yul\":11904:11930   */\n      swap1\n      pop\n        /* \"#utility.yul\":11976:11985   */\n      dup2\n        /* \"#utility.yul\":11970:11974   */\n      dup2\n        /* \"#utility.yul\":11966:11986   */\n      sub\n        /* \"#utility.yul\":11962:11963   */\n      0x00\n        /* \"#utility.yul\":11951:11960   */\n      dup4\n        /* \"#utility.yul\":11947:11964   */\n      add\n        /* \"#utility.yul\":11940:11987   */\n      mstore\n        /* \"#utility.yul\":12004:12135   */\n      tag_573\n        /* \"#utility.yul\":12130:12134   */\n      dup2\n        /* \"#utility.yul\":12004:12135   */\n      tag_434\n      jump\t// in\n    tag_573:\n        /* \"#utility.yul\":11996:12135   */\n      swap1\n      pop\n        /* \"#utility.yul\":11723:12142   */\n      swap2\n      swap1\n      pop\n      jump\t// out\n        /* \"#utility.yul\":12148:12328   */\n    tag_435:\n        /* \"#utility.yul\":12196:12273   */\n      0x4e487b7100000000000000000000000000000000000000000000000000000000\n        /* \"#utility.yul\":12193:12194   */\n      0x00\n        /* \"#utility.yul\":12186:12274   */\n      mstore\n        /* \"#utility.yul\":12293:12297   */\n      0x11\n        /* \"#utility.yul\":12290:12291   */\n      0x04\n        /* \"#utility.yul\":12283:12298   */\n      mstore\n        /* \"#utility.yul\":12317:12321   */\n      0x24\n        /* \"#utility.yul\":12314:12315   */\n      0x00\n        /* \"#utility.yul\":12307:12322   */\n      revert\n        /* \"#utility.yul\":12334:12525   */\n    tag_241:\n        /* \"#utility.yul\":12374:12377   */\n      0x00\n        /* \"#utility.yul\":12393:12413   */\n      tag_576\n        /* \"#utility.yul\":12411:12412   */\n      dup3\n        /* \"#utility.yul\":12393:12413   */\n      tag_416\n      jump\t// in\n    tag_576:\n        /* \"#utility.yul\":12388:12413   */\n      swap2\n      pop\n        /* \"#utility.yul\":12427:12447   */\n      tag_577\n        /* \"#utility.yul\":12445:12446   */\n      dup4\n        /* \"#utility.yul\":12427:12447   */\n      tag_416\n      jump\t// in\n    tag_577:\n        /* \"#utility.yul\":12422:12447   */\n      swap3\n      pop\n        /* \"#utility.yul\":12470:12471   */\n      dup3\n        /* \"#utility.yul\":12467:12468   */\n      dup3\n        /* \"#utility.yul\":12463:12472   */\n      add\n        /* \"#utility.yul\":12456:12472   */\n      swap1\n      pop\n        /* \"#utility.yul\":12491:12494   */\n      dup1\n        /* \"#utility.yul\":12488:12489   */\n      dup3\n        /* \"#utility.yul\":12485:12495   */\n      gt\n        /* \"#utility.yul\":12482:12518   */\n      iszero\n      tag_578\n      jumpi\n        /* \"#utility.yul\":12498:12516   */\n      tag_579\n      tag_435\n      jump\t// in\n    tag_579:\n        /* \"#utility.yul\":12482:12518   */\n    tag_578:\n        /* \"#utility.yul\":12334:12525   */\n      swap3\n      swap2\n      pop\n      pop\n      jump\t// out\n        /* \"#utility.yul\":12531:12656   */\n    tag_436:\n        /* \"#utility.yul\":12624:12625   */\n      0x03\n        /* \"#utility.yul\":12617:12622   */\n      dup2\n        /* \"#utility.yul\":12614:12626   */\n      lt\n        /* \"#utility.yul\":12604:12650   */\n      tag_581\n      jumpi\n        /* \"#utility.yul\":12630:12648   */\n      tag_582\n      tag_211\n      jump\t// in\n    tag_582:\n        /* \"#utility.yul\":12604:12650   */\n    tag_581:\n        /* \"#utility.yul\":12531:12656   */\n      pop\n      jump\t// out\n        /* \"#utility.yul\":12662:12813   */\n    tag_437:\n        /* \"#utility.yul\":12719:12726   */\n      0x00\n        /* \"#utility.yul\":12748:12753   */\n      dup2\n        /* \"#utility.yul\":12737:12753   */\n      swap1\n      pop\n        /* \"#utility.yul\":12754:12807   */\n      tag_584\n        /* \"#utility.yul\":12801:12806   */\n      dup3\n        /* \"#utility.yul\":12754:12807   */\n      tag_436\n      jump\t// in\n    tag_584:\n        /* \"#utility.yul\":12662:12813   */\n      swap2\n      swap1\n      pop\n      jump\t// out\n        /* \"#utility.yul\":12819:12970   */\n    tag_438:\n        /* \"#utility.yul\":12887:12896   */\n      0x00\n        /* \"#utility.yul\":12920:12964   */\n      tag_586\n        /* \"#utility.yul\":12958:12963   */\n      dup3\n        /* \"#utility.yul\":12920:12964   */\n      tag_437\n      jump\t// in\n    tag_586:\n        /* \"#utility.yul\":12907:12964   */\n      swap1\n      pop\n        /* \"#utility.yul\":12819:12970   */\n      swap2\n      swap1\n      pop\n      jump\t// out\n        /* \"#utility.yul\":12976:13143   */\n    tag_439:\n        /* \"#utility.yul\":13081:13136   */\n      tag_588\n        /* \"#utility.yul\":13130:13135   */\n      dup2\n        /* \"#utility.yul\":13081:13136   */\n      tag_438\n      jump\t// in\n    tag_588:\n        /* \"#utility.yul\":13076:13079   */\n      dup3\n        /* \"#utility.yul\":13069:13137   */\n      mstore\n        /* \"#utility.yul\":12976:13143   */\n      pop\n      pop\n      jump\t// out\n        /* \"#utility.yul\":13149:13517   */\n    tag_245:\n        /* \"#utility.yul\":13288:13292   */\n      0x00\n        /* \"#utility.yul\":13326:13328   */\n      0x40\n        /* \"#utility.yul\":13315:13324   */\n      dup3\n        /* \"#utility.yul\":13311:13329   */\n      add\n        /* \"#utility.yul\":13303:13329   */\n      swap1\n      pop\n        /* \"#utility.yul\":13339:13428   */\n      tag_590\n        /* \"#utility.yul\":13425:13426   */\n      0x00\n        /* \"#utility.yul\":13414:13423   */\n      dup4\n        /* \"#utility.yul\":13410:13427   */\n      add\n        /* \"#utility.yul\":13401:13407   */\n      dup6\n        /* \"#utility.yul\":13339:13428   */\n      tag_439\n      jump\t// in\n    tag_590:\n        /* \"#utility.yul\":13438:13510   */\n      tag_591\n        /* \"#utility.yul\":13506:13508   */\n      0x20\n        /* \"#utility.yul\":13495:13504   */\n      dup4\n        /* \"#utility.yul\":13491:13509   */\n      add\n        /* \"#utility.yul\":13482:13488   */\n      dup5\n        /* \"#utility.yul\":13438:13510   */\n      tag_419\n      jump\t// in\n    tag_591:\n        /* \"#utility.yul\":13149:13517   */\n      swap4\n      swap3\n      pop\n      pop\n      pop\n      jump\t// out\n        /* \"#utility.yul\":13523:13625   */\n    tag_440:\n        /* \"#utility.yul\":13565:13573   */\n      0x00\n        /* \"#utility.yul\":13612:13617   */\n      dup2\n        /* \"#utility.yul\":13609:13610   */\n      0x01\n        /* \"#utility.yul\":13605:13618   */\n      shr\n        /* \"#utility.yul\":13584:13618   */\n      swap1\n      pop\n        /* \"#utility.yul\":13523:13625   */\n      swap2\n      swap1\n      pop\n      jump\t// out\n        /* \"#utility.yul\":13631:14479   */\n    tag_441:\n        /* \"#utility.yul\":13692:13697   */\n      0x00\n        /* \"#utility.yul\":13699:13703   */\n      0x00\n        /* \"#utility.yul\":13723:13729   */\n      dup3\n        /* \"#utility.yul\":13714:13729   */\n      swap2\n      pop\n        /* \"#utility.yul\":13747:13752   */\n      dup4\n        /* \"#utility.yul\":13738:13752   */\n      swap1\n      pop\n        /* \"#utility.yul\":13761:14473   */\n    tag_594:\n        /* \"#utility.yul\":13782:13783   */\n      0x01\n        /* \"#utility.yul\":13772:13780   */\n      dup6\n        /* \"#utility.yul\":13769:13784   */\n      gt\n        /* \"#utility.yul\":13761:14473   */\n      iszero\n      tag_596\n      jumpi\n        /* \"#utility.yul\":13877:13881   */\n      dup1\n        /* \"#utility.yul\":13872:13875   */\n      dup7\n        /* \"#utility.yul\":13868:13882   */\n      div\n        /* \"#utility.yul\":13862:13866   */\n      dup2\n        /* \"#utility.yul\":13859:13883   */\n      gt\n        /* \"#utility.yul\":13856:13906   */\n      iszero\n      tag_597\n      jumpi\n        /* \"#utility.yul\":13886:13904   */\n      tag_598\n      tag_435\n      jump\t// in\n    tag_598:\n        /* \"#utility.yul\":13856:13906   */\n    tag_597:\n        /* \"#utility.yul\":13936:13937   */\n      0x01\n        /* \"#utility.yul\":13926:13934   */\n      dup6\n        /* \"#utility.yul\":13922:13938   */\n      and\n        /* \"#utility.yul\":13919:14370   */\n      iszero\n      tag_599\n      jumpi\n        /* \"#utility.yul\":14351:14355   */\n      dup1\n        /* \"#utility.yul\":14344:14349   */\n      dup3\n        /* \"#utility.yul\":14340:14356   */\n      mul\n        /* \"#utility.yul\":14331:14356   */\n      swap2\n      pop\n        /* \"#utility.yul\":13919:14370   */\n    tag_599:\n        /* \"#utility.yul\":14401:14405   */\n      dup1\n        /* \"#utility.yul\":14395:14399   */\n      dup2\n        /* \"#utility.yul\":14391:14406   */\n      mul\n        /* \"#utility.yul\":14383:14406   */\n      swap1\n      pop\n        /* \"#utility.yul\":14431:14463   */\n      tag_600\n        /* \"#utility.yul\":14454:14462   */\n      dup6\n        /* \"#utility.yul\":14431:14463   */\n      tag_440\n      jump\t// in\n    tag_600:\n        /* \"#utility.yul\":14419:14463   */\n      swap5\n      pop\n        /* \"#utility.yul\":13761:14473   */\n      jump(tag_594)\n    tag_596:\n        /* \"#utility.yul\":13631:14479   */\n      swap5\n      pop\n      swap5\n      swap3\n      pop\n      pop\n      pop\n      jump\t// out\n        /* \"#utility.yul\":14485:15558   */\n    tag_442:\n        /* \"#utility.yul\":14539:14544   */\n      0x00\n        /* \"#utility.yul\":14730:14738   */\n      dup3\n        /* \"#utility.yul\":14720:14760   */\n      tag_602\n      jumpi\n        /* \"#utility.yul\":14751:14752   */\n      0x01\n        /* \"#utility.yul\":14742:14752   */\n      swap1\n      pop\n        /* \"#utility.yul\":14753:14758   */\n      jump(tag_601)\n        /* \"#utility.yul\":14720:14760   */\n    tag_602:\n        /* \"#utility.yul\":14779:14783   */\n      dup2\n        /* \"#utility.yul\":14769:14805   */\n      tag_603\n      jumpi\n        /* \"#utility.yul\":14796:14797   */\n      0x00\n        /* \"#utility.yul\":14787:14797   */\n      swap1\n      pop\n        /* \"#utility.yul\":14798:14803   */\n      jump(tag_601)\n        /* \"#utility.yul\":14769:14805   */\n    tag_603:\n        /* \"#utility.yul\":14865:14869   */\n      dup2\n        /* \"#utility.yul\":14913:14914   */\n      0x01\n        /* \"#utility.yul\":14908:14935   */\n      dup2\n      eq\n      tag_605\n      jumpi\n        /* \"#utility.yul\":14949:14950   */\n      0x02\n        /* \"#utility.yul\":14944:15135   */\n      dup2\n      eq\n      tag_606\n      jumpi\n        /* \"#utility.yul\":14858:15135   */\n      jump(tag_604)\n        /* \"#utility.yul\":14908:14935   */\n    tag_605:\n        /* \"#utility.yul\":14926:14927   */\n      0x01\n        /* \"#utility.yul\":14917:14927   */\n      swap2\n      pop\n        /* \"#utility.yul\":14928:14933   */\n      pop\n      jump(tag_601)\n        /* \"#utility.yul\":14944:15135   */\n    tag_606:\n        /* \"#utility.yul\":14989:14992   */\n      0xff\n        /* \"#utility.yul\":14979:14987   */\n      dup5\n        /* \"#utility.yul\":14976:14993   */\n      gt\n        /* \"#utility.yul\":14973:15016   */\n      iszero\n      tag_607\n      jumpi\n        /* \"#utility.yul\":14996:15014   */\n      tag_608\n      tag_435\n      jump\t// in\n    tag_608:\n        /* \"#utility.yul\":14973:15016   */\n    tag_607:\n        /* \"#utility.yul\":15045:15053   */\n      dup4\n        /* \"#utility.yul\":15042:15043   */\n      0x02\n        /* \"#utility.yul\":15038:15054   */\n      exp\n        /* \"#utility.yul\":15029:15054   */\n      swap2\n      pop\n        /* \"#utility.yul\":15080:15083   */\n      dup5\n        /* \"#utility.yul\":15073:15078   */\n      dup3\n        /* \"#utility.yul\":15070:15084   */\n      gt\n        /* \"#utility.yul\":15067:15107   */\n      iszero\n      tag_609\n      jumpi\n        /* \"#utility.yul\":15087:15105   */\n      tag_610\n      tag_435\n      jump\t// in\n    tag_610:\n        /* \"#utility.yul\":15067:15107   */\n    tag_609:\n        /* \"#utility.yul\":15120:15125   */\n      pop\n      jump(tag_601)\n        /* \"#utility.yul\":14858:15135   */\n    tag_604:\n      pop\n        /* \"#utility.yul\":15244:15246   */\n      0x20\n        /* \"#utility.yul\":15234:15242   */\n      dup4\n        /* \"#utility.yul\":15231:15247   */\n      lt\n        /* \"#utility.yul\":15225:15228   */\n      0x0133\n        /* \"#utility.yul\":15219:15223   */\n      dup4\n        /* \"#utility.yul\":15216:15229   */\n      lt\n        /* \"#utility.yul\":15212:15248   */\n      and\n        /* \"#utility.yul\":15194:15196   */\n      0x4e\n        /* \"#utility.yul\":15184:15192   */\n      dup5\n        /* \"#utility.yul\":15181:15197   */\n      lt\n        /* \"#utility.yul\":15176:15178   */\n      0x0b\n        /* \"#utility.yul\":15170:15174   */\n      dup5\n        /* \"#utility.yul\":15167:15179   */\n      lt\n        /* \"#utility.yul\":15163:15198   */\n      and\n        /* \"#utility.yul\":15147:15258   */\n      or\n        /* \"#utility.yul\":15144:15390   */\n      iszero\n      tag_611\n      jumpi\n        /* \"#utility.yul\":15300:15308   */\n      dup3\n        /* \"#utility.yul\":15294:15298   */\n      dup3\n        /* \"#utility.yul\":15290:15309   */\n      exp\n        /* \"#utility.yul\":15281:15309   */\n      swap1\n      pop\n        /* \"#utility.yul\":15335:15338   */\n      dup4\n        /* \"#utility.yul\":15328:15333   */\n      dup2\n        /* \"#utility.yul\":15325:15339   */\n      gt\n        /* \"#utility.yul\":15322:15362   */\n      iszero\n      tag_612\n      jumpi\n        /* \"#utility.yul\":15342:15360   */\n      tag_613\n      tag_435\n      jump\t// in\n    tag_613:\n        /* \"#utility.yul\":15322:15362   */\n    tag_612:\n        /* \"#utility.yul\":15375:15380   */\n      jump(tag_601)\n        /* \"#utility.yul\":15144:15390   */\n    tag_611:\n        /* \"#utility.yul\":15415:15457   */\n      tag_614\n        /* \"#utility.yul\":15453:15456   */\n      dup5\n        /* \"#utility.yul\":15443:15451   */\n      dup5\n        /* \"#utility.yul\":15437:15441   */\n      dup5\n        /* \"#utility.yul\":15434:15435   */\n      0x01\n        /* \"#utility.yul\":15415:15457   */\n      tag_441\n      jump\t// in\n    tag_614:\n        /* \"#utility.yul\":15400:15457   */\n      swap3\n      pop\n      swap1\n      pop\n        /* \"#utility.yul\":15489:15493   */\n      dup2\n        /* \"#utility.yul\":15484:15487   */\n      dup5\n        /* \"#utility.yul\":15480:15494   */\n      div\n        /* \"#utility.yul\":15473:15478   */\n      dup2\n        /* \"#utility.yul\":15470:15495   */\n      gt\n        /* \"#utility.yul\":15467:15518   */\n      iszero\n      tag_615\n      jumpi\n        /* \"#utility.yul\":15498:15516   */\n      tag_616\n      tag_435\n      jump\t// in\n    tag_616:\n        /* \"#utility.yul\":15467:15518   */\n    tag_615:\n        /* \"#utility.yul\":15547:15551   */\n      dup2\n        /* \"#utility.yul\":15540:15545   */\n      dup2\n        /* \"#utility.yul\":15536:15552   */\n      mul\n        /* \"#utility.yul\":15527:15552   */\n      swap1\n      pop\n        /* \"#utility.yul\":14485:15558   */\n    tag_601:\n      swap4\n      swap3\n      pop\n      pop\n      pop\n      jump\t// out\n        /* \"#utility.yul\":15564:15845   */\n    tag_253:\n        /* \"#utility.yul\":15622:15627   */\n      0x00\n        /* \"#utility.yul\":15646:15669   */\n      tag_618\n        /* \"#utility.yul\":15664:15668   */\n      dup3\n        /* \"#utility.yul\":15646:15669   */\n      tag_416\n      jump\t// in\n    tag_618:\n        /* \"#utility.yul\":15638:15669   */\n      swap2\n      pop\n        /* \"#utility.yul\":15690:15715   */\n      tag_619\n        /* \"#utility.yul\":15706:15714   */\n      dup4\n        /* \"#utility.yul\":15690:15715   */\n      tag_426\n      jump\t// in\n    tag_619:\n        /* \"#utility.yul\":15678:15715   */\n      swap3\n      pop\n        /* \"#utility.yul\":15734:15838   */\n      tag_620\n        /* \"#utility.yul\":15771:15837   */\n      0xffffffffffffffffffffffffffffffffffffffffffffffffffffffffffffffff\n        /* \"#utility.yul\":15761:15769   */\n      dup5\n        /* \"#utility.yul\":15755:15759   */\n      dup5\n        /* \"#utility.yul\":15734:15838   */\n      tag_442\n      jump\t// in\n    tag_620:\n        /* \"#utility.yul\":15725:15838   */\n      swap1\n      pop\n        /* \"#utility.yul\":15564:15845   */\n      swap3\n      swap2\n      pop\n      pop\n      jump\t// out\n        /* \"#utility.yul\":15851:16261   */\n    tag_255:\n        /* \"#utility.yul\":15891:15898   */\n      0x00\n        /* \"#utility.yul\":15914:15934   */\n      tag_622\n        /* \"#utility.yul\":15932:15933   */\n      dup3\n        /* \"#utility.yul\":15914:15934   */\n      tag_416\n      jump\t// in\n    tag_622:\n        /* \"#utility.yul\":15909:15934   */\n      swap2\n      pop\n        /* \"#utility.yul\":15948:15968   */\n      tag_623\n        /* \"#utility.yul\":15966:15967   */\n      dup4\n        /* \"#utility.yul\":15948:15968   */\n      tag_416\n      jump\t// in\n    tag_623:\n        /* \"#utility.yul\":15943:15968   */\n      swap3\n      pop\n        /* \"#utility.yul\":16003:16004   */\n      dup3\n        /* \"#utility.yul\":16000:16001   */\n      dup3\n        /* \"#utility.yul\":15996:16005   */\n      mul\n        /* \"#utility.yul\":16025:16055   */\n      tag_624\n        /* \"#utility.yul\":16043:16054   */\n      dup2\n        /* \"#utility.yul\":16025:16055   */\n      tag_416\n      jump\t// in\n    tag_624:\n        /* \"#utility.yul\":16014:16055   */\n      swap2\n      pop\n        /* \"#utility.yul\":16204:16205   */\n      dup3\n        /* \"#utility.yul\":16195:16202   */\n      dup3\n        /* \"#utility.yul\":16191:16206   */\n      div\n        /* \"#utility.yul\":16188:16189   */\n      dup5\n        /* \"#utility.yul\":16185:16207   */\n      eq\n        /* \"#utility.yul\":16165:16166   */\n      dup4\n        /* \"#utility.yul\":16158:16167   */\n      iszero\n        /* \"#utility.yul\":16138:16221   */\n      or\n        /* \"#utility.yul\":16115:16254   */\n      tag_625\n      jumpi\n        /* \"#utility.yul\":16234:16252   */\n      tag_626\n      tag_435\n      jump\t// in\n    tag_626:\n        /* \"#utility.yul\":16115:16254   */\n    tag_625:\n        /* \"#utility.yul\":15899:16261   */\n      pop\n        /* \"#utility.yul\":15851:16261   */\n      swap3\n      swap2\n      pop\n      pop\n      jump\t// out\n        /* \"#utility.yul\":16267:16461   */\n    tag_280:\n        /* \"#utility.yul\":16307:16311   */\n      0x00\n        /* \"#utility.yul\":16327:16347   */\n      tag_628\n        /* \"#utility.yul\":16345:16346   */\n      dup3\n        /* \"#utility.yul\":16327:16347   */\n      tag_416\n      jump\t// in\n    tag_628:\n        /* \"#utility.yul\":16322:16347   */\n      swap2\n      pop\n        /* \"#utility.yul\":16361:16381   */\n      tag_629\n        /* \"#utility.yul\":16379:16380   */\n      dup4\n        /* \"#utility.yul\":16361:16381   */\n      tag_416\n      jump\t// in\n    tag_629:\n        /* \"#utility.yul\":16356:16381   */\n      swap3\n      pop\n        /* \"#utility.yul\":16405:16406   */\n      dup3\n        /* \"#utility.yul\":16402:16403   */\n      dup3\n        /* \"#utility.yul\":16398:16407   */\n      sub\n        /* \"#utility.yul\":16390:16407   */\n      swap1\n      pop\n        /* \"#utility.yul\":16429:16430   */\n      dup2\n        /* \"#utility.yul\":16423:16427   */\n      dup2\n        /* \"#utility.yul\":16420:16431   */\n      gt\n        /* \"#utility.yul\":16417:16454   */\n      iszero\n      tag_630\n      jumpi\n        /* \"#utility.yul\":16434:16452   */\n      tag_631\n      tag_435\n      jump\t// in\n    tag_631:\n        /* \"#utility.yul\":16417:16454   */\n    tag_630:\n        /* \"#utility.yul\":16267:16461   */\n      swap3\n      swap2\n      pop\n      pop\n      jump\t// out\n        /* \"#utility.yul\":16467:16644   */\n    tag_443:\n        /* \"#utility.yul\":16607:16636   */\n      0x5265666572726572206d656d6265727368697020657870697265640000000000\n        /* \"#utility.yul\":16603:16604   */\n      0x00\n        /* \"#utility.yul\":16595:16601   */\n      dup3\n        /* \"#utility.yul\":16591:16605   */\n      add\n        /* \"#utility.yul\":16584:16637   */\n      mstore\n        /* \"#utility.yul\":16467:16644   */\n      pop\n      jump\t// out\n        /* \"#utility.yul\":16650:17016   */\n    tag_444:\n        /* \"#utility.yul\":16792:16795   */\n      0x00\n        /* \"#utility.yul\":16813:16880   */\n      tag_634\n        /* \"#utility.yul\":16877:16879   */\n      0x1b\n        /* \"#utility.yul\":16872:16875   */\n      dup4\n        /* \"#utility.yul\":16813:16880   */\n      tag_408\n      jump\t// in\n    tag_634:\n        /* \"#utility.yul\":16806:16880   */\n      swap2\n      pop\n        /* \"#utility.yul\":16889:16982   */\n      tag_635\n        /* \"#utility.yul\":16978:16981   */\n      dup3\n        /* \"#utility.yul\":16889:16982   */\n      tag_443\n      jump\t// in\n    tag_635:\n        /* \"#utility.yul\":17007:17009   */\n      0x20\n        /* \"#utility.yul\":17002:17005   */\n      dup3\n        /* \"#utility.yul\":16998:17010   */\n      add\n        /* \"#utility.yul\":16991:17010   */\n      swap1\n      pop\n        /* \"#utility.yul\":16650:17016   */\n      swap2\n      swap1\n      pop\n      jump\t// out\n        /* \"#utility.yul\":17022:17441   */\n    tag_295:\n        /* \"#utility.yul\":17188:17192   */\n      0x00\n        /* \"#utility.yul\":17226:17228   */\n      0x20\n        /* \"#utility.yul\":17215:17224   */\n      dup3\n        /* \"#utility.yul\":17211:17229   */\n      add\n        /* \"#utility.yul\":17203:17229   */\n      swap1\n      pop\n        /* \"#utility.yul\":17275:17284   */\n      dup2\n        /* \"#utility.yul\":17269:17273   */\n      dup2\n        /* \"#utility.yul\":17265:17285   */\n      sub\n        /* \"#utility.yul\":17261:17262   */\n      0x00\n        /* \"#utility.yul\":17250:17259   */\n      dup4\n        /* \"#utility.yul\":17246:17263   */\n      add\n        /* \"#utility.yul\":17239:17286   */\n      mstore\n        /* \"#utility.yul\":17303:17434   */\n      tag_637\n        /* \"#utility.yul\":17429:17433   */\n      dup2\n        /* \"#utility.yul\":17303:17434   */\n      tag_444\n      jump\t// in\n    tag_637:\n        /* \"#utility.yul\":17295:17434   */\n      swap1\n      pop\n        /* \"#utility.yul\":17022:17441   */\n      swap2\n      swap1\n      pop\n      jump\t// out\n        /* \"#utility.yul\":17447:17613   */\n    tag_445:\n        /* \"#utility.yul\":17587:17605   */\n      0x5061757361626c653a2070617573656400000000000000000000000000000000\n        /* \"#utility.yul\":17583:17584   */\n      0x00\n        /* \"#utility.yul\":17575:17581   */\n      dup3\n        /* \"#utility.yul\":17571:17585   */\n      add\n        /* \"#utility.yul\":17564:17606   */\n      mstore\n        /* \"#utility.yul\":17447:17613   */\n      pop\n      jump\t// out\n        /* \"#utility.yul\":17619:17985   */\n    tag_446:\n        /* \"#utility.yul\":17761:17764   */\n      0x00\n        /* \"#utility.yul\":17782:17849   */\n      tag_640\n        /* \"#utility.yul\":17846:17848   */\n      0x10\n        /* \"#utility.yul\":17841:17844   */\n      dup4\n        /* \"#utility.yul\":17782:17849   */\n      tag_408\n      jump\t// in\n    tag_640:\n        /* \"#utility.yul\":17775:17849   */\n      swap2\n      pop\n        /* \"#utility.yul\":17858:17951   */\n      tag_641\n        /* \"#utility.yul\":17947:17950   */\n      dup3\n        /* \"#utility.yul\":17858:17951   */\n      tag_445\n      jump\t// in\n    tag_641:\n        /* \"#utility.yul\":17976:17978   */\n      0x20\n        /* \"#utility.yul\":17971:17974   */\n      dup3\n        /* \"#utility.yul\":17967:17979   */\n      add\n        /* \"#utility.yul\":17960:17979   */\n      swap1\n      pop\n        /* \"#utility.yul\":17619:17985   */\n      swap2\n      swap1\n      pop\n      jump\t// out\n        /* \"#utility.yul\":17991:18410   */\n    tag_324:\n        /* \"#utility.yul\":18157:18161   */\n      0x00\n        /* \"#utility.yul\":18195:18197   */\n      0x20\n        /* \"#utility.yul\":18184:18193   */\n      dup3\n        /* \"#utility.yul\":18180:18198   */\n      add\n        /* \"#utility.yul\":18172:18198   */\n      swap1\n      pop\n        /* \"#utility.yul\":18244:18253   */\n      dup2\n        /* \"#utility.yul\":18238:18242   */\n      dup2\n        /* \"#utility.yul\":18234:18254   */\n      sub\n        /* \"#utility.yul\":18230:18231   */\n      0x00\n        /* \"#utility.yul\":18219:18228   */\n      dup4\n        /* \"#utility.yul\":18215:18232   */\n      add\n        /* \"#utility.yul\":18208:18255   */\n      mstore\n        /* \"#utility.yul\":18272:18403   */\n      tag_643\n        /* \"#utility.yul\":18398:18402   */\n      dup2\n        /* \"#utility.yul\":18272:18403   */\n      tag_446\n      jump\t// in\n    tag_643:\n        /* \"#utility.yul\":18264:18403   */\n      swap1\n      pop\n        /* \"#utility.yul\":17991:18410   */\n      swap2\n      swap1\n      pop\n      jump\t// out\n        /* \"#utility.yul\":18416:18534   */\n    tag_447:\n        /* \"#utility.yul\":18503:18527   */\n      tag_645\n        /* \"#utility.yul\":18521:18526   */\n      dup2\n        /* \"#utility.yul\":18503:18527   */\n      tag_413\n      jump\t// in\n    tag_645:\n        /* \"#utility.yul\":18498:18501   */\n      dup3\n        /* \"#utility.yul\":18491:18528   */\n      mstore\n        /* \"#utility.yul\":18416:18534   */\n      pop\n      pop\n      jump\t// out\n        /* \"#utility.yul\":18540:18762   */\n    tag_332:\n        /* \"#utility.yul\":18633:18637   */\n      0x00\n        /* \"#utility.yul\":18671:18673   */\n      0x20\n        /* \"#utility.yul\":18660:18669   */\n      dup3\n        /* \"#utility.yul\":18656:18674   */\n      add\n        /* \"#utility.yul\":18648:18674   */\n      swap1\n      pop\n        /* \"#utility.yul\":18684:18755   */\n      tag_647\n        /* \"#utility.yul\":18752:18753   */\n      0x00\n        /* \"#utility.yul\":18741:18750   */\n      dup4\n        /* \"#utility.yul\":18737:18754   */\n      add\n        /* \"#utility.yul\":18728:18734   */\n      dup5\n        /* \"#utility.yul\":18684:18755   */\n      tag_447\n      jump\t// in\n    tag_647:\n        /* \"#utility.yul\":18540:18762   */\n      swap3\n      swap2\n      pop\n      pop\n      jump\t// out\n        /* \"#utility.yul\":18768:19210   */\n    tag_342:\n        /* \"#utility.yul\":18917:18921   */\n      0x00\n        /* \"#utility.yul\":18955:18957   */\n      0x60\n        /* \"#utility.yul\":18944:18953   */\n      dup3\n        /* \"#utility.yul\":18940:18958   */\n      add\n        /* \"#utility.yul\":18932:18958   */\n      swap1\n      pop\n        /* \"#utility.yul\":18968:19039   */\n      tag_649\n        /* \"#utility.yul\":19036:19037   */\n      0x00\n        /* \"#utility.yul\":19025:19034   */\n      dup4\n        /* \"#utility.yul\":19021:19038   */\n      add\n        /* \"#utility.yul\":19012:19018   */\n      dup7\n        /* \"#utility.yul\":18968:19039   */\n      tag_447\n      jump\t// in\n    tag_649:\n        /* \"#utility.yul\":19049:19121   */\n      tag_650\n        /* \"#utility.yul\":19117:19119   */\n      0x20\n        /* \"#utility.yul\":19106:19115   */\n      dup4\n        /* \"#utility.yul\":19102:19120   */\n      add\n        /* \"#utility.yul\":19093:19099   */\n      dup6\n        /* \"#utility.yul\":19049:19121   */\n      tag_419\n      jump\t// in\n    tag_650:\n        /* \"#utility.yul\":19131:19203   */\n      tag_651\n        /* \"#utility.yul\":19199:19201   */\n      0x40\n        /* \"#utility.yul\":19188:19197   */\n      dup4\n        /* \"#utility.yul\":19184:19202   */\n      add\n        /* \"#utility.yul\":19175:19181   */\n      dup5\n        /* \"#utility.yul\":19131:19203   */\n      tag_419\n      jump\t// in\n    tag_651:\n        /* \"#utility.yul\":18768:19210   */\n      swap5\n      swap4\n      pop\n      pop\n      pop\n      pop\n      jump\t// out\n        /* \"#utility.yul\":19216:19548   */\n    tag_384:\n        /* \"#utility.yul\":19337:19341   */\n      0x00\n        /* \"#utility.yul\":19375:19377   */\n      0x40\n        /* \"#utility.yul\":19364:19373   */\n      dup3\n        /* \"#utility.yul\":19360:19378   */\n      add\n        /* \"#utility.yul\":19352:19378   */\n      swap1\n      pop\n        /* \"#utility.yul\":19388:19459   */\n      tag_653\n        /* \"#utility.yul\":19456:19457   */\n      0x00\n        /* \"#utility.yul\":19445:19454   */\n      dup4\n        /* \"#utility.yul\":19441:19458   */\n      add\n        /* \"#utility.yul\":19432:19438   */\n      dup6\n        /* \"#utility.yul\":19388:19459   */\n      tag_447\n      jump\t// in\n    tag_653:\n        /* \"#utility.yul\":19469:19541   */\n      tag_654\n        /* \"#utility.yul\":19537:19539   */\n      0x20\n        /* \"#utility.yul\":19526:19535   */\n      dup4\n        /* \"#utility.yul\":19522:19540   */\n      add\n        /* \"#utility.yul\":19513:19519   */\n      dup5\n        /* \"#utility.yul\":19469:19541   */\n      tag_423\n      jump\t// in\n    tag_654:\n        /* \"#utility.yul\":19216:19548   */\n      swap4\n      swap3\n      pop\n      pop\n      pop\n      jump\t// out\n        /* \"#utility.yul\":19554:19724   */\n    tag_448:\n        /* \"#utility.yul\":19694:19716   */\n      0x5061757361626c653a206e6f7420706175736564000000000000000000000000\n        /* \"#utility.yul\":19690:19691   */\n      0x00\n        /* \"#utility.yul\":19682:19688   */\n      dup3\n        /* \"#utility.yul\":19678:19692   */\n      add\n        /* \"#utility.yul\":19671:19717   */\n      mstore\n        /* \"#utility.yul\":19554:19724   */\n      pop\n      jump\t// out\n        /* \"#utility.yul\":19730:20096   */\n    tag_449:\n        /* \"#utility.yul\":19872:19875   */\n      0x00\n        /* \"#utility.yul\":19893:19960   */\n      tag_657\n        /* \"#utility.yul\":19957:19959   */\n      0x14\n        /* \"#utility.yul\":19952:19955   */\n      dup4\n        /* \"#utility.yul\":19893:19960   */\n      tag_408\n      jump\t// in\n    tag_657:\n        /* \"#utility.yul\":19886:19960   */\n      swap2\n      pop\n        /* \"#utility.yul\":19969:20062   */\n      tag_658\n        /* \"#utility.yul\":20058:20061   */\n      dup3\n        /* \"#utility.yul\":19969:20062   */\n      tag_448\n      jump\t// in\n    tag_658:\n        /* \"#utility.yul\":20087:20089   */\n      0x20\n        /* \"#utility.yul\":20082:20085   */\n      dup3\n        /* \"#utility.yul\":20078:20090   */\n      add\n        /* \"#utility.yul\":20071:20090   */\n      swap1\n      pop\n        /* \"#utility.yul\":19730:20096   */\n      swap2\n      swap1\n      pop\n      jump\t// out\n        /* \"#utility.yul\":20102:20521   */\n    tag_398:\n        /* \"#utility.yul\":20268:20272   */\n      0x00\n        /* \"#utility.yul\":20306:20308   */\n      0x20\n        /* \"#utility.yul\":20295:20304   */\n      dup3\n        /* \"#utility.yul\":20291:20309   */\n      add\n        /* \"#utility.yul\":20283:20309   */\n      swap1\n      pop\n        /* \"#utility.yul\":20355:20364   */\n      dup2\n        /* \"#utility.yul\":20349:20353   */\n      dup2\n        /* \"#utility.yul\":20345:20365   */\n      sub\n        /* \"#utility.yul\":20341:20342   */\n      0x00\n        /* \"#utility.yul\":20330:20339   */\n      dup4\n        /* \"#utility.yul\":20326:20343   */\n      add\n        /* \"#utility.yul\":20319:20366   */\n      mstore\n        /* \"#utility.yul\":20383:20514   */\n      tag_660\n        /* \"#utility.yul\":20509:20513   */\n      dup2\n        /* \"#utility.yul\":20383:20514   */\n      tag_449\n      jump\t// in\n    tag_660:\n        /* \"#utility.yul\":20375:20514   */\n      swap1\n      pop\n        /* \"#utility.yul\":20102:20521   */\n      swap2\n      swap1\n      pop\n      jump\t// out\n\n    auxdata: 0xa2646970667358221220efd26e149ae0f01f2e76854dbd775d5708059c092fe3346dbcc79dcf2836b12564736f6c634300081c0033\n}\n",
				"bytecode": {
					"linkReferences": {},
					"object": "608060405234801561000f575f5ffd5b5060405161340f38038061340f833981810160405281019061003191906106a5565b6040518060400160405280600881526020017f47796d546f6b656e0000000000000000000000000000000000000000000000008152506040518060400160405280600381526020017f47594d000000000000000000000000000000000000000000000000000000000081525081600390816100ac919061090d565b5080600490816100bc919061090d565b5050505f60055f6101000a81548160ff0219169083151502179055506100ea5f5f1b8261024860201b60201c565b5061011b7f241ecf16d79d0f8dbfb92cbc07fe17840425976cf0667f022fe9877caa831b088261024860201b60201c565b506002600a61012a9190610b44565b60326101369190610b8e565b60075f5f600281111561014c5761014b610bcf565b5b600281111561015e5761015d610bcf565b5b81526020019081526020015f20819055506002600a61017d9190610b44565b608c6101899190610b8e565b60075f600160028111156101a05761019f610bcf565b5b60028111156101b2576101b1610bcf565b5b81526020019081526020015f20819055506002600a6101d19190610b44565b6101f46101de9190610b8e565b60075f6002808111156101f4576101f3610bcf565b5b600281111561020657610205610bcf565b5b81526020019081526020015f2081905550610242816002600a6102299190610b44565b620f42406102379190610b8e565b61033e60201b60201c565b50610cb4565b5f61025983836103c360201b60201c565b61033457600160065f8581526020019081526020015f205f015f8473ffffffffffffffffffffffffffffffffffffffff1673ffffffffffffffffffffffffffffffffffffffff1681526020019081526020015f205f6101000a81548160ff0219169083151502179055506102d161042760201b60201c565b73ffffffffffffffffffffffffffffffffffffffff168273ffffffffffffffffffffffffffffffffffffffff16847f2f8788117e7eff1d82e926ec794901d17c78024a50270940304540a733656f0d60405160405180910390a460019050610338565b5f90505b92915050565b5f73ffffffffffffffffffffffffffffffffffffffff168273ffffffffffffffffffffffffffffffffffffffff16036103ae575f6040517fec442f050000000000000000000000000000000000000000000000000000000081526004016103a59190610c0b565b60405180910390fd5b6103bf5f838361042e60201b60201c565b5050565b5f60065f8481526020019081526020015f205f015f8373ffffffffffffffffffffffffffffffffffffffff1673ffffffffffffffffffffffffffffffffffffffff1681526020019081526020015f205f9054906101000a900460ff16905092915050565b5f33905090565b5f73ffffffffffffffffffffffffffffffffffffffff168373ffffffffffffffffffffffffffffffffffffffff160361047e578060025f8282546104729190610c24565b9250508190555061054c565b5f5f5f8573ffffffffffffffffffffffffffffffffffffffff1673ffffffffffffffffffffffffffffffffffffffff1681526020019081526020015f2054905081811015610507578381836040517fe450d38c0000000000000000000000000000000000000000000000000000000081526004016104fe93929190610c66565b60405180910390fd5b8181035f5f8673ffffffffffffffffffffffffffffffffffffffff1673ffffffffffffffffffffffffffffffffffffffff1681526020019081526020015f2081905550505b5f73ffffffffffffffffffffffffffffffffffffffff168273ffffffffffffffffffffffffffffffffffffffff1603610593578060025f82825403925050819055506105dd565b805f5f8473ffffffffffffffffffffffffffffffffffffffff1673ffffffffffffffffffffffffffffffffffffffff1681526020019081526020015f205f82825401925050819055505b8173ffffffffffffffffffffffffffffffffffffffff168373ffffffffffffffffffffffffffffffffffffffff167fddf252ad1be2c89b69c2b068fc378daa952ba7f163c4a11628f55a4df523b3ef8360405161063a9190610c9b565b60405180910390a3505050565b5f5ffd5b5f73ffffffffffffffffffffffffffffffffffffffff82169050919050565b5f6106748261064b565b9050919050565b6106848161066a565b811461068e575f5ffd5b50565b5f8151905061069f8161067b565b92915050565b5f602082840312156106ba576106b9610647565b5b5f6106c784828501610691565b91505092915050565b5f81519050919050565b7f4e487b71000000000000000000000000000000000000000000000000000000005f52604160045260245ffd5b7f4e487b71000000000000000000000000000000000000000000000000000000005f52602260045260245ffd5b5f600282049050600182168061074b57607f821691505b60208210810361075e5761075d610707565b5b50919050565b5f819050815f5260205f209050919050565b5f6020601f8301049050919050565b5f82821b905092915050565b5f600883026107c07fffffffffffffffffffffffffffffffffffffffffffffffffffffffffffffffff82610785565b6107ca8683610785565b95508019841693508086168417925050509392505050565b5f819050919050565b5f819050919050565b5f61080e610809610804846107e2565b6107eb565b6107e2565b9050919050565b5f819050919050565b610827836107f4565b61083b61083382610815565b848454610791565b825550505050565b5f5f905090565b610852610843565b61085d81848461081e565b505050565b5b81811015610880576108755f8261084a565b600181019050610863565b5050565b601f8211156108c55761089681610764565b61089f84610776565b810160208510156108ae578190505b6108c26108ba85610776565b830182610862565b50505b505050565b5f82821c905092915050565b5f6108e55f19846008026108ca565b1980831691505092915050565b5f6108fd83836108d6565b9150826002028217905092915050565b610916826106d0565b67ffffffffffffffff81111561092f5761092e6106da565b5b6109398254610734565b610944828285610884565b5f60209050601f831160018114610975575f8415610963578287015190505b61096d85826108f2565b8655506109d4565b601f19841661098386610764565b5f5b828110156109aa57848901518255600182019150602085019450602081019050610985565b868310156109c757848901516109c3601f8916826108d6565b8355505b6001600288020188555050505b505050505050565b7f4e487b71000000000000000000000000000000000000000000000000000000005f52601160045260245ffd5b5f8160011c9050919050565b5f5f8291508390505b6001851115610a5e57808604811115610a3a57610a396109dc565b5b6001851615610a495780820291505b8081029050610a5785610a09565b9450610a1e565b94509492505050565b5f82610a765760019050610b31565b81610a83575f9050610b31565b8160018114610a995760028114610aa357610ad2565b6001915050610b31565b60ff841115610ab557610ab46109dc565b5b8360020a915084821115610acc57610acb6109dc565b5b50610b31565b5060208310610133831016604e8410600b8410161715610b075782820a905083811115610b0257610b016109dc565b5b610b31565b610b148484846001610a15565b92509050818404811115610b2b57610b2a6109dc565b5b81810290505b9392505050565b5f60ff82169050919050565b5f610b4e826107e2565b9150610b5983610b38565b9250610b867fffffffffffffffffffffffffffffffffffffffffffffffffffffffffffffffff8484610a67565b905092915050565b5f610b98826107e2565b9150610ba3836107e2565b9250828202610bb1816107e2565b91508282048414831517610bc857610bc76109dc565b5b5092915050565b7f4e487b71000000000000000000000000000000000000000000000000000000005f52602160045260245ffd5b610c058161066a565b82525050565b5f602082019050610c1e5f830184610bfc565b92915050565b5f610c2e826107e2565b9150610c39836107e2565b9250828201905080821115610c5157610c506109dc565b5b92915050565b610c60816107e2565b82525050565b5f606082019050610c795f830186610bfc565b610c866020830185610c57565b610c936040830184610c57565b949350505050565b5f602082019050610cae5f830184610c57565b92915050565b61274e80610cc15f395ff3fe608060405234801561000f575f5ffd5b50600436106101f9575f3560e01c806376809ce311610118578063a217fddf116100ab578063b46948761161007a578063b4694876146105b5578063d547741f146105e5578063dd62ed3e14610601578063ea4bbaf414610631578063ec87621c14610661576101f9565b8063a217fddf1461052d578063a61b93cc1461054b578063a683dfab14610569578063a9059cbb14610585576101f9565b80638621026a116100e75780638621026a1461049157806391d14854146104c157806395d89b41146104f1578063a10f469e1461050f576101f9565b806376809ce31461042d5780638456cb591461044b57806384a3a0f31461045557806385290fa114610473576101f9565b80632f2ff15d116101905780633f4ba83a1161015f5780633f4ba83a146103a55780634b6e2331146103af5780635c975abb146103df57806370a08231146103fd576101f9565b80632f2ff15d146103315780632ff2e9dc1461034d578063313ce5671461036b57806336568abe14610389576101f9565b806318160ddd116101cc57806318160ddd1461029757806323b872dd146102b5578063248a9ca3146102e5578063265a5eea14610315576101f9565b806301ffc9a7146101fd57806306fdde031461022d578063095ea7b31461024b5780630ca2a4001461027b575b5f5ffd5b61021760048036038101906102129190611d00565b61067f565b6040516102249190611d45565b60405180910390f35b6102356106f8565b6040516102429190611dce565b60405180910390f35b61026560048036038101906102609190611e7b565b610788565b6040516102729190611d45565b60405180910390f35b61029560048036038101906102909190611e7b565b6107aa565b005b61029f610837565b6040516102ac9190611ec8565b60405180910390f35b6102cf60048036038101906102ca9190611ee1565b610840565b6040516102dc9190611d45565b60405180910390f35b6102ff60048036038101906102fa9190611f64565b61086e565b60405161030c9190611f9e565b60405180910390f35b61032f600480360381019061032a9190611fda565b61088b565b005b61034b60048036038101906103469190612005565b610bac565b005b610355610bce565b6040516103629190611ec8565b60405180910390f35b610373610bed565b604051610380919061205e565b60405180910390f35b6103a3600480360381019061039e9190612005565b610bf5565b005b6103ad610c70565b005b6103c960048036038101906103c49190611fda565b610ca5565b6040516103d69190611ec8565b60405180910390f35b6103e7610cba565b6040516103f49190611d45565b60405180910390f35b61041760048036038101906104129190612077565b610ccf565b6040516104249190611ec8565b60405180910390f35b610435610d14565b604051610442919061205e565b60405180910390f35b610453610d19565b005b61045d610d4e565b60405161046a9190611ec8565b60405180910390f35b61047b610d6b565b6040516104889190611f9e565b60405180910390f35b6104ab60048036038101906104a69190612077565b610d8f565b6040516104b89190611ec8565b60405180910390f35b6104db60048036038101906104d69190612005565b610e2d565b6040516104e89190611d45565b60405180910390f35b6104f9610e91565b6040516105069190611dce565b60405180910390f35b610517610f21565b6040516105249190611f9e565b60405180910390f35b610535610f45565b6040516105429190611f9e565b60405180910390f35b610553610f4b565b6040516105609190611f9e565b60405180910390f35b610583600480360381019061057e9190612077565b610f6f565b005b61059f600480360381019061059a9190611e7b565b61111a565b6040516105ac9190611d45565b60405180910390f35b6105cf60048036038101906105ca9190612077565b61113c565b6040516105dc9190611ec8565b60405180910390f35b6105ff60048036038101906105fa9190612005565b611151565b005b61061b600480360381019061061691906120a2565b611173565b6040516106289190611ec8565b60405180910390f35b61064b60048036038101906106469190612077565b6111f5565b6040516106589190611ec8565b60405180910390f35b61066961120a565b6040516106769190611f9e565b60405180910390f35b5f7f7965db0b000000000000000000000000000000000000000000000000000000007bffffffffffffffffffffffffffffffffffffffffffffffffffffffff1916827bffffffffffffffffffffffffffffffffffffffffffffffffffffffff191614806106f157506106f08261122e565b5b9050919050565b6060600380546107079061210d565b80601f01602080910402602001604051908101604052809291908181526020018280546107339061210d565b801561077e5780601f106107555761010080835404028352916020019161077e565b820191905f5260205f20905b81548152906001019060200180831161076157829003601f168201915b5050505050905090565b5f5f610792611297565b905061079f81858561129e565b600191505092915050565b6107b26112b0565b7f241ecf16d79d0f8dbfb92cbc07fe17840425976cf0667f022fe9877caa831b086107dc816112fa565b816107e633610ccf565b1015610827576040517f08c379a000000000000000000000000000000000000000000000000000000000815260040161081e90612187565b60405180910390fd5b61083233848461130e565b505050565b5f600254905090565b5f5f61084a611297565b90506108578582856113fe565b61086285858561130e565b60019150509392505050565b5f60065f8381526020019081526020015f20600101549050919050565b6108936112b0565b6108bd7f829b824e2329e205435d941c9f13baf578548505283d29261236d8e6596d463633610e2d565b6108fc576040517f08c379a00000000000000000000000000000000000000000000000000000000081526004016108f3906121ef565b60405180910390fd5b5f60075f8360028111156109135761091261220d565b5b60028111156109255761092461220d565b5b81526020019081526020015f205490508061093f33610ccf565b1015610980576040517f08c379a000000000000000000000000000000000000000000000000000000000815260040161097790612187565b60405180910390fd5b61098a3382611490565b5f5f600281111561099e5761099d61220d565b5b8360028111156109b1576109b061220d565b5b036109c15762278d009050610a6c565b600160028111156109d5576109d461220d565b5b8360028111156109e8576109e761220d565b5b036109f8576276a7009050610a6b565b600280811115610a0b57610a0a61220d565b5b836002811115610a1e57610a1d61220d565b5b03610a2f576301e133809050610a6a565b6040517f08c379a0000000000000000000000000000000000000000000000000000000008152600401610a6190612284565b60405180910390fd5b5b5b60085f3373ffffffffffffffffffffffffffffffffffffffff1673ffffffffffffffffffffffffffffffffffffffff1681526020019081526020015f2054421015610b09578060085f3373ffffffffffffffffffffffffffffffffffffffff1673ffffffffffffffffffffffffffffffffffffffff1681526020019081526020015f205f828254610afd91906122cf565b92505081905550610b57565b8042610b1591906122cf565b60085f3373ffffffffffffffffffffffffffffffffffffffff1673ffffffffffffffffffffffffffffffffffffffff1681526020019081526020015f20819055505b3373ffffffffffffffffffffffffffffffffffffffff167fe2c5b6420b508a46b55a5cb55c7340a67492866d4f51461ee443958079fe83578483604051610b9f929190612348565b60405180910390a2505050565b610bb58261086e565b610bbe816112fa565b610bc8838361150f565b50505050565b6002600a610bdc919061249e565b620f4240610bea91906124e8565b81565b5f6012905090565b610bfd611297565b73ffffffffffffffffffffffffffffffffffffffff168173ffffffffffffffffffffffffffffffffffffffff1614610c61576040517f6697b23200000000000000000000000000000000000000000000000000000000815260040160405180910390fd5b610c6b82826115f9565b505050565b7f241ecf16d79d0f8dbfb92cbc07fe17840425976cf0667f022fe9877caa831b08610c9a816112fa565b610ca26116e3565b50565b6007602052805f5260405f205f915090505481565b5f60055f9054906101000a900460ff16905090565b5f5f5f8373ffffffffffffffffffffffffffffffffffffffff1673ffffffffffffffffffffffffffffffffffffffff1681526020019081526020015f20549050919050565b600281565b7f241ecf16d79d0f8dbfb92cbc07fe17840425976cf0667f022fe9877caa831b08610d43816112fa565b610d4b611744565b50565b6002600a610d5c919061249e565b600a610d6891906124e8565b81565b7f5620a1113a72b02a617976b3f6b15600dd7a8b3a916a9ca01e23119d989a054381565b5f60085f8373ffffffffffffffffffffffffffffffffffffffff1673ffffffffffffffffffffffffffffffffffffffff1681526020019081526020015f20544210610ddc575f9050610e28565b4260085f8473ffffffffffffffffffffffffffffffffffffffff1673ffffffffffffffffffffffffffffffffffffffff1681526020019081526020015f2054610e259190612529565b90505b919050565b5f60065f8481526020019081526020015f205f015f8373ffffffffffffffffffffffffffffffffffffffff1673ffffffffffffffffffffffffffffffffffffffff1681526020019081526020015f205f9054906101000a900460ff16905092915050565b606060048054610ea09061210d565b80601f0160208091040260200160405190810160405280929190818152602001828054610ecc9061210d565b8015610f175780601f10610eee57610100808354040283529160200191610f17565b820191905f5260205f20905b815481529060010190602001808311610efa57829003601f168201915b5050505050905090565b7f829b824e2329e205435d941c9f13baf578548505283d29261236d8e6596d463681565b5f5f1b81565b7f123c69cc12368838cca6d46b7505bec842d9e85a26aff07e23aa57ad59dac6ba81565b610f776112b0565b7f241ecf16d79d0f8dbfb92cbc07fe17840425976cf0667f022fe9877caa831b08610fa1816112fa565b60085f8373ffffffffffffffffffffffffffffffffffffffff1673ffffffffffffffffffffffffffffffffffffffff1681526020019081526020015f20544210611020576040517f08c379a0000000000000000000000000000000000000000000000000000000008152600401611017906125a6565b60405180910390fd5b6002600a61102e919061249e565b600a61103a91906124e8565b60095f8473ffffffffffffffffffffffffffffffffffffffff1673ffffffffffffffffffffffffffffffffffffffff1681526020019081526020015f205f82825461108591906122cf565b925050819055506110af826002600a61109e919061249e565b600a6110aa91906124e8565b6117a6565b8173ffffffffffffffffffffffffffffffffffffffff167fe02a129f98418d04669038a9874f706689ba7726c0c0e82c67319ec8ca9001ea6002600a6110f5919061249e565b600a61110191906124e8565b60405161110e9190611ec8565b60405180910390a25050565b5f5f611124611297565b905061113181858561130e565b600191505092915050565b6009602052805f5260405f205f915090505481565b61115a8261086e565b611163816112fa565b61116d83836115f9565b50505050565b5f60015f8473ffffffffffffffffffffffffffffffffffffffff1673ffffffffffffffffffffffffffffffffffffffff1681526020019081526020015f205f8373ffffffffffffffffffffffffffffffffffffffff1673ffffffffffffffffffffffffffffffffffffffff1681526020019081526020015f2054905092915050565b6008602052805f5260405f205f915090505481565b7f241ecf16d79d0f8dbfb92cbc07fe17840425976cf0667f022fe9877caa831b0881565b5f7f01ffc9a7000000000000000000000000000000000000000000000000000000007bffffffffffffffffffffffffffffffffffffffffffffffffffffffff1916827bffffffffffffffffffffffffffffffffffffffffffffffffffffffff1916149050919050565b5f33905090565b6112ab8383836001611825565b505050565b6112b8610cba565b156112f8576040517f08c379a00000000000000000000000000000000000000000000000000000000081526004016112ef9061260e565b60405180910390fd5b565b61130b81611306611297565b6119f4565b50565b5f73ffffffffffffffffffffffffffffffffffffffff168373ffffffffffffffffffffffffffffffffffffffff160361137e575f6040517f96c6fd1e000000000000000000000000000000000000000000000000000000008152600401611375919061263b565b60405180910390fd5b5f73ffffffffffffffffffffffffffffffffffffffff168273ffffffffffffffffffffffffffffffffffffffff16036113ee575f6040517fec442f050000000000000000000000000000000000000000000000000000000081526004016113e5919061263b565b60405180910390fd5b6113f9838383611a45565b505050565b5f6114098484611173565b90507fffffffffffffffffffffffffffffffffffffffffffffffffffffffffffffffff811461148a578181101561147b578281836040517ffb8f41b200000000000000000000000000000000000000000000000000000000815260040161147293929190612654565b60405180910390fd5b61148984848484035f611825565b5b50505050565b5f73ffffffffffffffffffffffffffffffffffffffff168273ffffffffffffffffffffffffffffffffffffffff1603611500575f6040517f96c6fd1e0000000000000000000000000000000000000000000000000000000081526004016114f7919061263b565b60405180910390fd5b61150b825f83611a45565b5050565b5f61151a8383610e2d565b6115ef57600160065f8581526020019081526020015f205f015f8473ffffffffffffffffffffffffffffffffffffffff1673ffffffffffffffffffffffffffffffffffffffff1681526020019081526020015f205f6101000a81548160ff02191690831515021790555061158c611297565b73ffffffffffffffffffffffffffffffffffffffff168273ffffffffffffffffffffffffffffffffffffffff16847f2f8788117e7eff1d82e926ec794901d17c78024a50270940304540a733656f0d60405160405180910390a4600190506115f3565b5f90505b92915050565b5f6116048383610e2d565b156116d9575f60065f8581526020019081526020015f205f015f8473ffffffffffffffffffffffffffffffffffffffff1673ffffffffffffffffffffffffffffffffffffffff1681526020019081526020015f205f6101000a81548160ff021916908315150217905550611676611297565b73ffffffffffffffffffffffffffffffffffffffff168273ffffffffffffffffffffffffffffffffffffffff16847ff6391f5c32d9c69d2a47ea670b442974b53935d1edc7fd64eb21e047a839171b60405160405180910390a4600190506116dd565b5f90505b92915050565b6116eb611c5e565b5f60055f6101000a81548160ff0219169083151502179055507f5db9ee0a495bf2e6ff9c91a7834c1ba4fdd244a5e8aa4e537bd38aeae4b073aa61172d611297565b60405161173a919061263b565b60405180910390a1565b61174c6112b0565b600160055f6101000a81548160ff0219169083151502179055507f62e78cea01bee320cd4e420270b5ea74000d11b0c9f74754ebdbfc544b05a25861178f611297565b60405161179c919061263b565b60405180910390a1565b5f73ffffffffffffffffffffffffffffffffffffffff168273ffffffffffffffffffffffffffffffffffffffff1603611816575f6040517fec442f0500000000000000000000000000000000000000000000000000000000815260040161180d919061263b565b60405180910390fd5b6118215f8383611a45565b5050565b5f73ffffffffffffffffffffffffffffffffffffffff168473ffffffffffffffffffffffffffffffffffffffff1603611895575f6040517fe602df0500000000000000000000000000000000000000000000000000000000815260040161188c919061263b565b60405180910390fd5b5f73ffffffffffffffffffffffffffffffffffffffff168373ffffffffffffffffffffffffffffffffffffffff1603611905575f6040517f94280d620000000000000000000000000000000000000000000000000000000081526004016118fc919061263b565b60405180910390fd5b8160015f8673ffffffffffffffffffffffffffffffffffffffff1673ffffffffffffffffffffffffffffffffffffffff1681526020019081526020015f205f8573ffffffffffffffffffffffffffffffffffffffff1673ffffffffffffffffffffffffffffffffffffffff1681526020019081526020015f208190555080156119ee578273ffffffffffffffffffffffffffffffffffffffff168473ffffffffffffffffffffffffffffffffffffffff167f8c5be1e5ebec7d5bd14f71427d1e84f3dd0314c0f7b2291e5b200ac8c7c3b925846040516119e59190611ec8565b60405180910390a35b50505050565b6119fe8282610e2d565b611a415780826040517fe2517d3f000000000000000000000000000000000000000000000000000000008152600401611a38929190612689565b60405180910390fd5b5050565b5f73ffffffffffffffffffffffffffffffffffffffff168373ffffffffffffffffffffffffffffffffffffffff1603611a95578060025f828254611a8991906122cf565b92505081905550611b63565b5f5f5f8573ffffffffffffffffffffffffffffffffffffffff1673ffffffffffffffffffffffffffffffffffffffff1681526020019081526020015f2054905081811015611b1e578381836040517fe450d38c000000000000000000000000000000000000000000000000000000008152600401611b1593929190612654565b60405180910390fd5b8181035f5f8673ffffffffffffffffffffffffffffffffffffffff1673ffffffffffffffffffffffffffffffffffffffff1681526020019081526020015f2081905550505b5f73ffffffffffffffffffffffffffffffffffffffff168273ffffffffffffffffffffffffffffffffffffffff1603611baa578060025f8282540392505081905550611bf4565b805f5f8473ffffffffffffffffffffffffffffffffffffffff1673ffffffffffffffffffffffffffffffffffffffff1681526020019081526020015f205f82825401925050819055505b8173ffffffffffffffffffffffffffffffffffffffff168373ffffffffffffffffffffffffffffffffffffffff167fddf252ad1be2c89b69c2b068fc378daa952ba7f163c4a11628f55a4df523b3ef83604051611c519190611ec8565b60405180910390a3505050565b611c66610cba565b611ca5576040517f08c379a0000000000000000000000000000000000000000000000000000000008152600401611c9c906126fa565b60405180910390fd5b565b5f5ffd5b5f7fffffffff0000000000000000000000000000000000000000000000000000000082169050919050565b611cdf81611cab565b8114611ce9575f5ffd5b50565b5f81359050611cfa81611cd6565b92915050565b5f60208284031215611d1557611d14611ca7565b5b5f611d2284828501611cec565b91505092915050565b5f8115159050919050565b611d3f81611d2b565b82525050565b5f602082019050611d585f830184611d36565b92915050565b5f81519050919050565b5f82825260208201905092915050565b8281835e5f83830152505050565b5f601f19601f8301169050919050565b5f611da082611d5e565b611daa8185611d68565b9350611dba818560208601611d78565b611dc381611d86565b840191505092915050565b5f6020820190508181035f830152611de68184611d96565b905092915050565b5f73ffffffffffffffffffffffffffffffffffffffff82169050919050565b5f611e1782611dee565b9050919050565b611e2781611e0d565b8114611e31575f5ffd5b50565b5f81359050611e4281611e1e565b92915050565b5f819050919050565b611e5a81611e48565b8114611e64575f5ffd5b50565b5f81359050611e7581611e51565b92915050565b5f5f60408385031215611e9157611e90611ca7565b5b5f611e9e85828601611e34565b9250506020611eaf85828601611e67565b9150509250929050565b611ec281611e48565b82525050565b5f602082019050611edb5f830184611eb9565b92915050565b5f5f5f60608486031215611ef857611ef7611ca7565b5b5f611f0586828701611e34565b9350506020611f1686828701611e34565b9250506040611f2786828701611e67565b9150509250925092565b5f819050919050565b611f4381611f31565b8114611f4d575f5ffd5b50565b5f81359050611f5e81611f3a565b92915050565b5f60208284031215611f7957611f78611ca7565b5b5f611f8684828501611f50565b91505092915050565b611f9881611f31565b82525050565b5f602082019050611fb15f830184611f8f565b92915050565b60038110611fc3575f5ffd5b50565b5f81359050611fd481611fb7565b92915050565b5f60208284031215611fef57611fee611ca7565b5b5f611ffc84828501611fc6565b91505092915050565b5f5f6040838503121561201b5761201a611ca7565b5b5f61202885828601611f50565b925050602061203985828601611e34565b9150509250929050565b5f60ff82169050919050565b61205881612043565b82525050565b5f6020820190506120715f83018461204f565b92915050565b5f6020828403121561208c5761208b611ca7565b5b5f61209984828501611e34565b91505092915050565b5f5f604083850312156120b8576120b7611ca7565b5b5f6120c585828601611e34565b92505060206120d685828601611e34565b9150509250929050565b7f4e487b71000000000000000000000000000000000000000000000000000000005f52602260045260245ffd5b5f600282049050600182168061212457607f821691505b602082108103612137576121366120e0565b5b50919050565b7f496e73756666696369656e742062616c616e63650000000000000000000000005f82015250565b5f612171601483611d68565b915061217c8261213d565b602082019050919050565b5f6020820190508181035f83015261219e81612165565b9050919050565b7f43616c6c6572206973206e6f742061206d656d626572000000000000000000005f82015250565b5f6121d9601683611d68565b91506121e4826121a5565b602082019050919050565b5f6020820190508181035f830152612206816121cd565b9050919050565b7f4e487b71000000000000000000000000000000000000000000000000000000005f52602160045260245ffd5b7f496e76616c6964206d656d6265727368697020747970650000000000000000005f82015250565b5f61226e601783611d68565b91506122798261223a565b602082019050919050565b5f6020820190508181035f83015261229b81612262565b9050919050565b7f4e487b71000000000000000000000000000000000000000000000000000000005f52601160045260245ffd5b5f6122d982611e48565b91506122e483611e48565b92508282019050808211156122fc576122fb6122a2565b5b92915050565b600381106123135761231261220d565b5b50565b5f81905061232382612302565b919050565b5f61233282612316565b9050919050565b61234281612328565b82525050565b5f60408201905061235b5f830185612339565b6123686020830184611eb9565b9392505050565b5f8160011c9050919050565b5f5f8291508390505b60018511156123c4578086048111156123a05761239f6122a2565b5b60018516156123af5780820291505b80810290506123bd8561236f565b9450612384565b94509492505050565b5f826123dc5760019050612497565b816123e9575f9050612497565b81600181146123ff576002811461240957612438565b6001915050612497565b60ff84111561241b5761241a6122a2565b5b8360020a915084821115612432576124316122a2565b5b50612497565b5060208310610133831016604e8410600b841016171561246d5782820a905083811115612468576124676122a2565b5b612497565b61247a848484600161237b565b92509050818404811115612491576124906122a2565b5b81810290505b9392505050565b5f6124a882611e48565b91506124b383612043565b92506124e07fffffffffffffffffffffffffffffffffffffffffffffffffffffffffffffffff84846123cd565b905092915050565b5f6124f282611e48565b91506124fd83611e48565b925082820261250b81611e48565b91508282048414831517612522576125216122a2565b5b5092915050565b5f61253382611e48565b915061253e83611e48565b9250828203905081811115612556576125556122a2565b5b92915050565b7f5265666572726572206d656d62657273686970206578706972656400000000005f82015250565b5f612590601b83611d68565b915061259b8261255c565b602082019050919050565b5f6020820190508181035f8301526125bd81612584565b9050919050565b7f5061757361626c653a20706175736564000000000000000000000000000000005f82015250565b5f6125f8601083611d68565b9150612603826125c4565b602082019050919050565b5f6020820190508181035f830152612625816125ec565b9050919050565b61263581611e0d565b82525050565b5f60208201905061264e5f83018461262c565b92915050565b5f6060820190506126675f83018661262c565b6126746020830185611eb9565b6126816040830184611eb9565b949350505050565b5f60408201905061269c5f83018561262c565b6126a96020830184611f8f565b9392505050565b7f5061757361626c653a206e6f74207061757365640000000000000000000000005f82015250565b5f6126e4601483611d68565b91506126ef826126b0565b602082019050919050565b5f6020820190508181035f830152612711816126d8565b905091905056fea2646970667358221220efd26e149ae0f01f2e76854dbd775d5708059c092fe3346dbcc79dcf2836b12564736f6c634300081c0033",
					"opcodes": "PUSH1 0x80 PUSH1 0x40 MSTORE CALLVALUE DUP1 ISZERO PUSH2 0xF JUMPI PUSH0 PUSH0 REVERT JUMPDEST POP PUSH1 0x40 MLOAD PUSH2 0x340F CODESIZE SUB DUP1 PUSH2 0x340F DUP4 CODECOPY DUP2 DUP2 ADD PUSH1 0x40 MSTORE DUP2 ADD SWAP1 PUSH2 0x31 SWAP2 SWAP1 PUSH2 0x6A5 JUMP JUMPDEST PUSH1 0x40 MLOAD DUP1 PUSH1 0x40 ADD PUSH1 0x40 MSTORE DUP1 PUSH1 0x8 DUP2 MSTORE PUSH1 0x20 ADD PUSH32 0x47796D546F6B656E000000000000000000000000000000000000000000000000 DUP2 MSTORE POP PUSH1 0x40 MLOAD DUP1 PUSH1 0x40 ADD PUSH1 0x40 MSTORE DUP1 PUSH1 0x3 DUP2 MSTORE PUSH1 0x20 ADD PUSH32 0x47594D0000000000000000000000000000000000000000000000000000000000 DUP2 MSTORE POP DUP2 PUSH1 0x3 SWAP1 DUP2 PUSH2 0xAC SWAP2 SWAP1 PUSH2 0x90D JUMP JUMPDEST POP DUP1 PUSH1 0x4 SWAP1 DUP2 PUSH2 0xBC SWAP2 SWAP1 PUSH2 0x90D JUMP JUMPDEST POP POP POP PUSH0 PUSH1 0x5 PUSH0 PUSH2 0x100 EXP DUP2 SLOAD DUP2 PUSH1 0xFF MUL NOT AND SWAP1 DUP4 ISZERO ISZERO MUL OR SWAP1 SSTORE POP PUSH2 0xEA PUSH0 PUSH0 SHL DUP3 PUSH2 0x248 PUSH1 0x20 SHL PUSH1 0x20 SHR JUMP JUMPDEST POP PUSH2 0x11B PUSH32 0x241ECF16D79D0F8DBFB92CBC07FE17840425976CF0667F022FE9877CAA831B08 DUP3 PUSH2 0x248 PUSH1 0x20 SHL PUSH1 0x20 SHR JUMP JUMPDEST POP PUSH1 0x2 PUSH1 0xA PUSH2 0x12A SWAP2 SWAP1 PUSH2 0xB44 JUMP JUMPDEST PUSH1 0x32 PUSH2 0x136 SWAP2 SWAP1 PUSH2 0xB8E JUMP JUMPDEST PUSH1 0x7 PUSH0 PUSH0 PUSH1 0x2 DUP2 GT ISZERO PUSH2 0x14C JUMPI PUSH2 0x14B PUSH2 0xBCF JUMP JUMPDEST JUMPDEST PUSH1 0x2 DUP2 GT ISZERO PUSH2 0x15E JUMPI PUSH2 0x15D PUSH2 0xBCF JUMP JUMPDEST JUMPDEST DUP2 MSTORE PUSH1 0x20 ADD SWAP1 DUP2 MSTORE PUSH1 0x20 ADD PUSH0 KECCAK256 DUP2 SWAP1 SSTORE POP PUSH1 0x2 PUSH1 0xA PUSH2 0x17D SWAP2 SWAP1 PUSH2 0xB44 JUMP JUMPDEST PUSH1 0x8C PUSH2 0x189 SWAP2 SWAP1 PUSH2 0xB8E JUMP JUMPDEST PUSH1 0x7 PUSH0 PUSH1 0x1 PUSH1 0x2 DUP2 GT ISZERO PUSH2 0x1A0 JUMPI PUSH2 0x19F PUSH2 0xBCF JUMP JUMPDEST JUMPDEST PUSH1 0x2 DUP2 GT ISZERO PUSH2 0x1B2 JUMPI PUSH2 0x1B1 PUSH2 0xBCF JUMP JUMPDEST JUMPDEST DUP2 MSTORE PUSH1 0x20 ADD SWAP1 DUP2 MSTORE PUSH1 0x20 ADD PUSH0 KECCAK256 DUP2 SWAP1 SSTORE POP PUSH1 0x2 PUSH1 0xA PUSH2 0x1D1 SWAP2 SWAP1 PUSH2 0xB44 JUMP JUMPDEST PUSH2 0x1F4 PUSH2 0x1DE SWAP2 SWAP1 PUSH2 0xB8E JUMP JUMPDEST PUSH1 0x7 PUSH0 PUSH1 0x2 DUP1 DUP2 GT ISZERO PUSH2 0x1F4 JUMPI PUSH2 0x1F3 PUSH2 0xBCF JUMP JUMPDEST JUMPDEST PUSH1 0x2 DUP2 GT ISZERO PUSH2 0x206 JUMPI PUSH2 0x205 PUSH2 0xBCF JUMP JUMPDEST JUMPDEST DUP2 MSTORE PUSH1 0x20 ADD SWAP1 DUP2 MSTORE PUSH1 0x20 ADD PUSH0 KECCAK256 DUP2 SWAP1 SSTORE POP PUSH2 0x242 DUP2 PUSH1 0x2 PUSH1 0xA PUSH2 0x229 SWAP2 SWAP1 PUSH2 0xB44 JUMP JUMPDEST PUSH3 0xF4240 PUSH2 0x237 SWAP2 SWAP1 PUSH2 0xB8E JUMP JUMPDEST PUSH2 0x33E PUSH1 0x20 SHL PUSH1 0x20 SHR JUMP JUMPDEST POP PUSH2 0xCB4 JUMP JUMPDEST PUSH0 PUSH2 0x259 DUP4 DUP4 PUSH2 0x3C3 PUSH1 0x20 SHL PUSH1 0x20 SHR JUMP JUMPDEST PUSH2 0x334 JUMPI PUSH1 0x1 PUSH1 0x6 PUSH0 DUP6 DUP2 MSTORE PUSH1 0x20 ADD SWAP1 DUP2 MSTORE PUSH1 0x20 ADD PUSH0 KECCAK256 PUSH0 ADD PUSH0 DUP5 PUSH20 0xFFFFFFFFFFFFFFFFFFFFFFFFFFFFFFFFFFFFFFFF AND PUSH20 0xFFFFFFFFFFFFFFFFFFFFFFFFFFFFFFFFFFFFFFFF AND DUP2 MSTORE PUSH1 0x20 ADD SWAP1 DUP2 MSTORE PUSH1 0x20 ADD PUSH0 KECCAK256 PUSH0 PUSH2 0x100 EXP DUP2 SLOAD DUP2 PUSH1 0xFF MUL NOT AND SWAP1 DUP4 ISZERO ISZERO MUL OR SWAP1 SSTORE POP PUSH2 0x2D1 PUSH2 0x427 PUSH1 0x20 SHL PUSH1 0x20 SHR JUMP JUMPDEST PUSH20 0xFFFFFFFFFFFFFFFFFFFFFFFFFFFFFFFFFFFFFFFF AND DUP3 PUSH20 0xFFFFFFFFFFFFFFFFFFFFFFFFFFFFFFFFFFFFFFFF AND DUP5 PUSH32 0x2F8788117E7EFF1D82E926EC794901D17C78024A50270940304540A733656F0D PUSH1 0x40 MLOAD PUSH1 0x40 MLOAD DUP1 SWAP2 SUB SWAP1 LOG4 PUSH1 0x1 SWAP1 POP PUSH2 0x338 JUMP JUMPDEST PUSH0 SWAP1 POP JUMPDEST SWAP3 SWAP2 POP POP JUMP JUMPDEST PUSH0 PUSH20 0xFFFFFFFFFFFFFFFFFFFFFFFFFFFFFFFFFFFFFFFF AND DUP3 PUSH20 0xFFFFFFFFFFFFFFFFFFFFFFFFFFFFFFFFFFFFFFFF AND SUB PUSH2 0x3AE JUMPI PUSH0 PUSH1 0x40 MLOAD PUSH32 0xEC442F0500000000000000000000000000000000000000000000000000000000 DUP2 MSTORE PUSH1 0x4 ADD PUSH2 0x3A5 SWAP2 SWAP1 PUSH2 0xC0B JUMP JUMPDEST PUSH1 0x40 MLOAD DUP1 SWAP2 SUB SWAP1 REVERT JUMPDEST PUSH2 0x3BF PUSH0 DUP4 DUP4 PUSH2 0x42E PUSH1 0x20 SHL PUSH1 0x20 SHR JUMP JUMPDEST POP POP JUMP JUMPDEST PUSH0 PUSH1 0x6 PUSH0 DUP5 DUP2 MSTORE PUSH1 0x20 ADD SWAP1 DUP2 MSTORE PUSH1 0x20 ADD PUSH0 KECCAK256 PUSH0 ADD PUSH0 DUP4 PUSH20 0xFFFFFFFFFFFFFFFFFFFFFFFFFFFFFFFFFFFFFFFF AND PUSH20 0xFFFFFFFFFFFFFFFFFFFFFFFFFFFFFFFFFFFFFFFF AND DUP2 MSTORE PUSH1 0x20 ADD SWAP1 DUP2 MSTORE PUSH1 0x20 ADD PUSH0 KECCAK256 PUSH0 SWAP1 SLOAD SWAP1 PUSH2 0x100 EXP SWAP1 DIV PUSH1 0xFF AND SWAP1 POP SWAP3 SWAP2 POP POP JUMP JUMPDEST PUSH0 CALLER SWAP1 POP SWAP1 JUMP JUMPDEST PUSH0 PUSH20 0xFFFFFFFFFFFFFFFFFFFFFFFFFFFFFFFFFFFFFFFF AND DUP4 PUSH20 0xFFFFFFFFFFFFFFFFFFFFFFFFFFFFFFFFFFFFFFFF AND SUB PUSH2 0x47E JUMPI DUP1 PUSH1 0x2 PUSH0 DUP3 DUP3 SLOAD PUSH2 0x472 SWAP2 SWAP1 PUSH2 0xC24 JUMP JUMPDEST SWAP3 POP POP DUP2 SWAP1 SSTORE POP PUSH2 0x54C JUMP JUMPDEST PUSH0 PUSH0 PUSH0 DUP6 PUSH20 0xFFFFFFFFFFFFFFFFFFFFFFFFFFFFFFFFFFFFFFFF AND PUSH20 0xFFFFFFFFFFFFFFFFFFFFFFFFFFFFFFFFFFFFFFFF AND DUP2 MSTORE PUSH1 0x20 ADD SWAP1 DUP2 MSTORE PUSH1 0x20 ADD PUSH0 KECCAK256 SLOAD SWAP1 POP DUP2 DUP2 LT ISZERO PUSH2 0x507 JUMPI DUP4 DUP2 DUP4 PUSH1 0x40 MLOAD PUSH32 0xE450D38C00000000000000000000000000000000000000000000000000000000 DUP2 MSTORE PUSH1 0x4 ADD PUSH2 0x4FE SWAP4 SWAP3 SWAP2 SWAP1 PUSH2 0xC66 JUMP JUMPDEST PUSH1 0x40 MLOAD DUP1 SWAP2 SUB SWAP1 REVERT JUMPDEST DUP2 DUP2 SUB PUSH0 PUSH0 DUP7 PUSH20 0xFFFFFFFFFFFFFFFFFFFFFFFFFFFFFFFFFFFFFFFF AND PUSH20 0xFFFFFFFFFFFFFFFFFFFFFFFFFFFFFFFFFFFFFFFF AND DUP2 MSTORE PUSH1 0x20 ADD SWAP1 DUP2 MSTORE PUSH1 0x20 ADD PUSH0 KECCAK256 DUP2 SWAP1 SSTORE POP POP JUMPDEST PUSH0 PUSH20 0xFFFFFFFFFFFFFFFFFFFFFFFFFFFFFFFFFFFFFFFF AND DUP3 PUSH20 0xFFFFFFFFFFFFFFFFFFFFFFFFFFFFFFFFFFFFFFFF AND SUB PUSH2 0x593 JUMPI DUP1 PUSH1 0x2 PUSH0 DUP3 DUP3 SLOAD SUB SWAP3 POP POP DUP2 SWAP1 SSTORE POP PUSH2 0x5DD JUMP JUMPDEST DUP1 PUSH0 PUSH0 DUP5 PUSH20 0xFFFFFFFFFFFFFFFFFFFFFFFFFFFFFFFFFFFFFFFF AND PUSH20 0xFFFFFFFFFFFFFFFFFFFFFFFFFFFFFFFFFFFFFFFF AND DUP2 MSTORE PUSH1 0x20 ADD SWAP1 DUP2 MSTORE PUSH1 0x20 ADD PUSH0 KECCAK256 PUSH0 DUP3 DUP3 SLOAD ADD SWAP3 POP POP DUP2 SWAP1 SSTORE POP JUMPDEST DUP2 PUSH20 0xFFFFFFFFFFFFFFFFFFFFFFFFFFFFFFFFFFFFFFFF AND DUP4 PUSH20 0xFFFFFFFFFFFFFFFFFFFFFFFFFFFFFFFFFFFFFFFF AND PUSH32 0xDDF252AD1BE2C89B69C2B068FC378DAA952BA7F163C4A11628F55A4DF523B3EF DUP4 PUSH1 0x40 MLOAD PUSH2 0x63A SWAP2 SWAP1 PUSH2 0xC9B JUMP JUMPDEST PUSH1 0x40 MLOAD DUP1 SWAP2 SUB SWAP1 LOG3 POP POP POP JUMP JUMPDEST PUSH0 PUSH0 REVERT JUMPDEST PUSH0 PUSH20 0xFFFFFFFFFFFFFFFFFFFFFFFFFFFFFFFFFFFFFFFF DUP3 AND SWAP1 POP SWAP2 SWAP1 POP JUMP JUMPDEST PUSH0 PUSH2 0x674 DUP3 PUSH2 0x64B JUMP JUMPDEST SWAP1 POP SWAP2 SWAP1 POP JUMP JUMPDEST PUSH2 0x684 DUP2 PUSH2 0x66A JUMP JUMPDEST DUP2 EQ PUSH2 0x68E JUMPI PUSH0 PUSH0 REVERT JUMPDEST POP JUMP JUMPDEST PUSH0 DUP2 MLOAD SWAP1 POP PUSH2 0x69F DUP2 PUSH2 0x67B JUMP JUMPDEST SWAP3 SWAP2 POP POP JUMP JUMPDEST PUSH0 PUSH1 0x20 DUP3 DUP5 SUB SLT ISZERO PUSH2 0x6BA JUMPI PUSH2 0x6B9 PUSH2 0x647 JUMP JUMPDEST JUMPDEST PUSH0 PUSH2 0x6C7 DUP5 DUP3 DUP6 ADD PUSH2 0x691 JUMP JUMPDEST SWAP2 POP POP SWAP3 SWAP2 POP POP JUMP JUMPDEST PUSH0 DUP2 MLOAD SWAP1 POP SWAP2 SWAP1 POP JUMP JUMPDEST PUSH32 0x4E487B7100000000000000000000000000000000000000000000000000000000 PUSH0 MSTORE PUSH1 0x41 PUSH1 0x4 MSTORE PUSH1 0x24 PUSH0 REVERT JUMPDEST PUSH32 0x4E487B7100000000000000000000000000000000000000000000000000000000 PUSH0 MSTORE PUSH1 0x22 PUSH1 0x4 MSTORE PUSH1 0x24 PUSH0 REVERT JUMPDEST PUSH0 PUSH1 0x2 DUP3 DIV SWAP1 POP PUSH1 0x1 DUP3 AND DUP1 PUSH2 0x74B JUMPI PUSH1 0x7F DUP3 AND SWAP2 POP JUMPDEST PUSH1 0x20 DUP3 LT DUP2 SUB PUSH2 0x75E JUMPI PUSH2 0x75D PUSH2 0x707 JUMP JUMPDEST JUMPDEST POP SWAP2 SWAP1 POP JUMP JUMPDEST PUSH0 DUP2 SWAP1 POP DUP2 PUSH0 MSTORE PUSH1 0x20 PUSH0 KECCAK256 SWAP1 POP SWAP2 SWAP1 POP JUMP JUMPDEST PUSH0 PUSH1 0x20 PUSH1 0x1F DUP4 ADD DIV SWAP1 POP SWAP2 SWAP1 POP JUMP JUMPDEST PUSH0 DUP3 DUP3 SHL SWAP1 POP SWAP3 SWAP2 POP POP JUMP JUMPDEST PUSH0 PUSH1 0x8 DUP4 MUL PUSH2 0x7C0 PUSH32 0xFFFFFFFFFFFFFFFFFFFFFFFFFFFFFFFFFFFFFFFFFFFFFFFFFFFFFFFFFFFFFFFF DUP3 PUSH2 0x785 JUMP JUMPDEST PUSH2 0x7CA DUP7 DUP4 PUSH2 0x785 JUMP JUMPDEST SWAP6 POP DUP1 NOT DUP5 AND SWAP4 POP DUP1 DUP7 AND DUP5 OR SWAP3 POP POP POP SWAP4 SWAP3 POP POP POP JUMP JUMPDEST PUSH0 DUP2 SWAP1 POP SWAP2 SWAP1 POP JUMP JUMPDEST PUSH0 DUP2 SWAP1 POP SWAP2 SWAP1 POP JUMP JUMPDEST PUSH0 PUSH2 0x80E PUSH2 0x809 PUSH2 0x804 DUP5 PUSH2 0x7E2 JUMP JUMPDEST PUSH2 0x7EB JUMP JUMPDEST PUSH2 0x7E2 JUMP JUMPDEST SWAP1 POP SWAP2 SWAP1 POP JUMP JUMPDEST PUSH0 DUP2 SWAP1 POP SWAP2 SWAP1 POP JUMP JUMPDEST PUSH2 0x827 DUP4 PUSH2 0x7F4 JUMP JUMPDEST PUSH2 0x83B PUSH2 0x833 DUP3 PUSH2 0x815 JUMP JUMPDEST DUP5 DUP5 SLOAD PUSH2 0x791 JUMP JUMPDEST DUP3 SSTORE POP POP POP POP JUMP JUMPDEST PUSH0 PUSH0 SWAP1 POP SWAP1 JUMP JUMPDEST PUSH2 0x852 PUSH2 0x843 JUMP JUMPDEST PUSH2 0x85D DUP2 DUP5 DUP5 PUSH2 0x81E JUMP JUMPDEST POP POP POP JUMP JUMPDEST JUMPDEST DUP2 DUP2 LT ISZERO PUSH2 0x880 JUMPI PUSH2 0x875 PUSH0 DUP3 PUSH2 0x84A JUMP JUMPDEST PUSH1 0x1 DUP2 ADD SWAP1 POP PUSH2 0x863 JUMP JUMPDEST POP POP JUMP JUMPDEST PUSH1 0x1F DUP3 GT ISZERO PUSH2 0x8C5 JUMPI PUSH2 0x896 DUP2 PUSH2 0x764 JUMP JUMPDEST PUSH2 0x89F DUP5 PUSH2 0x776 JUMP JUMPDEST DUP2 ADD PUSH1 0x20 DUP6 LT ISZERO PUSH2 0x8AE JUMPI DUP2 SWAP1 POP JUMPDEST PUSH2 0x8C2 PUSH2 0x8BA DUP6 PUSH2 0x776 JUMP JUMPDEST DUP4 ADD DUP3 PUSH2 0x862 JUMP JUMPDEST POP POP JUMPDEST POP POP POP JUMP JUMPDEST PUSH0 DUP3 DUP3 SHR SWAP1 POP SWAP3 SWAP2 POP POP JUMP JUMPDEST PUSH0 PUSH2 0x8E5 PUSH0 NOT DUP5 PUSH1 0x8 MUL PUSH2 0x8CA JUMP JUMPDEST NOT DUP1 DUP4 AND SWAP2 POP POP SWAP3 SWAP2 POP POP JUMP JUMPDEST PUSH0 PUSH2 0x8FD DUP4 DUP4 PUSH2 0x8D6 JUMP JUMPDEST SWAP2 POP DUP3 PUSH1 0x2 MUL DUP3 OR SWAP1 POP SWAP3 SWAP2 POP POP JUMP JUMPDEST PUSH2 0x916 DUP3 PUSH2 0x6D0 JUMP JUMPDEST PUSH8 0xFFFFFFFFFFFFFFFF DUP2 GT ISZERO PUSH2 0x92F JUMPI PUSH2 0x92E PUSH2 0x6DA JUMP JUMPDEST JUMPDEST PUSH2 0x939 DUP3 SLOAD PUSH2 0x734 JUMP JUMPDEST PUSH2 0x944 DUP3 DUP3 DUP6 PUSH2 0x884 JUMP JUMPDEST PUSH0 PUSH1 0x20 SWAP1 POP PUSH1 0x1F DUP4 GT PUSH1 0x1 DUP2 EQ PUSH2 0x975 JUMPI PUSH0 DUP5 ISZERO PUSH2 0x963 JUMPI DUP3 DUP8 ADD MLOAD SWAP1 POP JUMPDEST PUSH2 0x96D DUP6 DUP3 PUSH2 0x8F2 JUMP JUMPDEST DUP7 SSTORE POP PUSH2 0x9D4 JUMP JUMPDEST PUSH1 0x1F NOT DUP5 AND PUSH2 0x983 DUP7 PUSH2 0x764 JUMP JUMPDEST PUSH0 JUMPDEST DUP3 DUP2 LT ISZERO PUSH2 0x9AA JUMPI DUP5 DUP10 ADD MLOAD DUP3 SSTORE PUSH1 0x1 DUP3 ADD SWAP2 POP PUSH1 0x20 DUP6 ADD SWAP5 POP PUSH1 0x20 DUP2 ADD SWAP1 POP PUSH2 0x985 JUMP JUMPDEST DUP7 DUP4 LT ISZERO PUSH2 0x9C7 JUMPI DUP5 DUP10 ADD MLOAD PUSH2 0x9C3 PUSH1 0x1F DUP10 AND DUP3 PUSH2 0x8D6 JUMP JUMPDEST DUP4 SSTORE POP JUMPDEST PUSH1 0x1 PUSH1 0x2 DUP9 MUL ADD DUP9 SSTORE POP POP POP JUMPDEST POP POP POP POP POP POP JUMP JUMPDEST PUSH32 0x4E487B7100000000000000000000000000000000000000000000000000000000 PUSH0 MSTORE PUSH1 0x11 PUSH1 0x4 MSTORE PUSH1 0x24 PUSH0 REVERT JUMPDEST PUSH0 DUP2 PUSH1 0x1 SHR SWAP1 POP SWAP2 SWAP1 POP JUMP JUMPDEST PUSH0 PUSH0 DUP3 SWAP2 POP DUP4 SWAP1 POP JUMPDEST PUSH1 0x1 DUP6 GT ISZERO PUSH2 0xA5E JUMPI DUP1 DUP7 DIV DUP2 GT ISZERO PUSH2 0xA3A JUMPI PUSH2 0xA39 PUSH2 0x9DC JUMP JUMPDEST JUMPDEST PUSH1 0x1 DUP6 AND ISZERO PUSH2 0xA49 JUMPI DUP1 DUP3 MUL SWAP2 POP JUMPDEST DUP1 DUP2 MUL SWAP1 POP PUSH2 0xA57 DUP6 PUSH2 0xA09 JUMP JUMPDEST SWAP5 POP PUSH2 0xA1E JUMP JUMPDEST SWAP5 POP SWAP5 SWAP3 POP POP POP JUMP JUMPDEST PUSH0 DUP3 PUSH2 0xA76 JUMPI PUSH1 0x1 SWAP1 POP PUSH2 0xB31 JUMP JUMPDEST DUP2 PUSH2 0xA83 JUMPI PUSH0 SWAP1 POP PUSH2 0xB31 JUMP JUMPDEST DUP2 PUSH1 0x1 DUP2 EQ PUSH2 0xA99 JUMPI PUSH1 0x2 DUP2 EQ PUSH2 0xAA3 JUMPI PUSH2 0xAD2 JUMP JUMPDEST PUSH1 0x1 SWAP2 POP POP PUSH2 0xB31 JUMP JUMPDEST PUSH1 0xFF DUP5 GT ISZERO PUSH2 0xAB5 JUMPI PUSH2 0xAB4 PUSH2 0x9DC JUMP JUMPDEST JUMPDEST DUP4 PUSH1 0x2 EXP SWAP2 POP DUP5 DUP3 GT ISZERO PUSH2 0xACC JUMPI PUSH2 0xACB PUSH2 0x9DC JUMP JUMPDEST JUMPDEST POP PUSH2 0xB31 JUMP JUMPDEST POP PUSH1 0x20 DUP4 LT PUSH2 0x133 DUP4 LT AND PUSH1 0x4E DUP5 LT PUSH1 0xB DUP5 LT AND OR ISZERO PUSH2 0xB07 JUMPI DUP3 DUP3 EXP SWAP1 POP DUP4 DUP2 GT ISZERO PUSH2 0xB02 JUMPI PUSH2 0xB01 PUSH2 0x9DC JUMP JUMPDEST JUMPDEST PUSH2 0xB31 JUMP JUMPDEST PUSH2 0xB14 DUP5 DUP5 DUP5 PUSH1 0x1 PUSH2 0xA15 JUMP JUMPDEST SWAP3 POP SWAP1 POP DUP2 DUP5 DIV DUP2 GT ISZERO PUSH2 0xB2B JUMPI PUSH2 0xB2A PUSH2 0x9DC JUMP JUMPDEST JUMPDEST DUP2 DUP2 MUL SWAP1 POP JUMPDEST SWAP4 SWAP3 POP POP POP JUMP JUMPDEST PUSH0 PUSH1 0xFF DUP3 AND SWAP1 POP SWAP2 SWAP1 POP JUMP JUMPDEST PUSH0 PUSH2 0xB4E DUP3 PUSH2 0x7E2 JUMP JUMPDEST SWAP2 POP PUSH2 0xB59 DUP4 PUSH2 0xB38 JUMP JUMPDEST SWAP3 POP PUSH2 0xB86 PUSH32 0xFFFFFFFFFFFFFFFFFFFFFFFFFFFFFFFFFFFFFFFFFFFFFFFFFFFFFFFFFFFFFFFF DUP5 DUP5 PUSH2 0xA67 JUMP JUMPDEST SWAP1 POP SWAP3 SWAP2 POP POP JUMP JUMPDEST PUSH0 PUSH2 0xB98 DUP3 PUSH2 0x7E2 JUMP JUMPDEST SWAP2 POP PUSH2 0xBA3 DUP4 PUSH2 0x7E2 JUMP JUMPDEST SWAP3 POP DUP3 DUP3 MUL PUSH2 0xBB1 DUP2 PUSH2 0x7E2 JUMP JUMPDEST SWAP2 POP DUP3 DUP3 DIV DUP5 EQ DUP4 ISZERO OR PUSH2 0xBC8 JUMPI PUSH2 0xBC7 PUSH2 0x9DC JUMP JUMPDEST JUMPDEST POP SWAP3 SWAP2 POP POP JUMP JUMPDEST PUSH32 0x4E487B7100000000000000000000000000000000000000000000000000000000 PUSH0 MSTORE PUSH1 0x21 PUSH1 0x4 MSTORE PUSH1 0x24 PUSH0 REVERT JUMPDEST PUSH2 0xC05 DUP2 PUSH2 0x66A JUMP JUMPDEST DUP3 MSTORE POP POP JUMP JUMPDEST PUSH0 PUSH1 0x20 DUP3 ADD SWAP1 POP PUSH2 0xC1E PUSH0 DUP4 ADD DUP5 PUSH2 0xBFC JUMP JUMPDEST SWAP3 SWAP2 POP POP JUMP JUMPDEST PUSH0 PUSH2 0xC2E DUP3 PUSH2 0x7E2 JUMP JUMPDEST SWAP2 POP PUSH2 0xC39 DUP4 PUSH2 0x7E2 JUMP JUMPDEST SWAP3 POP DUP3 DUP3 ADD SWAP1 POP DUP1 DUP3 GT ISZERO PUSH2 0xC51 JUMPI PUSH2 0xC50 PUSH2 0x9DC JUMP JUMPDEST JUMPDEST SWAP3 SWAP2 POP POP JUMP JUMPDEST PUSH2 0xC60 DUP2 PUSH2 0x7E2 JUMP JUMPDEST DUP3 MSTORE POP POP JUMP JUMPDEST PUSH0 PUSH1 0x60 DUP3 ADD SWAP1 POP PUSH2 0xC79 PUSH0 DUP4 ADD DUP7 PUSH2 0xBFC JUMP JUMPDEST PUSH2 0xC86 PUSH1 0x20 DUP4 ADD DUP6 PUSH2 0xC57 JUMP JUMPDEST PUSH2 0xC93 PUSH1 0x40 DUP4 ADD DUP5 PUSH2 0xC57 JUMP JUMPDEST SWAP5 SWAP4 POP POP POP POP JUMP JUMPDEST PUSH0 PUSH1 0x20 DUP3 ADD SWAP1 POP PUSH2 0xCAE PUSH0 DUP4 ADD DUP5 PUSH2 0xC57 JUMP JUMPDEST SWAP3 SWAP2 POP POP JUMP JUMPDEST PUSH2 0x274E DUP1 PUSH2 0xCC1 PUSH0 CODECOPY PUSH0 RETURN INVALID PUSH1 0x80 PUSH1 0x40 MSTORE CALLVALUE DUP1 ISZERO PUSH2 0xF JUMPI PUSH0 PUSH0 REVERT JUMPDEST POP PUSH1 0x4 CALLDATASIZE LT PUSH2 0x1F9 JUMPI PUSH0 CALLDATALOAD PUSH1 0xE0 SHR DUP1 PUSH4 0x76809CE3 GT PUSH2 0x118 JUMPI DUP1 PUSH4 0xA217FDDF GT PUSH2 0xAB JUMPI DUP1 PUSH4 0xB4694876 GT PUSH2 0x7A JUMPI DUP1 PUSH4 0xB4694876 EQ PUSH2 0x5B5 JUMPI DUP1 PUSH4 0xD547741F EQ PUSH2 0x5E5 JUMPI DUP1 PUSH4 0xDD62ED3E EQ PUSH2 0x601 JUMPI DUP1 PUSH4 0xEA4BBAF4 EQ PUSH2 0x631 JUMPI DUP1 PUSH4 0xEC87621C EQ PUSH2 0x661 JUMPI PUSH2 0x1F9 JUMP JUMPDEST DUP1 PUSH4 0xA217FDDF EQ PUSH2 0x52D JUMPI DUP1 PUSH4 0xA61B93CC EQ PUSH2 0x54B JUMPI DUP1 PUSH4 0xA683DFAB EQ PUSH2 0x569 JUMPI DUP1 PUSH4 0xA9059CBB EQ PUSH2 0x585 JUMPI PUSH2 0x1F9 JUMP JUMPDEST DUP1 PUSH4 0x8621026A GT PUSH2 0xE7 JUMPI DUP1 PUSH4 0x8621026A EQ PUSH2 0x491 JUMPI DUP1 PUSH4 0x91D14854 EQ PUSH2 0x4C1 JUMPI DUP1 PUSH4 0x95D89B41 EQ PUSH2 0x4F1 JUMPI DUP1 PUSH4 0xA10F469E EQ PUSH2 0x50F JUMPI PUSH2 0x1F9 JUMP JUMPDEST DUP1 PUSH4 0x76809CE3 EQ PUSH2 0x42D JUMPI DUP1 PUSH4 0x8456CB59 EQ PUSH2 0x44B JUMPI DUP1 PUSH4 0x84A3A0F3 EQ PUSH2 0x455 JUMPI DUP1 PUSH4 0x85290FA1 EQ PUSH2 0x473 JUMPI PUSH2 0x1F9 JUMP JUMPDEST DUP1 PUSH4 0x2F2FF15D GT PUSH2 0x190 JUMPI DUP1 PUSH4 0x3F4BA83A GT PUSH2 0x15F JUMPI DUP1 PUSH4 0x3F4BA83A EQ PUSH2 0x3A5 JUMPI DUP1 PUSH4 0x4B6E2331 EQ PUSH2 0x3AF JUMPI DUP1 PUSH4 0x5C975ABB EQ PUSH2 0x3DF JUMPI DUP1 PUSH4 0x70A08231 EQ PUSH2 0x3FD JUMPI PUSH2 0x1F9 JUMP JUMPDEST DUP1 PUSH4 0x2F2FF15D EQ PUSH2 0x331 JUMPI DUP1 PUSH4 0x2FF2E9DC EQ PUSH2 0x34D JUMPI DUP1 PUSH4 0x313CE567 EQ PUSH2 0x36B JUMPI DUP1 PUSH4 0x36568ABE EQ PUSH2 0x389 JUMPI PUSH2 0x1F9 JUMP JUMPDEST DUP1 PUSH4 0x18160DDD GT PUSH2 0x1CC JUMPI DUP1 PUSH4 0x18160DDD EQ PUSH2 0x297 JUMPI DUP1 PUSH4 0x23B872DD EQ PUSH2 0x2B5 JUMPI DUP1 PUSH4 0x248A9CA3 EQ PUSH2 0x2E5 JUMPI DUP1 PUSH4 0x265A5EEA EQ PUSH2 0x315 JUMPI PUSH2 0x1F9 JUMP JUMPDEST DUP1 PUSH4 0x1FFC9A7 EQ PUSH2 0x1FD JUMPI DUP1 PUSH4 0x6FDDE03 EQ PUSH2 0x22D JUMPI DUP1 PUSH4 0x95EA7B3 EQ PUSH2 0x24B JUMPI DUP1 PUSH4 0xCA2A400 EQ PUSH2 0x27B JUMPI JUMPDEST PUSH0 PUSH0 REVERT JUMPDEST PUSH2 0x217 PUSH1 0x4 DUP1 CALLDATASIZE SUB DUP2 ADD SWAP1 PUSH2 0x212 SWAP2 SWAP1 PUSH2 0x1D00 JUMP JUMPDEST PUSH2 0x67F JUMP JUMPDEST PUSH1 0x40 MLOAD PUSH2 0x224 SWAP2 SWAP1 PUSH2 0x1D45 JUMP JUMPDEST PUSH1 0x40 MLOAD DUP1 SWAP2 SUB SWAP1 RETURN JUMPDEST PUSH2 0x235 PUSH2 0x6F8 JUMP JUMPDEST PUSH1 0x40 MLOAD PUSH2 0x242 SWAP2 SWAP1 PUSH2 0x1DCE JUMP JUMPDEST PUSH1 0x40 MLOAD DUP1 SWAP2 SUB SWAP1 RETURN JUMPDEST PUSH2 0x265 PUSH1 0x4 DUP1 CALLDATASIZE SUB DUP2 ADD SWAP1 PUSH2 0x260 SWAP2 SWAP1 PUSH2 0x1E7B JUMP JUMPDEST PUSH2 0x788 JUMP JUMPDEST PUSH1 0x40 MLOAD PUSH2 0x272 SWAP2 SWAP1 PUSH2 0x1D45 JUMP JUMPDEST PUSH1 0x40 MLOAD DUP1 SWAP2 SUB SWAP1 RETURN JUMPDEST PUSH2 0x295 PUSH1 0x4 DUP1 CALLDATASIZE SUB DUP2 ADD SWAP1 PUSH2 0x290 SWAP2 SWAP1 PUSH2 0x1E7B JUMP JUMPDEST PUSH2 0x7AA JUMP JUMPDEST STOP JUMPDEST PUSH2 0x29F PUSH2 0x837 JUMP JUMPDEST PUSH1 0x40 MLOAD PUSH2 0x2AC SWAP2 SWAP1 PUSH2 0x1EC8 JUMP JUMPDEST PUSH1 0x40 MLOAD DUP1 SWAP2 SUB SWAP1 RETURN JUMPDEST PUSH2 0x2CF PUSH1 0x4 DUP1 CALLDATASIZE SUB DUP2 ADD SWAP1 PUSH2 0x2CA SWAP2 SWAP1 PUSH2 0x1EE1 JUMP JUMPDEST PUSH2 0x840 JUMP JUMPDEST PUSH1 0x40 MLOAD PUSH2 0x2DC SWAP2 SWAP1 PUSH2 0x1D45 JUMP JUMPDEST PUSH1 0x40 MLOAD DUP1 SWAP2 SUB SWAP1 RETURN JUMPDEST PUSH2 0x2FF PUSH1 0x4 DUP1 CALLDATASIZE SUB DUP2 ADD SWAP1 PUSH2 0x2FA SWAP2 SWAP1 PUSH2 0x1F64 JUMP JUMPDEST PUSH2 0x86E JUMP JUMPDEST PUSH1 0x40 MLOAD PUSH2 0x30C SWAP2 SWAP1 PUSH2 0x1F9E JUMP JUMPDEST PUSH1 0x40 MLOAD DUP1 SWAP2 SUB SWAP1 RETURN JUMPDEST PUSH2 0x32F PUSH1 0x4 DUP1 CALLDATASIZE SUB DUP2 ADD SWAP1 PUSH2 0x32A SWAP2 SWAP1 PUSH2 0x1FDA JUMP JUMPDEST PUSH2 0x88B JUMP JUMPDEST STOP JUMPDEST PUSH2 0x34B PUSH1 0x4 DUP1 CALLDATASIZE SUB DUP2 ADD SWAP1 PUSH2 0x346 SWAP2 SWAP1 PUSH2 0x2005 JUMP JUMPDEST PUSH2 0xBAC JUMP JUMPDEST STOP JUMPDEST PUSH2 0x355 PUSH2 0xBCE JUMP JUMPDEST PUSH1 0x40 MLOAD PUSH2 0x362 SWAP2 SWAP1 PUSH2 0x1EC8 JUMP JUMPDEST PUSH1 0x40 MLOAD DUP1 SWAP2 SUB SWAP1 RETURN JUMPDEST PUSH2 0x373 PUSH2 0xBED JUMP JUMPDEST PUSH1 0x40 MLOAD PUSH2 0x380 SWAP2 SWAP1 PUSH2 0x205E JUMP JUMPDEST PUSH1 0x40 MLOAD DUP1 SWAP2 SUB SWAP1 RETURN JUMPDEST PUSH2 0x3A3 PUSH1 0x4 DUP1 CALLDATASIZE SUB DUP2 ADD SWAP1 PUSH2 0x39E SWAP2 SWAP1 PUSH2 0x2005 JUMP JUMPDEST PUSH2 0xBF5 JUMP JUMPDEST STOP JUMPDEST PUSH2 0x3AD PUSH2 0xC70 JUMP JUMPDEST STOP JUMPDEST PUSH2 0x3C9 PUSH1 0x4 DUP1 CALLDATASIZE SUB DUP2 ADD SWAP1 PUSH2 0x3C4 SWAP2 SWAP1 PUSH2 0x1FDA JUMP JUMPDEST PUSH2 0xCA5 JUMP JUMPDEST PUSH1 0x40 MLOAD PUSH2 0x3D6 SWAP2 SWAP1 PUSH2 0x1EC8 JUMP JUMPDEST PUSH1 0x40 MLOAD DUP1 SWAP2 SUB SWAP1 RETURN JUMPDEST PUSH2 0x3E7 PUSH2 0xCBA JUMP JUMPDEST PUSH1 0x40 MLOAD PUSH2 0x3F4 SWAP2 SWAP1 PUSH2 0x1D45 JUMP JUMPDEST PUSH1 0x40 MLOAD DUP1 SWAP2 SUB SWAP1 RETURN JUMPDEST PUSH2 0x417 PUSH1 0x4 DUP1 CALLDATASIZE SUB DUP2 ADD SWAP1 PUSH2 0x412 SWAP2 SWAP1 PUSH2 0x2077 JUMP JUMPDEST PUSH2 0xCCF JUMP JUMPDEST PUSH1 0x40 MLOAD PUSH2 0x424 SWAP2 SWAP1 PUSH2 0x1EC8 JUMP JUMPDEST PUSH1 0x40 MLOAD DUP1 SWAP2 SUB SWAP1 RETURN JUMPDEST PUSH2 0x435 PUSH2 0xD14 JUMP JUMPDEST PUSH1 0x40 MLOAD PUSH2 0x442 SWAP2 SWAP1 PUSH2 0x205E JUMP JUMPDEST PUSH1 0x40 MLOAD DUP1 SWAP2 SUB SWAP1 RETURN JUMPDEST PUSH2 0x453 PUSH2 0xD19 JUMP JUMPDEST STOP JUMPDEST PUSH2 0x45D PUSH2 0xD4E JUMP JUMPDEST PUSH1 0x40 MLOAD PUSH2 0x46A SWAP2 SWAP1 PUSH2 0x1EC8 JUMP JUMPDEST PUSH1 0x40 MLOAD DUP1 SWAP2 SUB SWAP1 RETURN JUMPDEST PUSH2 0x47B PUSH2 0xD6B JUMP JUMPDEST PUSH1 0x40 MLOAD PUSH2 0x488 SWAP2 SWAP1 PUSH2 0x1F9E JUMP JUMPDEST PUSH1 0x40 MLOAD DUP1 SWAP2 SUB SWAP1 RETURN JUMPDEST PUSH2 0x4AB PUSH1 0x4 DUP1 CALLDATASIZE SUB DUP2 ADD SWAP1 PUSH2 0x4A6 SWAP2 SWAP1 PUSH2 0x2077 JUMP JUMPDEST PUSH2 0xD8F JUMP JUMPDEST PUSH1 0x40 MLOAD PUSH2 0x4B8 SWAP2 SWAP1 PUSH2 0x1EC8 JUMP JUMPDEST PUSH1 0x40 MLOAD DUP1 SWAP2 SUB SWAP1 RETURN JUMPDEST PUSH2 0x4DB PUSH1 0x4 DUP1 CALLDATASIZE SUB DUP2 ADD SWAP1 PUSH2 0x4D6 SWAP2 SWAP1 PUSH2 0x2005 JUMP JUMPDEST PUSH2 0xE2D JUMP JUMPDEST PUSH1 0x40 MLOAD PUSH2 0x4E8 SWAP2 SWAP1 PUSH2 0x1D45 JUMP JUMPDEST PUSH1 0x40 MLOAD DUP1 SWAP2 SUB SWAP1 RETURN JUMPDEST PUSH2 0x4F9 PUSH2 0xE91 JUMP JUMPDEST PUSH1 0x40 MLOAD PUSH2 0x506 SWAP2 SWAP1 PUSH2 0x1DCE JUMP JUMPDEST PUSH1 0x40 MLOAD DUP1 SWAP2 SUB SWAP1 RETURN JUMPDEST PUSH2 0x517 PUSH2 0xF21 JUMP JUMPDEST PUSH1 0x40 MLOAD PUSH2 0x524 SWAP2 SWAP1 PUSH2 0x1F9E JUMP JUMPDEST PUSH1 0x40 MLOAD DUP1 SWAP2 SUB SWAP1 RETURN JUMPDEST PUSH2 0x535 PUSH2 0xF45 JUMP JUMPDEST PUSH1 0x40 MLOAD PUSH2 0x542 SWAP2 SWAP1 PUSH2 0x1F9E JUMP JUMPDEST PUSH1 0x40 MLOAD DUP1 SWAP2 SUB SWAP1 RETURN JUMPDEST PUSH2 0x553 PUSH2 0xF4B JUMP JUMPDEST PUSH1 0x40 MLOAD PUSH2 0x560 SWAP2 SWAP1 PUSH2 0x1F9E JUMP JUMPDEST PUSH1 0x40 MLOAD DUP1 SWAP2 SUB SWAP1 RETURN JUMPDEST PUSH2 0x583 PUSH1 0x4 DUP1 CALLDATASIZE SUB DUP2 ADD SWAP1 PUSH2 0x57E SWAP2 SWAP1 PUSH2 0x2077 JUMP JUMPDEST PUSH2 0xF6F JUMP JUMPDEST STOP JUMPDEST PUSH2 0x59F PUSH1 0x4 DUP1 CALLDATASIZE SUB DUP2 ADD SWAP1 PUSH2 0x59A SWAP2 SWAP1 PUSH2 0x1E7B JUMP JUMPDEST PUSH2 0x111A JUMP JUMPDEST PUSH1 0x40 MLOAD PUSH2 0x5AC SWAP2 SWAP1 PUSH2 0x1D45 JUMP JUMPDEST PUSH1 0x40 MLOAD DUP1 SWAP2 SUB SWAP1 RETURN JUMPDEST PUSH2 0x5CF PUSH1 0x4 DUP1 CALLDATASIZE SUB DUP2 ADD SWAP1 PUSH2 0x5CA SWAP2 SWAP1 PUSH2 0x2077 JUMP JUMPDEST PUSH2 0x113C JUMP JUMPDEST PUSH1 0x40 MLOAD PUSH2 0x5DC SWAP2 SWAP1 PUSH2 0x1EC8 JUMP JUMPDEST PUSH1 0x40 MLOAD DUP1 SWAP2 SUB SWAP1 RETURN JUMPDEST PUSH2 0x5FF PUSH1 0x4 DUP1 CALLDATASIZE SUB DUP2 ADD SWAP1 PUSH2 0x5FA SWAP2 SWAP1 PUSH2 0x2005 JUMP JUMPDEST PUSH2 0x1151 JUMP JUMPDEST STOP JUMPDEST PUSH2 0x61B PUSH1 0x4 DUP1 CALLDATASIZE SUB DUP2 ADD SWAP1 PUSH2 0x616 SWAP2 SWAP1 PUSH2 0x20A2 JUMP JUMPDEST PUSH2 0x1173 JUMP JUMPDEST PUSH1 0x40 MLOAD PUSH2 0x628 SWAP2 SWAP1 PUSH2 0x1EC8 JUMP JUMPDEST PUSH1 0x40 MLOAD DUP1 SWAP2 SUB SWAP1 RETURN JUMPDEST PUSH2 0x64B PUSH1 0x4 DUP1 CALLDATASIZE SUB DUP2 ADD SWAP1 PUSH2 0x646 SWAP2 SWAP1 PUSH2 0x2077 JUMP JUMPDEST PUSH2 0x11F5 JUMP JUMPDEST PUSH1 0x40 MLOAD PUSH2 0x658 SWAP2 SWAP1 PUSH2 0x1EC8 JUMP JUMPDEST PUSH1 0x40 MLOAD DUP1 SWAP2 SUB SWAP1 RETURN JUMPDEST PUSH2 0x669 PUSH2 0x120A JUMP JUMPDEST PUSH1 0x40 MLOAD PUSH2 0x676 SWAP2 SWAP1 PUSH2 0x1F9E JUMP JUMPDEST PUSH1 0x40 MLOAD DUP1 SWAP2 SUB SWAP1 RETURN JUMPDEST PUSH0 PUSH32 0x7965DB0B00000000000000000000000000000000000000000000000000000000 PUSH28 0xFFFFFFFFFFFFFFFFFFFFFFFFFFFFFFFFFFFFFFFFFFFFFFFFFFFFFFFF NOT AND DUP3 PUSH28 0xFFFFFFFFFFFFFFFFFFFFFFFFFFFFFFFFFFFFFFFFFFFFFFFFFFFFFFFF NOT AND EQ DUP1 PUSH2 0x6F1 JUMPI POP PUSH2 0x6F0 DUP3 PUSH2 0x122E JUMP JUMPDEST JUMPDEST SWAP1 POP SWAP2 SWAP1 POP JUMP JUMPDEST PUSH1 0x60 PUSH1 0x3 DUP1 SLOAD PUSH2 0x707 SWAP1 PUSH2 0x210D JUMP JUMPDEST DUP1 PUSH1 0x1F ADD PUSH1 0x20 DUP1 SWAP2 DIV MUL PUSH1 0x20 ADD PUSH1 0x40 MLOAD SWAP1 DUP2 ADD PUSH1 0x40 MSTORE DUP1 SWAP3 SWAP2 SWAP1 DUP2 DUP2 MSTORE PUSH1 0x20 ADD DUP3 DUP1 SLOAD PUSH2 0x733 SWAP1 PUSH2 0x210D JUMP JUMPDEST DUP1 ISZERO PUSH2 0x77E JUMPI DUP1 PUSH1 0x1F LT PUSH2 0x755 JUMPI PUSH2 0x100 DUP1 DUP4 SLOAD DIV MUL DUP4 MSTORE SWAP2 PUSH1 0x20 ADD SWAP2 PUSH2 0x77E JUMP JUMPDEST DUP3 ADD SWAP2 SWAP1 PUSH0 MSTORE PUSH1 0x20 PUSH0 KECCAK256 SWAP1 JUMPDEST DUP2 SLOAD DUP2 MSTORE SWAP1 PUSH1 0x1 ADD SWAP1 PUSH1 0x20 ADD DUP1 DUP4 GT PUSH2 0x761 JUMPI DUP3 SWAP1 SUB PUSH1 0x1F AND DUP3 ADD SWAP2 JUMPDEST POP POP POP POP POP SWAP1 POP SWAP1 JUMP JUMPDEST PUSH0 PUSH0 PUSH2 0x792 PUSH2 0x1297 JUMP JUMPDEST SWAP1 POP PUSH2 0x79F DUP2 DUP6 DUP6 PUSH2 0x129E JUMP JUMPDEST PUSH1 0x1 SWAP2 POP POP SWAP3 SWAP2 POP POP JUMP JUMPDEST PUSH2 0x7B2 PUSH2 0x12B0 JUMP JUMPDEST PUSH32 0x241ECF16D79D0F8DBFB92CBC07FE17840425976CF0667F022FE9877CAA831B08 PUSH2 0x7DC DUP2 PUSH2 0x12FA JUMP JUMPDEST DUP2 PUSH2 0x7E6 CALLER PUSH2 0xCCF JUMP JUMPDEST LT ISZERO PUSH2 0x827 JUMPI PUSH1 0x40 MLOAD PUSH32 0x8C379A000000000000000000000000000000000000000000000000000000000 DUP2 MSTORE PUSH1 0x4 ADD PUSH2 0x81E SWAP1 PUSH2 0x2187 JUMP JUMPDEST PUSH1 0x40 MLOAD DUP1 SWAP2 SUB SWAP1 REVERT JUMPDEST PUSH2 0x832 CALLER DUP5 DUP5 PUSH2 0x130E JUMP JUMPDEST POP POP POP JUMP JUMPDEST PUSH0 PUSH1 0x2 SLOAD SWAP1 POP SWAP1 JUMP JUMPDEST PUSH0 PUSH0 PUSH2 0x84A PUSH2 0x1297 JUMP JUMPDEST SWAP1 POP PUSH2 0x857 DUP6 DUP3 DUP6 PUSH2 0x13FE JUMP JUMPDEST PUSH2 0x862 DUP6 DUP6 DUP6 PUSH2 0x130E JUMP JUMPDEST PUSH1 0x1 SWAP2 POP POP SWAP4 SWAP3 POP POP POP JUMP JUMPDEST PUSH0 PUSH1 0x6 PUSH0 DUP4 DUP2 MSTORE PUSH1 0x20 ADD SWAP1 DUP2 MSTORE PUSH1 0x20 ADD PUSH0 KECCAK256 PUSH1 0x1 ADD SLOAD SWAP1 POP SWAP2 SWAP1 POP JUMP JUMPDEST PUSH2 0x893 PUSH2 0x12B0 JUMP JUMPDEST PUSH2 0x8BD PUSH32 0x829B824E2329E205435D941C9F13BAF578548505283D29261236D8E6596D4636 CALLER PUSH2 0xE2D JUMP JUMPDEST PUSH2 0x8FC JUMPI PUSH1 0x40 MLOAD PUSH32 0x8C379A000000000000000000000000000000000000000000000000000000000 DUP2 MSTORE PUSH1 0x4 ADD PUSH2 0x8F3 SWAP1 PUSH2 0x21EF JUMP JUMPDEST PUSH1 0x40 MLOAD DUP1 SWAP2 SUB SWAP1 REVERT JUMPDEST PUSH0 PUSH1 0x7 PUSH0 DUP4 PUSH1 0x2 DUP2 GT ISZERO PUSH2 0x913 JUMPI PUSH2 0x912 PUSH2 0x220D JUMP JUMPDEST JUMPDEST PUSH1 0x2 DUP2 GT ISZERO PUSH2 0x925 JUMPI PUSH2 0x924 PUSH2 0x220D JUMP JUMPDEST JUMPDEST DUP2 MSTORE PUSH1 0x20 ADD SWAP1 DUP2 MSTORE PUSH1 0x20 ADD PUSH0 KECCAK256 SLOAD SWAP1 POP DUP1 PUSH2 0x93F CALLER PUSH2 0xCCF JUMP JUMPDEST LT ISZERO PUSH2 0x980 JUMPI PUSH1 0x40 MLOAD PUSH32 0x8C379A000000000000000000000000000000000000000000000000000000000 DUP2 MSTORE PUSH1 0x4 ADD PUSH2 0x977 SWAP1 PUSH2 0x2187 JUMP JUMPDEST PUSH1 0x40 MLOAD DUP1 SWAP2 SUB SWAP1 REVERT JUMPDEST PUSH2 0x98A CALLER DUP3 PUSH2 0x1490 JUMP JUMPDEST PUSH0 PUSH0 PUSH1 0x2 DUP2 GT ISZERO PUSH2 0x99E JUMPI PUSH2 0x99D PUSH2 0x220D JUMP JUMPDEST JUMPDEST DUP4 PUSH1 0x2 DUP2 GT ISZERO PUSH2 0x9B1 JUMPI PUSH2 0x9B0 PUSH2 0x220D JUMP JUMPDEST JUMPDEST SUB PUSH2 0x9C1 JUMPI PUSH3 0x278D00 SWAP1 POP PUSH2 0xA6C JUMP JUMPDEST PUSH1 0x1 PUSH1 0x2 DUP2 GT ISZERO PUSH2 0x9D5 JUMPI PUSH2 0x9D4 PUSH2 0x220D JUMP JUMPDEST JUMPDEST DUP4 PUSH1 0x2 DUP2 GT ISZERO PUSH2 0x9E8 JUMPI PUSH2 0x9E7 PUSH2 0x220D JUMP JUMPDEST JUMPDEST SUB PUSH2 0x9F8 JUMPI PUSH3 0x76A700 SWAP1 POP PUSH2 0xA6B JUMP JUMPDEST PUSH1 0x2 DUP1 DUP2 GT ISZERO PUSH2 0xA0B JUMPI PUSH2 0xA0A PUSH2 0x220D JUMP JUMPDEST JUMPDEST DUP4 PUSH1 0x2 DUP2 GT ISZERO PUSH2 0xA1E JUMPI PUSH2 0xA1D PUSH2 0x220D JUMP JUMPDEST JUMPDEST SUB PUSH2 0xA2F JUMPI PUSH4 0x1E13380 SWAP1 POP PUSH2 0xA6A JUMP JUMPDEST PUSH1 0x40 MLOAD PUSH32 0x8C379A000000000000000000000000000000000000000000000000000000000 DUP2 MSTORE PUSH1 0x4 ADD PUSH2 0xA61 SWAP1 PUSH2 0x2284 JUMP JUMPDEST PUSH1 0x40 MLOAD DUP1 SWAP2 SUB SWAP1 REVERT JUMPDEST JUMPDEST JUMPDEST PUSH1 0x8 PUSH0 CALLER PUSH20 0xFFFFFFFFFFFFFFFFFFFFFFFFFFFFFFFFFFFFFFFF AND PUSH20 0xFFFFFFFFFFFFFFFFFFFFFFFFFFFFFFFFFFFFFFFF AND DUP2 MSTORE PUSH1 0x20 ADD SWAP1 DUP2 MSTORE PUSH1 0x20 ADD PUSH0 KECCAK256 SLOAD TIMESTAMP LT ISZERO PUSH2 0xB09 JUMPI DUP1 PUSH1 0x8 PUSH0 CALLER PUSH20 0xFFFFFFFFFFFFFFFFFFFFFFFFFFFFFFFFFFFFFFFF AND PUSH20 0xFFFFFFFFFFFFFFFFFFFFFFFFFFFFFFFFFFFFFFFF AND DUP2 MSTORE PUSH1 0x20 ADD SWAP1 DUP2 MSTORE PUSH1 0x20 ADD PUSH0 KECCAK256 PUSH0 DUP3 DUP3 SLOAD PUSH2 0xAFD SWAP2 SWAP1 PUSH2 0x22CF JUMP JUMPDEST SWAP3 POP POP DUP2 SWAP1 SSTORE POP PUSH2 0xB57 JUMP JUMPDEST DUP1 TIMESTAMP PUSH2 0xB15 SWAP2 SWAP1 PUSH2 0x22CF JUMP JUMPDEST PUSH1 0x8 PUSH0 CALLER PUSH20 0xFFFFFFFFFFFFFFFFFFFFFFFFFFFFFFFFFFFFFFFF AND PUSH20 0xFFFFFFFFFFFFFFFFFFFFFFFFFFFFFFFFFFFFFFFF AND DUP2 MSTORE PUSH1 0x20 ADD SWAP1 DUP2 MSTORE PUSH1 0x20 ADD PUSH0 KECCAK256 DUP2 SWAP1 SSTORE POP JUMPDEST CALLER PUSH20 0xFFFFFFFFFFFFFFFFFFFFFFFFFFFFFFFFFFFFFFFF AND PUSH32 0xE2C5B6420B508A46B55A5CB55C7340A67492866D4F51461EE443958079FE8357 DUP5 DUP4 PUSH1 0x40 MLOAD PUSH2 0xB9F SWAP3 SWAP2 SWAP1 PUSH2 0x2348 JUMP JUMPDEST PUSH1 0x40 MLOAD DUP1 SWAP2 SUB SWAP1 LOG2 POP POP POP JUMP JUMPDEST PUSH2 0xBB5 DUP3 PUSH2 0x86E JUMP JUMPDEST PUSH2 0xBBE DUP2 PUSH2 0x12FA JUMP JUMPDEST PUSH2 0xBC8 DUP4 DUP4 PUSH2 0x150F JUMP JUMPDEST POP POP POP POP JUMP JUMPDEST PUSH1 0x2 PUSH1 0xA PUSH2 0xBDC SWAP2 SWAP1 PUSH2 0x249E JUMP JUMPDEST PUSH3 0xF4240 PUSH2 0xBEA SWAP2 SWAP1 PUSH2 0x24E8 JUMP JUMPDEST DUP2 JUMP JUMPDEST PUSH0 PUSH1 0x12 SWAP1 POP SWAP1 JUMP JUMPDEST PUSH2 0xBFD PUSH2 0x1297 JUMP JUMPDEST PUSH20 0xFFFFFFFFFFFFFFFFFFFFFFFFFFFFFFFFFFFFFFFF AND DUP2 PUSH20 0xFFFFFFFFFFFFFFFFFFFFFFFFFFFFFFFFFFFFFFFF AND EQ PUSH2 0xC61 JUMPI PUSH1 0x40 MLOAD PUSH32 0x6697B23200000000000000000000000000000000000000000000000000000000 DUP2 MSTORE PUSH1 0x4 ADD PUSH1 0x40 MLOAD DUP1 SWAP2 SUB SWAP1 REVERT JUMPDEST PUSH2 0xC6B DUP3 DUP3 PUSH2 0x15F9 JUMP JUMPDEST POP POP POP JUMP JUMPDEST PUSH32 0x241ECF16D79D0F8DBFB92CBC07FE17840425976CF0667F022FE9877CAA831B08 PUSH2 0xC9A DUP2 PUSH2 0x12FA JUMP JUMPDEST PUSH2 0xCA2 PUSH2 0x16E3 JUMP JUMPDEST POP JUMP JUMPDEST PUSH1 0x7 PUSH1 0x20 MSTORE DUP1 PUSH0 MSTORE PUSH1 0x40 PUSH0 KECCAK256 PUSH0 SWAP2 POP SWAP1 POP SLOAD DUP2 JUMP JUMPDEST PUSH0 PUSH1 0x5 PUSH0 SWAP1 SLOAD SWAP1 PUSH2 0x100 EXP SWAP1 DIV PUSH1 0xFF AND SWAP1 POP SWAP1 JUMP JUMPDEST PUSH0 PUSH0 PUSH0 DUP4 PUSH20 0xFFFFFFFFFFFFFFFFFFFFFFFFFFFFFFFFFFFFFFFF AND PUSH20 0xFFFFFFFFFFFFFFFFFFFFFFFFFFFFFFFFFFFFFFFF AND DUP2 MSTORE PUSH1 0x20 ADD SWAP1 DUP2 MSTORE PUSH1 0x20 ADD PUSH0 KECCAK256 SLOAD SWAP1 POP SWAP2 SWAP1 POP JUMP JUMPDEST PUSH1 0x2 DUP2 JUMP JUMPDEST PUSH32 0x241ECF16D79D0F8DBFB92CBC07FE17840425976CF0667F022FE9877CAA831B08 PUSH2 0xD43 DUP2 PUSH2 0x12FA JUMP JUMPDEST PUSH2 0xD4B PUSH2 0x1744 JUMP JUMPDEST POP JUMP JUMPDEST PUSH1 0x2 PUSH1 0xA PUSH2 0xD5C SWAP2 SWAP1 PUSH2 0x249E JUMP JUMPDEST PUSH1 0xA PUSH2 0xD68 SWAP2 SWAP1 PUSH2 0x24E8 JUMP JUMPDEST DUP2 JUMP JUMPDEST PUSH32 0x5620A1113A72B02A617976B3F6B15600DD7A8B3A916A9CA01E23119D989A0543 DUP2 JUMP JUMPDEST PUSH0 PUSH1 0x8 PUSH0 DUP4 PUSH20 0xFFFFFFFFFFFFFFFFFFFFFFFFFFFFFFFFFFFFFFFF AND PUSH20 0xFFFFFFFFFFFFFFFFFFFFFFFFFFFFFFFFFFFFFFFF AND DUP2 MSTORE PUSH1 0x20 ADD SWAP1 DUP2 MSTORE PUSH1 0x20 ADD PUSH0 KECCAK256 SLOAD TIMESTAMP LT PUSH2 0xDDC JUMPI PUSH0 SWAP1 POP PUSH2 0xE28 JUMP JUMPDEST TIMESTAMP PUSH1 0x8 PUSH0 DUP5 PUSH20 0xFFFFFFFFFFFFFFFFFFFFFFFFFFFFFFFFFFFFFFFF AND PUSH20 0xFFFFFFFFFFFFFFFFFFFFFFFFFFFFFFFFFFFFFFFF AND DUP2 MSTORE PUSH1 0x20 ADD SWAP1 DUP2 MSTORE PUSH1 0x20 ADD PUSH0 KECCAK256 SLOAD PUSH2 0xE25 SWAP2 SWAP1 PUSH2 0x2529 JUMP JUMPDEST SWAP1 POP JUMPDEST SWAP2 SWAP1 POP JUMP JUMPDEST PUSH0 PUSH1 0x6 PUSH0 DUP5 DUP2 MSTORE PUSH1 0x20 ADD SWAP1 DUP2 MSTORE PUSH1 0x20 ADD PUSH0 KECCAK256 PUSH0 ADD PUSH0 DUP4 PUSH20 0xFFFFFFFFFFFFFFFFFFFFFFFFFFFFFFFFFFFFFFFF AND PUSH20 0xFFFFFFFFFFFFFFFFFFFFFFFFFFFFFFFFFFFFFFFF AND DUP2 MSTORE PUSH1 0x20 ADD SWAP1 DUP2 MSTORE PUSH1 0x20 ADD PUSH0 KECCAK256 PUSH0 SWAP1 SLOAD SWAP1 PUSH2 0x100 EXP SWAP1 DIV PUSH1 0xFF AND SWAP1 POP SWAP3 SWAP2 POP POP JUMP JUMPDEST PUSH1 0x60 PUSH1 0x4 DUP1 SLOAD PUSH2 0xEA0 SWAP1 PUSH2 0x210D JUMP JUMPDEST DUP1 PUSH1 0x1F ADD PUSH1 0x20 DUP1 SWAP2 DIV MUL PUSH1 0x20 ADD PUSH1 0x40 MLOAD SWAP1 DUP2 ADD PUSH1 0x40 MSTORE DUP1 SWAP3 SWAP2 SWAP1 DUP2 DUP2 MSTORE PUSH1 0x20 ADD DUP3 DUP1 SLOAD PUSH2 0xECC SWAP1 PUSH2 0x210D JUMP JUMPDEST DUP1 ISZERO PUSH2 0xF17 JUMPI DUP1 PUSH1 0x1F LT PUSH2 0xEEE JUMPI PUSH2 0x100 DUP1 DUP4 SLOAD DIV MUL DUP4 MSTORE SWAP2 PUSH1 0x20 ADD SWAP2 PUSH2 0xF17 JUMP JUMPDEST DUP3 ADD SWAP2 SWAP1 PUSH0 MSTORE PUSH1 0x20 PUSH0 KECCAK256 SWAP1 JUMPDEST DUP2 SLOAD DUP2 MSTORE SWAP1 PUSH1 0x1 ADD SWAP1 PUSH1 0x20 ADD DUP1 DUP4 GT PUSH2 0xEFA JUMPI DUP3 SWAP1 SUB PUSH1 0x1F AND DUP3 ADD SWAP2 JUMPDEST POP POP POP POP POP SWAP1 POP SWAP1 JUMP JUMPDEST PUSH32 0x829B824E2329E205435D941C9F13BAF578548505283D29261236D8E6596D4636 DUP2 JUMP JUMPDEST PUSH0 PUSH0 SHL DUP2 JUMP JUMPDEST PUSH32 0x123C69CC12368838CCA6D46B7505BEC842D9E85A26AFF07E23AA57AD59DAC6BA DUP2 JUMP JUMPDEST PUSH2 0xF77 PUSH2 0x12B0 JUMP JUMPDEST PUSH32 0x241ECF16D79D0F8DBFB92CBC07FE17840425976CF0667F022FE9877CAA831B08 PUSH2 0xFA1 DUP2 PUSH2 0x12FA JUMP JUMPDEST PUSH1 0x8 PUSH0 DUP4 PUSH20 0xFFFFFFFFFFFFFFFFFFFFFFFFFFFFFFFFFFFFFFFF AND PUSH20 0xFFFFFFFFFFFFFFFFFFFFFFFFFFFFFFFFFFFFFFFF AND DUP2 MSTORE PUSH1 0x20 ADD SWAP1 DUP2 MSTORE PUSH1 0x20 ADD PUSH0 KECCAK256 SLOAD TIMESTAMP LT PUSH2 0x1020 JUMPI PUSH1 0x40 MLOAD PUSH32 0x8C379A000000000000000000000000000000000000000000000000000000000 DUP2 MSTORE PUSH1 0x4 ADD PUSH2 0x1017 SWAP1 PUSH2 0x25A6 JUMP JUMPDEST PUSH1 0x40 MLOAD DUP1 SWAP2 SUB SWAP1 REVERT JUMPDEST PUSH1 0x2 PUSH1 0xA PUSH2 0x102E SWAP2 SWAP1 PUSH2 0x249E JUMP JUMPDEST PUSH1 0xA PUSH2 0x103A SWAP2 SWAP1 PUSH2 0x24E8 JUMP JUMPDEST PUSH1 0x9 PUSH0 DUP5 PUSH20 0xFFFFFFFFFFFFFFFFFFFFFFFFFFFFFFFFFFFFFFFF AND PUSH20 0xFFFFFFFFFFFFFFFFFFFFFFFFFFFFFFFFFFFFFFFF AND DUP2 MSTORE PUSH1 0x20 ADD SWAP1 DUP2 MSTORE PUSH1 0x20 ADD PUSH0 KECCAK256 PUSH0 DUP3 DUP3 SLOAD PUSH2 0x1085 SWAP2 SWAP1 PUSH2 0x22CF JUMP JUMPDEST SWAP3 POP POP DUP2 SWAP1 SSTORE POP PUSH2 0x10AF DUP3 PUSH1 0x2 PUSH1 0xA PUSH2 0x109E SWAP2 SWAP1 PUSH2 0x249E JUMP JUMPDEST PUSH1 0xA PUSH2 0x10AA SWAP2 SWAP1 PUSH2 0x24E8 JUMP JUMPDEST PUSH2 0x17A6 JUMP JUMPDEST DUP2 PUSH20 0xFFFFFFFFFFFFFFFFFFFFFFFFFFFFFFFFFFFFFFFF AND PUSH32 0xE02A129F98418D04669038A9874F706689BA7726C0C0E82C67319EC8CA9001EA PUSH1 0x2 PUSH1 0xA PUSH2 0x10F5 SWAP2 SWAP1 PUSH2 0x249E JUMP JUMPDEST PUSH1 0xA PUSH2 0x1101 SWAP2 SWAP1 PUSH2 0x24E8 JUMP JUMPDEST PUSH1 0x40 MLOAD PUSH2 0x110E SWAP2 SWAP1 PUSH2 0x1EC8 JUMP JUMPDEST PUSH1 0x40 MLOAD DUP1 SWAP2 SUB SWAP1 LOG2 POP POP JUMP JUMPDEST PUSH0 PUSH0 PUSH2 0x1124 PUSH2 0x1297 JUMP JUMPDEST SWAP1 POP PUSH2 0x1131 DUP2 DUP6 DUP6 PUSH2 0x130E JUMP JUMPDEST PUSH1 0x1 SWAP2 POP POP SWAP3 SWAP2 POP POP JUMP JUMPDEST PUSH1 0x9 PUSH1 0x20 MSTORE DUP1 PUSH0 MSTORE PUSH1 0x40 PUSH0 KECCAK256 PUSH0 SWAP2 POP SWAP1 POP SLOAD DUP2 JUMP JUMPDEST PUSH2 0x115A DUP3 PUSH2 0x86E JUMP JUMPDEST PUSH2 0x1163 DUP2 PUSH2 0x12FA JUMP JUMPDEST PUSH2 0x116D DUP4 DUP4 PUSH2 0x15F9 JUMP JUMPDEST POP POP POP POP JUMP JUMPDEST PUSH0 PUSH1 0x1 PUSH0 DUP5 PUSH20 0xFFFFFFFFFFFFFFFFFFFFFFFFFFFFFFFFFFFFFFFF AND PUSH20 0xFFFFFFFFFFFFFFFFFFFFFFFFFFFFFFFFFFFFFFFF AND DUP2 MSTORE PUSH1 0x20 ADD SWAP1 DUP2 MSTORE PUSH1 0x20 ADD PUSH0 KECCAK256 PUSH0 DUP4 PUSH20 0xFFFFFFFFFFFFFFFFFFFFFFFFFFFFFFFFFFFFFFFF AND PUSH20 0xFFFFFFFFFFFFFFFFFFFFFFFFFFFFFFFFFFFFFFFF AND DUP2 MSTORE PUSH1 0x20 ADD SWAP1 DUP2 MSTORE PUSH1 0x20 ADD PUSH0 KECCAK256 SLOAD SWAP1 POP SWAP3 SWAP2 POP POP JUMP JUMPDEST PUSH1 0x8 PUSH1 0x20 MSTORE DUP1 PUSH0 MSTORE PUSH1 0x40 PUSH0 KECCAK256 PUSH0 SWAP2 POP SWAP1 POP SLOAD DUP2 JUMP JUMPDEST PUSH32 0x241ECF16D79D0F8DBFB92CBC07FE17840425976CF0667F022FE9877CAA831B08 DUP2 JUMP JUMPDEST PUSH0 PUSH32 0x1FFC9A700000000000000000000000000000000000000000000000000000000 PUSH28 0xFFFFFFFFFFFFFFFFFFFFFFFFFFFFFFFFFFFFFFFFFFFFFFFFFFFFFFFF NOT AND DUP3 PUSH28 0xFFFFFFFFFFFFFFFFFFFFFFFFFFFFFFFFFFFFFFFFFFFFFFFFFFFFFFFF NOT AND EQ SWAP1 POP SWAP2 SWAP1 POP JUMP JUMPDEST PUSH0 CALLER SWAP1 POP SWAP1 JUMP JUMPDEST PUSH2 0x12AB DUP4 DUP4 DUP4 PUSH1 0x1 PUSH2 0x1825 JUMP JUMPDEST POP POP POP JUMP JUMPDEST PUSH2 0x12B8 PUSH2 0xCBA JUMP JUMPDEST ISZERO PUSH2 0x12F8 JUMPI PUSH1 0x40 MLOAD PUSH32 0x8C379A000000000000000000000000000000000000000000000000000000000 DUP2 MSTORE PUSH1 0x4 ADD PUSH2 0x12EF SWAP1 PUSH2 0x260E JUMP JUMPDEST PUSH1 0x40 MLOAD DUP1 SWAP2 SUB SWAP1 REVERT JUMPDEST JUMP JUMPDEST PUSH2 0x130B DUP2 PUSH2 0x1306 PUSH2 0x1297 JUMP JUMPDEST PUSH2 0x19F4 JUMP JUMPDEST POP JUMP JUMPDEST PUSH0 PUSH20 0xFFFFFFFFFFFFFFFFFFFFFFFFFFFFFFFFFFFFFFFF AND DUP4 PUSH20 0xFFFFFFFFFFFFFFFFFFFFFFFFFFFFFFFFFFFFFFFF AND SUB PUSH2 0x137E JUMPI PUSH0 PUSH1 0x40 MLOAD PUSH32 0x96C6FD1E00000000000000000000000000000000000000000000000000000000 DUP2 MSTORE PUSH1 0x4 ADD PUSH2 0x1375 SWAP2 SWAP1 PUSH2 0x263B JUMP JUMPDEST PUSH1 0x40 MLOAD DUP1 SWAP2 SUB SWAP1 REVERT JUMPDEST PUSH0 PUSH20 0xFFFFFFFFFFFFFFFFFFFFFFFFFFFFFFFFFFFFFFFF AND DUP3 PUSH20 0xFFFFFFFFFFFFFFFFFFFFFFFFFFFFFFFFFFFFFFFF AND SUB PUSH2 0x13EE JUMPI PUSH0 PUSH1 0x40 MLOAD PUSH32 0xEC442F0500000000000000000000000000000000000000000000000000000000 DUP2 MSTORE PUSH1 0x4 ADD PUSH2 0x13E5 SWAP2 SWAP1 PUSH2 0x263B JUMP JUMPDEST PUSH1 0x40 MLOAD DUP1 SWAP2 SUB SWAP1 REVERT JUMPDEST PUSH2 0x13F9 DUP4 DUP4 DUP4 PUSH2 0x1A45 JUMP JUMPDEST POP POP POP JUMP JUMPDEST PUSH0 PUSH2 0x1409 DUP5 DUP5 PUSH2 0x1173 JUMP JUMPDEST SWAP1 POP PUSH32 0xFFFFFFFFFFFFFFFFFFFFFFFFFFFFFFFFFFFFFFFFFFFFFFFFFFFFFFFFFFFFFFFF DUP2 EQ PUSH2 0x148A JUMPI DUP2 DUP2 LT ISZERO PUSH2 0x147B JUMPI DUP3 DUP2 DUP4 PUSH1 0x40 MLOAD PUSH32 0xFB8F41B200000000000000000000000000000000000000000000000000000000 DUP2 MSTORE PUSH1 0x4 ADD PUSH2 0x1472 SWAP4 SWAP3 SWAP2 SWAP1 PUSH2 0x2654 JUMP JUMPDEST PUSH1 0x40 MLOAD DUP1 SWAP2 SUB SWAP1 REVERT JUMPDEST PUSH2 0x1489 DUP5 DUP5 DUP5 DUP5 SUB PUSH0 PUSH2 0x1825 JUMP JUMPDEST JUMPDEST POP POP POP POP JUMP JUMPDEST PUSH0 PUSH20 0xFFFFFFFFFFFFFFFFFFFFFFFFFFFFFFFFFFFFFFFF AND DUP3 PUSH20 0xFFFFFFFFFFFFFFFFFFFFFFFFFFFFFFFFFFFFFFFF AND SUB PUSH2 0x1500 JUMPI PUSH0 PUSH1 0x40 MLOAD PUSH32 0x96C6FD1E00000000000000000000000000000000000000000000000000000000 DUP2 MSTORE PUSH1 0x4 ADD PUSH2 0x14F7 SWAP2 SWAP1 PUSH2 0x263B JUMP JUMPDEST PUSH1 0x40 MLOAD DUP1 SWAP2 SUB SWAP1 REVERT JUMPDEST PUSH2 0x150B DUP3 PUSH0 DUP4 PUSH2 0x1A45 JUMP JUMPDEST POP POP JUMP JUMPDEST PUSH0 PUSH2 0x151A DUP4 DUP4 PUSH2 0xE2D JUMP JUMPDEST PUSH2 0x15EF JUMPI PUSH1 0x1 PUSH1 0x6 PUSH0 DUP6 DUP2 MSTORE PUSH1 0x20 ADD SWAP1 DUP2 MSTORE PUSH1 0x20 ADD PUSH0 KECCAK256 PUSH0 ADD PUSH0 DUP5 PUSH20 0xFFFFFFFFFFFFFFFFFFFFFFFFFFFFFFFFFFFFFFFF AND PUSH20 0xFFFFFFFFFFFFFFFFFFFFFFFFFFFFFFFFFFFFFFFF AND DUP2 MSTORE PUSH1 0x20 ADD SWAP1 DUP2 MSTORE PUSH1 0x20 ADD PUSH0 KECCAK256 PUSH0 PUSH2 0x100 EXP DUP2 SLOAD DUP2 PUSH1 0xFF MUL NOT AND SWAP1 DUP4 ISZERO ISZERO MUL OR SWAP1 SSTORE POP PUSH2 0x158C PUSH2 0x1297 JUMP JUMPDEST PUSH20 0xFFFFFFFFFFFFFFFFFFFFFFFFFFFFFFFFFFFFFFFF AND DUP3 PUSH20 0xFFFFFFFFFFFFFFFFFFFFFFFFFFFFFFFFFFFFFFFF AND DUP5 PUSH32 0x2F8788117E7EFF1D82E926EC794901D17C78024A50270940304540A733656F0D PUSH1 0x40 MLOAD PUSH1 0x40 MLOAD DUP1 SWAP2 SUB SWAP1 LOG4 PUSH1 0x1 SWAP1 POP PUSH2 0x15F3 JUMP JUMPDEST PUSH0 SWAP1 POP JUMPDEST SWAP3 SWAP2 POP POP JUMP JUMPDEST PUSH0 PUSH2 0x1604 DUP4 DUP4 PUSH2 0xE2D JUMP JUMPDEST ISZERO PUSH2 0x16D9 JUMPI PUSH0 PUSH1 0x6 PUSH0 DUP6 DUP2 MSTORE PUSH1 0x20 ADD SWAP1 DUP2 MSTORE PUSH1 0x20 ADD PUSH0 KECCAK256 PUSH0 ADD PUSH0 DUP5 PUSH20 0xFFFFFFFFFFFFFFFFFFFFFFFFFFFFFFFFFFFFFFFF AND PUSH20 0xFFFFFFFFFFFFFFFFFFFFFFFFFFFFFFFFFFFFFFFF AND DUP2 MSTORE PUSH1 0x20 ADD SWAP1 DUP2 MSTORE PUSH1 0x20 ADD PUSH0 KECCAK256 PUSH0 PUSH2 0x100 EXP DUP2 SLOAD DUP2 PUSH1 0xFF MUL NOT AND SWAP1 DUP4 ISZERO ISZERO MUL OR SWAP1 SSTORE POP PUSH2 0x1676 PUSH2 0x1297 JUMP JUMPDEST PUSH20 0xFFFFFFFFFFFFFFFFFFFFFFFFFFFFFFFFFFFFFFFF AND DUP3 PUSH20 0xFFFFFFFFFFFFFFFFFFFFFFFFFFFFFFFFFFFFFFFF AND DUP5 PUSH32 0xF6391F5C32D9C69D2A47EA670B442974B53935D1EDC7FD64EB21E047A839171B PUSH1 0x40 MLOAD PUSH1 0x40 MLOAD DUP1 SWAP2 SUB SWAP1 LOG4 PUSH1 0x1 SWAP1 POP PUSH2 0x16DD JUMP JUMPDEST PUSH0 SWAP1 POP JUMPDEST SWAP3 SWAP2 POP POP JUMP JUMPDEST PUSH2 0x16EB PUSH2 0x1C5E JUMP JUMPDEST PUSH0 PUSH1 0x5 PUSH0 PUSH2 0x100 EXP DUP2 SLOAD DUP2 PUSH1 0xFF MUL NOT AND SWAP1 DUP4 ISZERO ISZERO MUL OR SWAP1 SSTORE POP PUSH32 0x5DB9EE0A495BF2E6FF9C91A7834C1BA4FDD244A5E8AA4E537BD38AEAE4B073AA PUSH2 0x172D PUSH2 0x1297 JUMP JUMPDEST PUSH1 0x40 MLOAD PUSH2 0x173A SWAP2 SWAP1 PUSH2 0x263B JUMP JUMPDEST PUSH1 0x40 MLOAD DUP1 SWAP2 SUB SWAP1 LOG1 JUMP JUMPDEST PUSH2 0x174C PUSH2 0x12B0 JUMP JUMPDEST PUSH1 0x1 PUSH1 0x5 PUSH0 PUSH2 0x100 EXP DUP2 SLOAD DUP2 PUSH1 0xFF MUL NOT AND SWAP1 DUP4 ISZERO ISZERO MUL OR SWAP1 SSTORE POP PUSH32 0x62E78CEA01BEE320CD4E420270B5EA74000D11B0C9F74754EBDBFC544B05A258 PUSH2 0x178F PUSH2 0x1297 JUMP JUMPDEST PUSH1 0x40 MLOAD PUSH2 0x179C SWAP2 SWAP1 PUSH2 0x263B JUMP JUMPDEST PUSH1 0x40 MLOAD DUP1 SWAP2 SUB SWAP1 LOG1 JUMP JUMPDEST PUSH0 PUSH20 0xFFFFFFFFFFFFFFFFFFFFFFFFFFFFFFFFFFFFFFFF AND DUP3 PUSH20 0xFFFFFFFFFFFFFFFFFFFFFFFFFFFFFFFFFFFFFFFF AND SUB PUSH2 0x1816 JUMPI PUSH0 PUSH1 0x40 MLOAD PUSH32 0xEC442F0500000000000000000000000000000000000000000000000000000000 DUP2 MSTORE PUSH1 0x4 ADD PUSH2 0x180D SWAP2 SWAP1 PUSH2 0x263B JUMP JUMPDEST PUSH1 0x40 MLOAD DUP1 SWAP2 SUB SWAP1 REVERT JUMPDEST PUSH2 0x1821 PUSH0 DUP4 DUP4 PUSH2 0x1A45 JUMP JUMPDEST POP POP JUMP JUMPDEST PUSH0 PUSH20 0xFFFFFFFFFFFFFFFFFFFFFFFFFFFFFFFFFFFFFFFF AND DUP5 PUSH20 0xFFFFFFFFFFFFFFFFFFFFFFFFFFFFFFFFFFFFFFFF AND SUB PUSH2 0x1895 JUMPI PUSH0 PUSH1 0x40 MLOAD PUSH32 0xE602DF0500000000000000000000000000000000000000000000000000000000 DUP2 MSTORE PUSH1 0x4 ADD PUSH2 0x188C SWAP2 SWAP1 PUSH2 0x263B JUMP JUMPDEST PUSH1 0x40 MLOAD DUP1 SWAP2 SUB SWAP1 REVERT JUMPDEST PUSH0 PUSH20 0xFFFFFFFFFFFFFFFFFFFFFFFFFFFFFFFFFFFFFFFF AND DUP4 PUSH20 0xFFFFFFFFFFFFFFFFFFFFFFFFFFFFFFFFFFFFFFFF AND SUB PUSH2 0x1905 JUMPI PUSH0 PUSH1 0x40 MLOAD PUSH32 0x94280D6200000000000000000000000000000000000000000000000000000000 DUP2 MSTORE PUSH1 0x4 ADD PUSH2 0x18FC SWAP2 SWAP1 PUSH2 0x263B JUMP JUMPDEST PUSH1 0x40 MLOAD DUP1 SWAP2 SUB SWAP1 REVERT JUMPDEST DUP2 PUSH1 0x1 PUSH0 DUP7 PUSH20 0xFFFFFFFFFFFFFFFFFFFFFFFFFFFFFFFFFFFFFFFF AND PUSH20 0xFFFFFFFFFFFFFFFFFFFFFFFFFFFFFFFFFFFFFFFF AND DUP2 MSTORE PUSH1 0x20 ADD SWAP1 DUP2 MSTORE PUSH1 0x20 ADD PUSH0 KECCAK256 PUSH0 DUP6 PUSH20 0xFFFFFFFFFFFFFFFFFFFFFFFFFFFFFFFFFFFFFFFF AND PUSH20 0xFFFFFFFFFFFFFFFFFFFFFFFFFFFFFFFFFFFFFFFF AND DUP2 MSTORE PUSH1 0x20 ADD SWAP1 DUP2 MSTORE PUSH1 0x20 ADD PUSH0 KECCAK256 DUP2 SWAP1 SSTORE POP DUP1 ISZERO PUSH2 0x19EE JUMPI DUP3 PUSH20 0xFFFFFFFFFFFFFFFFFFFFFFFFFFFFFFFFFFFFFFFF AND DUP5 PUSH20 0xFFFFFFFFFFFFFFFFFFFFFFFFFFFFFFFFFFFFFFFF AND PUSH32 0x8C5BE1E5EBEC7D5BD14F71427D1E84F3DD0314C0F7B2291E5B200AC8C7C3B925 DUP5 PUSH1 0x40 MLOAD PUSH2 0x19E5 SWAP2 SWAP1 PUSH2 0x1EC8 JUMP JUMPDEST PUSH1 0x40 MLOAD DUP1 SWAP2 SUB SWAP1 LOG3 JUMPDEST POP POP POP POP JUMP JUMPDEST PUSH2 0x19FE DUP3 DUP3 PUSH2 0xE2D JUMP JUMPDEST PUSH2 0x1A41 JUMPI DUP1 DUP3 PUSH1 0x40 MLOAD PUSH32 0xE2517D3F00000000000000000000000000000000000000000000000000000000 DUP2 MSTORE PUSH1 0x4 ADD PUSH2 0x1A38 SWAP3 SWAP2 SWAP1 PUSH2 0x2689 JUMP JUMPDEST PUSH1 0x40 MLOAD DUP1 SWAP2 SUB SWAP1 REVERT JUMPDEST POP POP JUMP JUMPDEST PUSH0 PUSH20 0xFFFFFFFFFFFFFFFFFFFFFFFFFFFFFFFFFFFFFFFF AND DUP4 PUSH20 0xFFFFFFFFFFFFFFFFFFFFFFFFFFFFFFFFFFFFFFFF AND SUB PUSH2 0x1A95 JUMPI DUP1 PUSH1 0x2 PUSH0 DUP3 DUP3 SLOAD PUSH2 0x1A89 SWAP2 SWAP1 PUSH2 0x22CF JUMP JUMPDEST SWAP3 POP POP DUP2 SWAP1 SSTORE POP PUSH2 0x1B63 JUMP JUMPDEST PUSH0 PUSH0 PUSH0 DUP6 PUSH20 0xFFFFFFFFFFFFFFFFFFFFFFFFFFFFFFFFFFFFFFFF AND PUSH20 0xFFFFFFFFFFFFFFFFFFFFFFFFFFFFFFFFFFFFFFFF AND DUP2 MSTORE PUSH1 0x20 ADD SWAP1 DUP2 MSTORE PUSH1 0x20 ADD PUSH0 KECCAK256 SLOAD SWAP1 POP DUP2 DUP2 LT ISZERO PUSH2 0x1B1E JUMPI DUP4 DUP2 DUP4 PUSH1 0x40 MLOAD PUSH32 0xE450D38C00000000000000000000000000000000000000000000000000000000 DUP2 MSTORE PUSH1 0x4 ADD PUSH2 0x1B15 SWAP4 SWAP3 SWAP2 SWAP1 PUSH2 0x2654 JUMP JUMPDEST PUSH1 0x40 MLOAD DUP1 SWAP2 SUB SWAP1 REVERT JUMPDEST DUP2 DUP2 SUB PUSH0 PUSH0 DUP7 PUSH20 0xFFFFFFFFFFFFFFFFFFFFFFFFFFFFFFFFFFFFFFFF AND PUSH20 0xFFFFFFFFFFFFFFFFFFFFFFFFFFFFFFFFFFFFFFFF AND DUP2 MSTORE PUSH1 0x20 ADD SWAP1 DUP2 MSTORE PUSH1 0x20 ADD PUSH0 KECCAK256 DUP2 SWAP1 SSTORE POP POP JUMPDEST PUSH0 PUSH20 0xFFFFFFFFFFFFFFFFFFFFFFFFFFFFFFFFFFFFFFFF AND DUP3 PUSH20 0xFFFFFFFFFFFFFFFFFFFFFFFFFFFFFFFFFFFFFFFF AND SUB PUSH2 0x1BAA JUMPI DUP1 PUSH1 0x2 PUSH0 DUP3 DUP3 SLOAD SUB SWAP3 POP POP DUP2 SWAP1 SSTORE POP PUSH2 0x1BF4 JUMP JUMPDEST DUP1 PUSH0 PUSH0 DUP5 PUSH20 0xFFFFFFFFFFFFFFFFFFFFFFFFFFFFFFFFFFFFFFFF AND PUSH20 0xFFFFFFFFFFFFFFFFFFFFFFFFFFFFFFFFFFFFFFFF AND DUP2 MSTORE PUSH1 0x20 ADD SWAP1 DUP2 MSTORE PUSH1 0x20 ADD PUSH0 KECCAK256 PUSH0 DUP3 DUP3 SLOAD ADD SWAP3 POP POP DUP2 SWAP1 SSTORE POP JUMPDEST DUP2 PUSH20 0xFFFFFFFFFFFFFFFFFFFFFFFFFFFFFFFFFFFFFFFF AND DUP4 PUSH20 0xFFFFFFFFFFFFFFFFFFFFFFFFFFFFFFFFFFFFFFFF AND PUSH32 0xDDF252AD1BE2C89B69C2B068FC378DAA952BA7F163C4A11628F55A4DF523B3EF DUP4 PUSH1 0x40 MLOAD PUSH2 0x1C51 SWAP2 SWAP1 PUSH2 0x1EC8 JUMP JUMPDEST PUSH1 0x40 MLOAD DUP1 SWAP2 SUB SWAP1 LOG3 POP POP POP JUMP JUMPDEST PUSH2 0x1C66 PUSH2 0xCBA JUMP JUMPDEST PUSH2 0x1CA5 JUMPI PUSH1 0x40 MLOAD PUSH32 0x8C379A000000000000000000000000000000000000000000000000000000000 DUP2 MSTORE PUSH1 0x4 ADD PUSH2 0x1C9C SWAP1 PUSH2 0x26FA JUMP JUMPDEST PUSH1 0x40 MLOAD DUP1 SWAP2 SUB SWAP1 REVERT JUMPDEST JUMP JUMPDEST PUSH0 PUSH0 REVERT JUMPDEST PUSH0 PUSH32 0xFFFFFFFF00000000000000000000000000000000000000000000000000000000 DUP3 AND SWAP1 POP SWAP2 SWAP1 POP JUMP JUMPDEST PUSH2 0x1CDF DUP2 PUSH2 0x1CAB JUMP JUMPDEST DUP2 EQ PUSH2 0x1CE9 JUMPI PUSH0 PUSH0 REVERT JUMPDEST POP JUMP JUMPDEST PUSH0 DUP2 CALLDATALOAD SWAP1 POP PUSH2 0x1CFA DUP2 PUSH2 0x1CD6 JUMP JUMPDEST SWAP3 SWAP2 POP POP JUMP JUMPDEST PUSH0 PUSH1 0x20 DUP3 DUP5 SUB SLT ISZERO PUSH2 0x1D15 JUMPI PUSH2 0x1D14 PUSH2 0x1CA7 JUMP JUMPDEST JUMPDEST PUSH0 PUSH2 0x1D22 DUP5 DUP3 DUP6 ADD PUSH2 0x1CEC JUMP JUMPDEST SWAP2 POP POP SWAP3 SWAP2 POP POP JUMP JUMPDEST PUSH0 DUP2 ISZERO ISZERO SWAP1 POP SWAP2 SWAP1 POP JUMP JUMPDEST PUSH2 0x1D3F DUP2 PUSH2 0x1D2B JUMP JUMPDEST DUP3 MSTORE POP POP JUMP JUMPDEST PUSH0 PUSH1 0x20 DUP3 ADD SWAP1 POP PUSH2 0x1D58 PUSH0 DUP4 ADD DUP5 PUSH2 0x1D36 JUMP JUMPDEST SWAP3 SWAP2 POP POP JUMP JUMPDEST PUSH0 DUP2 MLOAD SWAP1 POP SWAP2 SWAP1 POP JUMP JUMPDEST PUSH0 DUP3 DUP3 MSTORE PUSH1 0x20 DUP3 ADD SWAP1 POP SWAP3 SWAP2 POP POP JUMP JUMPDEST DUP3 DUP2 DUP4 MCOPY PUSH0 DUP4 DUP4 ADD MSTORE POP POP POP JUMP JUMPDEST PUSH0 PUSH1 0x1F NOT PUSH1 0x1F DUP4 ADD AND SWAP1 POP SWAP2 SWAP1 POP JUMP JUMPDEST PUSH0 PUSH2 0x1DA0 DUP3 PUSH2 0x1D5E JUMP JUMPDEST PUSH2 0x1DAA DUP2 DUP6 PUSH2 0x1D68 JUMP JUMPDEST SWAP4 POP PUSH2 0x1DBA DUP2 DUP6 PUSH1 0x20 DUP7 ADD PUSH2 0x1D78 JUMP JUMPDEST PUSH2 0x1DC3 DUP2 PUSH2 0x1D86 JUMP JUMPDEST DUP5 ADD SWAP2 POP POP SWAP3 SWAP2 POP POP JUMP JUMPDEST PUSH0 PUSH1 0x20 DUP3 ADD SWAP1 POP DUP2 DUP2 SUB PUSH0 DUP4 ADD MSTORE PUSH2 0x1DE6 DUP2 DUP5 PUSH2 0x1D96 JUMP JUMPDEST SWAP1 POP SWAP3 SWAP2 POP POP JUMP JUMPDEST PUSH0 PUSH20 0xFFFFFFFFFFFFFFFFFFFFFFFFFFFFFFFFFFFFFFFF DUP3 AND SWAP1 POP SWAP2 SWAP1 POP JUMP JUMPDEST PUSH0 PUSH2 0x1E17 DUP3 PUSH2 0x1DEE JUMP JUMPDEST SWAP1 POP SWAP2 SWAP1 POP JUMP JUMPDEST PUSH2 0x1E27 DUP2 PUSH2 0x1E0D JUMP JUMPDEST DUP2 EQ PUSH2 0x1E31 JUMPI PUSH0 PUSH0 REVERT JUMPDEST POP JUMP JUMPDEST PUSH0 DUP2 CALLDATALOAD SWAP1 POP PUSH2 0x1E42 DUP2 PUSH2 0x1E1E JUMP JUMPDEST SWAP3 SWAP2 POP POP JUMP JUMPDEST PUSH0 DUP2 SWAP1 POP SWAP2 SWAP1 POP JUMP JUMPDEST PUSH2 0x1E5A DUP2 PUSH2 0x1E48 JUMP JUMPDEST DUP2 EQ PUSH2 0x1E64 JUMPI PUSH0 PUSH0 REVERT JUMPDEST POP JUMP JUMPDEST PUSH0 DUP2 CALLDATALOAD SWAP1 POP PUSH2 0x1E75 DUP2 PUSH2 0x1E51 JUMP JUMPDEST SWAP3 SWAP2 POP POP JUMP JUMPDEST PUSH0 PUSH0 PUSH1 0x40 DUP4 DUP6 SUB SLT ISZERO PUSH2 0x1E91 JUMPI PUSH2 0x1E90 PUSH2 0x1CA7 JUMP JUMPDEST JUMPDEST PUSH0 PUSH2 0x1E9E DUP6 DUP3 DUP7 ADD PUSH2 0x1E34 JUMP JUMPDEST SWAP3 POP POP PUSH1 0x20 PUSH2 0x1EAF DUP6 DUP3 DUP7 ADD PUSH2 0x1E67 JUMP JUMPDEST SWAP2 POP POP SWAP3 POP SWAP3 SWAP1 POP JUMP JUMPDEST PUSH2 0x1EC2 DUP2 PUSH2 0x1E48 JUMP JUMPDEST DUP3 MSTORE POP POP JUMP JUMPDEST PUSH0 PUSH1 0x20 DUP3 ADD SWAP1 POP PUSH2 0x1EDB PUSH0 DUP4 ADD DUP5 PUSH2 0x1EB9 JUMP JUMPDEST SWAP3 SWAP2 POP POP JUMP JUMPDEST PUSH0 PUSH0 PUSH0 PUSH1 0x60 DUP5 DUP7 SUB SLT ISZERO PUSH2 0x1EF8 JUMPI PUSH2 0x1EF7 PUSH2 0x1CA7 JUMP JUMPDEST JUMPDEST PUSH0 PUSH2 0x1F05 DUP7 DUP3 DUP8 ADD PUSH2 0x1E34 JUMP JUMPDEST SWAP4 POP POP PUSH1 0x20 PUSH2 0x1F16 DUP7 DUP3 DUP8 ADD PUSH2 0x1E34 JUMP JUMPDEST SWAP3 POP POP PUSH1 0x40 PUSH2 0x1F27 DUP7 DUP3 DUP8 ADD PUSH2 0x1E67 JUMP JUMPDEST SWAP2 POP POP SWAP3 POP SWAP3 POP SWAP3 JUMP JUMPDEST PUSH0 DUP2 SWAP1 POP SWAP2 SWAP1 POP JUMP JUMPDEST PUSH2 0x1F43 DUP2 PUSH2 0x1F31 JUMP JUMPDEST DUP2 EQ PUSH2 0x1F4D JUMPI PUSH0 PUSH0 REVERT JUMPDEST POP JUMP JUMPDEST PUSH0 DUP2 CALLDATALOAD SWAP1 POP PUSH2 0x1F5E DUP2 PUSH2 0x1F3A JUMP JUMPDEST SWAP3 SWAP2 POP POP JUMP JUMPDEST PUSH0 PUSH1 0x20 DUP3 DUP5 SUB SLT ISZERO PUSH2 0x1F79 JUMPI PUSH2 0x1F78 PUSH2 0x1CA7 JUMP JUMPDEST JUMPDEST PUSH0 PUSH2 0x1F86 DUP5 DUP3 DUP6 ADD PUSH2 0x1F50 JUMP JUMPDEST SWAP2 POP POP SWAP3 SWAP2 POP POP JUMP JUMPDEST PUSH2 0x1F98 DUP2 PUSH2 0x1F31 JUMP JUMPDEST DUP3 MSTORE POP POP JUMP JUMPDEST PUSH0 PUSH1 0x20 DUP3 ADD SWAP1 POP PUSH2 0x1FB1 PUSH0 DUP4 ADD DUP5 PUSH2 0x1F8F JUMP JUMPDEST SWAP3 SWAP2 POP POP JUMP JUMPDEST PUSH1 0x3 DUP2 LT PUSH2 0x1FC3 JUMPI PUSH0 PUSH0 REVERT JUMPDEST POP JUMP JUMPDEST PUSH0 DUP2 CALLDATALOAD SWAP1 POP PUSH2 0x1FD4 DUP2 PUSH2 0x1FB7 JUMP JUMPDEST SWAP3 SWAP2 POP POP JUMP JUMPDEST PUSH0 PUSH1 0x20 DUP3 DUP5 SUB SLT ISZERO PUSH2 0x1FEF JUMPI PUSH2 0x1FEE PUSH2 0x1CA7 JUMP JUMPDEST JUMPDEST PUSH0 PUSH2 0x1FFC DUP5 DUP3 DUP6 ADD PUSH2 0x1FC6 JUMP JUMPDEST SWAP2 POP POP SWAP3 SWAP2 POP POP JUMP JUMPDEST PUSH0 PUSH0 PUSH1 0x40 DUP4 DUP6 SUB SLT ISZERO PUSH2 0x201B JUMPI PUSH2 0x201A PUSH2 0x1CA7 JUMP JUMPDEST JUMPDEST PUSH0 PUSH2 0x2028 DUP6 DUP3 DUP7 ADD PUSH2 0x1F50 JUMP JUMPDEST SWAP3 POP POP PUSH1 0x20 PUSH2 0x2039 DUP6 DUP3 DUP7 ADD PUSH2 0x1E34 JUMP JUMPDEST SWAP2 POP POP SWAP3 POP SWAP3 SWAP1 POP JUMP JUMPDEST PUSH0 PUSH1 0xFF DUP3 AND SWAP1 POP SWAP2 SWAP1 POP JUMP JUMPDEST PUSH2 0x2058 DUP2 PUSH2 0x2043 JUMP JUMPDEST DUP3 MSTORE POP POP JUMP JUMPDEST PUSH0 PUSH1 0x20 DUP3 ADD SWAP1 POP PUSH2 0x2071 PUSH0 DUP4 ADD DUP5 PUSH2 0x204F JUMP JUMPDEST SWAP3 SWAP2 POP POP JUMP JUMPDEST PUSH0 PUSH1 0x20 DUP3 DUP5 SUB SLT ISZERO PUSH2 0x208C JUMPI PUSH2 0x208B PUSH2 0x1CA7 JUMP JUMPDEST JUMPDEST PUSH0 PUSH2 0x2099 DUP5 DUP3 DUP6 ADD PUSH2 0x1E34 JUMP JUMPDEST SWAP2 POP POP SWAP3 SWAP2 POP POP JUMP JUMPDEST PUSH0 PUSH0 PUSH1 0x40 DUP4 DUP6 SUB SLT ISZERO PUSH2 0x20B8 JUMPI PUSH2 0x20B7 PUSH2 0x1CA7 JUMP JUMPDEST JUMPDEST PUSH0 PUSH2 0x20C5 DUP6 DUP3 DUP7 ADD PUSH2 0x1E34 JUMP JUMPDEST SWAP3 POP POP PUSH1 0x20 PUSH2 0x20D6 DUP6 DUP3 DUP7 ADD PUSH2 0x1E34 JUMP JUMPDEST SWAP2 POP POP SWAP3 POP SWAP3 SWAP1 POP JUMP JUMPDEST PUSH32 0x4E487B7100000000000000000000000000000000000000000000000000000000 PUSH0 MSTORE PUSH1 0x22 PUSH1 0x4 MSTORE PUSH1 0x24 PUSH0 REVERT JUMPDEST PUSH0 PUSH1 0x2 DUP3 DIV SWAP1 POP PUSH1 0x1 DUP3 AND DUP1 PUSH2 0x2124 JUMPI PUSH1 0x7F DUP3 AND SWAP2 POP JUMPDEST PUSH1 0x20 DUP3 LT DUP2 SUB PUSH2 0x2137 JUMPI PUSH2 0x2136 PUSH2 0x20E0 JUMP JUMPDEST JUMPDEST POP SWAP2 SWAP1 POP JUMP JUMPDEST PUSH32 0x496E73756666696369656E742062616C616E6365000000000000000000000000 PUSH0 DUP3 ADD MSTORE POP JUMP JUMPDEST PUSH0 PUSH2 0x2171 PUSH1 0x14 DUP4 PUSH2 0x1D68 JUMP JUMPDEST SWAP2 POP PUSH2 0x217C DUP3 PUSH2 0x213D JUMP JUMPDEST PUSH1 0x20 DUP3 ADD SWAP1 POP SWAP2 SWAP1 POP JUMP JUMPDEST PUSH0 PUSH1 0x20 DUP3 ADD SWAP1 POP DUP2 DUP2 SUB PUSH0 DUP4 ADD MSTORE PUSH2 0x219E DUP2 PUSH2 0x2165 JUMP JUMPDEST SWAP1 POP SWAP2 SWAP1 POP JUMP JUMPDEST PUSH32 0x43616C6C6572206973206E6F742061206D656D62657200000000000000000000 PUSH0 DUP3 ADD MSTORE POP JUMP JUMPDEST PUSH0 PUSH2 0x21D9 PUSH1 0x16 DUP4 PUSH2 0x1D68 JUMP JUMPDEST SWAP2 POP PUSH2 0x21E4 DUP3 PUSH2 0x21A5 JUMP JUMPDEST PUSH1 0x20 DUP3 ADD SWAP1 POP SWAP2 SWAP1 POP JUMP JUMPDEST PUSH0 PUSH1 0x20 DUP3 ADD SWAP1 POP DUP2 DUP2 SUB PUSH0 DUP4 ADD MSTORE PUSH2 0x2206 DUP2 PUSH2 0x21CD JUMP JUMPDEST SWAP1 POP SWAP2 SWAP1 POP JUMP JUMPDEST PUSH32 0x4E487B7100000000000000000000000000000000000000000000000000000000 PUSH0 MSTORE PUSH1 0x21 PUSH1 0x4 MSTORE PUSH1 0x24 PUSH0 REVERT JUMPDEST PUSH32 0x496E76616C6964206D656D626572736869702074797065000000000000000000 PUSH0 DUP3 ADD MSTORE POP JUMP JUMPDEST PUSH0 PUSH2 0x226E PUSH1 0x17 DUP4 PUSH2 0x1D68 JUMP JUMPDEST SWAP2 POP PUSH2 0x2279 DUP3 PUSH2 0x223A JUMP JUMPDEST PUSH1 0x20 DUP3 ADD SWAP1 POP SWAP2 SWAP1 POP JUMP JUMPDEST PUSH0 PUSH1 0x20 DUP3 ADD SWAP1 POP DUP2 DUP2 SUB PUSH0 DUP4 ADD MSTORE PUSH2 0x229B DUP2 PUSH2 0x2262 JUMP JUMPDEST SWAP1 POP SWAP2 SWAP1 POP JUMP JUMPDEST PUSH32 0x4E487B7100000000000000000000000000000000000000000000000000000000 PUSH0 MSTORE PUSH1 0x11 PUSH1 0x4 MSTORE PUSH1 0x24 PUSH0 REVERT JUMPDEST PUSH0 PUSH2 0x22D9 DUP3 PUSH2 0x1E48 JUMP JUMPDEST SWAP2 POP PUSH2 0x22E4 DUP4 PUSH2 0x1E48 JUMP JUMPDEST SWAP3 POP DUP3 DUP3 ADD SWAP1 POP DUP1 DUP3 GT ISZERO PUSH2 0x22FC JUMPI PUSH2 0x22FB PUSH2 0x22A2 JUMP JUMPDEST JUMPDEST SWAP3 SWAP2 POP POP JUMP JUMPDEST PUSH1 0x3 DUP2 LT PUSH2 0x2313 JUMPI PUSH2 0x2312 PUSH2 0x220D JUMP JUMPDEST JUMPDEST POP JUMP JUMPDEST PUSH0 DUP2 SWAP1 POP PUSH2 0x2323 DUP3 PUSH2 0x2302 JUMP JUMPDEST SWAP2 SWAP1 POP JUMP JUMPDEST PUSH0 PUSH2 0x2332 DUP3 PUSH2 0x2316 JUMP JUMPDEST SWAP1 POP SWAP2 SWAP1 POP JUMP JUMPDEST PUSH2 0x2342 DUP2 PUSH2 0x2328 JUMP JUMPDEST DUP3 MSTORE POP POP JUMP JUMPDEST PUSH0 PUSH1 0x40 DUP3 ADD SWAP1 POP PUSH2 0x235B PUSH0 DUP4 ADD DUP6 PUSH2 0x2339 JUMP JUMPDEST PUSH2 0x2368 PUSH1 0x20 DUP4 ADD DUP5 PUSH2 0x1EB9 JUMP JUMPDEST SWAP4 SWAP3 POP POP POP JUMP JUMPDEST PUSH0 DUP2 PUSH1 0x1 SHR SWAP1 POP SWAP2 SWAP1 POP JUMP JUMPDEST PUSH0 PUSH0 DUP3 SWAP2 POP DUP4 SWAP1 POP JUMPDEST PUSH1 0x1 DUP6 GT ISZERO PUSH2 0x23C4 JUMPI DUP1 DUP7 DIV DUP2 GT ISZERO PUSH2 0x23A0 JUMPI PUSH2 0x239F PUSH2 0x22A2 JUMP JUMPDEST JUMPDEST PUSH1 0x1 DUP6 AND ISZERO PUSH2 0x23AF JUMPI DUP1 DUP3 MUL SWAP2 POP JUMPDEST DUP1 DUP2 MUL SWAP1 POP PUSH2 0x23BD DUP6 PUSH2 0x236F JUMP JUMPDEST SWAP5 POP PUSH2 0x2384 JUMP JUMPDEST SWAP5 POP SWAP5 SWAP3 POP POP POP JUMP JUMPDEST PUSH0 DUP3 PUSH2 0x23DC JUMPI PUSH1 0x1 SWAP1 POP PUSH2 0x2497 JUMP JUMPDEST DUP2 PUSH2 0x23E9 JUMPI PUSH0 SWAP1 POP PUSH2 0x2497 JUMP JUMPDEST DUP2 PUSH1 0x1 DUP2 EQ PUSH2 0x23FF JUMPI PUSH1 0x2 DUP2 EQ PUSH2 0x2409 JUMPI PUSH2 0x2438 JUMP JUMPDEST PUSH1 0x1 SWAP2 POP POP PUSH2 0x2497 JUMP JUMPDEST PUSH1 0xFF DUP5 GT ISZERO PUSH2 0x241B JUMPI PUSH2 0x241A PUSH2 0x22A2 JUMP JUMPDEST JUMPDEST DUP4 PUSH1 0x2 EXP SWAP2 POP DUP5 DUP3 GT ISZERO PUSH2 0x2432 JUMPI PUSH2 0x2431 PUSH2 0x22A2 JUMP JUMPDEST JUMPDEST POP PUSH2 0x2497 JUMP JUMPDEST POP PUSH1 0x20 DUP4 LT PUSH2 0x133 DUP4 LT AND PUSH1 0x4E DUP5 LT PUSH1 0xB DUP5 LT AND OR ISZERO PUSH2 0x246D JUMPI DUP3 DUP3 EXP SWAP1 POP DUP4 DUP2 GT ISZERO PUSH2 0x2468 JUMPI PUSH2 0x2467 PUSH2 0x22A2 JUMP JUMPDEST JUMPDEST PUSH2 0x2497 JUMP JUMPDEST PUSH2 0x247A DUP5 DUP5 DUP5 PUSH1 0x1 PUSH2 0x237B JUMP JUMPDEST SWAP3 POP SWAP1 POP DUP2 DUP5 DIV DUP2 GT ISZERO PUSH2 0x2491 JUMPI PUSH2 0x2490 PUSH2 0x22A2 JUMP JUMPDEST JUMPDEST DUP2 DUP2 MUL SWAP1 POP JUMPDEST SWAP4 SWAP3 POP POP POP JUMP JUMPDEST PUSH0 PUSH2 0x24A8 DUP3 PUSH2 0x1E48 JUMP JUMPDEST SWAP2 POP PUSH2 0x24B3 DUP4 PUSH2 0x2043 JUMP JUMPDEST SWAP3 POP PUSH2 0x24E0 PUSH32 0xFFFFFFFFFFFFFFFFFFFFFFFFFFFFFFFFFFFFFFFFFFFFFFFFFFFFFFFFFFFFFFFF DUP5 DUP5 PUSH2 0x23CD JUMP JUMPDEST SWAP1 POP SWAP3 SWAP2 POP POP JUMP JUMPDEST PUSH0 PUSH2 0x24F2 DUP3 PUSH2 0x1E48 JUMP JUMPDEST SWAP2 POP PUSH2 0x24FD DUP4 PUSH2 0x1E48 JUMP JUMPDEST SWAP3 POP DUP3 DUP3 MUL PUSH2 0x250B DUP2 PUSH2 0x1E48 JUMP JUMPDEST SWAP2 POP DUP3 DUP3 DIV DUP5 EQ DUP4 ISZERO OR PUSH2 0x2522 JUMPI PUSH2 0x2521 PUSH2 0x22A2 JUMP JUMPDEST JUMPDEST POP SWAP3 SWAP2 POP POP JUMP JUMPDEST PUSH0 PUSH2 0x2533 DUP3 PUSH2 0x1E48 JUMP JUMPDEST SWAP2 POP PUSH2 0x253E DUP4 PUSH2 0x1E48 JUMP JUMPDEST SWAP3 POP DUP3 DUP3 SUB SWAP1 POP DUP2 DUP2 GT ISZERO PUSH2 0x2556 JUMPI PUSH2 0x2555 PUSH2 0x22A2 JUMP JUMPDEST JUMPDEST SWAP3 SWAP2 POP POP JUMP JUMPDEST PUSH32 0x5265666572726572206D656D6265727368697020657870697265640000000000 PUSH0 DUP3 ADD MSTORE POP JUMP JUMPDEST PUSH0 PUSH2 0x2590 PUSH1 0x1B DUP4 PUSH2 0x1D68 JUMP JUMPDEST SWAP2 POP PUSH2 0x259B DUP3 PUSH2 0x255C JUMP JUMPDEST PUSH1 0x20 DUP3 ADD SWAP1 POP SWAP2 SWAP1 POP JUMP JUMPDEST PUSH0 PUSH1 0x20 DUP3 ADD SWAP1 POP DUP2 DUP2 SUB PUSH0 DUP4 ADD MSTORE PUSH2 0x25BD DUP2 PUSH2 0x2584 JUMP JUMPDEST SWAP1 POP SWAP2 SWAP1 POP JUMP JUMPDEST PUSH32 0x5061757361626C653A2070617573656400000000000000000000000000000000 PUSH0 DUP3 ADD MSTORE POP JUMP JUMPDEST PUSH0 PUSH2 0x25F8 PUSH1 0x10 DUP4 PUSH2 0x1D68 JUMP JUMPDEST SWAP2 POP PUSH2 0x2603 DUP3 PUSH2 0x25C4 JUMP JUMPDEST PUSH1 0x20 DUP3 ADD SWAP1 POP SWAP2 SWAP1 POP JUMP JUMPDEST PUSH0 PUSH1 0x20 DUP3 ADD SWAP1 POP DUP2 DUP2 SUB PUSH0 DUP4 ADD MSTORE PUSH2 0x2625 DUP2 PUSH2 0x25EC JUMP JUMPDEST SWAP1 POP SWAP2 SWAP1 POP JUMP JUMPDEST PUSH2 0x2635 DUP2 PUSH2 0x1E0D JUMP JUMPDEST DUP3 MSTORE POP POP JUMP JUMPDEST PUSH0 PUSH1 0x20 DUP3 ADD SWAP1 POP PUSH2 0x264E PUSH0 DUP4 ADD DUP5 PUSH2 0x262C JUMP JUMPDEST SWAP3 SWAP2 POP POP JUMP JUMPDEST PUSH0 PUSH1 0x60 DUP3 ADD SWAP1 POP PUSH2 0x2667 PUSH0 DUP4 ADD DUP7 PUSH2 0x262C JUMP JUMPDEST PUSH2 0x2674 PUSH1 0x20 DUP4 ADD DUP6 PUSH2 0x1EB9 JUMP JUMPDEST PUSH2 0x2681 PUSH1 0x40 DUP4 ADD DUP5 PUSH2 0x1EB9 JUMP JUMPDEST SWAP5 SWAP4 POP POP POP POP JUMP JUMPDEST PUSH0 PUSH1 0x40 DUP3 ADD SWAP1 POP PUSH2 0x269C PUSH0 DUP4 ADD DUP6 PUSH2 0x262C JUMP JUMPDEST PUSH2 0x26A9 PUSH1 0x20 DUP4 ADD DUP5 PUSH2 0x1F8F JUMP JUMPDEST SWAP4 SWAP3 POP POP POP JUMP JUMPDEST PUSH32 0x5061757361626C653A206E6F7420706175736564000000000000000000000000 PUSH0 DUP3 ADD MSTORE POP JUMP JUMPDEST PUSH0 PUSH2 0x26E4 PUSH1 0x14 DUP4 PUSH2 0x1D68 JUMP JUMPDEST SWAP2 POP PUSH2 0x26EF DUP3 PUSH2 0x26B0 JUMP JUMPDEST PUSH1 0x20 DUP3 ADD SWAP1 POP SWAP2 SWAP1 POP JUMP JUMPDEST PUSH0 PUSH1 0x20 DUP3 ADD SWAP1 POP DUP2 DUP2 SUB PUSH0 DUP4 ADD MSTORE PUSH2 0x2711 DUP2 PUSH2 0x26D8 JUMP JUMPDEST SWAP1 POP SWAP2 SWAP1 POP JUMP INVALID LOG2 PUSH5 0x6970667358 0x22 SLT KECCAK256 0xEF 0xD2 PUSH15 0x149AE0F01F2E76854DBD775D570805 SWAP13 MULMOD 0x2F 0xE3 CALLVALUE PUSH14 0xBCC79DCF2836B12564736F6C6343 STOP ADDMOD SHR STOP CALLER "
				},
				"gasEstimates": {
					"creation": {
						"codeDepositCost": "2012400",
						"executionCost": "infinite",
						"totalCost": "infinite"
					},
					"external": {
						"DEFAULT_ADMIN_ROLE()": "374",
						"INITIAL_SUPPLY()": "infinite",
						"MANAGER_ROLE()": "457",
						"MEMBER_ROLE()": "436",
						"REFERRAL_REWARD()": "infinite",
						"STAFF_ROLE()": "437",
						"TRAINER_ROLE()": "392",
						"allowance(address,address)": "infinite",
						"approve(address,uint256)": "infinite",
						"balanceOf(address)": "2939",
						"decimal()": "377",
						"decimals()": "428",
						"getRemainingMembershipTime(address)": "infinite",
						"getRoleAdmin(bytes32)": "infinite",
						"grantRole(bytes32,address)": "infinite",
						"hasRole(bytes32,address)": "3188",
						"membershipExpiry(address)": "2912",
						"membershipPrices(uint8)": "2779",
						"name()": "infinite",
						"pause()": "infinite",
						"paused()": "2562",
						"payStaff(address,uint256)": "infinite",
						"purchaseMembership(uint8)": "infinite",
						"referralBonuses(address)": "2846",
						"renounceRole(bytes32,address)": "infinite",
						"revokeRole(bytes32,address)": "infinite",
						"rewardReferral(address)": "infinite",
						"supportsInterface(bytes4)": "764",
						"symbol()": "infinite",
						"totalSupply()": "2478",
						"transfer(address,uint256)": "infinite",
						"transferFrom(address,address,uint256)": "infinite",
						"unpause()": "infinite"
					}
				},
				"methodIdentifiers": {
					"DEFAULT_ADMIN_ROLE()": "a217fddf",
					"INITIAL_SUPPLY()": "2ff2e9dc",
					"MANAGER_ROLE()": "ec87621c",
					"MEMBER_ROLE()": "a10f469e",
					"REFERRAL_REWARD()": "84a3a0f3",
					"STAFF_ROLE()": "85290fa1",
					"TRAINER_ROLE()": "a61b93cc",
					"allowance(address,address)": "dd62ed3e",
					"approve(address,uint256)": "095ea7b3",
					"balanceOf(address)": "70a08231",
					"decimal()": "76809ce3",
					"decimals()": "313ce567",
					"getRemainingMembershipTime(address)": "8621026a",
					"getRoleAdmin(bytes32)": "248a9ca3",
					"grantRole(bytes32,address)": "2f2ff15d",
					"hasRole(bytes32,address)": "91d14854",
					"membershipExpiry(address)": "ea4bbaf4",
					"membershipPrices(uint8)": "4b6e2331",
					"name()": "06fdde03",
					"pause()": "8456cb59",
					"paused()": "5c975abb",
					"payStaff(address,uint256)": "0ca2a400",
					"purchaseMembership(uint8)": "265a5eea",
					"referralBonuses(address)": "b4694876",
					"renounceRole(bytes32,address)": "36568abe",
					"revokeRole(bytes32,address)": "d547741f",
					"rewardReferral(address)": "a683dfab",
					"supportsInterface(bytes4)": "01ffc9a7",
					"symbol()": "95d89b41",
					"totalSupply()": "18160ddd",
					"transfer(address,uint256)": "a9059cbb",
					"transferFrom(address,address,uint256)": "23b872dd",
					"unpause()": "3f4ba83a"
				}
			},
			"storageLayout": {
				"storage": [
					{
						"astId": 646,
						"contract": "GymTokenSmartContracts/GymToken.sol:GymToken",
						"label": "_balances",
						"offset": 0,
						"slot": "0",
						"type": "t_mapping(t_address,t_uint256)"
					},
					{
						"astId": 652,
						"contract": "GymTokenSmartContracts/GymToken.sol:GymToken",
						"label": "_allowances",
						"offset": 0,
						"slot": "1",
						"type": "t_mapping(t_address,t_mapping(t_address,t_uint256))"
					},
					{
						"astId": 654,
						"contract": "GymTokenSmartContracts/GymToken.sol:GymToken",
						"label": "_totalSupply",
						"offset": 0,
						"slot": "2",
						"type": "t_uint256"
					},
					{
						"astId": 656,
						"contract": "GymTokenSmartContracts/GymToken.sol:GymToken",
						"label": "_name",
						"offset": 0,
						"slot": "3",
						"type": "t_string_storage"
					},
					{
						"astId": 658,
						"contract": "GymTokenSmartContracts/GymToken.sol:GymToken",
						"label": "_symbol",
						"offset": 0,
						"slot": "4",
						"type": "t_string_storage"
					},
					{
						"astId": 533,
						"contract": "GymTokenSmartContracts/GymToken.sol:GymToken",
						"label": "_paused",
						"offset": 0,
						"slot": "5",
						"type": "t_bool"
					},
					{
						"astId": 26,
						"contract": "GymTokenSmartContracts/GymToken.sol:GymToken",
						"label": "_roles",
						"offset": 0,
						"slot": "6",
						"type": "t_mapping(t_bytes32,t_struct(RoleData)21_storage)"
					},
					{
						"astId": 1367,
						"contract": "GymTokenSmartContracts/GymToken.sol:GymToken",
						"label": "membershipPrices",
						"offset": 0,
						"slot": "7",
						"type": "t_mapping(t_enum(MEMBERSHIP_TYPE)1362,t_uint256)"
					},
					{
						"astId": 1371,
						"contract": "GymTokenSmartContracts/GymToken.sol:GymToken",
						"label": "membershipExpiry",
						"offset": 0,
						"slot": "8",
						"type": "t_mapping(t_address,t_uint256)"
					},
					{
						"astId": 1375,
						"contract": "GymTokenSmartContracts/GymToken.sol:GymToken",
						"label": "referralBonuses",
						"offset": 0,
						"slot": "9",
						"type": "t_mapping(t_address,t_uint256)"
					}
				],
				"types": {
					"t_address": {
						"encoding": "inplace",
						"label": "address",
						"numberOfBytes": "20"
					},
					"t_bool": {
						"encoding": "inplace",
						"label": "bool",
						"numberOfBytes": "1"
					},
					"t_bytes32": {
						"encoding": "inplace",
						"label": "bytes32",
						"numberOfBytes": "32"
					},
					"t_enum(MEMBERSHIP_TYPE)1362": {
						"encoding": "inplace",
						"label": "enum GymToken.MEMBERSHIP_TYPE",
						"numberOfBytes": "1"
					},
					"t_mapping(t_address,t_bool)": {
						"encoding": "mapping",
						"key": "t_address",
						"label": "mapping(address => bool)",
						"numberOfBytes": "32",
						"value": "t_bool"
					},
					"t_mapping(t_address,t_mapping(t_address,t_uint256))": {
						"encoding": "mapping",
						"key": "t_address",
						"label": "mapping(address => mapping(address => uint256))",
						"numberOfBytes": "32",
						"value": "t_mapping(t_address,t_uint256)"
					},
					"t_mapping(t_address,t_uint256)": {
						"encoding": "mapping",
						"key": "t_address",
						"label": "mapping(address => uint256)",
						"numberOfBytes": "32",
						"value": "t_uint256"
					},
					"t_mapping(t_bytes32,t_struct(RoleData)21_storage)": {
						"encoding": "mapping",
						"key": "t_bytes32",
						"label": "mapping(bytes32 => struct AccessControl.RoleData)",
						"numberOfBytes": "32",
						"value": "t_struct(RoleData)21_storage"
					},
					"t_mapping(t_enum(MEMBERSHIP_TYPE)1362,t_uint256)": {
						"encoding": "mapping",
						"key": "t_enum(MEMBERSHIP_TYPE)1362",
						"label": "mapping(enum GymToken.MEMBERSHIP_TYPE => uint256)",
						"numberOfBytes": "32",
						"value": "t_uint256"
					},
					"t_string_storage": {
						"encoding": "bytes",
						"label": "string",
						"numberOfBytes": "32"
					},
					"t_struct(RoleData)21_storage": {
						"encoding": "inplace",
						"label": "struct AccessControl.RoleData",
						"members": [
							{
								"astId": 18,
								"contract": "GymTokenSmartContracts/GymToken.sol:GymToken",
								"label": "hasRole",
								"offset": 0,
								"slot": "0",
								"type": "t_mapping(t_address,t_bool)"
							},
							{
								"astId": 20,
								"contract": "GymTokenSmartContracts/GymToken.sol:GymToken",
								"label": "adminRole",
								"offset": 0,
								"slot": "1",
								"type": "t_bytes32"
							}
						],
						"numberOfBytes": "64"
					},
					"t_uint256": {
						"encoding": "inplace",
						"label": "uint256",
						"numberOfBytes": "32"
					}
				}
			},
			"userdoc": {
				"kind": "user",
				"methods": {},
				"version": 1
			}
		}
	}
}